{
	"contracts/EventTrigger.sol": {
		"ItemManager": {
			"abi": [
				{
					"anonymous": false,
					"inputs": [
						{
							"indexed": false,
							"internalType": "uint256",
							"name": "_itemIndex",
							"type": "uint256"
						},
						{
							"indexed": false,
							"internalType": "uint256",
							"name": "_step",
							"type": "uint256"
						}
					],
					"name": "SupplyChainStep",
					"type": "event"
				},
				{
					"inputs": [
						{
							"internalType": "string",
							"name": "_identifier",
							"type": "string"
						},
						{
							"internalType": "uint256",
							"name": "_priceInWei",
							"type": "uint256"
						}
					],
					"name": "createItem",
					"outputs": [],
					"stateMutability": "nonpayable",
					"type": "function"
				},
				{
					"inputs": [
						{
							"internalType": "uint256",
							"name": "",
							"type": "uint256"
						}
					],
					"name": "items",
					"outputs": [
						{
							"internalType": "enum ItemManager.SupplyChainSteps",
							"name": "_step",
							"type": "uint8"
						},
						{
							"internalType": "string",
							"name": "identifier",
							"type": "string"
						},
						{
							"internalType": "uint256",
							"name": "priceInWei",
							"type": "uint256"
						}
					],
					"stateMutability": "view",
					"type": "function"
				},
				{
					"inputs": [
						{
							"internalType": "uint256",
							"name": "_itemIndex",
							"type": "uint256"
						}
					],
					"name": "triggerPayment",
					"outputs": [],
					"stateMutability": "payable",
					"type": "function"
				}
			],
			"devdoc": {
				"kind": "dev",
				"methods": {},
				"version": 1
			},
			"evm": {
				"assembly": "    /* \"contracts/EventTrigger.sol\":61:1109  contract ItemManager{\r... */\n  mstore(0x40, 0x80)\n  callvalue\n  dup1\n  iszero\n  tag_1\n  jumpi\n  0x00\n  dup1\n  revert\ntag_1:\n  pop\n  dataSize(sub_0)\n  dup1\n  dataOffset(sub_0)\n  0x00\n  codecopy\n  0x00\n  return\nstop\n\nsub_0: assembly {\n        /* \"contracts/EventTrigger.sol\":61:1109  contract ItemManager{\r... */\n      mstore(0x40, 0x80)\n      jumpi(tag_1, lt(calldatasize, 0x04))\n      shr(0xe0, calldataload(0x00))\n      dup1\n      0x800fb83f\n      eq\n      tag_2\n      jumpi\n      dup1\n      0x8c551742\n      eq\n      tag_3\n      jumpi\n      dup1\n      0xbfb231d2\n      eq\n      tag_4\n      jumpi\n    tag_1:\n      0x00\n      dup1\n      revert\n        /* \"contracts/EventTrigger.sol\":744:1100  function triggerPayment(uint _itemIndex) public payable {\r... */\n    tag_2:\n      tag_5\n      0x04\n      dup1\n      calldatasize\n      sub\n      dup2\n      add\n      swap1\n      tag_6\n      swap2\n      swap1\n      tag_7\n      jump\t// in\n    tag_6:\n      tag_8\n      jump\t// in\n    tag_5:\n      stop\n        /* \"contracts/EventTrigger.sol\":395:736  function createItem(string memory _identifier, uint _priceInWei) public {\r... */\n    tag_3:\n      callvalue\n      dup1\n      iszero\n      tag_9\n      jumpi\n      0x00\n      dup1\n      revert\n    tag_9:\n      pop\n      tag_10\n      0x04\n      dup1\n      calldatasize\n      sub\n      dup2\n      add\n      swap1\n      tag_11\n      swap2\n      swap1\n      tag_12\n      jump\t// in\n    tag_11:\n      tag_13\n      jump\t// in\n    tag_10:\n      stop\n        /* \"contracts/EventTrigger.sol\":273:310  mapping (uint => S_Item) public items */\n    tag_4:\n      callvalue\n      dup1\n      iszero\n      tag_14\n      jumpi\n      0x00\n      dup1\n      revert\n    tag_14:\n      pop\n      tag_15\n      0x04\n      dup1\n      calldatasize\n      sub\n      dup2\n      add\n      swap1\n      tag_16\n      swap2\n      swap1\n      tag_7\n      jump\t// in\n    tag_16:\n      tag_17\n      jump\t// in\n    tag_15:\n      mload(0x40)\n      tag_18\n      swap4\n      swap3\n      swap2\n      swap1\n      tag_19\n      jump\t// in\n    tag_18:\n      mload(0x40)\n      dup1\n      swap2\n      sub\n      swap1\n      return\n        /* \"contracts/EventTrigger.sol\":744:1100  function triggerPayment(uint _itemIndex) public payable {\r... */\n    tag_8:\n        /* \"contracts/EventTrigger.sol\":832:837  items */\n      0x00\n        /* \"contracts/EventTrigger.sol\":832:849  items[_itemIndex] */\n      dup1\n        /* \"contracts/EventTrigger.sol\":838:848  _itemIndex */\n      dup3\n        /* \"contracts/EventTrigger.sol\":832:849  items[_itemIndex] */\n      dup2\n      mstore\n      0x20\n      add\n      swap1\n      dup2\n      mstore\n      0x20\n      add\n      0x00\n      keccak256\n        /* \"contracts/EventTrigger.sol\":832:860  items[_itemIndex].priceInWei */\n      0x02\n      add\n      sload\n        /* \"contracts/EventTrigger.sol\":819:828  msg.value */\n      callvalue\n        /* \"contracts/EventTrigger.sol\":819:860  msg.value >= items[_itemIndex].priceInWei */\n      lt\n      iszero\n        /* \"contracts/EventTrigger.sol\":811:893  require(msg.value >= items[_itemIndex].priceInWei, \"You do not have enough ether\") */\n      tag_21\n      jumpi\n      mload(0x40)\n      0x08c379a000000000000000000000000000000000000000000000000000000000\n      dup2\n      mstore\n      0x04\n      add\n      tag_22\n      swap1\n      tag_23\n      jump\t// in\n    tag_22:\n      mload(0x40)\n      dup1\n      swap2\n      sub\n      swap1\n      revert\n    tag_21:\n        /* \"contracts/EventTrigger.sol\":939:963  SupplyChainSteps.Created */\n      0x00\n        /* \"contracts/EventTrigger.sol\":912:963  items[_itemIndex]._step == SupplyChainSteps.Created */\n      0x02\n      dup2\n      gt\n      iszero\n      tag_24\n      jumpi\n      tag_25\n      tag_26\n      jump\t// in\n    tag_25:\n    tag_24:\n        /* \"contracts/EventTrigger.sol\":912:917  items */\n      0x00\n        /* \"contracts/EventTrigger.sol\":912:929  items[_itemIndex] */\n      dup1\n        /* \"contracts/EventTrigger.sol\":918:928  _itemIndex */\n      dup4\n        /* \"contracts/EventTrigger.sol\":912:929  items[_itemIndex] */\n      dup2\n      mstore\n      0x20\n      add\n      swap1\n      dup2\n      mstore\n      0x20\n      add\n      0x00\n      keccak256\n        /* \"contracts/EventTrigger.sol\":912:935  items[_itemIndex]._step */\n      0x00\n      add\n      0x00\n      swap1\n      sload\n      swap1\n      0x0100\n      exp\n      swap1\n      div\n      0xff\n      and\n        /* \"contracts/EventTrigger.sol\":912:963  items[_itemIndex]._step == SupplyChainSteps.Created */\n      0x02\n      dup2\n      gt\n      iszero\n      tag_27\n      jumpi\n      tag_28\n      tag_26\n      jump\t// in\n    tag_28:\n    tag_27:\n      eq\n        /* \"contracts/EventTrigger.sol\":904:988  require(items[_itemIndex]._step == SupplyChainSteps.Created, \"Item is already paid\") */\n      tag_29\n      jumpi\n      mload(0x40)\n      0x08c379a000000000000000000000000000000000000000000000000000000000\n      dup2\n      mstore\n      0x04\n      add\n      tag_30\n      swap1\n      tag_31\n      jump\t// in\n    tag_30:\n      mload(0x40)\n      dup1\n      swap2\n      sub\n      swap1\n      revert\n    tag_29:\n        /* \"contracts/EventTrigger.sol\":1025:1046  SupplyChainSteps.Paid */\n      0x01\n        /* \"contracts/EventTrigger.sol\":999:1004  items */\n      0x00\n        /* \"contracts/EventTrigger.sol\":999:1016  items[_itemIndex] */\n      dup1\n        /* \"contracts/EventTrigger.sol\":1005:1015  _itemIndex */\n      dup4\n        /* \"contracts/EventTrigger.sol\":999:1016  items[_itemIndex] */\n      dup2\n      mstore\n      0x20\n      add\n      swap1\n      dup2\n      mstore\n      0x20\n      add\n      0x00\n      keccak256\n        /* \"contracts/EventTrigger.sol\":999:1022  items[_itemIndex]._step */\n      0x00\n      add\n      0x00\n        /* \"contracts/EventTrigger.sol\":999:1046  items[_itemIndex]._step = SupplyChainSteps.Paid */\n      0x0100\n      exp\n      dup2\n      sload\n      dup2\n      0xff\n      mul\n      not\n      and\n      swap1\n      dup4\n      0x02\n      dup2\n      gt\n      iszero\n      tag_32\n      jumpi\n      tag_33\n      tag_26\n      jump\t// in\n    tag_33:\n    tag_32:\n      mul\n      or\n      swap1\n      sstore\n      pop\n        /* \"contracts/EventTrigger.sol\":1062:1092  SupplyChainStep(_itemIndex, 1) */\n      0x8c198761ba3d324d155cbaf96f0ac38a531c085089e49106d95352535a1110c2\n        /* \"contracts/EventTrigger.sol\":1078:1088  _itemIndex */\n      dup2\n        /* \"contracts/EventTrigger.sol\":1090:1091  1 */\n      0x01\n        /* \"contracts/EventTrigger.sol\":1062:1092  SupplyChainStep(_itemIndex, 1) */\n      mload(0x40)\n      tag_34\n      swap3\n      swap2\n      swap1\n      tag_35\n      jump\t// in\n    tag_34:\n      mload(0x40)\n      dup1\n      swap2\n      sub\n      swap1\n      log1\n        /* \"contracts/EventTrigger.sol\":744:1100  function triggerPayment(uint _itemIndex) public payable {\r... */\n      pop\n      jump\t// out\n        /* \"contracts/EventTrigger.sol\":395:736  function createItem(string memory _identifier, uint _priceInWei) public {\r... */\n    tag_13:\n        /* \"contracts/EventTrigger.sol\":478:499  S_Item memory newItem */\n      tag_37\n      tag_38\n      jump\t// in\n    tag_37:\n        /* \"contracts/EventTrigger.sol\":531:542  _identifier */\n      dup3\n        /* \"contracts/EventTrigger.sol\":510:517  newItem */\n      dup2\n        /* \"contracts/EventTrigger.sol\":510:528  newItem.identifier */\n      0x20\n      add\n        /* \"contracts/EventTrigger.sol\":510:542  newItem.identifier = _identifier */\n      dup2\n      swap1\n      mstore\n      pop\n        /* \"contracts/EventTrigger.sol\":574:585  _priceInWei */\n      dup2\n        /* \"contracts/EventTrigger.sol\":553:560  newItem */\n      dup2\n        /* \"contracts/EventTrigger.sol\":553:571  newItem.priceInWei */\n      0x40\n      add\n        /* \"contracts/EventTrigger.sol\":553:585  newItem.priceInWei = _priceInWei */\n      dup2\n      dup2\n      mstore\n      pop\n      pop\n        /* \"contracts/EventTrigger.sol\":612:636  SupplyChainSteps.Created */\n      0x00\n        /* \"contracts/EventTrigger.sol\":596:603  newItem */\n      dup2\n        /* \"contracts/EventTrigger.sol\":596:609  newItem._step */\n      0x00\n      add\n        /* \"contracts/EventTrigger.sol\":596:636  newItem._step = SupplyChainSteps.Created */\n      swap1\n      0x02\n      dup2\n      gt\n      iszero\n      tag_39\n      jumpi\n      tag_40\n      tag_26\n      jump\t// in\n    tag_40:\n    tag_39:\n      swap1\n      dup2\n      0x02\n      dup2\n      gt\n      iszero\n      tag_41\n      jumpi\n      tag_42\n      tag_26\n      jump\t// in\n    tag_42:\n    tag_41:\n      dup2\n      mstore\n      pop\n      pop\n        /* \"contracts/EventTrigger.sol\":662:669  newItem */\n      dup1\n        /* \"contracts/EventTrigger.sol\":647:652  items */\n      0x00\n        /* \"contracts/EventTrigger.sol\":647:659  items[index] */\n      dup1\n        /* \"contracts/EventTrigger.sol\":653:658  index */\n      sload(0x01)\n        /* \"contracts/EventTrigger.sol\":647:659  items[index] */\n      dup2\n      mstore\n      0x20\n      add\n      swap1\n      dup2\n      mstore\n      0x20\n      add\n      0x00\n      keccak256\n        /* \"contracts/EventTrigger.sol\":647:669  items[index] = newItem */\n      0x00\n      dup3\n      add\n      mload\n      dup2\n      0x00\n      add\n      exp(0x0100, 0x00)\n      dup2\n      sload\n      dup2\n      0xff\n      mul\n      not\n      and\n      swap1\n      dup4\n      0x02\n      dup2\n      gt\n      iszero\n      tag_43\n      jumpi\n      tag_44\n      tag_26\n      jump\t// in\n    tag_44:\n    tag_43:\n      mul\n      or\n      swap1\n      sstore\n      pop\n      0x20\n      dup3\n      add\n      mload\n      dup2\n      0x01\n      add\n      swap1\n      dup1\n      mload\n      swap1\n      0x20\n      add\n      swap1\n      tag_45\n      swap3\n      swap2\n      swap1\n      tag_46\n      jump\t// in\n    tag_45:\n      pop\n      0x40\n      dup3\n      add\n      mload\n      dup2\n      0x02\n      add\n      sstore\n      swap1\n      pop\n      pop\n        /* \"contracts/EventTrigger.sol\":685:710  SupplyChainStep(index, 0) */\n      0x8c198761ba3d324d155cbaf96f0ac38a531c085089e49106d95352535a1110c2\n        /* \"contracts/EventTrigger.sol\":701:706  index */\n      sload(0x01)\n        /* \"contracts/EventTrigger.sol\":708:709  0 */\n      0x00\n        /* \"contracts/EventTrigger.sol\":685:710  SupplyChainStep(index, 0) */\n      mload(0x40)\n      tag_47\n      swap3\n      swap2\n      swap1\n      tag_48\n      jump\t// in\n    tag_47:\n      mload(0x40)\n      dup1\n      swap2\n      sub\n      swap1\n      log1\n        /* \"contracts/EventTrigger.sol\":721:726  index */\n      0x01\n      0x00\n        /* \"contracts/EventTrigger.sol\":721:728  index++ */\n      dup2\n      sload\n      dup1\n      swap3\n      swap2\n      swap1\n      tag_49\n      swap1\n      tag_50\n      jump\t// in\n    tag_49:\n      swap2\n      swap1\n      pop\n      sstore\n      pop\n        /* \"contracts/EventTrigger.sol\":467:736  {\r... */\n      pop\n        /* \"contracts/EventTrigger.sol\":395:736  function createItem(string memory _identifier, uint _priceInWei) public {\r... */\n      pop\n      pop\n      jump\t// out\n        /* \"contracts/EventTrigger.sol\":273:310  mapping (uint => S_Item) public items */\n    tag_17:\n      mstore(0x20, 0x00)\n      dup1\n      0x00\n      mstore\n      keccak256(0x00, 0x40)\n      0x00\n      swap2\n      pop\n      swap1\n      pop\n      dup1\n      0x00\n      add\n      0x00\n      swap1\n      sload\n      swap1\n      0x0100\n      exp\n      swap1\n      div\n      0xff\n      and\n      swap1\n      dup1\n      0x01\n      add\n      dup1\n      sload\n      tag_51\n      swap1\n      tag_52\n      jump\t// in\n    tag_51:\n      dup1\n      0x1f\n      add\n      0x20\n      dup1\n      swap2\n      div\n      mul\n      0x20\n      add\n      mload(0x40)\n      swap1\n      dup2\n      add\n      0x40\n      mstore\n      dup1\n      swap3\n      swap2\n      swap1\n      dup2\n      dup2\n      mstore\n      0x20\n      add\n      dup3\n      dup1\n      sload\n      tag_53\n      swap1\n      tag_52\n      jump\t// in\n    tag_53:\n      dup1\n      iszero\n      tag_54\n      jumpi\n      dup1\n      0x1f\n      lt\n      tag_55\n      jumpi\n      0x0100\n      dup1\n      dup4\n      sload\n      div\n      mul\n      dup4\n      mstore\n      swap2\n      0x20\n      add\n      swap2\n      jump(tag_54)\n    tag_55:\n      dup3\n      add\n      swap2\n      swap1\n      0x00\n      mstore\n      keccak256(0x00, 0x20)\n      swap1\n    tag_56:\n      dup2\n      sload\n      dup2\n      mstore\n      swap1\n      0x01\n      add\n      swap1\n      0x20\n      add\n      dup1\n      dup4\n      gt\n      tag_56\n      jumpi\n      dup3\n      swap1\n      sub\n      0x1f\n      and\n      dup3\n      add\n      swap2\n    tag_54:\n      pop\n      pop\n      pop\n      pop\n      pop\n      swap1\n      dup1\n      0x02\n      add\n      sload\n      swap1\n      pop\n      dup4\n      jump\t// out\n    tag_38:\n      mload(0x40)\n      dup1\n      0x60\n      add\n      0x40\n      mstore\n      dup1\n      0x00\n      0x02\n      dup2\n      gt\n      iszero\n      tag_57\n      jumpi\n      tag_58\n      tag_26\n      jump\t// in\n    tag_58:\n    tag_57:\n      dup2\n      mstore\n      0x20\n      add\n      0x60\n      dup2\n      mstore\n      0x20\n      add\n      0x00\n      dup2\n      mstore\n      pop\n      swap1\n      jump\t// out\n    tag_46:\n      dup3\n      dup1\n      sload\n      tag_59\n      swap1\n      tag_52\n      jump\t// in\n    tag_59:\n      swap1\n      0x00\n      mstore\n      keccak256(0x00, 0x20)\n      swap1\n      0x1f\n      add\n      0x20\n      swap1\n      div\n      dup2\n      add\n      swap3\n      dup3\n      tag_61\n      jumpi\n      0x00\n      dup6\n      sstore\n      jump(tag_60)\n    tag_61:\n      dup3\n      0x1f\n      lt\n      tag_62\n      jumpi\n      dup1\n      mload\n      not(0xff)\n      and\n      dup4\n      dup1\n      add\n      or\n      dup6\n      sstore\n      jump(tag_60)\n    tag_62:\n      dup3\n      dup1\n      add\n      0x01\n      add\n      dup6\n      sstore\n      dup3\n      iszero\n      tag_60\n      jumpi\n      swap2\n      dup3\n      add\n    tag_63:\n      dup3\n      dup2\n      gt\n      iszero\n      tag_64\n      jumpi\n      dup3\n      mload\n      dup3\n      sstore\n      swap2\n      0x20\n      add\n      swap2\n      swap1\n      0x01\n      add\n      swap1\n      jump(tag_63)\n    tag_64:\n    tag_60:\n      pop\n      swap1\n      pop\n      tag_65\n      swap2\n      swap1\n      tag_66\n      jump\t// in\n    tag_65:\n      pop\n      swap1\n      jump\t// out\n    tag_66:\n    tag_67:\n      dup1\n      dup3\n      gt\n      iszero\n      tag_68\n      jumpi\n      0x00\n      dup2\n      0x00\n      swap1\n      sstore\n      pop\n      0x01\n      add\n      jump(tag_67)\n    tag_68:\n      pop\n      swap1\n      jump\t// out\n        /* \"#utility.yul\":7:419   */\n    tag_70:\n        /* \"#utility.yul\":85:90   */\n      0x00\n        /* \"#utility.yul\":110:176   */\n      tag_72\n        /* \"#utility.yul\":126:175   */\n      tag_73\n        /* \"#utility.yul\":168:174   */\n      dup5\n        /* \"#utility.yul\":126:175   */\n      tag_74\n      jump\t// in\n    tag_73:\n        /* \"#utility.yul\":110:176   */\n      tag_75\n      jump\t// in\n    tag_72:\n        /* \"#utility.yul\":101:176   */\n      swap1\n      pop\n        /* \"#utility.yul\":199:205   */\n      dup3\n        /* \"#utility.yul\":192:197   */\n      dup2\n        /* \"#utility.yul\":185:206   */\n      mstore\n        /* \"#utility.yul\":237:241   */\n      0x20\n        /* \"#utility.yul\":230:235   */\n      dup2\n        /* \"#utility.yul\":226:242   */\n      add\n        /* \"#utility.yul\":275:278   */\n      dup5\n        /* \"#utility.yul\":266:272   */\n      dup5\n        /* \"#utility.yul\":261:264   */\n      dup5\n        /* \"#utility.yul\":257:273   */\n      add\n        /* \"#utility.yul\":254:279   */\n      gt\n        /* \"#utility.yul\":251:363   */\n      iszero\n      tag_76\n      jumpi\n        /* \"#utility.yul\":282:361   */\n      tag_77\n      tag_78\n      jump\t// in\n    tag_77:\n        /* \"#utility.yul\":251:363   */\n    tag_76:\n        /* \"#utility.yul\":372:413   */\n      tag_79\n        /* \"#utility.yul\":406:412   */\n      dup5\n        /* \"#utility.yul\":401:404   */\n      dup3\n        /* \"#utility.yul\":396:399   */\n      dup6\n        /* \"#utility.yul\":372:413   */\n      tag_80\n      jump\t// in\n    tag_79:\n        /* \"#utility.yul\":91:419   */\n      pop\n        /* \"#utility.yul\":7:419   */\n      swap4\n      swap3\n      pop\n      pop\n      pop\n      jump\t// out\n        /* \"#utility.yul\":439:779   */\n    tag_81:\n        /* \"#utility.yul\":495:500   */\n      0x00\n        /* \"#utility.yul\":544:547   */\n      dup3\n        /* \"#utility.yul\":537:541   */\n      0x1f\n        /* \"#utility.yul\":529:535   */\n      dup4\n        /* \"#utility.yul\":525:542   */\n      add\n        /* \"#utility.yul\":521:548   */\n      slt\n        /* \"#utility.yul\":511:633   */\n      tag_83\n      jumpi\n        /* \"#utility.yul\":552:631   */\n      tag_84\n      tag_85\n      jump\t// in\n    tag_84:\n        /* \"#utility.yul\":511:633   */\n    tag_83:\n        /* \"#utility.yul\":669:675   */\n      dup2\n        /* \"#utility.yul\":656:676   */\n      calldataload\n        /* \"#utility.yul\":694:773   */\n      tag_86\n        /* \"#utility.yul\":769:772   */\n      dup5\n        /* \"#utility.yul\":761:767   */\n      dup3\n        /* \"#utility.yul\":754:758   */\n      0x20\n        /* \"#utility.yul\":746:752   */\n      dup7\n        /* \"#utility.yul\":742:759   */\n      add\n        /* \"#utility.yul\":694:773   */\n      tag_70\n      jump\t// in\n    tag_86:\n        /* \"#utility.yul\":685:773   */\n      swap2\n      pop\n        /* \"#utility.yul\":501:779   */\n      pop\n        /* \"#utility.yul\":439:779   */\n      swap3\n      swap2\n      pop\n      pop\n      jump\t// out\n        /* \"#utility.yul\":785:924   */\n    tag_87:\n        /* \"#utility.yul\":831:836   */\n      0x00\n        /* \"#utility.yul\":869:875   */\n      dup2\n        /* \"#utility.yul\":856:876   */\n      calldataload\n        /* \"#utility.yul\":847:876   */\n      swap1\n      pop\n        /* \"#utility.yul\":885:918   */\n      tag_89\n        /* \"#utility.yul\":912:917   */\n      dup2\n        /* \"#utility.yul\":885:918   */\n      tag_90\n      jump\t// in\n    tag_89:\n        /* \"#utility.yul\":785:924   */\n      swap3\n      swap2\n      pop\n      pop\n      jump\t// out\n        /* \"#utility.yul\":930:1584   */\n    tag_12:\n        /* \"#utility.yul\":1008:1014   */\n      0x00\n        /* \"#utility.yul\":1016:1022   */\n      dup1\n        /* \"#utility.yul\":1065:1067   */\n      0x40\n        /* \"#utility.yul\":1053:1062   */\n      dup4\n        /* \"#utility.yul\":1044:1051   */\n      dup6\n        /* \"#utility.yul\":1040:1063   */\n      sub\n        /* \"#utility.yul\":1036:1068   */\n      slt\n        /* \"#utility.yul\":1033:1152   */\n      iszero\n      tag_92\n      jumpi\n        /* \"#utility.yul\":1071:1150   */\n      tag_93\n      tag_94\n      jump\t// in\n    tag_93:\n        /* \"#utility.yul\":1033:1152   */\n    tag_92:\n        /* \"#utility.yul\":1219:1220   */\n      0x00\n        /* \"#utility.yul\":1208:1217   */\n      dup4\n        /* \"#utility.yul\":1204:1221   */\n      add\n        /* \"#utility.yul\":1191:1222   */\n      calldataload\n        /* \"#utility.yul\":1249:1267   */\n      0xffffffffffffffff\n        /* \"#utility.yul\":1241:1247   */\n      dup2\n        /* \"#utility.yul\":1238:1268   */\n      gt\n        /* \"#utility.yul\":1235:1352   */\n      iszero\n      tag_95\n      jumpi\n        /* \"#utility.yul\":1271:1350   */\n      tag_96\n      tag_97\n      jump\t// in\n    tag_96:\n        /* \"#utility.yul\":1235:1352   */\n    tag_95:\n        /* \"#utility.yul\":1376:1439   */\n      tag_98\n        /* \"#utility.yul\":1431:1438   */\n      dup6\n        /* \"#utility.yul\":1422:1428   */\n      dup3\n        /* \"#utility.yul\":1411:1420   */\n      dup7\n        /* \"#utility.yul\":1407:1429   */\n      add\n        /* \"#utility.yul\":1376:1439   */\n      tag_81\n      jump\t// in\n    tag_98:\n        /* \"#utility.yul\":1366:1439   */\n      swap3\n      pop\n        /* \"#utility.yul\":1162:1449   */\n      pop\n        /* \"#utility.yul\":1488:1490   */\n      0x20\n        /* \"#utility.yul\":1514:1567   */\n      tag_99\n        /* \"#utility.yul\":1559:1566   */\n      dup6\n        /* \"#utility.yul\":1550:1556   */\n      dup3\n        /* \"#utility.yul\":1539:1548   */\n      dup7\n        /* \"#utility.yul\":1535:1557   */\n      add\n        /* \"#utility.yul\":1514:1567   */\n      tag_87\n      jump\t// in\n    tag_99:\n        /* \"#utility.yul\":1504:1567   */\n      swap2\n      pop\n        /* \"#utility.yul\":1459:1577   */\n      pop\n        /* \"#utility.yul\":930:1584   */\n      swap3\n      pop\n      swap3\n      swap1\n      pop\n      jump\t// out\n        /* \"#utility.yul\":1590:1919   */\n    tag_7:\n        /* \"#utility.yul\":1649:1655   */\n      0x00\n        /* \"#utility.yul\":1698:1700   */\n      0x20\n        /* \"#utility.yul\":1686:1695   */\n      dup3\n        /* \"#utility.yul\":1677:1684   */\n      dup5\n        /* \"#utility.yul\":1673:1696   */\n      sub\n        /* \"#utility.yul\":1669:1701   */\n      slt\n        /* \"#utility.yul\":1666:1785   */\n      iszero\n      tag_101\n      jumpi\n        /* \"#utility.yul\":1704:1783   */\n      tag_102\n      tag_94\n      jump\t// in\n    tag_102:\n        /* \"#utility.yul\":1666:1785   */\n    tag_101:\n        /* \"#utility.yul\":1824:1825   */\n      0x00\n        /* \"#utility.yul\":1849:1902   */\n      tag_103\n        /* \"#utility.yul\":1894:1901   */\n      dup5\n        /* \"#utility.yul\":1885:1891   */\n      dup3\n        /* \"#utility.yul\":1874:1883   */\n      dup6\n        /* \"#utility.yul\":1870:1892   */\n      add\n        /* \"#utility.yul\":1849:1902   */\n      tag_87\n      jump\t// in\n    tag_103:\n        /* \"#utility.yul\":1839:1902   */\n      swap2\n      pop\n        /* \"#utility.yul\":1795:1912   */\n      pop\n        /* \"#utility.yul\":1590:1919   */\n      swap3\n      swap2\n      pop\n      pop\n      jump\t// out\n        /* \"#utility.yul\":1925:2088   */\n    tag_104:\n        /* \"#utility.yul\":2028:2081   */\n      tag_106\n        /* \"#utility.yul\":2075:2080   */\n      dup2\n        /* \"#utility.yul\":2028:2081   */\n      tag_107\n      jump\t// in\n    tag_106:\n        /* \"#utility.yul\":2023:2026   */\n      dup3\n        /* \"#utility.yul\":2016:2082   */\n      mstore\n        /* \"#utility.yul\":1925:2088   */\n      pop\n      pop\n      jump\t// out\n        /* \"#utility.yul\":2094:2241   */\n    tag_108:\n        /* \"#utility.yul\":2189:2234   */\n      tag_110\n        /* \"#utility.yul\":2228:2233   */\n      dup2\n        /* \"#utility.yul\":2189:2234   */\n      tag_111\n      jump\t// in\n    tag_110:\n        /* \"#utility.yul\":2184:2187   */\n      dup3\n        /* \"#utility.yul\":2177:2235   */\n      mstore\n        /* \"#utility.yul\":2094:2241   */\n      pop\n      pop\n      jump\t// out\n        /* \"#utility.yul\":2247:2394   */\n    tag_112:\n        /* \"#utility.yul\":2342:2387   */\n      tag_114\n        /* \"#utility.yul\":2381:2386   */\n      dup2\n        /* \"#utility.yul\":2342:2387   */\n      tag_115\n      jump\t// in\n    tag_114:\n        /* \"#utility.yul\":2337:2340   */\n      dup3\n        /* \"#utility.yul\":2330:2388   */\n      mstore\n        /* \"#utility.yul\":2247:2394   */\n      pop\n      pop\n      jump\t// out\n        /* \"#utility.yul\":2400:2764   */\n    tag_116:\n        /* \"#utility.yul\":2488:2491   */\n      0x00\n        /* \"#utility.yul\":2516:2555   */\n      tag_118\n        /* \"#utility.yul\":2549:2554   */\n      dup3\n        /* \"#utility.yul\":2516:2555   */\n      tag_119\n      jump\t// in\n    tag_118:\n        /* \"#utility.yul\":2571:2642   */\n      tag_120\n        /* \"#utility.yul\":2635:2641   */\n      dup2\n        /* \"#utility.yul\":2630:2633   */\n      dup6\n        /* \"#utility.yul\":2571:2642   */\n      tag_121\n      jump\t// in\n    tag_120:\n        /* \"#utility.yul\":2564:2642   */\n      swap4\n      pop\n        /* \"#utility.yul\":2651:2703   */\n      tag_122\n        /* \"#utility.yul\":2696:2702   */\n      dup2\n        /* \"#utility.yul\":2691:2694   */\n      dup6\n        /* \"#utility.yul\":2684:2688   */\n      0x20\n        /* \"#utility.yul\":2677:2682   */\n      dup7\n        /* \"#utility.yul\":2673:2689   */\n      add\n        /* \"#utility.yul\":2651:2703   */\n      tag_123\n      jump\t// in\n    tag_122:\n        /* \"#utility.yul\":2728:2757   */\n      tag_124\n        /* \"#utility.yul\":2750:2756   */\n      dup2\n        /* \"#utility.yul\":2728:2757   */\n      tag_125\n      jump\t// in\n    tag_124:\n        /* \"#utility.yul\":2723:2726   */\n      dup5\n        /* \"#utility.yul\":2719:2758   */\n      add\n        /* \"#utility.yul\":2712:2758   */\n      swap2\n      pop\n        /* \"#utility.yul\":2492:2764   */\n      pop\n        /* \"#utility.yul\":2400:2764   */\n      swap3\n      swap2\n      pop\n      pop\n      jump\t// out\n        /* \"#utility.yul\":2770:3136   */\n    tag_126:\n        /* \"#utility.yul\":2912:2915   */\n      0x00\n        /* \"#utility.yul\":2933:3000   */\n      tag_128\n        /* \"#utility.yul\":2997:2999   */\n      0x1c\n        /* \"#utility.yul\":2992:2995   */\n      dup4\n        /* \"#utility.yul\":2933:3000   */\n      tag_121\n      jump\t// in\n    tag_128:\n        /* \"#utility.yul\":2926:3000   */\n      swap2\n      pop\n        /* \"#utility.yul\":3009:3102   */\n      tag_129\n        /* \"#utility.yul\":3098:3101   */\n      dup3\n        /* \"#utility.yul\":3009:3102   */\n      tag_130\n      jump\t// in\n    tag_129:\n        /* \"#utility.yul\":3127:3129   */\n      0x20\n        /* \"#utility.yul\":3122:3125   */\n      dup3\n        /* \"#utility.yul\":3118:3130   */\n      add\n        /* \"#utility.yul\":3111:3130   */\n      swap1\n      pop\n        /* \"#utility.yul\":2770:3136   */\n      swap2\n      swap1\n      pop\n      jump\t// out\n        /* \"#utility.yul\":3142:3508   */\n    tag_131:\n        /* \"#utility.yul\":3284:3287   */\n      0x00\n        /* \"#utility.yul\":3305:3372   */\n      tag_133\n        /* \"#utility.yul\":3369:3371   */\n      0x14\n        /* \"#utility.yul\":3364:3367   */\n      dup4\n        /* \"#utility.yul\":3305:3372   */\n      tag_121\n      jump\t// in\n    tag_133:\n        /* \"#utility.yul\":3298:3372   */\n      swap2\n      pop\n        /* \"#utility.yul\":3381:3474   */\n      tag_134\n        /* \"#utility.yul\":3470:3473   */\n      dup3\n        /* \"#utility.yul\":3381:3474   */\n      tag_135\n      jump\t// in\n    tag_134:\n        /* \"#utility.yul\":3499:3501   */\n      0x20\n        /* \"#utility.yul\":3494:3497   */\n      dup3\n        /* \"#utility.yul\":3490:3502   */\n      add\n        /* \"#utility.yul\":3483:3502   */\n      swap1\n      pop\n        /* \"#utility.yul\":3142:3508   */\n      swap2\n      swap1\n      pop\n      jump\t// out\n        /* \"#utility.yul\":3514:3632   */\n    tag_136:\n        /* \"#utility.yul\":3601:3625   */\n      tag_138\n        /* \"#utility.yul\":3619:3624   */\n      dup2\n        /* \"#utility.yul\":3601:3625   */\n      tag_139\n      jump\t// in\n    tag_138:\n        /* \"#utility.yul\":3596:3599   */\n      dup3\n        /* \"#utility.yul\":3589:3626   */\n      mstore\n        /* \"#utility.yul\":3514:3632   */\n      pop\n      pop\n      jump\t// out\n        /* \"#utility.yul\":3638:4203   */\n    tag_19:\n        /* \"#utility.yul\":3823:3827   */\n      0x00\n        /* \"#utility.yul\":3861:3863   */\n      0x60\n        /* \"#utility.yul\":3850:3859   */\n      dup3\n        /* \"#utility.yul\":3846:3864   */\n      add\n        /* \"#utility.yul\":3838:3864   */\n      swap1\n      pop\n        /* \"#utility.yul\":3874:3961   */\n      tag_141\n        /* \"#utility.yul\":3958:3959   */\n      0x00\n        /* \"#utility.yul\":3947:3956   */\n      dup4\n        /* \"#utility.yul\":3943:3960   */\n      add\n        /* \"#utility.yul\":3934:3940   */\n      dup7\n        /* \"#utility.yul\":3874:3961   */\n      tag_104\n      jump\t// in\n    tag_141:\n        /* \"#utility.yul\":4008:4017   */\n      dup2\n        /* \"#utility.yul\":4002:4006   */\n      dup2\n        /* \"#utility.yul\":3998:4018   */\n      sub\n        /* \"#utility.yul\":3993:3995   */\n      0x20\n        /* \"#utility.yul\":3982:3991   */\n      dup4\n        /* \"#utility.yul\":3978:3996   */\n      add\n        /* \"#utility.yul\":3971:4019   */\n      mstore\n        /* \"#utility.yul\":4036:4114   */\n      tag_142\n        /* \"#utility.yul\":4109:4113   */\n      dup2\n        /* \"#utility.yul\":4100:4106   */\n      dup6\n        /* \"#utility.yul\":4036:4114   */\n      tag_116\n      jump\t// in\n    tag_142:\n        /* \"#utility.yul\":4028:4114   */\n      swap1\n      pop\n        /* \"#utility.yul\":4124:4196   */\n      tag_143\n        /* \"#utility.yul\":4192:4194   */\n      0x40\n        /* \"#utility.yul\":4181:4190   */\n      dup4\n        /* \"#utility.yul\":4177:4195   */\n      add\n        /* \"#utility.yul\":4168:4174   */\n      dup5\n        /* \"#utility.yul\":4124:4196   */\n      tag_136\n      jump\t// in\n    tag_143:\n        /* \"#utility.yul\":3638:4203   */\n      swap5\n      swap4\n      pop\n      pop\n      pop\n      pop\n      jump\t// out\n        /* \"#utility.yul\":4209:4628   */\n    tag_23:\n        /* \"#utility.yul\":4375:4379   */\n      0x00\n        /* \"#utility.yul\":4413:4415   */\n      0x20\n        /* \"#utility.yul\":4402:4411   */\n      dup3\n        /* \"#utility.yul\":4398:4416   */\n      add\n        /* \"#utility.yul\":4390:4416   */\n      swap1\n      pop\n        /* \"#utility.yul\":4462:4471   */\n      dup2\n        /* \"#utility.yul\":4456:4460   */\n      dup2\n        /* \"#utility.yul\":4452:4472   */\n      sub\n        /* \"#utility.yul\":4448:4449   */\n      0x00\n        /* \"#utility.yul\":4437:4446   */\n      dup4\n        /* \"#utility.yul\":4433:4450   */\n      add\n        /* \"#utility.yul\":4426:4473   */\n      mstore\n        /* \"#utility.yul\":4490:4621   */\n      tag_145\n        /* \"#utility.yul\":4616:4620   */\n      dup2\n        /* \"#utility.yul\":4490:4621   */\n      tag_126\n      jump\t// in\n    tag_145:\n        /* \"#utility.yul\":4482:4621   */\n      swap1\n      pop\n        /* \"#utility.yul\":4209:4628   */\n      swap2\n      swap1\n      pop\n      jump\t// out\n        /* \"#utility.yul\":4634:5053   */\n    tag_31:\n        /* \"#utility.yul\":4800:4804   */\n      0x00\n        /* \"#utility.yul\":4838:4840   */\n      0x20\n        /* \"#utility.yul\":4827:4836   */\n      dup3\n        /* \"#utility.yul\":4823:4841   */\n      add\n        /* \"#utility.yul\":4815:4841   */\n      swap1\n      pop\n        /* \"#utility.yul\":4887:4896   */\n      dup2\n        /* \"#utility.yul\":4881:4885   */\n      dup2\n        /* \"#utility.yul\":4877:4897   */\n      sub\n        /* \"#utility.yul\":4873:4874   */\n      0x00\n        /* \"#utility.yul\":4862:4871   */\n      dup4\n        /* \"#utility.yul\":4858:4875   */\n      add\n        /* \"#utility.yul\":4851:4898   */\n      mstore\n        /* \"#utility.yul\":4915:5046   */\n      tag_147\n        /* \"#utility.yul\":5041:5045   */\n      dup2\n        /* \"#utility.yul\":4915:5046   */\n      tag_131\n      jump\t// in\n    tag_147:\n        /* \"#utility.yul\":4907:5046   */\n      swap1\n      pop\n        /* \"#utility.yul\":4634:5053   */\n      swap2\n      swap1\n      pop\n      jump\t// out\n        /* \"#utility.yul\":5059:5407   */\n    tag_48:\n        /* \"#utility.yul\":5188:5192   */\n      0x00\n        /* \"#utility.yul\":5226:5228   */\n      0x40\n        /* \"#utility.yul\":5215:5224   */\n      dup3\n        /* \"#utility.yul\":5211:5229   */\n      add\n        /* \"#utility.yul\":5203:5229   */\n      swap1\n      pop\n        /* \"#utility.yul\":5239:5310   */\n      tag_149\n        /* \"#utility.yul\":5307:5308   */\n      0x00\n        /* \"#utility.yul\":5296:5305   */\n      dup4\n        /* \"#utility.yul\":5292:5309   */\n      add\n        /* \"#utility.yul\":5283:5289   */\n      dup6\n        /* \"#utility.yul\":5239:5310   */\n      tag_136\n      jump\t// in\n    tag_149:\n        /* \"#utility.yul\":5320:5400   */\n      tag_150\n        /* \"#utility.yul\":5396:5398   */\n      0x20\n        /* \"#utility.yul\":5385:5394   */\n      dup4\n        /* \"#utility.yul\":5381:5399   */\n      add\n        /* \"#utility.yul\":5372:5378   */\n      dup5\n        /* \"#utility.yul\":5320:5400   */\n      tag_108\n      jump\t// in\n    tag_150:\n        /* \"#utility.yul\":5059:5407   */\n      swap4\n      swap3\n      pop\n      pop\n      pop\n      jump\t// out\n        /* \"#utility.yul\":5413:5761   */\n    tag_35:\n        /* \"#utility.yul\":5542:5546   */\n      0x00\n        /* \"#utility.yul\":5580:5582   */\n      0x40\n        /* \"#utility.yul\":5569:5578   */\n      dup3\n        /* \"#utility.yul\":5565:5583   */\n      add\n        /* \"#utility.yul\":5557:5583   */\n      swap1\n      pop\n        /* \"#utility.yul\":5593:5664   */\n      tag_152\n        /* \"#utility.yul\":5661:5662   */\n      0x00\n        /* \"#utility.yul\":5650:5659   */\n      dup4\n        /* \"#utility.yul\":5646:5663   */\n      add\n        /* \"#utility.yul\":5637:5643   */\n      dup6\n        /* \"#utility.yul\":5593:5664   */\n      tag_136\n      jump\t// in\n    tag_152:\n        /* \"#utility.yul\":5674:5754   */\n      tag_153\n        /* \"#utility.yul\":5750:5752   */\n      0x20\n        /* \"#utility.yul\":5739:5748   */\n      dup4\n        /* \"#utility.yul\":5735:5753   */\n      add\n        /* \"#utility.yul\":5726:5732   */\n      dup5\n        /* \"#utility.yul\":5674:5754   */\n      tag_112\n      jump\t// in\n    tag_153:\n        /* \"#utility.yul\":5413:5761   */\n      swap4\n      swap3\n      pop\n      pop\n      pop\n      jump\t// out\n        /* \"#utility.yul\":5767:5896   */\n    tag_75:\n        /* \"#utility.yul\":5801:5807   */\n      0x00\n        /* \"#utility.yul\":5828:5848   */\n      tag_155\n      tag_156\n      jump\t// in\n    tag_155:\n        /* \"#utility.yul\":5818:5848   */\n      swap1\n      pop\n        /* \"#utility.yul\":5857:5890   */\n      tag_157\n        /* \"#utility.yul\":5885:5889   */\n      dup3\n        /* \"#utility.yul\":5877:5883   */\n      dup3\n        /* \"#utility.yul\":5857:5890   */\n      tag_158\n      jump\t// in\n    tag_157:\n        /* \"#utility.yul\":5767:5896   */\n      swap2\n      swap1\n      pop\n      jump\t// out\n        /* \"#utility.yul\":5902:5977   */\n    tag_156:\n        /* \"#utility.yul\":5935:5941   */\n      0x00\n        /* \"#utility.yul\":5968:5970   */\n      0x40\n        /* \"#utility.yul\":5962:5971   */\n      mload\n        /* \"#utility.yul\":5952:5971   */\n      swap1\n      pop\n        /* \"#utility.yul\":5902:5977   */\n      swap1\n      jump\t// out\n        /* \"#utility.yul\":5983:6291   */\n    tag_74:\n        /* \"#utility.yul\":6045:6049   */\n      0x00\n        /* \"#utility.yul\":6135:6153   */\n      0xffffffffffffffff\n        /* \"#utility.yul\":6127:6133   */\n      dup3\n        /* \"#utility.yul\":6124:6154   */\n      gt\n        /* \"#utility.yul\":6121:6177   */\n      iszero\n      tag_161\n      jumpi\n        /* \"#utility.yul\":6157:6175   */\n      tag_162\n      tag_163\n      jump\t// in\n    tag_162:\n        /* \"#utility.yul\":6121:6177   */\n    tag_161:\n        /* \"#utility.yul\":6195:6224   */\n      tag_164\n        /* \"#utility.yul\":6217:6223   */\n      dup3\n        /* \"#utility.yul\":6195:6224   */\n      tag_125\n      jump\t// in\n    tag_164:\n        /* \"#utility.yul\":6187:6224   */\n      swap1\n      pop\n        /* \"#utility.yul\":6279:6283   */\n      0x20\n        /* \"#utility.yul\":6273:6277   */\n      dup2\n        /* \"#utility.yul\":6269:6284   */\n      add\n        /* \"#utility.yul\":6261:6284   */\n      swap1\n      pop\n        /* \"#utility.yul\":5983:6291   */\n      swap2\n      swap1\n      pop\n      jump\t// out\n        /* \"#utility.yul\":6297:6396   */\n    tag_119:\n        /* \"#utility.yul\":6349:6355   */\n      0x00\n        /* \"#utility.yul\":6383:6388   */\n      dup2\n        /* \"#utility.yul\":6377:6389   */\n      mload\n        /* \"#utility.yul\":6367:6389   */\n      swap1\n      pop\n        /* \"#utility.yul\":6297:6396   */\n      swap2\n      swap1\n      pop\n      jump\t// out\n        /* \"#utility.yul\":6402:6571   */\n    tag_121:\n        /* \"#utility.yul\":6486:6497   */\n      0x00\n        /* \"#utility.yul\":6520:6526   */\n      dup3\n        /* \"#utility.yul\":6515:6518   */\n      dup3\n        /* \"#utility.yul\":6508:6527   */\n      mstore\n        /* \"#utility.yul\":6560:6564   */\n      0x20\n        /* \"#utility.yul\":6555:6558   */\n      dup3\n        /* \"#utility.yul\":6551:6565   */\n      add\n        /* \"#utility.yul\":6536:6565   */\n      swap1\n      pop\n        /* \"#utility.yul\":6402:6571   */\n      swap3\n      swap2\n      pop\n      pop\n      jump\t// out\n        /* \"#utility.yul\":6577:6724   */\n    tag_167:\n        /* \"#utility.yul\":6632:6639   */\n      0x00\n        /* \"#utility.yul\":6661:6666   */\n      dup2\n        /* \"#utility.yul\":6650:6666   */\n      swap1\n      pop\n        /* \"#utility.yul\":6667:6718   */\n      tag_169\n        /* \"#utility.yul\":6712:6717   */\n      dup3\n        /* \"#utility.yul\":6667:6718   */\n      tag_170\n      jump\t// in\n    tag_169:\n        /* \"#utility.yul\":6577:6724   */\n      swap2\n      swap1\n      pop\n      jump\t// out\n        /* \"#utility.yul\":6730:6807   */\n    tag_139:\n        /* \"#utility.yul\":6767:6774   */\n      0x00\n        /* \"#utility.yul\":6796:6801   */\n      dup2\n        /* \"#utility.yul\":6785:6801   */\n      swap1\n      pop\n        /* \"#utility.yul\":6730:6807   */\n      swap2\n      swap1\n      pop\n      jump\t// out\n        /* \"#utility.yul\":6813:6960   */\n    tag_107:\n        /* \"#utility.yul\":6879:6888   */\n      0x00\n        /* \"#utility.yul\":6912:6954   */\n      tag_173\n        /* \"#utility.yul\":6948:6953   */\n      dup3\n        /* \"#utility.yul\":6912:6954   */\n      tag_167\n      jump\t// in\n    tag_173:\n        /* \"#utility.yul\":6899:6954   */\n      swap1\n      pop\n        /* \"#utility.yul\":6813:6960   */\n      swap2\n      swap1\n      pop\n      jump\t// out\n        /* \"#utility.yul\":6966:7087   */\n    tag_111:\n        /* \"#utility.yul\":7024:7033   */\n      0x00\n        /* \"#utility.yul\":7057:7081   */\n      tag_175\n        /* \"#utility.yul\":7075:7080   */\n      dup3\n        /* \"#utility.yul\":7057:7081   */\n      tag_139\n      jump\t// in\n    tag_175:\n        /* \"#utility.yul\":7044:7081   */\n      swap1\n      pop\n        /* \"#utility.yul\":6966:7087   */\n      swap2\n      swap1\n      pop\n      jump\t// out\n        /* \"#utility.yul\":7093:7214   */\n    tag_115:\n        /* \"#utility.yul\":7151:7160   */\n      0x00\n        /* \"#utility.yul\":7184:7208   */\n      tag_177\n        /* \"#utility.yul\":7202:7207   */\n      dup3\n        /* \"#utility.yul\":7184:7208   */\n      tag_139\n      jump\t// in\n    tag_177:\n        /* \"#utility.yul\":7171:7208   */\n      swap1\n      pop\n        /* \"#utility.yul\":7093:7214   */\n      swap2\n      swap1\n      pop\n      jump\t// out\n        /* \"#utility.yul\":7220:7374   */\n    tag_80:\n        /* \"#utility.yul\":7304:7310   */\n      dup3\n        /* \"#utility.yul\":7299:7302   */\n      dup2\n        /* \"#utility.yul\":7294:7297   */\n      dup4\n        /* \"#utility.yul\":7281:7311   */\n      calldatacopy\n        /* \"#utility.yul\":7366:7367   */\n      0x00\n        /* \"#utility.yul\":7357:7363   */\n      dup4\n        /* \"#utility.yul\":7352:7355   */\n      dup4\n        /* \"#utility.yul\":7348:7364   */\n      add\n        /* \"#utility.yul\":7341:7368   */\n      mstore\n        /* \"#utility.yul\":7220:7374   */\n      pop\n      pop\n      pop\n      jump\t// out\n        /* \"#utility.yul\":7380:7687   */\n    tag_123:\n        /* \"#utility.yul\":7448:7449   */\n      0x00\n        /* \"#utility.yul\":7458:7571   */\n    tag_180:\n        /* \"#utility.yul\":7472:7478   */\n      dup4\n        /* \"#utility.yul\":7469:7470   */\n      dup2\n        /* \"#utility.yul\":7466:7479   */\n      lt\n        /* \"#utility.yul\":7458:7571   */\n      iszero\n      tag_182\n      jumpi\n        /* \"#utility.yul\":7557:7558   */\n      dup1\n        /* \"#utility.yul\":7552:7555   */\n      dup3\n        /* \"#utility.yul\":7548:7559   */\n      add\n        /* \"#utility.yul\":7542:7560   */\n      mload\n        /* \"#utility.yul\":7538:7539   */\n      dup2\n        /* \"#utility.yul\":7533:7536   */\n      dup5\n        /* \"#utility.yul\":7529:7540   */\n      add\n        /* \"#utility.yul\":7522:7561   */\n      mstore\n        /* \"#utility.yul\":7494:7496   */\n      0x20\n        /* \"#utility.yul\":7491:7492   */\n      dup2\n        /* \"#utility.yul\":7487:7497   */\n      add\n        /* \"#utility.yul\":7482:7497   */\n      swap1\n      pop\n        /* \"#utility.yul\":7458:7571   */\n      jump(tag_180)\n    tag_182:\n        /* \"#utility.yul\":7589:7595   */\n      dup4\n        /* \"#utility.yul\":7586:7587   */\n      dup2\n        /* \"#utility.yul\":7583:7596   */\n      gt\n        /* \"#utility.yul\":7580:7681   */\n      iszero\n      tag_183\n      jumpi\n        /* \"#utility.yul\":7669:7670   */\n      0x00\n        /* \"#utility.yul\":7660:7666   */\n      dup5\n        /* \"#utility.yul\":7655:7658   */\n      dup5\n        /* \"#utility.yul\":7651:7667   */\n      add\n        /* \"#utility.yul\":7644:7671   */\n      mstore\n        /* \"#utility.yul\":7580:7681   */\n    tag_183:\n        /* \"#utility.yul\":7429:7687   */\n      pop\n        /* \"#utility.yul\":7380:7687   */\n      pop\n      pop\n      pop\n      jump\t// out\n        /* \"#utility.yul\":7693:8013   */\n    tag_52:\n        /* \"#utility.yul\":7737:7743   */\n      0x00\n        /* \"#utility.yul\":7774:7775   */\n      0x02\n        /* \"#utility.yul\":7768:7772   */\n      dup3\n        /* \"#utility.yul\":7764:7776   */\n      div\n        /* \"#utility.yul\":7754:7776   */\n      swap1\n      pop\n        /* \"#utility.yul\":7821:7822   */\n      0x01\n        /* \"#utility.yul\":7815:7819   */\n      dup3\n        /* \"#utility.yul\":7811:7823   */\n      and\n        /* \"#utility.yul\":7842:7860   */\n      dup1\n        /* \"#utility.yul\":7832:7913   */\n      tag_185\n      jumpi\n        /* \"#utility.yul\":7898:7902   */\n      0x7f\n        /* \"#utility.yul\":7890:7896   */\n      dup3\n        /* \"#utility.yul\":7886:7903   */\n      and\n        /* \"#utility.yul\":7876:7903   */\n      swap2\n      pop\n        /* \"#utility.yul\":7832:7913   */\n    tag_185:\n        /* \"#utility.yul\":7960:7962   */\n      0x20\n        /* \"#utility.yul\":7952:7958   */\n      dup3\n        /* \"#utility.yul\":7949:7963   */\n      lt\n        /* \"#utility.yul\":7929:7947   */\n      dup2\n        /* \"#utility.yul\":7926:7964   */\n      eq\n        /* \"#utility.yul\":7923:8007   */\n      iszero\n      tag_186\n      jumpi\n        /* \"#utility.yul\":7979:7997   */\n      tag_187\n      tag_188\n      jump\t// in\n    tag_187:\n        /* \"#utility.yul\":7923:8007   */\n    tag_186:\n        /* \"#utility.yul\":7744:8013   */\n      pop\n        /* \"#utility.yul\":7693:8013   */\n      swap2\n      swap1\n      pop\n      jump\t// out\n        /* \"#utility.yul\":8019:8300   */\n    tag_158:\n        /* \"#utility.yul\":8102:8129   */\n      tag_190\n        /* \"#utility.yul\":8124:8128   */\n      dup3\n        /* \"#utility.yul\":8102:8129   */\n      tag_125\n      jump\t// in\n    tag_190:\n        /* \"#utility.yul\":8094:8100   */\n      dup2\n        /* \"#utility.yul\":8090:8130   */\n      add\n        /* \"#utility.yul\":8232:8238   */\n      dup2\n        /* \"#utility.yul\":8220:8230   */\n      dup2\n        /* \"#utility.yul\":8217:8239   */\n      lt\n        /* \"#utility.yul\":8196:8214   */\n      0xffffffffffffffff\n        /* \"#utility.yul\":8184:8194   */\n      dup3\n        /* \"#utility.yul\":8181:8215   */\n      gt\n        /* \"#utility.yul\":8178:8240   */\n      or\n        /* \"#utility.yul\":8175:8263   */\n      iszero\n      tag_191\n      jumpi\n        /* \"#utility.yul\":8243:8261   */\n      tag_192\n      tag_163\n      jump\t// in\n    tag_192:\n        /* \"#utility.yul\":8175:8263   */\n    tag_191:\n        /* \"#utility.yul\":8283:8293   */\n      dup1\n        /* \"#utility.yul\":8279:8281   */\n      0x40\n        /* \"#utility.yul\":8272:8294   */\n      mstore\n        /* \"#utility.yul\":8062:8300   */\n      pop\n        /* \"#utility.yul\":8019:8300   */\n      pop\n      pop\n      jump\t// out\n        /* \"#utility.yul\":8306:8539   */\n    tag_50:\n        /* \"#utility.yul\":8345:8348   */\n      0x00\n        /* \"#utility.yul\":8368:8392   */\n      tag_194\n        /* \"#utility.yul\":8386:8391   */\n      dup3\n        /* \"#utility.yul\":8368:8392   */\n      tag_139\n      jump\t// in\n    tag_194:\n        /* \"#utility.yul\":8359:8392   */\n      swap2\n      pop\n        /* \"#utility.yul\":8414:8480   */\n      0xffffffffffffffffffffffffffffffffffffffffffffffffffffffffffffffff\n        /* \"#utility.yul\":8407:8412   */\n      dup3\n        /* \"#utility.yul\":8404:8481   */\n      eq\n        /* \"#utility.yul\":8401:8504   */\n      iszero\n      tag_195\n      jumpi\n        /* \"#utility.yul\":8484:8502   */\n      tag_196\n      tag_197\n      jump\t// in\n    tag_196:\n        /* \"#utility.yul\":8401:8504   */\n    tag_195:\n        /* \"#utility.yul\":8531:8532   */\n      0x01\n        /* \"#utility.yul\":8524:8529   */\n      dup3\n        /* \"#utility.yul\":8520:8533   */\n      add\n        /* \"#utility.yul\":8513:8533   */\n      swap1\n      pop\n        /* \"#utility.yul\":8306:8539   */\n      swap2\n      swap1\n      pop\n      jump\t// out\n        /* \"#utility.yul\":8545:8725   */\n    tag_197:\n        /* \"#utility.yul\":8593:8670   */\n      0x4e487b7100000000000000000000000000000000000000000000000000000000\n        /* \"#utility.yul\":8590:8591   */\n      0x00\n        /* \"#utility.yul\":8583:8671   */\n      mstore\n        /* \"#utility.yul\":8690:8694   */\n      0x11\n        /* \"#utility.yul\":8687:8688   */\n      0x04\n        /* \"#utility.yul\":8680:8695   */\n      mstore\n        /* \"#utility.yul\":8714:8718   */\n      0x24\n        /* \"#utility.yul\":8711:8712   */\n      0x00\n        /* \"#utility.yul\":8704:8719   */\n      revert\n        /* \"#utility.yul\":8731:8911   */\n    tag_26:\n        /* \"#utility.yul\":8779:8856   */\n      0x4e487b7100000000000000000000000000000000000000000000000000000000\n        /* \"#utility.yul\":8776:8777   */\n      0x00\n        /* \"#utility.yul\":8769:8857   */\n      mstore\n        /* \"#utility.yul\":8876:8880   */\n      0x21\n        /* \"#utility.yul\":8873:8874   */\n      0x04\n        /* \"#utility.yul\":8866:8881   */\n      mstore\n        /* \"#utility.yul\":8900:8904   */\n      0x24\n        /* \"#utility.yul\":8897:8898   */\n      0x00\n        /* \"#utility.yul\":8890:8905   */\n      revert\n        /* \"#utility.yul\":8917:9097   */\n    tag_188:\n        /* \"#utility.yul\":8965:9042   */\n      0x4e487b7100000000000000000000000000000000000000000000000000000000\n        /* \"#utility.yul\":8962:8963   */\n      0x00\n        /* \"#utility.yul\":8955:9043   */\n      mstore\n        /* \"#utility.yul\":9062:9066   */\n      0x22\n        /* \"#utility.yul\":9059:9060   */\n      0x04\n        /* \"#utility.yul\":9052:9067   */\n      mstore\n        /* \"#utility.yul\":9086:9090   */\n      0x24\n        /* \"#utility.yul\":9083:9084   */\n      0x00\n        /* \"#utility.yul\":9076:9091   */\n      revert\n        /* \"#utility.yul\":9103:9283   */\n    tag_163:\n        /* \"#utility.yul\":9151:9228   */\n      0x4e487b7100000000000000000000000000000000000000000000000000000000\n        /* \"#utility.yul\":9148:9149   */\n      0x00\n        /* \"#utility.yul\":9141:9229   */\n      mstore\n        /* \"#utility.yul\":9248:9252   */\n      0x41\n        /* \"#utility.yul\":9245:9246   */\n      0x04\n        /* \"#utility.yul\":9238:9253   */\n      mstore\n        /* \"#utility.yul\":9272:9276   */\n      0x24\n        /* \"#utility.yul\":9269:9270   */\n      0x00\n        /* \"#utility.yul\":9262:9277   */\n      revert\n        /* \"#utility.yul\":9289:9406   */\n    tag_85:\n        /* \"#utility.yul\":9398:9399   */\n      0x00\n        /* \"#utility.yul\":9395:9396   */\n      dup1\n        /* \"#utility.yul\":9388:9400   */\n      revert\n        /* \"#utility.yul\":9412:9529   */\n    tag_78:\n        /* \"#utility.yul\":9521:9522   */\n      0x00\n        /* \"#utility.yul\":9518:9519   */\n      dup1\n        /* \"#utility.yul\":9511:9523   */\n      revert\n        /* \"#utility.yul\":9535:9652   */\n    tag_97:\n        /* \"#utility.yul\":9644:9645   */\n      0x00\n        /* \"#utility.yul\":9641:9642   */\n      dup1\n        /* \"#utility.yul\":9634:9646   */\n      revert\n        /* \"#utility.yul\":9658:9775   */\n    tag_94:\n        /* \"#utility.yul\":9767:9768   */\n      0x00\n        /* \"#utility.yul\":9764:9765   */\n      dup1\n        /* \"#utility.yul\":9757:9769   */\n      revert\n        /* \"#utility.yul\":9781:9883   */\n    tag_125:\n        /* \"#utility.yul\":9822:9828   */\n      0x00\n        /* \"#utility.yul\":9873:9875   */\n      0x1f\n        /* \"#utility.yul\":9869:9876   */\n      not\n        /* \"#utility.yul\":9864:9866   */\n      0x1f\n        /* \"#utility.yul\":9857:9862   */\n      dup4\n        /* \"#utility.yul\":9853:9867   */\n      add\n        /* \"#utility.yul\":9849:9877   */\n      and\n        /* \"#utility.yul\":9839:9877   */\n      swap1\n      pop\n        /* \"#utility.yul\":9781:9883   */\n      swap2\n      swap1\n      pop\n      jump\t// out\n        /* \"#utility.yul\":9889:10067   */\n    tag_130:\n        /* \"#utility.yul\":10029:10059   */\n      0x596f7520646f206e6f74206861766520656e6f75676820657468657200000000\n        /* \"#utility.yul\":10025:10026   */\n      0x00\n        /* \"#utility.yul\":10017:10023   */\n      dup3\n        /* \"#utility.yul\":10013:10027   */\n      add\n        /* \"#utility.yul\":10006:10060   */\n      mstore\n        /* \"#utility.yul\":9889:10067   */\n      pop\n      jump\t// out\n        /* \"#utility.yul\":10073:10243   */\n    tag_135:\n        /* \"#utility.yul\":10213:10235   */\n      0x4974656d20697320616c72656164792070616964000000000000000000000000\n        /* \"#utility.yul\":10209:10210   */\n      0x00\n        /* \"#utility.yul\":10201:10207   */\n      dup3\n        /* \"#utility.yul\":10197:10211   */\n      add\n        /* \"#utility.yul\":10190:10236   */\n      mstore\n        /* \"#utility.yul\":10073:10243   */\n      pop\n      jump\t// out\n        /* \"#utility.yul\":10249:10372   */\n    tag_170:\n        /* \"#utility.yul\":10340:10341   */\n      0x03\n        /* \"#utility.yul\":10333:10338   */\n      dup2\n        /* \"#utility.yul\":10330:10342   */\n      lt\n        /* \"#utility.yul\":10320:10366   */\n      tag_210\n      jumpi\n        /* \"#utility.yul\":10346:10364   */\n      tag_211\n      tag_26\n      jump\t// in\n    tag_211:\n        /* \"#utility.yul\":10320:10366   */\n    tag_210:\n        /* \"#utility.yul\":10249:10372   */\n      pop\n      jump\t// out\n        /* \"#utility.yul\":10378:10500   */\n    tag_90:\n        /* \"#utility.yul\":10451:10475   */\n      tag_213\n        /* \"#utility.yul\":10469:10474   */\n      dup2\n        /* \"#utility.yul\":10451:10475   */\n      tag_139\n      jump\t// in\n    tag_213:\n        /* \"#utility.yul\":10444:10449   */\n      dup2\n        /* \"#utility.yul\":10441:10476   */\n      eq\n        /* \"#utility.yul\":10431:10494   */\n      tag_214\n      jumpi\n        /* \"#utility.yul\":10490:10491   */\n      0x00\n        /* \"#utility.yul\":10487:10488   */\n      dup1\n        /* \"#utility.yul\":10480:10492   */\n      revert\n        /* \"#utility.yul\":10431:10494   */\n    tag_214:\n        /* \"#utility.yul\":10378:10500   */\n      pop\n      jump\t// out\n\n    auxdata: 0xa2646970667358221220ad608c39ddfe9b658a949b5444c480248db7f2e25d317579bd4f5196d4126f8a64736f6c63430008070033\n}\n",
				"bytecode": {
					"linkReferences": {},
					"object": "608060405234801561001057600080fd5b50610aa2806100206000396000f3fe6080604052600436106100345760003560e01c8063800fb83f146100395780638c55174214610055578063bfb231d21461007e575b600080fd5b610053600480360381019061004e91906105a3565b6100bd565b005b34801561006157600080fd5b5061007c60048036038101906100779190610547565b610219565b005b34801561008a57600080fd5b506100a560048036038101906100a091906105a3565b61032d565b6040516100b49392919061068b565b60405180910390f35b60008082815260200190815260200160002060020154341015610115576040517f08c379a000000000000000000000000000000000000000000000000000000000815260040161010c906106c9565b60405180910390fd5b600060028111156101295761012861093d565b5b60008083815260200190815260200160002060000160009054906101000a900460ff16600281111561015e5761015d61093d565b5b1461019e576040517f08c379a0000000000000000000000000000000000000000000000000000000008152600401610195906106e9565b60405180910390fd5b600160008083815260200190815260200160002060000160006101000a81548160ff021916908360028111156101d7576101d661093d565b5b02179055507f8c198761ba3d324d155cbaf96f0ac38a531c085089e49106d95352535a1110c281600160405161020e929190610732565b60405180910390a150565b6102216103ec565b8281602001819052508181604001818152505060008160000190600281111561024d5761024c61093d565b5b908160028111156102615761026061093d565b5b8152505080600080600154815260200190815260200160002060008201518160000160006101000a81548160ff021916908360028111156102a5576102a461093d565b5b021790555060208201518160010190805190602001906102c692919061041f565b50604082015181600201559050507f8c198761ba3d324d155cbaf96f0ac38a531c085089e49106d95352535a1110c26001546000604051610308929190610709565b60405180910390a160016000815480929190610323906108c5565b9190505550505050565b60006020528060005260406000206000915090508060000160009054906101000a900460ff169080600101805461036390610862565b80601f016020809104026020016040519081016040528092919081815260200182805461038f90610862565b80156103dc5780601f106103b1576101008083540402835291602001916103dc565b820191906000526020600020905b8154815290600101906020018083116103bf57829003601f168201915b5050505050908060020154905083565b60405180606001604052806000600281111561040b5761040a61093d565b5b815260200160608152602001600081525090565b82805461042b90610862565b90600052602060002090601f01602090048101928261044d5760008555610494565b82601f1061046657805160ff1916838001178555610494565b82800160010185558215610494579182015b82811115610493578251825591602001919060010190610478565b5b5090506104a191906104a5565b5090565b5b808211156104be5760008160009055506001016104a6565b5090565b60006104d56104d084610780565b61075b565b9050828152602081018484840111156104f1576104f06109cf565b5b6104fc848285610820565b509392505050565b600082601f830112610519576105186109ca565b5b81356105298482602086016104c2565b91505092915050565b60008135905061054181610a55565b92915050565b6000806040838503121561055e5761055d6109d9565b5b600083013567ffffffffffffffff81111561057c5761057b6109d4565b5b61058885828601610504565b925050602061059985828601610532565b9150509250929050565b6000602082840312156105b9576105b86109d9565b5b60006105c784828501610532565b91505092915050565b6105d9816107ea565b82525050565b6105e8816107fc565b82525050565b6105f78161080e565b82525050565b6000610608826107b1565b61061281856107bc565b935061062281856020860161082f565b61062b816109de565b840191505092915050565b6000610643601c836107bc565b915061064e826109ef565b602082019050919050565b60006106666014836107bc565b915061067182610a18565b602082019050919050565b610685816107e0565b82525050565b60006060820190506106a060008301866105d0565b81810360208301526106b281856105fd565b90506106c1604083018461067c565b949350505050565b600060208201905081810360008301526106e281610636565b9050919050565b6000602082019050818103600083015261070281610659565b9050919050565b600060408201905061071e600083018561067c565b61072b60208301846105df565b9392505050565b6000604082019050610747600083018561067c565b61075460208301846105ee565b9392505050565b6000610765610776565b90506107718282610894565b919050565b6000604051905090565b600067ffffffffffffffff82111561079b5761079a61099b565b5b6107a4826109de565b9050602081019050919050565b600081519050919050565b600082825260208201905092915050565b60008190506107db82610a41565b919050565b6000819050919050565b60006107f5826107cd565b9050919050565b6000610807826107e0565b9050919050565b6000610819826107e0565b9050919050565b82818337600083830152505050565b60005b8381101561084d578082015181840152602081019050610832565b8381111561085c576000848401525b50505050565b6000600282049050600182168061087a57607f821691505b6020821081141561088e5761088d61096c565b5b50919050565b61089d826109de565b810181811067ffffffffffffffff821117156108bc576108bb61099b565b5b80604052505050565b60006108d0826107e0565b91507fffffffffffffffffffffffffffffffffffffffffffffffffffffffffffffffff8214156109035761090261090e565b5b600182019050919050565b7f4e487b7100000000000000000000000000000000000000000000000000000000600052601160045260246000fd5b7f4e487b7100000000000000000000000000000000000000000000000000000000600052602160045260246000fd5b7f4e487b7100000000000000000000000000000000000000000000000000000000600052602260045260246000fd5b7f4e487b7100000000000000000000000000000000000000000000000000000000600052604160045260246000fd5b600080fd5b600080fd5b600080fd5b600080fd5b6000601f19601f8301169050919050565b7f596f7520646f206e6f74206861766520656e6f75676820657468657200000000600082015250565b7f4974656d20697320616c72656164792070616964000000000000000000000000600082015250565b60038110610a5257610a5161093d565b5b50565b610a5e816107e0565b8114610a6957600080fd5b5056fea2646970667358221220ad608c39ddfe9b658a949b5444c480248db7f2e25d317579bd4f5196d4126f8a64736f6c63430008070033",
					"opcodes": "PUSH1 0x80 PUSH1 0x40 MSTORE CALLVALUE DUP1 ISZERO PUSH2 0x10 JUMPI PUSH1 0x0 DUP1 REVERT JUMPDEST POP PUSH2 0xAA2 DUP1 PUSH2 0x20 PUSH1 0x0 CODECOPY PUSH1 0x0 RETURN INVALID PUSH1 0x80 PUSH1 0x40 MSTORE PUSH1 0x4 CALLDATASIZE LT PUSH2 0x34 JUMPI PUSH1 0x0 CALLDATALOAD PUSH1 0xE0 SHR DUP1 PUSH4 0x800FB83F EQ PUSH2 0x39 JUMPI DUP1 PUSH4 0x8C551742 EQ PUSH2 0x55 JUMPI DUP1 PUSH4 0xBFB231D2 EQ PUSH2 0x7E JUMPI JUMPDEST PUSH1 0x0 DUP1 REVERT JUMPDEST PUSH2 0x53 PUSH1 0x4 DUP1 CALLDATASIZE SUB DUP2 ADD SWAP1 PUSH2 0x4E SWAP2 SWAP1 PUSH2 0x5A3 JUMP JUMPDEST PUSH2 0xBD JUMP JUMPDEST STOP JUMPDEST CALLVALUE DUP1 ISZERO PUSH2 0x61 JUMPI PUSH1 0x0 DUP1 REVERT JUMPDEST POP PUSH2 0x7C PUSH1 0x4 DUP1 CALLDATASIZE SUB DUP2 ADD SWAP1 PUSH2 0x77 SWAP2 SWAP1 PUSH2 0x547 JUMP JUMPDEST PUSH2 0x219 JUMP JUMPDEST STOP JUMPDEST CALLVALUE DUP1 ISZERO PUSH2 0x8A JUMPI PUSH1 0x0 DUP1 REVERT JUMPDEST POP PUSH2 0xA5 PUSH1 0x4 DUP1 CALLDATASIZE SUB DUP2 ADD SWAP1 PUSH2 0xA0 SWAP2 SWAP1 PUSH2 0x5A3 JUMP JUMPDEST PUSH2 0x32D JUMP JUMPDEST PUSH1 0x40 MLOAD PUSH2 0xB4 SWAP4 SWAP3 SWAP2 SWAP1 PUSH2 0x68B JUMP JUMPDEST PUSH1 0x40 MLOAD DUP1 SWAP2 SUB SWAP1 RETURN JUMPDEST PUSH1 0x0 DUP1 DUP3 DUP2 MSTORE PUSH1 0x20 ADD SWAP1 DUP2 MSTORE PUSH1 0x20 ADD PUSH1 0x0 KECCAK256 PUSH1 0x2 ADD SLOAD CALLVALUE LT ISZERO PUSH2 0x115 JUMPI PUSH1 0x40 MLOAD PUSH32 0x8C379A000000000000000000000000000000000000000000000000000000000 DUP2 MSTORE PUSH1 0x4 ADD PUSH2 0x10C SWAP1 PUSH2 0x6C9 JUMP JUMPDEST PUSH1 0x40 MLOAD DUP1 SWAP2 SUB SWAP1 REVERT JUMPDEST PUSH1 0x0 PUSH1 0x2 DUP2 GT ISZERO PUSH2 0x129 JUMPI PUSH2 0x128 PUSH2 0x93D JUMP JUMPDEST JUMPDEST PUSH1 0x0 DUP1 DUP4 DUP2 MSTORE PUSH1 0x20 ADD SWAP1 DUP2 MSTORE PUSH1 0x20 ADD PUSH1 0x0 KECCAK256 PUSH1 0x0 ADD PUSH1 0x0 SWAP1 SLOAD SWAP1 PUSH2 0x100 EXP SWAP1 DIV PUSH1 0xFF AND PUSH1 0x2 DUP2 GT ISZERO PUSH2 0x15E JUMPI PUSH2 0x15D PUSH2 0x93D JUMP JUMPDEST JUMPDEST EQ PUSH2 0x19E JUMPI PUSH1 0x40 MLOAD PUSH32 0x8C379A000000000000000000000000000000000000000000000000000000000 DUP2 MSTORE PUSH1 0x4 ADD PUSH2 0x195 SWAP1 PUSH2 0x6E9 JUMP JUMPDEST PUSH1 0x40 MLOAD DUP1 SWAP2 SUB SWAP1 REVERT JUMPDEST PUSH1 0x1 PUSH1 0x0 DUP1 DUP4 DUP2 MSTORE PUSH1 0x20 ADD SWAP1 DUP2 MSTORE PUSH1 0x20 ADD PUSH1 0x0 KECCAK256 PUSH1 0x0 ADD PUSH1 0x0 PUSH2 0x100 EXP DUP2 SLOAD DUP2 PUSH1 0xFF MUL NOT AND SWAP1 DUP4 PUSH1 0x2 DUP2 GT ISZERO PUSH2 0x1D7 JUMPI PUSH2 0x1D6 PUSH2 0x93D JUMP JUMPDEST JUMPDEST MUL OR SWAP1 SSTORE POP PUSH32 0x8C198761BA3D324D155CBAF96F0AC38A531C085089E49106D95352535A1110C2 DUP2 PUSH1 0x1 PUSH1 0x40 MLOAD PUSH2 0x20E SWAP3 SWAP2 SWAP1 PUSH2 0x732 JUMP JUMPDEST PUSH1 0x40 MLOAD DUP1 SWAP2 SUB SWAP1 LOG1 POP JUMP JUMPDEST PUSH2 0x221 PUSH2 0x3EC JUMP JUMPDEST DUP3 DUP2 PUSH1 0x20 ADD DUP2 SWAP1 MSTORE POP DUP2 DUP2 PUSH1 0x40 ADD DUP2 DUP2 MSTORE POP POP PUSH1 0x0 DUP2 PUSH1 0x0 ADD SWAP1 PUSH1 0x2 DUP2 GT ISZERO PUSH2 0x24D JUMPI PUSH2 0x24C PUSH2 0x93D JUMP JUMPDEST JUMPDEST SWAP1 DUP2 PUSH1 0x2 DUP2 GT ISZERO PUSH2 0x261 JUMPI PUSH2 0x260 PUSH2 0x93D JUMP JUMPDEST JUMPDEST DUP2 MSTORE POP POP DUP1 PUSH1 0x0 DUP1 PUSH1 0x1 SLOAD DUP2 MSTORE PUSH1 0x20 ADD SWAP1 DUP2 MSTORE PUSH1 0x20 ADD PUSH1 0x0 KECCAK256 PUSH1 0x0 DUP3 ADD MLOAD DUP2 PUSH1 0x0 ADD PUSH1 0x0 PUSH2 0x100 EXP DUP2 SLOAD DUP2 PUSH1 0xFF MUL NOT AND SWAP1 DUP4 PUSH1 0x2 DUP2 GT ISZERO PUSH2 0x2A5 JUMPI PUSH2 0x2A4 PUSH2 0x93D JUMP JUMPDEST JUMPDEST MUL OR SWAP1 SSTORE POP PUSH1 0x20 DUP3 ADD MLOAD DUP2 PUSH1 0x1 ADD SWAP1 DUP1 MLOAD SWAP1 PUSH1 0x20 ADD SWAP1 PUSH2 0x2C6 SWAP3 SWAP2 SWAP1 PUSH2 0x41F JUMP JUMPDEST POP PUSH1 0x40 DUP3 ADD MLOAD DUP2 PUSH1 0x2 ADD SSTORE SWAP1 POP POP PUSH32 0x8C198761BA3D324D155CBAF96F0AC38A531C085089E49106D95352535A1110C2 PUSH1 0x1 SLOAD PUSH1 0x0 PUSH1 0x40 MLOAD PUSH2 0x308 SWAP3 SWAP2 SWAP1 PUSH2 0x709 JUMP JUMPDEST PUSH1 0x40 MLOAD DUP1 SWAP2 SUB SWAP1 LOG1 PUSH1 0x1 PUSH1 0x0 DUP2 SLOAD DUP1 SWAP3 SWAP2 SWAP1 PUSH2 0x323 SWAP1 PUSH2 0x8C5 JUMP JUMPDEST SWAP2 SWAP1 POP SSTORE POP POP POP POP JUMP JUMPDEST PUSH1 0x0 PUSH1 0x20 MSTORE DUP1 PUSH1 0x0 MSTORE PUSH1 0x40 PUSH1 0x0 KECCAK256 PUSH1 0x0 SWAP2 POP SWAP1 POP DUP1 PUSH1 0x0 ADD PUSH1 0x0 SWAP1 SLOAD SWAP1 PUSH2 0x100 EXP SWAP1 DIV PUSH1 0xFF AND SWAP1 DUP1 PUSH1 0x1 ADD DUP1 SLOAD PUSH2 0x363 SWAP1 PUSH2 0x862 JUMP JUMPDEST DUP1 PUSH1 0x1F ADD PUSH1 0x20 DUP1 SWAP2 DIV MUL PUSH1 0x20 ADD PUSH1 0x40 MLOAD SWAP1 DUP2 ADD PUSH1 0x40 MSTORE DUP1 SWAP3 SWAP2 SWAP1 DUP2 DUP2 MSTORE PUSH1 0x20 ADD DUP3 DUP1 SLOAD PUSH2 0x38F SWAP1 PUSH2 0x862 JUMP JUMPDEST DUP1 ISZERO PUSH2 0x3DC JUMPI DUP1 PUSH1 0x1F LT PUSH2 0x3B1 JUMPI PUSH2 0x100 DUP1 DUP4 SLOAD DIV MUL DUP4 MSTORE SWAP2 PUSH1 0x20 ADD SWAP2 PUSH2 0x3DC JUMP JUMPDEST DUP3 ADD SWAP2 SWAP1 PUSH1 0x0 MSTORE PUSH1 0x20 PUSH1 0x0 KECCAK256 SWAP1 JUMPDEST DUP2 SLOAD DUP2 MSTORE SWAP1 PUSH1 0x1 ADD SWAP1 PUSH1 0x20 ADD DUP1 DUP4 GT PUSH2 0x3BF JUMPI DUP3 SWAP1 SUB PUSH1 0x1F AND DUP3 ADD SWAP2 JUMPDEST POP POP POP POP POP SWAP1 DUP1 PUSH1 0x2 ADD SLOAD SWAP1 POP DUP4 JUMP JUMPDEST PUSH1 0x40 MLOAD DUP1 PUSH1 0x60 ADD PUSH1 0x40 MSTORE DUP1 PUSH1 0x0 PUSH1 0x2 DUP2 GT ISZERO PUSH2 0x40B JUMPI PUSH2 0x40A PUSH2 0x93D JUMP JUMPDEST JUMPDEST DUP2 MSTORE PUSH1 0x20 ADD PUSH1 0x60 DUP2 MSTORE PUSH1 0x20 ADD PUSH1 0x0 DUP2 MSTORE POP SWAP1 JUMP JUMPDEST DUP3 DUP1 SLOAD PUSH2 0x42B SWAP1 PUSH2 0x862 JUMP JUMPDEST SWAP1 PUSH1 0x0 MSTORE PUSH1 0x20 PUSH1 0x0 KECCAK256 SWAP1 PUSH1 0x1F ADD PUSH1 0x20 SWAP1 DIV DUP2 ADD SWAP3 DUP3 PUSH2 0x44D JUMPI PUSH1 0x0 DUP6 SSTORE PUSH2 0x494 JUMP JUMPDEST DUP3 PUSH1 0x1F LT PUSH2 0x466 JUMPI DUP1 MLOAD PUSH1 0xFF NOT AND DUP4 DUP1 ADD OR DUP6 SSTORE PUSH2 0x494 JUMP JUMPDEST DUP3 DUP1 ADD PUSH1 0x1 ADD DUP6 SSTORE DUP3 ISZERO PUSH2 0x494 JUMPI SWAP2 DUP3 ADD JUMPDEST DUP3 DUP2 GT ISZERO PUSH2 0x493 JUMPI DUP3 MLOAD DUP3 SSTORE SWAP2 PUSH1 0x20 ADD SWAP2 SWAP1 PUSH1 0x1 ADD SWAP1 PUSH2 0x478 JUMP JUMPDEST JUMPDEST POP SWAP1 POP PUSH2 0x4A1 SWAP2 SWAP1 PUSH2 0x4A5 JUMP JUMPDEST POP SWAP1 JUMP JUMPDEST JUMPDEST DUP1 DUP3 GT ISZERO PUSH2 0x4BE JUMPI PUSH1 0x0 DUP2 PUSH1 0x0 SWAP1 SSTORE POP PUSH1 0x1 ADD PUSH2 0x4A6 JUMP JUMPDEST POP SWAP1 JUMP JUMPDEST PUSH1 0x0 PUSH2 0x4D5 PUSH2 0x4D0 DUP5 PUSH2 0x780 JUMP JUMPDEST PUSH2 0x75B JUMP JUMPDEST SWAP1 POP DUP3 DUP2 MSTORE PUSH1 0x20 DUP2 ADD DUP5 DUP5 DUP5 ADD GT ISZERO PUSH2 0x4F1 JUMPI PUSH2 0x4F0 PUSH2 0x9CF JUMP JUMPDEST JUMPDEST PUSH2 0x4FC DUP5 DUP3 DUP6 PUSH2 0x820 JUMP JUMPDEST POP SWAP4 SWAP3 POP POP POP JUMP JUMPDEST PUSH1 0x0 DUP3 PUSH1 0x1F DUP4 ADD SLT PUSH2 0x519 JUMPI PUSH2 0x518 PUSH2 0x9CA JUMP JUMPDEST JUMPDEST DUP2 CALLDATALOAD PUSH2 0x529 DUP5 DUP3 PUSH1 0x20 DUP7 ADD PUSH2 0x4C2 JUMP JUMPDEST SWAP2 POP POP SWAP3 SWAP2 POP POP JUMP JUMPDEST PUSH1 0x0 DUP2 CALLDATALOAD SWAP1 POP PUSH2 0x541 DUP2 PUSH2 0xA55 JUMP JUMPDEST SWAP3 SWAP2 POP POP JUMP JUMPDEST PUSH1 0x0 DUP1 PUSH1 0x40 DUP4 DUP6 SUB SLT ISZERO PUSH2 0x55E JUMPI PUSH2 0x55D PUSH2 0x9D9 JUMP JUMPDEST JUMPDEST PUSH1 0x0 DUP4 ADD CALLDATALOAD PUSH8 0xFFFFFFFFFFFFFFFF DUP2 GT ISZERO PUSH2 0x57C JUMPI PUSH2 0x57B PUSH2 0x9D4 JUMP JUMPDEST JUMPDEST PUSH2 0x588 DUP6 DUP3 DUP7 ADD PUSH2 0x504 JUMP JUMPDEST SWAP3 POP POP PUSH1 0x20 PUSH2 0x599 DUP6 DUP3 DUP7 ADD PUSH2 0x532 JUMP JUMPDEST SWAP2 POP POP SWAP3 POP SWAP3 SWAP1 POP JUMP JUMPDEST PUSH1 0x0 PUSH1 0x20 DUP3 DUP5 SUB SLT ISZERO PUSH2 0x5B9 JUMPI PUSH2 0x5B8 PUSH2 0x9D9 JUMP JUMPDEST JUMPDEST PUSH1 0x0 PUSH2 0x5C7 DUP5 DUP3 DUP6 ADD PUSH2 0x532 JUMP JUMPDEST SWAP2 POP POP SWAP3 SWAP2 POP POP JUMP JUMPDEST PUSH2 0x5D9 DUP2 PUSH2 0x7EA JUMP JUMPDEST DUP3 MSTORE POP POP JUMP JUMPDEST PUSH2 0x5E8 DUP2 PUSH2 0x7FC JUMP JUMPDEST DUP3 MSTORE POP POP JUMP JUMPDEST PUSH2 0x5F7 DUP2 PUSH2 0x80E JUMP JUMPDEST DUP3 MSTORE POP POP JUMP JUMPDEST PUSH1 0x0 PUSH2 0x608 DUP3 PUSH2 0x7B1 JUMP JUMPDEST PUSH2 0x612 DUP2 DUP6 PUSH2 0x7BC JUMP JUMPDEST SWAP4 POP PUSH2 0x622 DUP2 DUP6 PUSH1 0x20 DUP7 ADD PUSH2 0x82F JUMP JUMPDEST PUSH2 0x62B DUP2 PUSH2 0x9DE JUMP JUMPDEST DUP5 ADD SWAP2 POP POP SWAP3 SWAP2 POP POP JUMP JUMPDEST PUSH1 0x0 PUSH2 0x643 PUSH1 0x1C DUP4 PUSH2 0x7BC JUMP JUMPDEST SWAP2 POP PUSH2 0x64E DUP3 PUSH2 0x9EF JUMP JUMPDEST PUSH1 0x20 DUP3 ADD SWAP1 POP SWAP2 SWAP1 POP JUMP JUMPDEST PUSH1 0x0 PUSH2 0x666 PUSH1 0x14 DUP4 PUSH2 0x7BC JUMP JUMPDEST SWAP2 POP PUSH2 0x671 DUP3 PUSH2 0xA18 JUMP JUMPDEST PUSH1 0x20 DUP3 ADD SWAP1 POP SWAP2 SWAP1 POP JUMP JUMPDEST PUSH2 0x685 DUP2 PUSH2 0x7E0 JUMP JUMPDEST DUP3 MSTORE POP POP JUMP JUMPDEST PUSH1 0x0 PUSH1 0x60 DUP3 ADD SWAP1 POP PUSH2 0x6A0 PUSH1 0x0 DUP4 ADD DUP7 PUSH2 0x5D0 JUMP JUMPDEST DUP2 DUP2 SUB PUSH1 0x20 DUP4 ADD MSTORE PUSH2 0x6B2 DUP2 DUP6 PUSH2 0x5FD JUMP JUMPDEST SWAP1 POP PUSH2 0x6C1 PUSH1 0x40 DUP4 ADD DUP5 PUSH2 0x67C JUMP JUMPDEST SWAP5 SWAP4 POP POP POP POP JUMP JUMPDEST PUSH1 0x0 PUSH1 0x20 DUP3 ADD SWAP1 POP DUP2 DUP2 SUB PUSH1 0x0 DUP4 ADD MSTORE PUSH2 0x6E2 DUP2 PUSH2 0x636 JUMP JUMPDEST SWAP1 POP SWAP2 SWAP1 POP JUMP JUMPDEST PUSH1 0x0 PUSH1 0x20 DUP3 ADD SWAP1 POP DUP2 DUP2 SUB PUSH1 0x0 DUP4 ADD MSTORE PUSH2 0x702 DUP2 PUSH2 0x659 JUMP JUMPDEST SWAP1 POP SWAP2 SWAP1 POP JUMP JUMPDEST PUSH1 0x0 PUSH1 0x40 DUP3 ADD SWAP1 POP PUSH2 0x71E PUSH1 0x0 DUP4 ADD DUP6 PUSH2 0x67C JUMP JUMPDEST PUSH2 0x72B PUSH1 0x20 DUP4 ADD DUP5 PUSH2 0x5DF JUMP JUMPDEST SWAP4 SWAP3 POP POP POP JUMP JUMPDEST PUSH1 0x0 PUSH1 0x40 DUP3 ADD SWAP1 POP PUSH2 0x747 PUSH1 0x0 DUP4 ADD DUP6 PUSH2 0x67C JUMP JUMPDEST PUSH2 0x754 PUSH1 0x20 DUP4 ADD DUP5 PUSH2 0x5EE JUMP JUMPDEST SWAP4 SWAP3 POP POP POP JUMP JUMPDEST PUSH1 0x0 PUSH2 0x765 PUSH2 0x776 JUMP JUMPDEST SWAP1 POP PUSH2 0x771 DUP3 DUP3 PUSH2 0x894 JUMP JUMPDEST SWAP2 SWAP1 POP JUMP JUMPDEST PUSH1 0x0 PUSH1 0x40 MLOAD SWAP1 POP SWAP1 JUMP JUMPDEST PUSH1 0x0 PUSH8 0xFFFFFFFFFFFFFFFF DUP3 GT ISZERO PUSH2 0x79B JUMPI PUSH2 0x79A PUSH2 0x99B JUMP JUMPDEST JUMPDEST PUSH2 0x7A4 DUP3 PUSH2 0x9DE JUMP JUMPDEST SWAP1 POP PUSH1 0x20 DUP2 ADD SWAP1 POP SWAP2 SWAP1 POP JUMP JUMPDEST PUSH1 0x0 DUP2 MLOAD SWAP1 POP SWAP2 SWAP1 POP JUMP JUMPDEST PUSH1 0x0 DUP3 DUP3 MSTORE PUSH1 0x20 DUP3 ADD SWAP1 POP SWAP3 SWAP2 POP POP JUMP JUMPDEST PUSH1 0x0 DUP2 SWAP1 POP PUSH2 0x7DB DUP3 PUSH2 0xA41 JUMP JUMPDEST SWAP2 SWAP1 POP JUMP JUMPDEST PUSH1 0x0 DUP2 SWAP1 POP SWAP2 SWAP1 POP JUMP JUMPDEST PUSH1 0x0 PUSH2 0x7F5 DUP3 PUSH2 0x7CD JUMP JUMPDEST SWAP1 POP SWAP2 SWAP1 POP JUMP JUMPDEST PUSH1 0x0 PUSH2 0x807 DUP3 PUSH2 0x7E0 JUMP JUMPDEST SWAP1 POP SWAP2 SWAP1 POP JUMP JUMPDEST PUSH1 0x0 PUSH2 0x819 DUP3 PUSH2 0x7E0 JUMP JUMPDEST SWAP1 POP SWAP2 SWAP1 POP JUMP JUMPDEST DUP3 DUP2 DUP4 CALLDATACOPY PUSH1 0x0 DUP4 DUP4 ADD MSTORE POP POP POP JUMP JUMPDEST PUSH1 0x0 JUMPDEST DUP4 DUP2 LT ISZERO PUSH2 0x84D JUMPI DUP1 DUP3 ADD MLOAD DUP2 DUP5 ADD MSTORE PUSH1 0x20 DUP2 ADD SWAP1 POP PUSH2 0x832 JUMP JUMPDEST DUP4 DUP2 GT ISZERO PUSH2 0x85C JUMPI PUSH1 0x0 DUP5 DUP5 ADD MSTORE JUMPDEST POP POP POP POP JUMP JUMPDEST PUSH1 0x0 PUSH1 0x2 DUP3 DIV SWAP1 POP PUSH1 0x1 DUP3 AND DUP1 PUSH2 0x87A JUMPI PUSH1 0x7F DUP3 AND SWAP2 POP JUMPDEST PUSH1 0x20 DUP3 LT DUP2 EQ ISZERO PUSH2 0x88E JUMPI PUSH2 0x88D PUSH2 0x96C JUMP JUMPDEST JUMPDEST POP SWAP2 SWAP1 POP JUMP JUMPDEST PUSH2 0x89D DUP3 PUSH2 0x9DE JUMP JUMPDEST DUP2 ADD DUP2 DUP2 LT PUSH8 0xFFFFFFFFFFFFFFFF DUP3 GT OR ISZERO PUSH2 0x8BC JUMPI PUSH2 0x8BB PUSH2 0x99B JUMP JUMPDEST JUMPDEST DUP1 PUSH1 0x40 MSTORE POP POP POP JUMP JUMPDEST PUSH1 0x0 PUSH2 0x8D0 DUP3 PUSH2 0x7E0 JUMP JUMPDEST SWAP2 POP PUSH32 0xFFFFFFFFFFFFFFFFFFFFFFFFFFFFFFFFFFFFFFFFFFFFFFFFFFFFFFFFFFFFFFFF DUP3 EQ ISZERO PUSH2 0x903 JUMPI PUSH2 0x902 PUSH2 0x90E JUMP JUMPDEST JUMPDEST PUSH1 0x1 DUP3 ADD SWAP1 POP SWAP2 SWAP1 POP JUMP JUMPDEST PUSH32 0x4E487B7100000000000000000000000000000000000000000000000000000000 PUSH1 0x0 MSTORE PUSH1 0x11 PUSH1 0x4 MSTORE PUSH1 0x24 PUSH1 0x0 REVERT JUMPDEST PUSH32 0x4E487B7100000000000000000000000000000000000000000000000000000000 PUSH1 0x0 MSTORE PUSH1 0x21 PUSH1 0x4 MSTORE PUSH1 0x24 PUSH1 0x0 REVERT JUMPDEST PUSH32 0x4E487B7100000000000000000000000000000000000000000000000000000000 PUSH1 0x0 MSTORE PUSH1 0x22 PUSH1 0x4 MSTORE PUSH1 0x24 PUSH1 0x0 REVERT JUMPDEST PUSH32 0x4E487B7100000000000000000000000000000000000000000000000000000000 PUSH1 0x0 MSTORE PUSH1 0x41 PUSH1 0x4 MSTORE PUSH1 0x24 PUSH1 0x0 REVERT JUMPDEST PUSH1 0x0 DUP1 REVERT JUMPDEST PUSH1 0x0 DUP1 REVERT JUMPDEST PUSH1 0x0 DUP1 REVERT JUMPDEST PUSH1 0x0 DUP1 REVERT JUMPDEST PUSH1 0x0 PUSH1 0x1F NOT PUSH1 0x1F DUP4 ADD AND SWAP1 POP SWAP2 SWAP1 POP JUMP JUMPDEST PUSH32 0x596F7520646F206E6F74206861766520656E6F75676820657468657200000000 PUSH1 0x0 DUP3 ADD MSTORE POP JUMP JUMPDEST PUSH32 0x4974656D20697320616C72656164792070616964000000000000000000000000 PUSH1 0x0 DUP3 ADD MSTORE POP JUMP JUMPDEST PUSH1 0x3 DUP2 LT PUSH2 0xA52 JUMPI PUSH2 0xA51 PUSH2 0x93D JUMP JUMPDEST JUMPDEST POP JUMP JUMPDEST PUSH2 0xA5E DUP2 PUSH2 0x7E0 JUMP JUMPDEST DUP2 EQ PUSH2 0xA69 JUMPI PUSH1 0x0 DUP1 REVERT JUMPDEST POP JUMP INVALID LOG2 PUSH5 0x6970667358 0x22 SLT KECCAK256 0xAD PUSH1 0x8C CODECOPY 0xDD INVALID SWAP12 PUSH6 0x8A949B5444C4 DUP1 0x24 DUP14 0xB7 CALLCODE 0xE2 0x5D BALANCE PUSH22 0x79BD4F5196D4126F8A64736F6C634300080700330000 "
				},
				"gasEstimates": {
					"creation": {
						"codeDepositCost": "544400",
						"executionCost": "581",
						"totalCost": "544981"
					},
					"external": {
						"createItem(string,uint256)": "infinite",
						"items(uint256)": "infinite",
						"triggerPayment(uint256)": "infinite"
					}
				},
				"methodIdentifiers": {
					"createItem(string,uint256)": "8c551742",
					"items(uint256)": "bfb231d2",
					"triggerPayment(uint256)": "800fb83f"
				}
			},
			"storageLayout": {
				"storage": [
					{
						"astId": 18,
						"contract": "contracts/EventTrigger.sol:ItemManager",
						"label": "items",
						"offset": 0,
						"slot": "0",
						"type": "t_mapping(t_uint256,t_struct(S_Item)13_storage)"
					},
					{
						"astId": 20,
						"contract": "contracts/EventTrigger.sol:ItemManager",
						"label": "index",
						"offset": 0,
						"slot": "1",
						"type": "t_uint256"
					}
				],
				"types": {
					"t_enum(SupplyChainSteps)5": {
						"encoding": "inplace",
						"label": "enum ItemManager.SupplyChainSteps",
						"numberOfBytes": "1"
					},
					"t_mapping(t_uint256,t_struct(S_Item)13_storage)": {
						"encoding": "mapping",
						"key": "t_uint256",
						"label": "mapping(uint256 => struct ItemManager.S_Item)",
						"numberOfBytes": "32",
						"value": "t_struct(S_Item)13_storage"
					},
					"t_string_storage": {
						"encoding": "bytes",
						"label": "string",
						"numberOfBytes": "32"
					},
					"t_struct(S_Item)13_storage": {
						"encoding": "inplace",
						"label": "struct ItemManager.S_Item",
						"members": [
							{
								"astId": 8,
								"contract": "contracts/EventTrigger.sol:ItemManager",
								"label": "_step",
								"offset": 0,
								"slot": "0",
								"type": "t_enum(SupplyChainSteps)5"
							},
							{
								"astId": 10,
								"contract": "contracts/EventTrigger.sol:ItemManager",
								"label": "identifier",
								"offset": 0,
								"slot": "1",
								"type": "t_string_storage"
							},
							{
								"astId": 12,
								"contract": "contracts/EventTrigger.sol:ItemManager",
								"label": "priceInWei",
								"offset": 0,
								"slot": "2",
								"type": "t_uint256"
							}
						],
						"numberOfBytes": "96"
					},
					"t_uint256": {
						"encoding": "inplace",
						"label": "uint256",
						"numberOfBytes": "32"
					}
				}
			},
			"userdoc": {
				"kind": "user",
				"methods": {},
				"version": 1
			}
		}
	}
}