{
	"contracts/Attack.sol": {
		"Attack": {
			"abi": [
				{
					"inputs": [],
					"name": "attack",
					"outputs": [],
					"stateMutability": "payable",
					"type": "function"
				},
				{
					"inputs": [],
					"name": "depositWithdraw",
					"outputs": [
						{
							"internalType": "contract DepositWithdraw",
							"name": "",
							"type": "address"
						}
					],
					"stateMutability": "view",
					"type": "function"
				},
				{
					"stateMutability": "payable",
					"type": "receive"
				}
			],
			"devdoc": {
				"kind": "dev",
				"methods": {},
				"version": 1
			},
			"evm": {
				"assembly": "    /* \"contracts/Attack.sol\":94:294  contract Attack{\r... */\n  mstore(0x40, 0x80)\n  callvalue\n  dup1\n  iszero\n  tag_1\n  jumpi\n  0x00\n  dup1\n  revert\ntag_1:\n  pop\n  dataSize(sub_0)\n  dup1\n  dataOffset(sub_0)\n  0x00\n  codecopy\n  0x00\n  return\nstop\n\nsub_0: assembly {\n        /* \"contracts/Attack.sol\":94:294  contract Attack{\r... */\n      mstore(0x40, 0x80)\n      jumpi(tag_1, lt(calldatasize, 0x04))\n      shr(0xe0, calldataload(0x00))\n      dup1\n      0x6e0e0da2\n      eq\n      tag_3\n      jumpi\n      dup1\n      0x9e5faafc\n      eq\n      tag_4\n      jumpi\n      jump(tag_2)\n    tag_1:\n      jumpi(tag_2, calldatasize)\n      stop\n    tag_2:\n      0x00\n      dup1\n      revert\n        /* \"contracts/Attack.sol\":116:154  DepositWithdraw public depositWithdraw */\n    tag_3:\n      callvalue\n      dup1\n      iszero\n      tag_7\n      jumpi\n      0x00\n      dup1\n      revert\n    tag_7:\n      pop\n      tag_8\n      tag_9\n      jump\t// in\n    tag_8:\n      mload(0x40)\n      tag_10\n      swap2\n      swap1\n      tag_11\n      jump\t// in\n    tag_10:\n      mload(0x40)\n      dup1\n      swap2\n      sub\n      swap1\n      return\n        /* \"contracts/Attack.sol\":213:289  function attack() public payable{\r... */\n    tag_4:\n      tag_12\n      tag_13\n      jump\t// in\n    tag_12:\n      stop\n        /* \"contracts/Attack.sol\":116:154  DepositWithdraw public depositWithdraw */\n    tag_9:\n      0x00\n      dup1\n      sload\n      swap1\n      0x0100\n      exp\n      swap1\n      div\n      0xffffffffffffffffffffffffffffffffffffffff\n      and\n      dup2\n      jump\t// out\n        /* \"contracts/Attack.sol\":213:289  function attack() public payable{\r... */\n    tag_13:\n        /* \"contracts/Attack.sol\":256:267  uint amount */\n      0x00\n        /* \"contracts/Attack.sol\":270:279  msg.value */\n      callvalue\n        /* \"contracts/Attack.sol\":256:279  uint amount = msg.value */\n      swap1\n      pop\n        /* \"contracts/Attack.sol\":245:289  {\r... */\n      pop\n        /* \"contracts/Attack.sol\":213:289  function attack() public payable{\r... */\n      jump\t// out\n        /* \"#utility.yul\":7:182   */\n    tag_16:\n        /* \"#utility.yul\":116:175   */\n      tag_18\n        /* \"#utility.yul\":169:174   */\n      dup2\n        /* \"#utility.yul\":116:175   */\n      tag_19\n      jump\t// in\n    tag_18:\n        /* \"#utility.yul\":111:114   */\n      dup3\n        /* \"#utility.yul\":104:176   */\n      mstore\n        /* \"#utility.yul\":7:182   */\n      pop\n      pop\n      jump\t// out\n        /* \"#utility.yul\":188:454   */\n    tag_11:\n        /* \"#utility.yul\":303:307   */\n      0x00\n        /* \"#utility.yul\":341:343   */\n      0x20\n        /* \"#utility.yul\":330:339   */\n      dup3\n        /* \"#utility.yul\":326:344   */\n      add\n        /* \"#utility.yul\":318:344   */\n      swap1\n      pop\n        /* \"#utility.yul\":354:447   */\n      tag_21\n        /* \"#utility.yul\":444:445   */\n      0x00\n        /* \"#utility.yul\":433:442   */\n      dup4\n        /* \"#utility.yul\":429:446   */\n      add\n        /* \"#utility.yul\":420:426   */\n      dup5\n        /* \"#utility.yul\":354:447   */\n      tag_16\n      jump\t// in\n    tag_21:\n        /* \"#utility.yul\":188:454   */\n      swap3\n      swap2\n      pop\n      pop\n      jump\t// out\n        /* \"#utility.yul\":460:586   */\n    tag_22:\n        /* \"#utility.yul\":497:504   */\n      0x00\n        /* \"#utility.yul\":537:579   */\n      0xffffffffffffffffffffffffffffffffffffffff\n        /* \"#utility.yul\":530:535   */\n      dup3\n        /* \"#utility.yul\":526:580   */\n      and\n        /* \"#utility.yul\":515:580   */\n      swap1\n      pop\n        /* \"#utility.yul\":460:586   */\n      swap2\n      swap1\n      pop\n      jump\t// out\n        /* \"#utility.yul\":592:740   */\n    tag_19:\n        /* \"#utility.yul\":664:673   */\n      0x00\n        /* \"#utility.yul\":697:734   */\n      tag_25\n        /* \"#utility.yul\":728:733   */\n      dup3\n        /* \"#utility.yul\":697:734   */\n      tag_26\n      jump\t// in\n    tag_25:\n        /* \"#utility.yul\":684:734   */\n      swap1\n      pop\n        /* \"#utility.yul\":592:740   */\n      swap2\n      swap1\n      pop\n      jump\t// out\n        /* \"#utility.yul\":746:872   */\n    tag_26:\n        /* \"#utility.yul\":796:805   */\n      0x00\n        /* \"#utility.yul\":829:866   */\n      tag_28\n        /* \"#utility.yul\":860:865   */\n      dup3\n        /* \"#utility.yul\":829:866   */\n      tag_29\n      jump\t// in\n    tag_28:\n        /* \"#utility.yul\":816:866   */\n      swap1\n      pop\n        /* \"#utility.yul\":746:872   */\n      swap2\n      swap1\n      pop\n      jump\t// out\n        /* \"#utility.yul\":878:991   */\n    tag_29:\n        /* \"#utility.yul\":928:937   */\n      0x00\n        /* \"#utility.yul\":961:985   */\n      tag_31\n        /* \"#utility.yul\":979:984   */\n      dup3\n        /* \"#utility.yul\":961:985   */\n      tag_22\n      jump\t// in\n    tag_31:\n        /* \"#utility.yul\":948:985   */\n      swap1\n      pop\n        /* \"#utility.yul\":878:991   */\n      swap2\n      swap1\n      pop\n      jump\t// out\n\n    auxdata: 0xa26469706673582212203d28bc1587b6258a8eb6d5349f0dce07363769c2979d5e7ce72a935970ed390964736f6c63430008070033\n}\n",
				"bytecode": {
					"linkReferences": {},
					"object": "608060405234801561001057600080fd5b50610150806100206000396000f3fe60806040526004361061002d5760003560e01c80636e0e0da2146100395780639e5faafc1461006457610034565b3661003457005b600080fd5b34801561004557600080fd5b5061004e61006e565b60405161005b91906100a9565b60405180910390f35b61006c610092565b005b60008054906101000a900473ffffffffffffffffffffffffffffffffffffffff1681565b600034905050565b6100a3816100e4565b82525050565b60006020820190506100be600083018461009a565b92915050565b600073ffffffffffffffffffffffffffffffffffffffff82169050919050565b60006100ef826100f6565b9050919050565b600061010182610108565b9050919050565b6000610113826100c4565b905091905056fea26469706673582212203d28bc1587b6258a8eb6d5349f0dce07363769c2979d5e7ce72a935970ed390964736f6c63430008070033",
					"opcodes": "PUSH1 0x80 PUSH1 0x40 MSTORE CALLVALUE DUP1 ISZERO PUSH2 0x10 JUMPI PUSH1 0x0 DUP1 REVERT JUMPDEST POP PUSH2 0x150 DUP1 PUSH2 0x20 PUSH1 0x0 CODECOPY PUSH1 0x0 RETURN INVALID PUSH1 0x80 PUSH1 0x40 MSTORE PUSH1 0x4 CALLDATASIZE LT PUSH2 0x2D JUMPI PUSH1 0x0 CALLDATALOAD PUSH1 0xE0 SHR DUP1 PUSH4 0x6E0E0DA2 EQ PUSH2 0x39 JUMPI DUP1 PUSH4 0x9E5FAAFC EQ PUSH2 0x64 JUMPI PUSH2 0x34 JUMP JUMPDEST CALLDATASIZE PUSH2 0x34 JUMPI STOP JUMPDEST PUSH1 0x0 DUP1 REVERT JUMPDEST CALLVALUE DUP1 ISZERO PUSH2 0x45 JUMPI PUSH1 0x0 DUP1 REVERT JUMPDEST POP PUSH2 0x4E PUSH2 0x6E JUMP JUMPDEST PUSH1 0x40 MLOAD PUSH2 0x5B SWAP2 SWAP1 PUSH2 0xA9 JUMP JUMPDEST PUSH1 0x40 MLOAD DUP1 SWAP2 SUB SWAP1 RETURN JUMPDEST PUSH2 0x6C PUSH2 0x92 JUMP JUMPDEST STOP JUMPDEST PUSH1 0x0 DUP1 SLOAD SWAP1 PUSH2 0x100 EXP SWAP1 DIV PUSH20 0xFFFFFFFFFFFFFFFFFFFFFFFFFFFFFFFFFFFFFFFF AND DUP2 JUMP JUMPDEST PUSH1 0x0 CALLVALUE SWAP1 POP POP JUMP JUMPDEST PUSH2 0xA3 DUP2 PUSH2 0xE4 JUMP JUMPDEST DUP3 MSTORE POP POP JUMP JUMPDEST PUSH1 0x0 PUSH1 0x20 DUP3 ADD SWAP1 POP PUSH2 0xBE PUSH1 0x0 DUP4 ADD DUP5 PUSH2 0x9A JUMP JUMPDEST SWAP3 SWAP2 POP POP JUMP JUMPDEST PUSH1 0x0 PUSH20 0xFFFFFFFFFFFFFFFFFFFFFFFFFFFFFFFFFFFFFFFF DUP3 AND SWAP1 POP SWAP2 SWAP1 POP JUMP JUMPDEST PUSH1 0x0 PUSH2 0xEF DUP3 PUSH2 0xF6 JUMP JUMPDEST SWAP1 POP SWAP2 SWAP1 POP JUMP JUMPDEST PUSH1 0x0 PUSH2 0x101 DUP3 PUSH2 0x108 JUMP JUMPDEST SWAP1 POP SWAP2 SWAP1 POP JUMP JUMPDEST PUSH1 0x0 PUSH2 0x113 DUP3 PUSH2 0xC4 JUMP JUMPDEST SWAP1 POP SWAP2 SWAP1 POP JUMP INVALID LOG2 PUSH5 0x6970667358 0x22 SLT KECCAK256 RETURNDATASIZE 0x28 0xBC ISZERO DUP8 0xB6 0x25 DUP11 DUP15 0xB6 0xD5 CALLVALUE SWAP16 0xD 0xCE SMOD CALLDATASIZE CALLDATACOPY PUSH10 0xC2979D5E7CE72A935970 0xED CODECOPY MULMOD PUSH5 0x736F6C6343 STOP ADDMOD SMOD STOP CALLER "
				},
				"gasEstimates": {
					"creation": {
						"codeDepositCost": "67200",
						"executionCost": "117",
						"totalCost": "67317"
					},
					"external": {
						"attack()": "132",
						"depositWithdraw()": "2575"
					}
				},
				"methodIdentifiers": {
					"attack()": "9e5faafc",
					"depositWithdraw()": "6e0e0da2"
				}
			},
			"storageLayout": {
				"storage": [
					{
						"astId": 5,
						"contract": "contracts/Attack.sol:Attack",
						"label": "depositWithdraw",
						"offset": 0,
						"slot": "0",
						"type": "t_contract(DepositWithdraw)69"
					}
				],
				"types": {
					"t_contract(DepositWithdraw)69": {
						"encoding": "inplace",
						"label": "contract DepositWithdraw",
						"numberOfBytes": "20"
					}
				}
			},
			"userdoc": {
				"kind": "user",
				"methods": {},
				"version": 1
			}
		}
	}
}