{
	"contracts/EventTrigger.sol": {
		"ItemManager": {
			"abi": [
				{
					"anonymous": false,
					"inputs": [
						{
							"indexed": false,
							"internalType": "uint256",
							"name": "_itemIndex",
							"type": "uint256"
						},
						{
							"indexed": false,
							"internalType": "uint256",
							"name": "_step",
							"type": "uint256"
						}
					],
					"name": "SupplyChainStep",
					"type": "event"
				},
				{
					"inputs": [
						{
							"internalType": "string",
							"name": "_identifier",
							"type": "string"
						},
						{
							"internalType": "uint256",
							"name": "_priceInWei",
							"type": "uint256"
						}
					],
					"name": "createItem",
					"outputs": [],
					"stateMutability": "nonpayable",
					"type": "function"
				},
				{
					"inputs": [
						{
							"internalType": "uint256",
							"name": "",
							"type": "uint256"
						}
					],
					"name": "items",
					"outputs": [
						{
							"internalType": "enum ItemManager.SupplyChainSteps",
							"name": "_step",
							"type": "uint8"
						},
						{
							"internalType": "string",
							"name": "identifier",
							"type": "string"
						},
						{
							"internalType": "uint256",
							"name": "priceInWei",
							"type": "uint256"
						}
					],
					"stateMutability": "view",
					"type": "function"
				}
			],
			"devdoc": {
				"kind": "dev",
				"methods": {},
				"version": 1
			},
			"evm": {
				"assembly": "    /* \"contracts/EventTrigger.sol\":61:733  contract ItemManager{\r... */\n  mstore(0x40, 0x80)\n  callvalue\n  dup1\n  iszero\n  tag_1\n  jumpi\n  0x00\n  dup1\n  revert\ntag_1:\n  pop\n  dataSize(sub_0)\n  dup1\n  dataOffset(sub_0)\n  0x00\n  codecopy\n  0x00\n  return\nstop\n\nsub_0: assembly {\n        /* \"contracts/EventTrigger.sol\":61:733  contract ItemManager{\r... */\n      mstore(0x40, 0x80)\n      callvalue\n      dup1\n      iszero\n      tag_1\n      jumpi\n      0x00\n      dup1\n      revert\n    tag_1:\n      pop\n      jumpi(tag_2, lt(calldatasize, 0x04))\n      shr(0xe0, calldataload(0x00))\n      dup1\n      0x8c551742\n      eq\n      tag_3\n      jumpi\n      dup1\n      0xbfb231d2\n      eq\n      tag_4\n      jumpi\n    tag_2:\n      0x00\n      dup1\n      revert\n        /* \"contracts/EventTrigger.sol\":395:728  function createItem(string memory _identifier, uint _priceInWei) public {\r... */\n    tag_3:\n      tag_5\n      0x04\n      dup1\n      calldatasize\n      sub\n      dup2\n      add\n      swap1\n      tag_6\n      swap2\n      swap1\n      tag_7\n      jump\t// in\n    tag_6:\n      tag_8\n      jump\t// in\n    tag_5:\n      stop\n        /* \"contracts/EventTrigger.sol\":273:310  mapping (uint => S_Item) public items */\n    tag_4:\n      tag_9\n      0x04\n      dup1\n      calldatasize\n      sub\n      dup2\n      add\n      swap1\n      tag_10\n      swap2\n      swap1\n      tag_11\n      jump\t// in\n    tag_10:\n      tag_12\n      jump\t// in\n    tag_9:\n      mload(0x40)\n      tag_13\n      swap4\n      swap3\n      swap2\n      swap1\n      tag_14\n      jump\t// in\n    tag_13:\n      mload(0x40)\n      dup1\n      swap2\n      sub\n      swap1\n      return\n        /* \"contracts/EventTrigger.sol\":395:728  function createItem(string memory _identifier, uint _priceInWei) public {\r... */\n    tag_8:\n        /* \"contracts/EventTrigger.sol\":478:499  S_Item memory newItem */\n      tag_16\n      tag_17\n      jump\t// in\n    tag_16:\n        /* \"contracts/EventTrigger.sol\":531:542  _identifier */\n      dup3\n        /* \"contracts/EventTrigger.sol\":510:517  newItem */\n      dup2\n        /* \"contracts/EventTrigger.sol\":510:528  newItem.identifier */\n      0x20\n      add\n        /* \"contracts/EventTrigger.sol\":510:542  newItem.identifier = _identifier */\n      dup2\n      swap1\n      mstore\n      pop\n        /* \"contracts/EventTrigger.sol\":574:585  _priceInWei */\n      dup2\n        /* \"contracts/EventTrigger.sol\":553:560  newItem */\n      dup2\n        /* \"contracts/EventTrigger.sol\":553:571  newItem.priceInWei */\n      0x40\n      add\n        /* \"contracts/EventTrigger.sol\":553:585  newItem.priceInWei = _priceInWei */\n      dup2\n      dup2\n      mstore\n      pop\n      pop\n        /* \"contracts/EventTrigger.sol\":612:636  SupplyChainSteps.Created */\n      0x00\n        /* \"contracts/EventTrigger.sol\":596:603  newItem */\n      dup2\n        /* \"contracts/EventTrigger.sol\":596:609  newItem._step */\n      0x00\n      add\n        /* \"contracts/EventTrigger.sol\":596:636  newItem._step = SupplyChainSteps.Created */\n      swap1\n      0x02\n      dup2\n      gt\n      iszero\n      tag_18\n      jumpi\n      tag_19\n      tag_20\n      jump\t// in\n    tag_19:\n    tag_18:\n      swap1\n      dup2\n      0x02\n      dup2\n      gt\n      iszero\n      tag_21\n      jumpi\n      tag_22\n      tag_20\n      jump\t// in\n    tag_22:\n    tag_21:\n      dup2\n      mstore\n      pop\n      pop\n        /* \"contracts/EventTrigger.sol\":662:669  newItem */\n      dup1\n        /* \"contracts/EventTrigger.sol\":647:652  items */\n      0x00\n        /* \"contracts/EventTrigger.sol\":647:659  items[index] */\n      dup1\n        /* \"contracts/EventTrigger.sol\":653:658  index */\n      sload(0x01)\n        /* \"contracts/EventTrigger.sol\":647:659  items[index] */\n      dup2\n      mstore\n      0x20\n      add\n      swap1\n      dup2\n      mstore\n      0x20\n      add\n      0x00\n      keccak256\n        /* \"contracts/EventTrigger.sol\":647:669  items[index] = newItem */\n      0x00\n      dup3\n      add\n      mload\n      dup2\n      0x00\n      add\n      exp(0x0100, 0x00)\n      dup2\n      sload\n      dup2\n      0xff\n      mul\n      not\n      and\n      swap1\n      dup4\n      0x02\n      dup2\n      gt\n      iszero\n      tag_23\n      jumpi\n      tag_24\n      tag_20\n      jump\t// in\n    tag_24:\n    tag_23:\n      mul\n      or\n      swap1\n      sstore\n      pop\n      0x20\n      dup3\n      add\n      mload\n      dup2\n      0x01\n      add\n      swap1\n      dup1\n      mload\n      swap1\n      0x20\n      add\n      swap1\n      tag_25\n      swap3\n      swap2\n      swap1\n      tag_26\n      jump\t// in\n    tag_25:\n      pop\n      0x40\n      dup3\n      add\n      mload\n      dup2\n      0x02\n      add\n      sstore\n      swap1\n      pop\n      pop\n        /* \"contracts/EventTrigger.sol\":685:710  SupplyChainStep(index, 0) */\n      0x8c198761ba3d324d155cbaf96f0ac38a531c085089e49106d95352535a1110c2\n        /* \"contracts/EventTrigger.sol\":701:706  index */\n      sload(0x01)\n        /* \"contracts/EventTrigger.sol\":708:709  0 */\n      0x00\n        /* \"contracts/EventTrigger.sol\":685:710  SupplyChainStep(index, 0) */\n      mload(0x40)\n      tag_27\n      swap3\n      swap2\n      swap1\n      tag_28\n      jump\t// in\n    tag_27:\n      mload(0x40)\n      dup1\n      swap2\n      sub\n      swap1\n      log1\n        /* \"contracts/EventTrigger.sol\":467:728  {\r... */\n      pop\n        /* \"contracts/EventTrigger.sol\":395:728  function createItem(string memory _identifier, uint _priceInWei) public {\r... */\n      pop\n      pop\n      jump\t// out\n        /* \"contracts/EventTrigger.sol\":273:310  mapping (uint => S_Item) public items */\n    tag_12:\n      mstore(0x20, 0x00)\n      dup1\n      0x00\n      mstore\n      keccak256(0x00, 0x40)\n      0x00\n      swap2\n      pop\n      swap1\n      pop\n      dup1\n      0x00\n      add\n      0x00\n      swap1\n      sload\n      swap1\n      0x0100\n      exp\n      swap1\n      div\n      0xff\n      and\n      swap1\n      dup1\n      0x01\n      add\n      dup1\n      sload\n      tag_29\n      swap1\n      tag_30\n      jump\t// in\n    tag_29:\n      dup1\n      0x1f\n      add\n      0x20\n      dup1\n      swap2\n      div\n      mul\n      0x20\n      add\n      mload(0x40)\n      swap1\n      dup2\n      add\n      0x40\n      mstore\n      dup1\n      swap3\n      swap2\n      swap1\n      dup2\n      dup2\n      mstore\n      0x20\n      add\n      dup3\n      dup1\n      sload\n      tag_31\n      swap1\n      tag_30\n      jump\t// in\n    tag_31:\n      dup1\n      iszero\n      tag_32\n      jumpi\n      dup1\n      0x1f\n      lt\n      tag_33\n      jumpi\n      0x0100\n      dup1\n      dup4\n      sload\n      div\n      mul\n      dup4\n      mstore\n      swap2\n      0x20\n      add\n      swap2\n      jump(tag_32)\n    tag_33:\n      dup3\n      add\n      swap2\n      swap1\n      0x00\n      mstore\n      keccak256(0x00, 0x20)\n      swap1\n    tag_34:\n      dup2\n      sload\n      dup2\n      mstore\n      swap1\n      0x01\n      add\n      swap1\n      0x20\n      add\n      dup1\n      dup4\n      gt\n      tag_34\n      jumpi\n      dup3\n      swap1\n      sub\n      0x1f\n      and\n      dup3\n      add\n      swap2\n    tag_32:\n      pop\n      pop\n      pop\n      pop\n      pop\n      swap1\n      dup1\n      0x02\n      add\n      sload\n      swap1\n      pop\n      dup4\n      jump\t// out\n    tag_17:\n      mload(0x40)\n      dup1\n      0x60\n      add\n      0x40\n      mstore\n      dup1\n      0x00\n      0x02\n      dup2\n      gt\n      iszero\n      tag_35\n      jumpi\n      tag_36\n      tag_20\n      jump\t// in\n    tag_36:\n    tag_35:\n      dup2\n      mstore\n      0x20\n      add\n      0x60\n      dup2\n      mstore\n      0x20\n      add\n      0x00\n      dup2\n      mstore\n      pop\n      swap1\n      jump\t// out\n    tag_26:\n      dup3\n      dup1\n      sload\n      tag_37\n      swap1\n      tag_30\n      jump\t// in\n    tag_37:\n      swap1\n      0x00\n      mstore\n      keccak256(0x00, 0x20)\n      swap1\n      0x1f\n      add\n      0x20\n      swap1\n      div\n      dup2\n      add\n      swap3\n      dup3\n      tag_39\n      jumpi\n      0x00\n      dup6\n      sstore\n      jump(tag_38)\n    tag_39:\n      dup3\n      0x1f\n      lt\n      tag_40\n      jumpi\n      dup1\n      mload\n      not(0xff)\n      and\n      dup4\n      dup1\n      add\n      or\n      dup6\n      sstore\n      jump(tag_38)\n    tag_40:\n      dup3\n      dup1\n      add\n      0x01\n      add\n      dup6\n      sstore\n      dup3\n      iszero\n      tag_38\n      jumpi\n      swap2\n      dup3\n      add\n    tag_41:\n      dup3\n      dup2\n      gt\n      iszero\n      tag_42\n      jumpi\n      dup3\n      mload\n      dup3\n      sstore\n      swap2\n      0x20\n      add\n      swap2\n      swap1\n      0x01\n      add\n      swap1\n      jump(tag_41)\n    tag_42:\n    tag_38:\n      pop\n      swap1\n      pop\n      tag_43\n      swap2\n      swap1\n      tag_44\n      jump\t// in\n    tag_43:\n      pop\n      swap1\n      jump\t// out\n    tag_44:\n    tag_45:\n      dup1\n      dup3\n      gt\n      iszero\n      tag_46\n      jumpi\n      0x00\n      dup2\n      0x00\n      swap1\n      sstore\n      pop\n      0x01\n      add\n      jump(tag_45)\n    tag_46:\n      pop\n      swap1\n      jump\t// out\n        /* \"#utility.yul\":7:419   */\n    tag_48:\n        /* \"#utility.yul\":85:90   */\n      0x00\n        /* \"#utility.yul\":110:176   */\n      tag_50\n        /* \"#utility.yul\":126:175   */\n      tag_51\n        /* \"#utility.yul\":168:174   */\n      dup5\n        /* \"#utility.yul\":126:175   */\n      tag_52\n      jump\t// in\n    tag_51:\n        /* \"#utility.yul\":110:176   */\n      tag_53\n      jump\t// in\n    tag_50:\n        /* \"#utility.yul\":101:176   */\n      swap1\n      pop\n        /* \"#utility.yul\":199:205   */\n      dup3\n        /* \"#utility.yul\":192:197   */\n      dup2\n        /* \"#utility.yul\":185:206   */\n      mstore\n        /* \"#utility.yul\":237:241   */\n      0x20\n        /* \"#utility.yul\":230:235   */\n      dup2\n        /* \"#utility.yul\":226:242   */\n      add\n        /* \"#utility.yul\":275:278   */\n      dup5\n        /* \"#utility.yul\":266:272   */\n      dup5\n        /* \"#utility.yul\":261:264   */\n      dup5\n        /* \"#utility.yul\":257:273   */\n      add\n        /* \"#utility.yul\":254:279   */\n      gt\n        /* \"#utility.yul\":251:363   */\n      iszero\n      tag_54\n      jumpi\n        /* \"#utility.yul\":282:361   */\n      tag_55\n      tag_56\n      jump\t// in\n    tag_55:\n        /* \"#utility.yul\":251:363   */\n    tag_54:\n        /* \"#utility.yul\":372:413   */\n      tag_57\n        /* \"#utility.yul\":406:412   */\n      dup5\n        /* \"#utility.yul\":401:404   */\n      dup3\n        /* \"#utility.yul\":396:399   */\n      dup6\n        /* \"#utility.yul\":372:413   */\n      tag_58\n      jump\t// in\n    tag_57:\n        /* \"#utility.yul\":91:419   */\n      pop\n        /* \"#utility.yul\":7:419   */\n      swap4\n      swap3\n      pop\n      pop\n      pop\n      jump\t// out\n        /* \"#utility.yul\":439:779   */\n    tag_59:\n        /* \"#utility.yul\":495:500   */\n      0x00\n        /* \"#utility.yul\":544:547   */\n      dup3\n        /* \"#utility.yul\":537:541   */\n      0x1f\n        /* \"#utility.yul\":529:535   */\n      dup4\n        /* \"#utility.yul\":525:542   */\n      add\n        /* \"#utility.yul\":521:548   */\n      slt\n        /* \"#utility.yul\":511:633   */\n      tag_61\n      jumpi\n        /* \"#utility.yul\":552:631   */\n      tag_62\n      tag_63\n      jump\t// in\n    tag_62:\n        /* \"#utility.yul\":511:633   */\n    tag_61:\n        /* \"#utility.yul\":669:675   */\n      dup2\n        /* \"#utility.yul\":656:676   */\n      calldataload\n        /* \"#utility.yul\":694:773   */\n      tag_64\n        /* \"#utility.yul\":769:772   */\n      dup5\n        /* \"#utility.yul\":761:767   */\n      dup3\n        /* \"#utility.yul\":754:758   */\n      0x20\n        /* \"#utility.yul\":746:752   */\n      dup7\n        /* \"#utility.yul\":742:759   */\n      add\n        /* \"#utility.yul\":694:773   */\n      tag_48\n      jump\t// in\n    tag_64:\n        /* \"#utility.yul\":685:773   */\n      swap2\n      pop\n        /* \"#utility.yul\":501:779   */\n      pop\n        /* \"#utility.yul\":439:779   */\n      swap3\n      swap2\n      pop\n      pop\n      jump\t// out\n        /* \"#utility.yul\":785:924   */\n    tag_65:\n        /* \"#utility.yul\":831:836   */\n      0x00\n        /* \"#utility.yul\":869:875   */\n      dup2\n        /* \"#utility.yul\":856:876   */\n      calldataload\n        /* \"#utility.yul\":847:876   */\n      swap1\n      pop\n        /* \"#utility.yul\":885:918   */\n      tag_67\n        /* \"#utility.yul\":912:917   */\n      dup2\n        /* \"#utility.yul\":885:918   */\n      tag_68\n      jump\t// in\n    tag_67:\n        /* \"#utility.yul\":785:924   */\n      swap3\n      swap2\n      pop\n      pop\n      jump\t// out\n        /* \"#utility.yul\":930:1584   */\n    tag_7:\n        /* \"#utility.yul\":1008:1014   */\n      0x00\n        /* \"#utility.yul\":1016:1022   */\n      dup1\n        /* \"#utility.yul\":1065:1067   */\n      0x40\n        /* \"#utility.yul\":1053:1062   */\n      dup4\n        /* \"#utility.yul\":1044:1051   */\n      dup6\n        /* \"#utility.yul\":1040:1063   */\n      sub\n        /* \"#utility.yul\":1036:1068   */\n      slt\n        /* \"#utility.yul\":1033:1152   */\n      iszero\n      tag_70\n      jumpi\n        /* \"#utility.yul\":1071:1150   */\n      tag_71\n      tag_72\n      jump\t// in\n    tag_71:\n        /* \"#utility.yul\":1033:1152   */\n    tag_70:\n        /* \"#utility.yul\":1219:1220   */\n      0x00\n        /* \"#utility.yul\":1208:1217   */\n      dup4\n        /* \"#utility.yul\":1204:1221   */\n      add\n        /* \"#utility.yul\":1191:1222   */\n      calldataload\n        /* \"#utility.yul\":1249:1267   */\n      0xffffffffffffffff\n        /* \"#utility.yul\":1241:1247   */\n      dup2\n        /* \"#utility.yul\":1238:1268   */\n      gt\n        /* \"#utility.yul\":1235:1352   */\n      iszero\n      tag_73\n      jumpi\n        /* \"#utility.yul\":1271:1350   */\n      tag_74\n      tag_75\n      jump\t// in\n    tag_74:\n        /* \"#utility.yul\":1235:1352   */\n    tag_73:\n        /* \"#utility.yul\":1376:1439   */\n      tag_76\n        /* \"#utility.yul\":1431:1438   */\n      dup6\n        /* \"#utility.yul\":1422:1428   */\n      dup3\n        /* \"#utility.yul\":1411:1420   */\n      dup7\n        /* \"#utility.yul\":1407:1429   */\n      add\n        /* \"#utility.yul\":1376:1439   */\n      tag_59\n      jump\t// in\n    tag_76:\n        /* \"#utility.yul\":1366:1439   */\n      swap3\n      pop\n        /* \"#utility.yul\":1162:1449   */\n      pop\n        /* \"#utility.yul\":1488:1490   */\n      0x20\n        /* \"#utility.yul\":1514:1567   */\n      tag_77\n        /* \"#utility.yul\":1559:1566   */\n      dup6\n        /* \"#utility.yul\":1550:1556   */\n      dup3\n        /* \"#utility.yul\":1539:1548   */\n      dup7\n        /* \"#utility.yul\":1535:1557   */\n      add\n        /* \"#utility.yul\":1514:1567   */\n      tag_65\n      jump\t// in\n    tag_77:\n        /* \"#utility.yul\":1504:1567   */\n      swap2\n      pop\n        /* \"#utility.yul\":1459:1577   */\n      pop\n        /* \"#utility.yul\":930:1584   */\n      swap3\n      pop\n      swap3\n      swap1\n      pop\n      jump\t// out\n        /* \"#utility.yul\":1590:1919   */\n    tag_11:\n        /* \"#utility.yul\":1649:1655   */\n      0x00\n        /* \"#utility.yul\":1698:1700   */\n      0x20\n        /* \"#utility.yul\":1686:1695   */\n      dup3\n        /* \"#utility.yul\":1677:1684   */\n      dup5\n        /* \"#utility.yul\":1673:1696   */\n      sub\n        /* \"#utility.yul\":1669:1701   */\n      slt\n        /* \"#utility.yul\":1666:1785   */\n      iszero\n      tag_79\n      jumpi\n        /* \"#utility.yul\":1704:1783   */\n      tag_80\n      tag_72\n      jump\t// in\n    tag_80:\n        /* \"#utility.yul\":1666:1785   */\n    tag_79:\n        /* \"#utility.yul\":1824:1825   */\n      0x00\n        /* \"#utility.yul\":1849:1902   */\n      tag_81\n        /* \"#utility.yul\":1894:1901   */\n      dup5\n        /* \"#utility.yul\":1885:1891   */\n      dup3\n        /* \"#utility.yul\":1874:1883   */\n      dup6\n        /* \"#utility.yul\":1870:1892   */\n      add\n        /* \"#utility.yul\":1849:1902   */\n      tag_65\n      jump\t// in\n    tag_81:\n        /* \"#utility.yul\":1839:1902   */\n      swap2\n      pop\n        /* \"#utility.yul\":1795:1912   */\n      pop\n        /* \"#utility.yul\":1590:1919   */\n      swap3\n      swap2\n      pop\n      pop\n      jump\t// out\n        /* \"#utility.yul\":1925:2088   */\n    tag_82:\n        /* \"#utility.yul\":2028:2081   */\n      tag_84\n        /* \"#utility.yul\":2075:2080   */\n      dup2\n        /* \"#utility.yul\":2028:2081   */\n      tag_85\n      jump\t// in\n    tag_84:\n        /* \"#utility.yul\":2023:2026   */\n      dup3\n        /* \"#utility.yul\":2016:2082   */\n      mstore\n        /* \"#utility.yul\":1925:2088   */\n      pop\n      pop\n      jump\t// out\n        /* \"#utility.yul\":2094:2241   */\n    tag_86:\n        /* \"#utility.yul\":2189:2234   */\n      tag_88\n        /* \"#utility.yul\":2228:2233   */\n      dup2\n        /* \"#utility.yul\":2189:2234   */\n      tag_89\n      jump\t// in\n    tag_88:\n        /* \"#utility.yul\":2184:2187   */\n      dup3\n        /* \"#utility.yul\":2177:2235   */\n      mstore\n        /* \"#utility.yul\":2094:2241   */\n      pop\n      pop\n      jump\t// out\n        /* \"#utility.yul\":2247:2611   */\n    tag_90:\n        /* \"#utility.yul\":2335:2338   */\n      0x00\n        /* \"#utility.yul\":2363:2402   */\n      tag_92\n        /* \"#utility.yul\":2396:2401   */\n      dup3\n        /* \"#utility.yul\":2363:2402   */\n      tag_93\n      jump\t// in\n    tag_92:\n        /* \"#utility.yul\":2418:2489   */\n      tag_94\n        /* \"#utility.yul\":2482:2488   */\n      dup2\n        /* \"#utility.yul\":2477:2480   */\n      dup6\n        /* \"#utility.yul\":2418:2489   */\n      tag_95\n      jump\t// in\n    tag_94:\n        /* \"#utility.yul\":2411:2489   */\n      swap4\n      pop\n        /* \"#utility.yul\":2498:2550   */\n      tag_96\n        /* \"#utility.yul\":2543:2549   */\n      dup2\n        /* \"#utility.yul\":2538:2541   */\n      dup6\n        /* \"#utility.yul\":2531:2535   */\n      0x20\n        /* \"#utility.yul\":2524:2529   */\n      dup7\n        /* \"#utility.yul\":2520:2536   */\n      add\n        /* \"#utility.yul\":2498:2550   */\n      tag_97\n      jump\t// in\n    tag_96:\n        /* \"#utility.yul\":2575:2604   */\n      tag_98\n        /* \"#utility.yul\":2597:2603   */\n      dup2\n        /* \"#utility.yul\":2575:2604   */\n      tag_99\n      jump\t// in\n    tag_98:\n        /* \"#utility.yul\":2570:2573   */\n      dup5\n        /* \"#utility.yul\":2566:2605   */\n      add\n        /* \"#utility.yul\":2559:2605   */\n      swap2\n      pop\n        /* \"#utility.yul\":2339:2611   */\n      pop\n        /* \"#utility.yul\":2247:2611   */\n      swap3\n      swap2\n      pop\n      pop\n      jump\t// out\n        /* \"#utility.yul\":2617:2735   */\n    tag_100:\n        /* \"#utility.yul\":2704:2728   */\n      tag_102\n        /* \"#utility.yul\":2722:2727   */\n      dup2\n        /* \"#utility.yul\":2704:2728   */\n      tag_103\n      jump\t// in\n    tag_102:\n        /* \"#utility.yul\":2699:2702   */\n      dup3\n        /* \"#utility.yul\":2692:2729   */\n      mstore\n        /* \"#utility.yul\":2617:2735   */\n      pop\n      pop\n      jump\t// out\n        /* \"#utility.yul\":2741:3306   */\n    tag_14:\n        /* \"#utility.yul\":2926:2930   */\n      0x00\n        /* \"#utility.yul\":2964:2966   */\n      0x60\n        /* \"#utility.yul\":2953:2962   */\n      dup3\n        /* \"#utility.yul\":2949:2967   */\n      add\n        /* \"#utility.yul\":2941:2967   */\n      swap1\n      pop\n        /* \"#utility.yul\":2977:3064   */\n      tag_105\n        /* \"#utility.yul\":3061:3062   */\n      0x00\n        /* \"#utility.yul\":3050:3059   */\n      dup4\n        /* \"#utility.yul\":3046:3063   */\n      add\n        /* \"#utility.yul\":3037:3043   */\n      dup7\n        /* \"#utility.yul\":2977:3064   */\n      tag_82\n      jump\t// in\n    tag_105:\n        /* \"#utility.yul\":3111:3120   */\n      dup2\n        /* \"#utility.yul\":3105:3109   */\n      dup2\n        /* \"#utility.yul\":3101:3121   */\n      sub\n        /* \"#utility.yul\":3096:3098   */\n      0x20\n        /* \"#utility.yul\":3085:3094   */\n      dup4\n        /* \"#utility.yul\":3081:3099   */\n      add\n        /* \"#utility.yul\":3074:3122   */\n      mstore\n        /* \"#utility.yul\":3139:3217   */\n      tag_106\n        /* \"#utility.yul\":3212:3216   */\n      dup2\n        /* \"#utility.yul\":3203:3209   */\n      dup6\n        /* \"#utility.yul\":3139:3217   */\n      tag_90\n      jump\t// in\n    tag_106:\n        /* \"#utility.yul\":3131:3217   */\n      swap1\n      pop\n        /* \"#utility.yul\":3227:3299   */\n      tag_107\n        /* \"#utility.yul\":3295:3297   */\n      0x40\n        /* \"#utility.yul\":3284:3293   */\n      dup4\n        /* \"#utility.yul\":3280:3298   */\n      add\n        /* \"#utility.yul\":3271:3277   */\n      dup5\n        /* \"#utility.yul\":3227:3299   */\n      tag_100\n      jump\t// in\n    tag_107:\n        /* \"#utility.yul\":2741:3306   */\n      swap5\n      swap4\n      pop\n      pop\n      pop\n      pop\n      jump\t// out\n        /* \"#utility.yul\":3312:3660   */\n    tag_28:\n        /* \"#utility.yul\":3441:3445   */\n      0x00\n        /* \"#utility.yul\":3479:3481   */\n      0x40\n        /* \"#utility.yul\":3468:3477   */\n      dup3\n        /* \"#utility.yul\":3464:3482   */\n      add\n        /* \"#utility.yul\":3456:3482   */\n      swap1\n      pop\n        /* \"#utility.yul\":3492:3563   */\n      tag_109\n        /* \"#utility.yul\":3560:3561   */\n      0x00\n        /* \"#utility.yul\":3549:3558   */\n      dup4\n        /* \"#utility.yul\":3545:3562   */\n      add\n        /* \"#utility.yul\":3536:3542   */\n      dup6\n        /* \"#utility.yul\":3492:3563   */\n      tag_100\n      jump\t// in\n    tag_109:\n        /* \"#utility.yul\":3573:3653   */\n      tag_110\n        /* \"#utility.yul\":3649:3651   */\n      0x20\n        /* \"#utility.yul\":3638:3647   */\n      dup4\n        /* \"#utility.yul\":3634:3652   */\n      add\n        /* \"#utility.yul\":3625:3631   */\n      dup5\n        /* \"#utility.yul\":3573:3653   */\n      tag_86\n      jump\t// in\n    tag_110:\n        /* \"#utility.yul\":3312:3660   */\n      swap4\n      swap3\n      pop\n      pop\n      pop\n      jump\t// out\n        /* \"#utility.yul\":3666:3795   */\n    tag_53:\n        /* \"#utility.yul\":3700:3706   */\n      0x00\n        /* \"#utility.yul\":3727:3747   */\n      tag_112\n      tag_113\n      jump\t// in\n    tag_112:\n        /* \"#utility.yul\":3717:3747   */\n      swap1\n      pop\n        /* \"#utility.yul\":3756:3789   */\n      tag_114\n        /* \"#utility.yul\":3784:3788   */\n      dup3\n        /* \"#utility.yul\":3776:3782   */\n      dup3\n        /* \"#utility.yul\":3756:3789   */\n      tag_115\n      jump\t// in\n    tag_114:\n        /* \"#utility.yul\":3666:3795   */\n      swap2\n      swap1\n      pop\n      jump\t// out\n        /* \"#utility.yul\":3801:3876   */\n    tag_113:\n        /* \"#utility.yul\":3834:3840   */\n      0x00\n        /* \"#utility.yul\":3867:3869   */\n      0x40\n        /* \"#utility.yul\":3861:3870   */\n      mload\n        /* \"#utility.yul\":3851:3870   */\n      swap1\n      pop\n        /* \"#utility.yul\":3801:3876   */\n      swap1\n      jump\t// out\n        /* \"#utility.yul\":3882:4190   */\n    tag_52:\n        /* \"#utility.yul\":3944:3948   */\n      0x00\n        /* \"#utility.yul\":4034:4052   */\n      0xffffffffffffffff\n        /* \"#utility.yul\":4026:4032   */\n      dup3\n        /* \"#utility.yul\":4023:4053   */\n      gt\n        /* \"#utility.yul\":4020:4076   */\n      iszero\n      tag_118\n      jumpi\n        /* \"#utility.yul\":4056:4074   */\n      tag_119\n      tag_120\n      jump\t// in\n    tag_119:\n        /* \"#utility.yul\":4020:4076   */\n    tag_118:\n        /* \"#utility.yul\":4094:4123   */\n      tag_121\n        /* \"#utility.yul\":4116:4122   */\n      dup3\n        /* \"#utility.yul\":4094:4123   */\n      tag_99\n      jump\t// in\n    tag_121:\n        /* \"#utility.yul\":4086:4123   */\n      swap1\n      pop\n        /* \"#utility.yul\":4178:4182   */\n      0x20\n        /* \"#utility.yul\":4172:4176   */\n      dup2\n        /* \"#utility.yul\":4168:4183   */\n      add\n        /* \"#utility.yul\":4160:4183   */\n      swap1\n      pop\n        /* \"#utility.yul\":3882:4190   */\n      swap2\n      swap1\n      pop\n      jump\t// out\n        /* \"#utility.yul\":4196:4295   */\n    tag_93:\n        /* \"#utility.yul\":4248:4254   */\n      0x00\n        /* \"#utility.yul\":4282:4287   */\n      dup2\n        /* \"#utility.yul\":4276:4288   */\n      mload\n        /* \"#utility.yul\":4266:4288   */\n      swap1\n      pop\n        /* \"#utility.yul\":4196:4295   */\n      swap2\n      swap1\n      pop\n      jump\t// out\n        /* \"#utility.yul\":4301:4470   */\n    tag_95:\n        /* \"#utility.yul\":4385:4396   */\n      0x00\n        /* \"#utility.yul\":4419:4425   */\n      dup3\n        /* \"#utility.yul\":4414:4417   */\n      dup3\n        /* \"#utility.yul\":4407:4426   */\n      mstore\n        /* \"#utility.yul\":4459:4463   */\n      0x20\n        /* \"#utility.yul\":4454:4457   */\n      dup3\n        /* \"#utility.yul\":4450:4464   */\n      add\n        /* \"#utility.yul\":4435:4464   */\n      swap1\n      pop\n        /* \"#utility.yul\":4301:4470   */\n      swap3\n      swap2\n      pop\n      pop\n      jump\t// out\n        /* \"#utility.yul\":4476:4623   */\n    tag_124:\n        /* \"#utility.yul\":4531:4538   */\n      0x00\n        /* \"#utility.yul\":4560:4565   */\n      dup2\n        /* \"#utility.yul\":4549:4565   */\n      swap1\n      pop\n        /* \"#utility.yul\":4566:4617   */\n      tag_126\n        /* \"#utility.yul\":4611:4616   */\n      dup3\n        /* \"#utility.yul\":4566:4617   */\n      tag_127\n      jump\t// in\n    tag_126:\n        /* \"#utility.yul\":4476:4623   */\n      swap2\n      swap1\n      pop\n      jump\t// out\n        /* \"#utility.yul\":4629:4706   */\n    tag_103:\n        /* \"#utility.yul\":4666:4673   */\n      0x00\n        /* \"#utility.yul\":4695:4700   */\n      dup2\n        /* \"#utility.yul\":4684:4700   */\n      swap1\n      pop\n        /* \"#utility.yul\":4629:4706   */\n      swap2\n      swap1\n      pop\n      jump\t// out\n        /* \"#utility.yul\":4712:4859   */\n    tag_85:\n        /* \"#utility.yul\":4778:4787   */\n      0x00\n        /* \"#utility.yul\":4811:4853   */\n      tag_130\n        /* \"#utility.yul\":4847:4852   */\n      dup3\n        /* \"#utility.yul\":4811:4853   */\n      tag_124\n      jump\t// in\n    tag_130:\n        /* \"#utility.yul\":4798:4853   */\n      swap1\n      pop\n        /* \"#utility.yul\":4712:4859   */\n      swap2\n      swap1\n      pop\n      jump\t// out\n        /* \"#utility.yul\":4865:4986   */\n    tag_89:\n        /* \"#utility.yul\":4923:4932   */\n      0x00\n        /* \"#utility.yul\":4956:4980   */\n      tag_132\n        /* \"#utility.yul\":4974:4979   */\n      dup3\n        /* \"#utility.yul\":4956:4980   */\n      tag_103\n      jump\t// in\n    tag_132:\n        /* \"#utility.yul\":4943:4980   */\n      swap1\n      pop\n        /* \"#utility.yul\":4865:4986   */\n      swap2\n      swap1\n      pop\n      jump\t// out\n        /* \"#utility.yul\":4992:5146   */\n    tag_58:\n        /* \"#utility.yul\":5076:5082   */\n      dup3\n        /* \"#utility.yul\":5071:5074   */\n      dup2\n        /* \"#utility.yul\":5066:5069   */\n      dup4\n        /* \"#utility.yul\":5053:5083   */\n      calldatacopy\n        /* \"#utility.yul\":5138:5139   */\n      0x00\n        /* \"#utility.yul\":5129:5135   */\n      dup4\n        /* \"#utility.yul\":5124:5127   */\n      dup4\n        /* \"#utility.yul\":5120:5136   */\n      add\n        /* \"#utility.yul\":5113:5140   */\n      mstore\n        /* \"#utility.yul\":4992:5146   */\n      pop\n      pop\n      pop\n      jump\t// out\n        /* \"#utility.yul\":5152:5459   */\n    tag_97:\n        /* \"#utility.yul\":5220:5221   */\n      0x00\n        /* \"#utility.yul\":5230:5343   */\n    tag_135:\n        /* \"#utility.yul\":5244:5250   */\n      dup4\n        /* \"#utility.yul\":5241:5242   */\n      dup2\n        /* \"#utility.yul\":5238:5251   */\n      lt\n        /* \"#utility.yul\":5230:5343   */\n      iszero\n      tag_137\n      jumpi\n        /* \"#utility.yul\":5329:5330   */\n      dup1\n        /* \"#utility.yul\":5324:5327   */\n      dup3\n        /* \"#utility.yul\":5320:5331   */\n      add\n        /* \"#utility.yul\":5314:5332   */\n      mload\n        /* \"#utility.yul\":5310:5311   */\n      dup2\n        /* \"#utility.yul\":5305:5308   */\n      dup5\n        /* \"#utility.yul\":5301:5312   */\n      add\n        /* \"#utility.yul\":5294:5333   */\n      mstore\n        /* \"#utility.yul\":5266:5268   */\n      0x20\n        /* \"#utility.yul\":5263:5264   */\n      dup2\n        /* \"#utility.yul\":5259:5269   */\n      add\n        /* \"#utility.yul\":5254:5269   */\n      swap1\n      pop\n        /* \"#utility.yul\":5230:5343   */\n      jump(tag_135)\n    tag_137:\n        /* \"#utility.yul\":5361:5367   */\n      dup4\n        /* \"#utility.yul\":5358:5359   */\n      dup2\n        /* \"#utility.yul\":5355:5368   */\n      gt\n        /* \"#utility.yul\":5352:5453   */\n      iszero\n      tag_138\n      jumpi\n        /* \"#utility.yul\":5441:5442   */\n      0x00\n        /* \"#utility.yul\":5432:5438   */\n      dup5\n        /* \"#utility.yul\":5427:5430   */\n      dup5\n        /* \"#utility.yul\":5423:5439   */\n      add\n        /* \"#utility.yul\":5416:5443   */\n      mstore\n        /* \"#utility.yul\":5352:5453   */\n    tag_138:\n        /* \"#utility.yul\":5201:5459   */\n      pop\n        /* \"#utility.yul\":5152:5459   */\n      pop\n      pop\n      pop\n      jump\t// out\n        /* \"#utility.yul\":5465:5785   */\n    tag_30:\n        /* \"#utility.yul\":5509:5515   */\n      0x00\n        /* \"#utility.yul\":5546:5547   */\n      0x02\n        /* \"#utility.yul\":5540:5544   */\n      dup3\n        /* \"#utility.yul\":5536:5548   */\n      div\n        /* \"#utility.yul\":5526:5548   */\n      swap1\n      pop\n        /* \"#utility.yul\":5593:5594   */\n      0x01\n        /* \"#utility.yul\":5587:5591   */\n      dup3\n        /* \"#utility.yul\":5583:5595   */\n      and\n        /* \"#utility.yul\":5614:5632   */\n      dup1\n        /* \"#utility.yul\":5604:5685   */\n      tag_140\n      jumpi\n        /* \"#utility.yul\":5670:5674   */\n      0x7f\n        /* \"#utility.yul\":5662:5668   */\n      dup3\n        /* \"#utility.yul\":5658:5675   */\n      and\n        /* \"#utility.yul\":5648:5675   */\n      swap2\n      pop\n        /* \"#utility.yul\":5604:5685   */\n    tag_140:\n        /* \"#utility.yul\":5732:5734   */\n      0x20\n        /* \"#utility.yul\":5724:5730   */\n      dup3\n        /* \"#utility.yul\":5721:5735   */\n      lt\n        /* \"#utility.yul\":5701:5719   */\n      dup2\n        /* \"#utility.yul\":5698:5736   */\n      eq\n        /* \"#utility.yul\":5695:5779   */\n      iszero\n      tag_141\n      jumpi\n        /* \"#utility.yul\":5751:5769   */\n      tag_142\n      tag_143\n      jump\t// in\n    tag_142:\n        /* \"#utility.yul\":5695:5779   */\n    tag_141:\n        /* \"#utility.yul\":5516:5785   */\n      pop\n        /* \"#utility.yul\":5465:5785   */\n      swap2\n      swap1\n      pop\n      jump\t// out\n        /* \"#utility.yul\":5791:6072   */\n    tag_115:\n        /* \"#utility.yul\":5874:5901   */\n      tag_145\n        /* \"#utility.yul\":5896:5900   */\n      dup3\n        /* \"#utility.yul\":5874:5901   */\n      tag_99\n      jump\t// in\n    tag_145:\n        /* \"#utility.yul\":5866:5872   */\n      dup2\n        /* \"#utility.yul\":5862:5902   */\n      add\n        /* \"#utility.yul\":6004:6010   */\n      dup2\n        /* \"#utility.yul\":5992:6002   */\n      dup2\n        /* \"#utility.yul\":5989:6011   */\n      lt\n        /* \"#utility.yul\":5968:5986   */\n      0xffffffffffffffff\n        /* \"#utility.yul\":5956:5966   */\n      dup3\n        /* \"#utility.yul\":5953:5987   */\n      gt\n        /* \"#utility.yul\":5950:6012   */\n      or\n        /* \"#utility.yul\":5947:6035   */\n      iszero\n      tag_146\n      jumpi\n        /* \"#utility.yul\":6015:6033   */\n      tag_147\n      tag_120\n      jump\t// in\n    tag_147:\n        /* \"#utility.yul\":5947:6035   */\n    tag_146:\n        /* \"#utility.yul\":6055:6065   */\n      dup1\n        /* \"#utility.yul\":6051:6053   */\n      0x40\n        /* \"#utility.yul\":6044:6066   */\n      mstore\n        /* \"#utility.yul\":5834:6072   */\n      pop\n        /* \"#utility.yul\":5791:6072   */\n      pop\n      pop\n      jump\t// out\n        /* \"#utility.yul\":6078:6258   */\n    tag_20:\n        /* \"#utility.yul\":6126:6203   */\n      0x4e487b7100000000000000000000000000000000000000000000000000000000\n        /* \"#utility.yul\":6123:6124   */\n      0x00\n        /* \"#utility.yul\":6116:6204   */\n      mstore\n        /* \"#utility.yul\":6223:6227   */\n      0x21\n        /* \"#utility.yul\":6220:6221   */\n      0x04\n        /* \"#utility.yul\":6213:6228   */\n      mstore\n        /* \"#utility.yul\":6247:6251   */\n      0x24\n        /* \"#utility.yul\":6244:6245   */\n      0x00\n        /* \"#utility.yul\":6237:6252   */\n      revert\n        /* \"#utility.yul\":6264:6444   */\n    tag_143:\n        /* \"#utility.yul\":6312:6389   */\n      0x4e487b7100000000000000000000000000000000000000000000000000000000\n        /* \"#utility.yul\":6309:6310   */\n      0x00\n        /* \"#utility.yul\":6302:6390   */\n      mstore\n        /* \"#utility.yul\":6409:6413   */\n      0x22\n        /* \"#utility.yul\":6406:6407   */\n      0x04\n        /* \"#utility.yul\":6399:6414   */\n      mstore\n        /* \"#utility.yul\":6433:6437   */\n      0x24\n        /* \"#utility.yul\":6430:6431   */\n      0x00\n        /* \"#utility.yul\":6423:6438   */\n      revert\n        /* \"#utility.yul\":6450:6630   */\n    tag_120:\n        /* \"#utility.yul\":6498:6575   */\n      0x4e487b7100000000000000000000000000000000000000000000000000000000\n        /* \"#utility.yul\":6495:6496   */\n      0x00\n        /* \"#utility.yul\":6488:6576   */\n      mstore\n        /* \"#utility.yul\":6595:6599   */\n      0x41\n        /* \"#utility.yul\":6592:6593   */\n      0x04\n        /* \"#utility.yul\":6585:6600   */\n      mstore\n        /* \"#utility.yul\":6619:6623   */\n      0x24\n        /* \"#utility.yul\":6616:6617   */\n      0x00\n        /* \"#utility.yul\":6609:6624   */\n      revert\n        /* \"#utility.yul\":6636:6753   */\n    tag_63:\n        /* \"#utility.yul\":6745:6746   */\n      0x00\n        /* \"#utility.yul\":6742:6743   */\n      dup1\n        /* \"#utility.yul\":6735:6747   */\n      revert\n        /* \"#utility.yul\":6759:6876   */\n    tag_56:\n        /* \"#utility.yul\":6868:6869   */\n      0x00\n        /* \"#utility.yul\":6865:6866   */\n      dup1\n        /* \"#utility.yul\":6858:6870   */\n      revert\n        /* \"#utility.yul\":6882:6999   */\n    tag_75:\n        /* \"#utility.yul\":6991:6992   */\n      0x00\n        /* \"#utility.yul\":6988:6989   */\n      dup1\n        /* \"#utility.yul\":6981:6993   */\n      revert\n        /* \"#utility.yul\":7005:7122   */\n    tag_72:\n        /* \"#utility.yul\":7114:7115   */\n      0x00\n        /* \"#utility.yul\":7111:7112   */\n      dup1\n        /* \"#utility.yul\":7104:7116   */\n      revert\n        /* \"#utility.yul\":7128:7230   */\n    tag_99:\n        /* \"#utility.yul\":7169:7175   */\n      0x00\n        /* \"#utility.yul\":7220:7222   */\n      0x1f\n        /* \"#utility.yul\":7216:7223   */\n      not\n        /* \"#utility.yul\":7211:7213   */\n      0x1f\n        /* \"#utility.yul\":7204:7209   */\n      dup4\n        /* \"#utility.yul\":7200:7214   */\n      add\n        /* \"#utility.yul\":7196:7224   */\n      and\n        /* \"#utility.yul\":7186:7224   */\n      swap1\n      pop\n        /* \"#utility.yul\":7128:7230   */\n      swap2\n      swap1\n      pop\n      jump\t// out\n        /* \"#utility.yul\":7236:7359   */\n    tag_127:\n        /* \"#utility.yul\":7327:7328   */\n      0x03\n        /* \"#utility.yul\":7320:7325   */\n      dup2\n        /* \"#utility.yul\":7317:7329   */\n      lt\n        /* \"#utility.yul\":7307:7353   */\n      tag_157\n      jumpi\n        /* \"#utility.yul\":7333:7351   */\n      tag_158\n      tag_20\n      jump\t// in\n    tag_158:\n        /* \"#utility.yul\":7307:7353   */\n    tag_157:\n        /* \"#utility.yul\":7236:7359   */\n      pop\n      jump\t// out\n        /* \"#utility.yul\":7365:7487   */\n    tag_68:\n        /* \"#utility.yul\":7438:7462   */\n      tag_160\n        /* \"#utility.yul\":7456:7461   */\n      dup2\n        /* \"#utility.yul\":7438:7462   */\n      tag_103\n      jump\t// in\n    tag_160:\n        /* \"#utility.yul\":7431:7436   */\n      dup2\n        /* \"#utility.yul\":7428:7463   */\n      eq\n        /* \"#utility.yul\":7418:7481   */\n      tag_161\n      jumpi\n        /* \"#utility.yul\":7477:7478   */\n      0x00\n        /* \"#utility.yul\":7474:7475   */\n      dup1\n        /* \"#utility.yul\":7467:7479   */\n      revert\n        /* \"#utility.yul\":7418:7481   */\n    tag_161:\n        /* \"#utility.yul\":7365:7487   */\n      pop\n      jump\t// out\n\n    auxdata: 0xa26469706673582212207934b22a6d7d8d148b65225a246ea6151d9e78bf8e6e403433238d7dac5fda8464736f6c63430008070033\n}\n",
				"bytecode": {
					"linkReferences": {},
					"object": "608060405234801561001057600080fd5b50610760806100206000396000f3fe608060405234801561001057600080fd5b50600436106100365760003560e01c80638c5517421461003b578063bfb231d214610057575b600080fd5b6100556004803603810190610050919061039f565b610089565b005b610071600480360381019061006c91906103fb565b610185565b6040516100809392919061048e565b60405180910390f35b610091610244565b828160200181905250818160400181815250506000816000019060028111156100bd576100bc61064d565b5b908160028111156100d1576100d061064d565b5b8152505080600080600154815260200190815260200160002060008201518160000160006101000a81548160ff021916908360028111156101155761011461064d565b5b02179055506020820151816001019080519060200190610136929190610277565b50604082015181600201559050507f8c198761ba3d324d155cbaf96f0ac38a531c085089e49106d95352535a1110c260015460006040516101789291906104cc565b60405180910390a1505050565b60006020528060005260406000206000915090508060000160009054906101000a900460ff16908060010180546101bb906105ea565b80601f01602080910402602001604051908101604052809291908181526020018280546101e7906105ea565b80156102345780601f1061020957610100808354040283529160200191610234565b820191906000526020600020905b81548152906001019060200180831161021757829003601f168201915b5050505050908060020154905083565b6040518060600160405280600060028111156102635761026261064d565b5b815260200160608152602001600081525090565b828054610283906105ea565b90600052602060002090601f0160209004810192826102a557600085556102ec565b82601f106102be57805160ff19168380011785556102ec565b828001600101855582156102ec579182015b828111156102eb5782518255916020019190600101906102d0565b5b5090506102f991906102fd565b5090565b5b808211156103165760008160009055506001016102fe565b5090565b600061032d6103288461051a565b6104f5565b905082815260208101848484011115610349576103486106df565b5b6103548482856105a8565b509392505050565b600082601f830112610371576103706106da565b5b813561038184826020860161031a565b91505092915050565b60008135905061039981610713565b92915050565b600080604083850312156103b6576103b56106e9565b5b600083013567ffffffffffffffff8111156103d4576103d36106e4565b5b6103e08582860161035c565b92505060206103f18582860161038a565b9150509250929050565b600060208284031215610411576104106106e9565b5b600061041f8482850161038a565b91505092915050565b61043181610584565b82525050565b61044081610596565b82525050565b60006104518261054b565b61045b8185610556565b935061046b8185602086016105b7565b610474816106ee565b840191505092915050565b6104888161057a565b82525050565b60006060820190506104a36000830186610428565b81810360208301526104b58185610446565b90506104c4604083018461047f565b949350505050565b60006040820190506104e1600083018561047f565b6104ee6020830184610437565b9392505050565b60006104ff610510565b905061050b828261061c565b919050565b6000604051905090565b600067ffffffffffffffff821115610535576105346106ab565b5b61053e826106ee565b9050602081019050919050565b600081519050919050565b600082825260208201905092915050565b6000819050610575826106ff565b919050565b6000819050919050565b600061058f82610567565b9050919050565b60006105a18261057a565b9050919050565b82818337600083830152505050565b60005b838110156105d55780820151818401526020810190506105ba565b838111156105e4576000848401525b50505050565b6000600282049050600182168061060257607f821691505b602082108114156106165761061561067c565b5b50919050565b610625826106ee565b810181811067ffffffffffffffff82111715610644576106436106ab565b5b80604052505050565b7f4e487b7100000000000000000000000000000000000000000000000000000000600052602160045260246000fd5b7f4e487b7100000000000000000000000000000000000000000000000000000000600052602260045260246000fd5b7f4e487b7100000000000000000000000000000000000000000000000000000000600052604160045260246000fd5b600080fd5b600080fd5b600080fd5b600080fd5b6000601f19601f8301169050919050565b600381106107105761070f61064d565b5b50565b61071c8161057a565b811461072757600080fd5b5056fea26469706673582212207934b22a6d7d8d148b65225a246ea6151d9e78bf8e6e403433238d7dac5fda8464736f6c63430008070033",
					"opcodes": "PUSH1 0x80 PUSH1 0x40 MSTORE CALLVALUE DUP1 ISZERO PUSH2 0x10 JUMPI PUSH1 0x0 DUP1 REVERT JUMPDEST POP PUSH2 0x760 DUP1 PUSH2 0x20 PUSH1 0x0 CODECOPY PUSH1 0x0 RETURN INVALID PUSH1 0x80 PUSH1 0x40 MSTORE CALLVALUE DUP1 ISZERO PUSH2 0x10 JUMPI PUSH1 0x0 DUP1 REVERT JUMPDEST POP PUSH1 0x4 CALLDATASIZE LT PUSH2 0x36 JUMPI PUSH1 0x0 CALLDATALOAD PUSH1 0xE0 SHR DUP1 PUSH4 0x8C551742 EQ PUSH2 0x3B JUMPI DUP1 PUSH4 0xBFB231D2 EQ PUSH2 0x57 JUMPI JUMPDEST PUSH1 0x0 DUP1 REVERT JUMPDEST PUSH2 0x55 PUSH1 0x4 DUP1 CALLDATASIZE SUB DUP2 ADD SWAP1 PUSH2 0x50 SWAP2 SWAP1 PUSH2 0x39F JUMP JUMPDEST PUSH2 0x89 JUMP JUMPDEST STOP JUMPDEST PUSH2 0x71 PUSH1 0x4 DUP1 CALLDATASIZE SUB DUP2 ADD SWAP1 PUSH2 0x6C SWAP2 SWAP1 PUSH2 0x3FB JUMP JUMPDEST PUSH2 0x185 JUMP JUMPDEST PUSH1 0x40 MLOAD PUSH2 0x80 SWAP4 SWAP3 SWAP2 SWAP1 PUSH2 0x48E JUMP JUMPDEST PUSH1 0x40 MLOAD DUP1 SWAP2 SUB SWAP1 RETURN JUMPDEST PUSH2 0x91 PUSH2 0x244 JUMP JUMPDEST DUP3 DUP2 PUSH1 0x20 ADD DUP2 SWAP1 MSTORE POP DUP2 DUP2 PUSH1 0x40 ADD DUP2 DUP2 MSTORE POP POP PUSH1 0x0 DUP2 PUSH1 0x0 ADD SWAP1 PUSH1 0x2 DUP2 GT ISZERO PUSH2 0xBD JUMPI PUSH2 0xBC PUSH2 0x64D JUMP JUMPDEST JUMPDEST SWAP1 DUP2 PUSH1 0x2 DUP2 GT ISZERO PUSH2 0xD1 JUMPI PUSH2 0xD0 PUSH2 0x64D JUMP JUMPDEST JUMPDEST DUP2 MSTORE POP POP DUP1 PUSH1 0x0 DUP1 PUSH1 0x1 SLOAD DUP2 MSTORE PUSH1 0x20 ADD SWAP1 DUP2 MSTORE PUSH1 0x20 ADD PUSH1 0x0 KECCAK256 PUSH1 0x0 DUP3 ADD MLOAD DUP2 PUSH1 0x0 ADD PUSH1 0x0 PUSH2 0x100 EXP DUP2 SLOAD DUP2 PUSH1 0xFF MUL NOT AND SWAP1 DUP4 PUSH1 0x2 DUP2 GT ISZERO PUSH2 0x115 JUMPI PUSH2 0x114 PUSH2 0x64D JUMP JUMPDEST JUMPDEST MUL OR SWAP1 SSTORE POP PUSH1 0x20 DUP3 ADD MLOAD DUP2 PUSH1 0x1 ADD SWAP1 DUP1 MLOAD SWAP1 PUSH1 0x20 ADD SWAP1 PUSH2 0x136 SWAP3 SWAP2 SWAP1 PUSH2 0x277 JUMP JUMPDEST POP PUSH1 0x40 DUP3 ADD MLOAD DUP2 PUSH1 0x2 ADD SSTORE SWAP1 POP POP PUSH32 0x8C198761BA3D324D155CBAF96F0AC38A531C085089E49106D95352535A1110C2 PUSH1 0x1 SLOAD PUSH1 0x0 PUSH1 0x40 MLOAD PUSH2 0x178 SWAP3 SWAP2 SWAP1 PUSH2 0x4CC JUMP JUMPDEST PUSH1 0x40 MLOAD DUP1 SWAP2 SUB SWAP1 LOG1 POP POP POP JUMP JUMPDEST PUSH1 0x0 PUSH1 0x20 MSTORE DUP1 PUSH1 0x0 MSTORE PUSH1 0x40 PUSH1 0x0 KECCAK256 PUSH1 0x0 SWAP2 POP SWAP1 POP DUP1 PUSH1 0x0 ADD PUSH1 0x0 SWAP1 SLOAD SWAP1 PUSH2 0x100 EXP SWAP1 DIV PUSH1 0xFF AND SWAP1 DUP1 PUSH1 0x1 ADD DUP1 SLOAD PUSH2 0x1BB SWAP1 PUSH2 0x5EA JUMP JUMPDEST DUP1 PUSH1 0x1F ADD PUSH1 0x20 DUP1 SWAP2 DIV MUL PUSH1 0x20 ADD PUSH1 0x40 MLOAD SWAP1 DUP2 ADD PUSH1 0x40 MSTORE DUP1 SWAP3 SWAP2 SWAP1 DUP2 DUP2 MSTORE PUSH1 0x20 ADD DUP3 DUP1 SLOAD PUSH2 0x1E7 SWAP1 PUSH2 0x5EA JUMP JUMPDEST DUP1 ISZERO PUSH2 0x234 JUMPI DUP1 PUSH1 0x1F LT PUSH2 0x209 JUMPI PUSH2 0x100 DUP1 DUP4 SLOAD DIV MUL DUP4 MSTORE SWAP2 PUSH1 0x20 ADD SWAP2 PUSH2 0x234 JUMP JUMPDEST DUP3 ADD SWAP2 SWAP1 PUSH1 0x0 MSTORE PUSH1 0x20 PUSH1 0x0 KECCAK256 SWAP1 JUMPDEST DUP2 SLOAD DUP2 MSTORE SWAP1 PUSH1 0x1 ADD SWAP1 PUSH1 0x20 ADD DUP1 DUP4 GT PUSH2 0x217 JUMPI DUP3 SWAP1 SUB PUSH1 0x1F AND DUP3 ADD SWAP2 JUMPDEST POP POP POP POP POP SWAP1 DUP1 PUSH1 0x2 ADD SLOAD SWAP1 POP DUP4 JUMP JUMPDEST PUSH1 0x40 MLOAD DUP1 PUSH1 0x60 ADD PUSH1 0x40 MSTORE DUP1 PUSH1 0x0 PUSH1 0x2 DUP2 GT ISZERO PUSH2 0x263 JUMPI PUSH2 0x262 PUSH2 0x64D JUMP JUMPDEST JUMPDEST DUP2 MSTORE PUSH1 0x20 ADD PUSH1 0x60 DUP2 MSTORE PUSH1 0x20 ADD PUSH1 0x0 DUP2 MSTORE POP SWAP1 JUMP JUMPDEST DUP3 DUP1 SLOAD PUSH2 0x283 SWAP1 PUSH2 0x5EA JUMP JUMPDEST SWAP1 PUSH1 0x0 MSTORE PUSH1 0x20 PUSH1 0x0 KECCAK256 SWAP1 PUSH1 0x1F ADD PUSH1 0x20 SWAP1 DIV DUP2 ADD SWAP3 DUP3 PUSH2 0x2A5 JUMPI PUSH1 0x0 DUP6 SSTORE PUSH2 0x2EC JUMP JUMPDEST DUP3 PUSH1 0x1F LT PUSH2 0x2BE JUMPI DUP1 MLOAD PUSH1 0xFF NOT AND DUP4 DUP1 ADD OR DUP6 SSTORE PUSH2 0x2EC JUMP JUMPDEST DUP3 DUP1 ADD PUSH1 0x1 ADD DUP6 SSTORE DUP3 ISZERO PUSH2 0x2EC JUMPI SWAP2 DUP3 ADD JUMPDEST DUP3 DUP2 GT ISZERO PUSH2 0x2EB JUMPI DUP3 MLOAD DUP3 SSTORE SWAP2 PUSH1 0x20 ADD SWAP2 SWAP1 PUSH1 0x1 ADD SWAP1 PUSH2 0x2D0 JUMP JUMPDEST JUMPDEST POP SWAP1 POP PUSH2 0x2F9 SWAP2 SWAP1 PUSH2 0x2FD JUMP JUMPDEST POP SWAP1 JUMP JUMPDEST JUMPDEST DUP1 DUP3 GT ISZERO PUSH2 0x316 JUMPI PUSH1 0x0 DUP2 PUSH1 0x0 SWAP1 SSTORE POP PUSH1 0x1 ADD PUSH2 0x2FE JUMP JUMPDEST POP SWAP1 JUMP JUMPDEST PUSH1 0x0 PUSH2 0x32D PUSH2 0x328 DUP5 PUSH2 0x51A JUMP JUMPDEST PUSH2 0x4F5 JUMP JUMPDEST SWAP1 POP DUP3 DUP2 MSTORE PUSH1 0x20 DUP2 ADD DUP5 DUP5 DUP5 ADD GT ISZERO PUSH2 0x349 JUMPI PUSH2 0x348 PUSH2 0x6DF JUMP JUMPDEST JUMPDEST PUSH2 0x354 DUP5 DUP3 DUP6 PUSH2 0x5A8 JUMP JUMPDEST POP SWAP4 SWAP3 POP POP POP JUMP JUMPDEST PUSH1 0x0 DUP3 PUSH1 0x1F DUP4 ADD SLT PUSH2 0x371 JUMPI PUSH2 0x370 PUSH2 0x6DA JUMP JUMPDEST JUMPDEST DUP2 CALLDATALOAD PUSH2 0x381 DUP5 DUP3 PUSH1 0x20 DUP7 ADD PUSH2 0x31A JUMP JUMPDEST SWAP2 POP POP SWAP3 SWAP2 POP POP JUMP JUMPDEST PUSH1 0x0 DUP2 CALLDATALOAD SWAP1 POP PUSH2 0x399 DUP2 PUSH2 0x713 JUMP JUMPDEST SWAP3 SWAP2 POP POP JUMP JUMPDEST PUSH1 0x0 DUP1 PUSH1 0x40 DUP4 DUP6 SUB SLT ISZERO PUSH2 0x3B6 JUMPI PUSH2 0x3B5 PUSH2 0x6E9 JUMP JUMPDEST JUMPDEST PUSH1 0x0 DUP4 ADD CALLDATALOAD PUSH8 0xFFFFFFFFFFFFFFFF DUP2 GT ISZERO PUSH2 0x3D4 JUMPI PUSH2 0x3D3 PUSH2 0x6E4 JUMP JUMPDEST JUMPDEST PUSH2 0x3E0 DUP6 DUP3 DUP7 ADD PUSH2 0x35C JUMP JUMPDEST SWAP3 POP POP PUSH1 0x20 PUSH2 0x3F1 DUP6 DUP3 DUP7 ADD PUSH2 0x38A JUMP JUMPDEST SWAP2 POP POP SWAP3 POP SWAP3 SWAP1 POP JUMP JUMPDEST PUSH1 0x0 PUSH1 0x20 DUP3 DUP5 SUB SLT ISZERO PUSH2 0x411 JUMPI PUSH2 0x410 PUSH2 0x6E9 JUMP JUMPDEST JUMPDEST PUSH1 0x0 PUSH2 0x41F DUP5 DUP3 DUP6 ADD PUSH2 0x38A JUMP JUMPDEST SWAP2 POP POP SWAP3 SWAP2 POP POP JUMP JUMPDEST PUSH2 0x431 DUP2 PUSH2 0x584 JUMP JUMPDEST DUP3 MSTORE POP POP JUMP JUMPDEST PUSH2 0x440 DUP2 PUSH2 0x596 JUMP JUMPDEST DUP3 MSTORE POP POP JUMP JUMPDEST PUSH1 0x0 PUSH2 0x451 DUP3 PUSH2 0x54B JUMP JUMPDEST PUSH2 0x45B DUP2 DUP6 PUSH2 0x556 JUMP JUMPDEST SWAP4 POP PUSH2 0x46B DUP2 DUP6 PUSH1 0x20 DUP7 ADD PUSH2 0x5B7 JUMP JUMPDEST PUSH2 0x474 DUP2 PUSH2 0x6EE JUMP JUMPDEST DUP5 ADD SWAP2 POP POP SWAP3 SWAP2 POP POP JUMP JUMPDEST PUSH2 0x488 DUP2 PUSH2 0x57A JUMP JUMPDEST DUP3 MSTORE POP POP JUMP JUMPDEST PUSH1 0x0 PUSH1 0x60 DUP3 ADD SWAP1 POP PUSH2 0x4A3 PUSH1 0x0 DUP4 ADD DUP7 PUSH2 0x428 JUMP JUMPDEST DUP2 DUP2 SUB PUSH1 0x20 DUP4 ADD MSTORE PUSH2 0x4B5 DUP2 DUP6 PUSH2 0x446 JUMP JUMPDEST SWAP1 POP PUSH2 0x4C4 PUSH1 0x40 DUP4 ADD DUP5 PUSH2 0x47F JUMP JUMPDEST SWAP5 SWAP4 POP POP POP POP JUMP JUMPDEST PUSH1 0x0 PUSH1 0x40 DUP3 ADD SWAP1 POP PUSH2 0x4E1 PUSH1 0x0 DUP4 ADD DUP6 PUSH2 0x47F JUMP JUMPDEST PUSH2 0x4EE PUSH1 0x20 DUP4 ADD DUP5 PUSH2 0x437 JUMP JUMPDEST SWAP4 SWAP3 POP POP POP JUMP JUMPDEST PUSH1 0x0 PUSH2 0x4FF PUSH2 0x510 JUMP JUMPDEST SWAP1 POP PUSH2 0x50B DUP3 DUP3 PUSH2 0x61C JUMP JUMPDEST SWAP2 SWAP1 POP JUMP JUMPDEST PUSH1 0x0 PUSH1 0x40 MLOAD SWAP1 POP SWAP1 JUMP JUMPDEST PUSH1 0x0 PUSH8 0xFFFFFFFFFFFFFFFF DUP3 GT ISZERO PUSH2 0x535 JUMPI PUSH2 0x534 PUSH2 0x6AB JUMP JUMPDEST JUMPDEST PUSH2 0x53E DUP3 PUSH2 0x6EE JUMP JUMPDEST SWAP1 POP PUSH1 0x20 DUP2 ADD SWAP1 POP SWAP2 SWAP1 POP JUMP JUMPDEST PUSH1 0x0 DUP2 MLOAD SWAP1 POP SWAP2 SWAP1 POP JUMP JUMPDEST PUSH1 0x0 DUP3 DUP3 MSTORE PUSH1 0x20 DUP3 ADD SWAP1 POP SWAP3 SWAP2 POP POP JUMP JUMPDEST PUSH1 0x0 DUP2 SWAP1 POP PUSH2 0x575 DUP3 PUSH2 0x6FF JUMP JUMPDEST SWAP2 SWAP1 POP JUMP JUMPDEST PUSH1 0x0 DUP2 SWAP1 POP SWAP2 SWAP1 POP JUMP JUMPDEST PUSH1 0x0 PUSH2 0x58F DUP3 PUSH2 0x567 JUMP JUMPDEST SWAP1 POP SWAP2 SWAP1 POP JUMP JUMPDEST PUSH1 0x0 PUSH2 0x5A1 DUP3 PUSH2 0x57A JUMP JUMPDEST SWAP1 POP SWAP2 SWAP1 POP JUMP JUMPDEST DUP3 DUP2 DUP4 CALLDATACOPY PUSH1 0x0 DUP4 DUP4 ADD MSTORE POP POP POP JUMP JUMPDEST PUSH1 0x0 JUMPDEST DUP4 DUP2 LT ISZERO PUSH2 0x5D5 JUMPI DUP1 DUP3 ADD MLOAD DUP2 DUP5 ADD MSTORE PUSH1 0x20 DUP2 ADD SWAP1 POP PUSH2 0x5BA JUMP JUMPDEST DUP4 DUP2 GT ISZERO PUSH2 0x5E4 JUMPI PUSH1 0x0 DUP5 DUP5 ADD MSTORE JUMPDEST POP POP POP POP JUMP JUMPDEST PUSH1 0x0 PUSH1 0x2 DUP3 DIV SWAP1 POP PUSH1 0x1 DUP3 AND DUP1 PUSH2 0x602 JUMPI PUSH1 0x7F DUP3 AND SWAP2 POP JUMPDEST PUSH1 0x20 DUP3 LT DUP2 EQ ISZERO PUSH2 0x616 JUMPI PUSH2 0x615 PUSH2 0x67C JUMP JUMPDEST JUMPDEST POP SWAP2 SWAP1 POP JUMP JUMPDEST PUSH2 0x625 DUP3 PUSH2 0x6EE JUMP JUMPDEST DUP2 ADD DUP2 DUP2 LT PUSH8 0xFFFFFFFFFFFFFFFF DUP3 GT OR ISZERO PUSH2 0x644 JUMPI PUSH2 0x643 PUSH2 0x6AB JUMP JUMPDEST JUMPDEST DUP1 PUSH1 0x40 MSTORE POP POP POP JUMP JUMPDEST PUSH32 0x4E487B7100000000000000000000000000000000000000000000000000000000 PUSH1 0x0 MSTORE PUSH1 0x21 PUSH1 0x4 MSTORE PUSH1 0x24 PUSH1 0x0 REVERT JUMPDEST PUSH32 0x4E487B7100000000000000000000000000000000000000000000000000000000 PUSH1 0x0 MSTORE PUSH1 0x22 PUSH1 0x4 MSTORE PUSH1 0x24 PUSH1 0x0 REVERT JUMPDEST PUSH32 0x4E487B7100000000000000000000000000000000000000000000000000000000 PUSH1 0x0 MSTORE PUSH1 0x41 PUSH1 0x4 MSTORE PUSH1 0x24 PUSH1 0x0 REVERT JUMPDEST PUSH1 0x0 DUP1 REVERT JUMPDEST PUSH1 0x0 DUP1 REVERT JUMPDEST PUSH1 0x0 DUP1 REVERT JUMPDEST PUSH1 0x0 DUP1 REVERT JUMPDEST PUSH1 0x0 PUSH1 0x1F NOT PUSH1 0x1F DUP4 ADD AND SWAP1 POP SWAP2 SWAP1 POP JUMP JUMPDEST PUSH1 0x3 DUP2 LT PUSH2 0x710 JUMPI PUSH2 0x70F PUSH2 0x64D JUMP JUMPDEST JUMPDEST POP JUMP JUMPDEST PUSH2 0x71C DUP2 PUSH2 0x57A JUMP JUMPDEST DUP2 EQ PUSH2 0x727 JUMPI PUSH1 0x0 DUP1 REVERT JUMPDEST POP JUMP INVALID LOG2 PUSH5 0x6970667358 0x22 SLT KECCAK256 PUSH26 0x34B22A6D7D8D148B65225A246EA6151D9E78BF8E6E403433238D PUSH30 0xAC5FDA8464736F6C63430008070033000000000000000000000000000000 "
				},
				"gasEstimates": {
					"creation": {
						"codeDepositCost": "377600",
						"executionCost": "411",
						"totalCost": "378011"
					},
					"external": {
						"createItem(string,uint256)": "infinite",
						"items(uint256)": "infinite"
					}
				},
				"methodIdentifiers": {
					"createItem(string,uint256)": "8c551742",
					"items(uint256)": "bfb231d2"
				}
			},
			"storageLayout": {
				"storage": [
					{
						"astId": 18,
						"contract": "contracts/EventTrigger.sol:ItemManager",
						"label": "items",
						"offset": 0,
						"slot": "0",
						"type": "t_mapping(t_uint256,t_struct(S_Item)13_storage)"
					},
					{
						"astId": 20,
						"contract": "contracts/EventTrigger.sol:ItemManager",
						"label": "index",
						"offset": 0,
						"slot": "1",
						"type": "t_uint256"
					}
				],
				"types": {
					"t_enum(SupplyChainSteps)5": {
						"encoding": "inplace",
						"label": "enum ItemManager.SupplyChainSteps",
						"numberOfBytes": "1"
					},
					"t_mapping(t_uint256,t_struct(S_Item)13_storage)": {
						"encoding": "mapping",
						"key": "t_uint256",
						"label": "mapping(uint256 => struct ItemManager.S_Item)",
						"numberOfBytes": "32",
						"value": "t_struct(S_Item)13_storage"
					},
					"t_string_storage": {
						"encoding": "bytes",
						"label": "string",
						"numberOfBytes": "32"
					},
					"t_struct(S_Item)13_storage": {
						"encoding": "inplace",
						"label": "struct ItemManager.S_Item",
						"members": [
							{
								"astId": 8,
								"contract": "contracts/EventTrigger.sol:ItemManager",
								"label": "_step",
								"offset": 0,
								"slot": "0",
								"type": "t_enum(SupplyChainSteps)5"
							},
							{
								"astId": 10,
								"contract": "contracts/EventTrigger.sol:ItemManager",
								"label": "identifier",
								"offset": 0,
								"slot": "1",
								"type": "t_string_storage"
							},
							{
								"astId": 12,
								"contract": "contracts/EventTrigger.sol:ItemManager",
								"label": "priceInWei",
								"offset": 0,
								"slot": "2",
								"type": "t_uint256"
							}
						],
						"numberOfBytes": "96"
					},
					"t_uint256": {
						"encoding": "inplace",
						"label": "uint256",
						"numberOfBytes": "32"
					}
				}
			},
			"userdoc": {
				"kind": "user",
				"methods": {},
				"version": 1
			}
		}
	}
}