{
	"contracts/EventTrigger.sol": {
		"ItemManager": {
			"abi": [
				{
					"anonymous": false,
					"inputs": [
						{
							"indexed": false,
							"internalType": "uint256",
							"name": "_itemIndex",
							"type": "uint256"
						},
						{
							"indexed": false,
							"internalType": "uint256",
							"name": "_step",
							"type": "uint256"
						}
					],
					"name": "SupplyChainStep",
					"type": "event"
				},
				{
					"inputs": [
						{
							"internalType": "string",
							"name": "_identifier",
							"type": "string"
						},
						{
							"internalType": "uint256",
							"name": "_priceInWei",
							"type": "uint256"
						}
					],
					"name": "createItem",
					"outputs": [],
					"stateMutability": "nonpayable",
					"type": "function"
				},
				{
					"inputs": [
						{
							"internalType": "uint256",
							"name": "",
							"type": "uint256"
						}
					],
					"name": "items",
					"outputs": [
						{
							"internalType": "enum ItemManager.SupplyChainSteps",
							"name": "_step",
							"type": "uint8"
						},
						{
							"internalType": "string",
							"name": "identifier",
							"type": "string"
						},
						{
							"internalType": "uint256",
							"name": "priceInWei",
							"type": "uint256"
						}
					],
					"stateMutability": "view",
					"type": "function"
				},
				{
					"inputs": [
						{
							"internalType": "uint256",
							"name": "_itemIndex",
							"type": "uint256"
						}
					],
					"name": "triggerPayment",
					"outputs": [],
					"stateMutability": "payable",
					"type": "function"
				}
			],
			"devdoc": {
				"kind": "dev",
				"methods": {},
				"version": 1
			},
			"evm": {
				"assembly": "    /* \"contracts/EventTrigger.sol\":61:878  contract ItemManager{\r... */\n  mstore(0x40, 0x80)\n  callvalue\n  dup1\n  iszero\n  tag_1\n  jumpi\n  0x00\n  dup1\n  revert\ntag_1:\n  pop\n  dataSize(sub_0)\n  dup1\n  dataOffset(sub_0)\n  0x00\n  codecopy\n  0x00\n  return\nstop\n\nsub_0: assembly {\n        /* \"contracts/EventTrigger.sol\":61:878  contract ItemManager{\r... */\n      mstore(0x40, 0x80)\n      jumpi(tag_1, lt(calldatasize, 0x04))\n      shr(0xe0, calldataload(0x00))\n      dup1\n      0x800fb83f\n      eq\n      tag_2\n      jumpi\n      dup1\n      0x8c551742\n      eq\n      tag_3\n      jumpi\n      dup1\n      0xbfb231d2\n      eq\n      tag_4\n      jumpi\n    tag_1:\n      0x00\n      dup1\n      revert\n        /* \"contracts/EventTrigger.sol\":744:869  function triggerPayment(uint _itemIndex) public payable {\r... */\n    tag_2:\n      tag_5\n      0x04\n      dup1\n      calldatasize\n      sub\n      dup2\n      add\n      swap1\n      tag_6\n      swap2\n      swap1\n      tag_7\n      jump\t// in\n    tag_6:\n      tag_8\n      jump\t// in\n    tag_5:\n      stop\n        /* \"contracts/EventTrigger.sol\":395:736  function createItem(string memory _identifier, uint _priceInWei) public {\r... */\n    tag_3:\n      callvalue\n      dup1\n      iszero\n      tag_9\n      jumpi\n      0x00\n      dup1\n      revert\n    tag_9:\n      pop\n      tag_10\n      0x04\n      dup1\n      calldatasize\n      sub\n      dup2\n      add\n      swap1\n      tag_11\n      swap2\n      swap1\n      tag_12\n      jump\t// in\n    tag_11:\n      tag_13\n      jump\t// in\n    tag_10:\n      stop\n        /* \"contracts/EventTrigger.sol\":273:310  mapping (uint => S_Item) public items */\n    tag_4:\n      callvalue\n      dup1\n      iszero\n      tag_14\n      jumpi\n      0x00\n      dup1\n      revert\n    tag_14:\n      pop\n      tag_15\n      0x04\n      dup1\n      calldatasize\n      sub\n      dup2\n      add\n      swap1\n      tag_16\n      swap2\n      swap1\n      tag_7\n      jump\t// in\n    tag_16:\n      tag_17\n      jump\t// in\n    tag_15:\n      mload(0x40)\n      tag_18\n      swap4\n      swap3\n      swap2\n      swap1\n      tag_19\n      jump\t// in\n    tag_18:\n      mload(0x40)\n      dup1\n      swap2\n      sub\n      swap1\n      return\n        /* \"contracts/EventTrigger.sol\":744:869  function triggerPayment(uint _itemIndex) public payable {\r... */\n    tag_8:\n        /* \"contracts/EventTrigger.sol\":832:837  items */\n      0x00\n        /* \"contracts/EventTrigger.sol\":832:849  items[_itemIndex] */\n      dup1\n        /* \"contracts/EventTrigger.sol\":838:848  _itemIndex */\n      dup3\n        /* \"contracts/EventTrigger.sol\":832:849  items[_itemIndex] */\n      dup2\n      mstore\n      0x20\n      add\n      swap1\n      dup2\n      mstore\n      0x20\n      add\n      0x00\n      keccak256\n        /* \"contracts/EventTrigger.sol\":832:860  items[_itemIndex].priceInWei */\n      0x02\n      add\n      sload\n        /* \"contracts/EventTrigger.sol\":819:828  msg.value */\n      callvalue\n        /* \"contracts/EventTrigger.sol\":819:860  msg.value >= items[_itemIndex].priceInWei */\n      lt\n      iszero\n        /* \"contracts/EventTrigger.sol\":811:861  require(msg.value >= items[_itemIndex].priceInWei) */\n      tag_21\n      jumpi\n      0x00\n      dup1\n      revert\n    tag_21:\n        /* \"contracts/EventTrigger.sol\":744:869  function triggerPayment(uint _itemIndex) public payable {\r... */\n      pop\n      jump\t// out\n        /* \"contracts/EventTrigger.sol\":395:736  function createItem(string memory _identifier, uint _priceInWei) public {\r... */\n    tag_13:\n        /* \"contracts/EventTrigger.sol\":478:499  S_Item memory newItem */\n      tag_23\n      tag_24\n      jump\t// in\n    tag_23:\n        /* \"contracts/EventTrigger.sol\":531:542  _identifier */\n      dup3\n        /* \"contracts/EventTrigger.sol\":510:517  newItem */\n      dup2\n        /* \"contracts/EventTrigger.sol\":510:528  newItem.identifier */\n      0x20\n      add\n        /* \"contracts/EventTrigger.sol\":510:542  newItem.identifier = _identifier */\n      dup2\n      swap1\n      mstore\n      pop\n        /* \"contracts/EventTrigger.sol\":574:585  _priceInWei */\n      dup2\n        /* \"contracts/EventTrigger.sol\":553:560  newItem */\n      dup2\n        /* \"contracts/EventTrigger.sol\":553:571  newItem.priceInWei */\n      0x40\n      add\n        /* \"contracts/EventTrigger.sol\":553:585  newItem.priceInWei = _priceInWei */\n      dup2\n      dup2\n      mstore\n      pop\n      pop\n        /* \"contracts/EventTrigger.sol\":612:636  SupplyChainSteps.Created */\n      0x00\n        /* \"contracts/EventTrigger.sol\":596:603  newItem */\n      dup2\n        /* \"contracts/EventTrigger.sol\":596:609  newItem._step */\n      0x00\n      add\n        /* \"contracts/EventTrigger.sol\":596:636  newItem._step = SupplyChainSteps.Created */\n      swap1\n      0x02\n      dup2\n      gt\n      iszero\n      tag_25\n      jumpi\n      tag_26\n      tag_27\n      jump\t// in\n    tag_26:\n    tag_25:\n      swap1\n      dup2\n      0x02\n      dup2\n      gt\n      iszero\n      tag_28\n      jumpi\n      tag_29\n      tag_27\n      jump\t// in\n    tag_29:\n    tag_28:\n      dup2\n      mstore\n      pop\n      pop\n        /* \"contracts/EventTrigger.sol\":662:669  newItem */\n      dup1\n        /* \"contracts/EventTrigger.sol\":647:652  items */\n      0x00\n        /* \"contracts/EventTrigger.sol\":647:659  items[index] */\n      dup1\n        /* \"contracts/EventTrigger.sol\":653:658  index */\n      sload(0x01)\n        /* \"contracts/EventTrigger.sol\":647:659  items[index] */\n      dup2\n      mstore\n      0x20\n      add\n      swap1\n      dup2\n      mstore\n      0x20\n      add\n      0x00\n      keccak256\n        /* \"contracts/EventTrigger.sol\":647:669  items[index] = newItem */\n      0x00\n      dup3\n      add\n      mload\n      dup2\n      0x00\n      add\n      exp(0x0100, 0x00)\n      dup2\n      sload\n      dup2\n      0xff\n      mul\n      not\n      and\n      swap1\n      dup4\n      0x02\n      dup2\n      gt\n      iszero\n      tag_30\n      jumpi\n      tag_31\n      tag_27\n      jump\t// in\n    tag_31:\n    tag_30:\n      mul\n      or\n      swap1\n      sstore\n      pop\n      0x20\n      dup3\n      add\n      mload\n      dup2\n      0x01\n      add\n      swap1\n      dup1\n      mload\n      swap1\n      0x20\n      add\n      swap1\n      tag_32\n      swap3\n      swap2\n      swap1\n      tag_33\n      jump\t// in\n    tag_32:\n      pop\n      0x40\n      dup3\n      add\n      mload\n      dup2\n      0x02\n      add\n      sstore\n      swap1\n      pop\n      pop\n        /* \"contracts/EventTrigger.sol\":685:710  SupplyChainStep(index, 0) */\n      0x8c198761ba3d324d155cbaf96f0ac38a531c085089e49106d95352535a1110c2\n        /* \"contracts/EventTrigger.sol\":701:706  index */\n      sload(0x01)\n        /* \"contracts/EventTrigger.sol\":708:709  0 */\n      0x00\n        /* \"contracts/EventTrigger.sol\":685:710  SupplyChainStep(index, 0) */\n      mload(0x40)\n      tag_34\n      swap3\n      swap2\n      swap1\n      tag_35\n      jump\t// in\n    tag_34:\n      mload(0x40)\n      dup1\n      swap2\n      sub\n      swap1\n      log1\n        /* \"contracts/EventTrigger.sol\":721:726  index */\n      0x01\n      0x00\n        /* \"contracts/EventTrigger.sol\":721:728  index++ */\n      dup2\n      sload\n      dup1\n      swap3\n      swap2\n      swap1\n      tag_36\n      swap1\n      tag_37\n      jump\t// in\n    tag_36:\n      swap2\n      swap1\n      pop\n      sstore\n      pop\n        /* \"contracts/EventTrigger.sol\":467:736  {\r... */\n      pop\n        /* \"contracts/EventTrigger.sol\":395:736  function createItem(string memory _identifier, uint _priceInWei) public {\r... */\n      pop\n      pop\n      jump\t// out\n        /* \"contracts/EventTrigger.sol\":273:310  mapping (uint => S_Item) public items */\n    tag_17:\n      mstore(0x20, 0x00)\n      dup1\n      0x00\n      mstore\n      keccak256(0x00, 0x40)\n      0x00\n      swap2\n      pop\n      swap1\n      pop\n      dup1\n      0x00\n      add\n      0x00\n      swap1\n      sload\n      swap1\n      0x0100\n      exp\n      swap1\n      div\n      0xff\n      and\n      swap1\n      dup1\n      0x01\n      add\n      dup1\n      sload\n      tag_38\n      swap1\n      tag_39\n      jump\t// in\n    tag_38:\n      dup1\n      0x1f\n      add\n      0x20\n      dup1\n      swap2\n      div\n      mul\n      0x20\n      add\n      mload(0x40)\n      swap1\n      dup2\n      add\n      0x40\n      mstore\n      dup1\n      swap3\n      swap2\n      swap1\n      dup2\n      dup2\n      mstore\n      0x20\n      add\n      dup3\n      dup1\n      sload\n      tag_40\n      swap1\n      tag_39\n      jump\t// in\n    tag_40:\n      dup1\n      iszero\n      tag_41\n      jumpi\n      dup1\n      0x1f\n      lt\n      tag_42\n      jumpi\n      0x0100\n      dup1\n      dup4\n      sload\n      div\n      mul\n      dup4\n      mstore\n      swap2\n      0x20\n      add\n      swap2\n      jump(tag_41)\n    tag_42:\n      dup3\n      add\n      swap2\n      swap1\n      0x00\n      mstore\n      keccak256(0x00, 0x20)\n      swap1\n    tag_43:\n      dup2\n      sload\n      dup2\n      mstore\n      swap1\n      0x01\n      add\n      swap1\n      0x20\n      add\n      dup1\n      dup4\n      gt\n      tag_43\n      jumpi\n      dup3\n      swap1\n      sub\n      0x1f\n      and\n      dup3\n      add\n      swap2\n    tag_41:\n      pop\n      pop\n      pop\n      pop\n      pop\n      swap1\n      dup1\n      0x02\n      add\n      sload\n      swap1\n      pop\n      dup4\n      jump\t// out\n    tag_24:\n      mload(0x40)\n      dup1\n      0x60\n      add\n      0x40\n      mstore\n      dup1\n      0x00\n      0x02\n      dup2\n      gt\n      iszero\n      tag_44\n      jumpi\n      tag_45\n      tag_27\n      jump\t// in\n    tag_45:\n    tag_44:\n      dup2\n      mstore\n      0x20\n      add\n      0x60\n      dup2\n      mstore\n      0x20\n      add\n      0x00\n      dup2\n      mstore\n      pop\n      swap1\n      jump\t// out\n    tag_33:\n      dup3\n      dup1\n      sload\n      tag_46\n      swap1\n      tag_39\n      jump\t// in\n    tag_46:\n      swap1\n      0x00\n      mstore\n      keccak256(0x00, 0x20)\n      swap1\n      0x1f\n      add\n      0x20\n      swap1\n      div\n      dup2\n      add\n      swap3\n      dup3\n      tag_48\n      jumpi\n      0x00\n      dup6\n      sstore\n      jump(tag_47)\n    tag_48:\n      dup3\n      0x1f\n      lt\n      tag_49\n      jumpi\n      dup1\n      mload\n      not(0xff)\n      and\n      dup4\n      dup1\n      add\n      or\n      dup6\n      sstore\n      jump(tag_47)\n    tag_49:\n      dup3\n      dup1\n      add\n      0x01\n      add\n      dup6\n      sstore\n      dup3\n      iszero\n      tag_47\n      jumpi\n      swap2\n      dup3\n      add\n    tag_50:\n      dup3\n      dup2\n      gt\n      iszero\n      tag_51\n      jumpi\n      dup3\n      mload\n      dup3\n      sstore\n      swap2\n      0x20\n      add\n      swap2\n      swap1\n      0x01\n      add\n      swap1\n      jump(tag_50)\n    tag_51:\n    tag_47:\n      pop\n      swap1\n      pop\n      tag_52\n      swap2\n      swap1\n      tag_53\n      jump\t// in\n    tag_52:\n      pop\n      swap1\n      jump\t// out\n    tag_53:\n    tag_54:\n      dup1\n      dup3\n      gt\n      iszero\n      tag_55\n      jumpi\n      0x00\n      dup2\n      0x00\n      swap1\n      sstore\n      pop\n      0x01\n      add\n      jump(tag_54)\n    tag_55:\n      pop\n      swap1\n      jump\t// out\n        /* \"#utility.yul\":7:419   */\n    tag_57:\n        /* \"#utility.yul\":85:90   */\n      0x00\n        /* \"#utility.yul\":110:176   */\n      tag_59\n        /* \"#utility.yul\":126:175   */\n      tag_60\n        /* \"#utility.yul\":168:174   */\n      dup5\n        /* \"#utility.yul\":126:175   */\n      tag_61\n      jump\t// in\n    tag_60:\n        /* \"#utility.yul\":110:176   */\n      tag_62\n      jump\t// in\n    tag_59:\n        /* \"#utility.yul\":101:176   */\n      swap1\n      pop\n        /* \"#utility.yul\":199:205   */\n      dup3\n        /* \"#utility.yul\":192:197   */\n      dup2\n        /* \"#utility.yul\":185:206   */\n      mstore\n        /* \"#utility.yul\":237:241   */\n      0x20\n        /* \"#utility.yul\":230:235   */\n      dup2\n        /* \"#utility.yul\":226:242   */\n      add\n        /* \"#utility.yul\":275:278   */\n      dup5\n        /* \"#utility.yul\":266:272   */\n      dup5\n        /* \"#utility.yul\":261:264   */\n      dup5\n        /* \"#utility.yul\":257:273   */\n      add\n        /* \"#utility.yul\":254:279   */\n      gt\n        /* \"#utility.yul\":251:363   */\n      iszero\n      tag_63\n      jumpi\n        /* \"#utility.yul\":282:361   */\n      tag_64\n      tag_65\n      jump\t// in\n    tag_64:\n        /* \"#utility.yul\":251:363   */\n    tag_63:\n        /* \"#utility.yul\":372:413   */\n      tag_66\n        /* \"#utility.yul\":406:412   */\n      dup5\n        /* \"#utility.yul\":401:404   */\n      dup3\n        /* \"#utility.yul\":396:399   */\n      dup6\n        /* \"#utility.yul\":372:413   */\n      tag_67\n      jump\t// in\n    tag_66:\n        /* \"#utility.yul\":91:419   */\n      pop\n        /* \"#utility.yul\":7:419   */\n      swap4\n      swap3\n      pop\n      pop\n      pop\n      jump\t// out\n        /* \"#utility.yul\":439:779   */\n    tag_68:\n        /* \"#utility.yul\":495:500   */\n      0x00\n        /* \"#utility.yul\":544:547   */\n      dup3\n        /* \"#utility.yul\":537:541   */\n      0x1f\n        /* \"#utility.yul\":529:535   */\n      dup4\n        /* \"#utility.yul\":525:542   */\n      add\n        /* \"#utility.yul\":521:548   */\n      slt\n        /* \"#utility.yul\":511:633   */\n      tag_70\n      jumpi\n        /* \"#utility.yul\":552:631   */\n      tag_71\n      tag_72\n      jump\t// in\n    tag_71:\n        /* \"#utility.yul\":511:633   */\n    tag_70:\n        /* \"#utility.yul\":669:675   */\n      dup2\n        /* \"#utility.yul\":656:676   */\n      calldataload\n        /* \"#utility.yul\":694:773   */\n      tag_73\n        /* \"#utility.yul\":769:772   */\n      dup5\n        /* \"#utility.yul\":761:767   */\n      dup3\n        /* \"#utility.yul\":754:758   */\n      0x20\n        /* \"#utility.yul\":746:752   */\n      dup7\n        /* \"#utility.yul\":742:759   */\n      add\n        /* \"#utility.yul\":694:773   */\n      tag_57\n      jump\t// in\n    tag_73:\n        /* \"#utility.yul\":685:773   */\n      swap2\n      pop\n        /* \"#utility.yul\":501:779   */\n      pop\n        /* \"#utility.yul\":439:779   */\n      swap3\n      swap2\n      pop\n      pop\n      jump\t// out\n        /* \"#utility.yul\":785:924   */\n    tag_74:\n        /* \"#utility.yul\":831:836   */\n      0x00\n        /* \"#utility.yul\":869:875   */\n      dup2\n        /* \"#utility.yul\":856:876   */\n      calldataload\n        /* \"#utility.yul\":847:876   */\n      swap1\n      pop\n        /* \"#utility.yul\":885:918   */\n      tag_76\n        /* \"#utility.yul\":912:917   */\n      dup2\n        /* \"#utility.yul\":885:918   */\n      tag_77\n      jump\t// in\n    tag_76:\n        /* \"#utility.yul\":785:924   */\n      swap3\n      swap2\n      pop\n      pop\n      jump\t// out\n        /* \"#utility.yul\":930:1584   */\n    tag_12:\n        /* \"#utility.yul\":1008:1014   */\n      0x00\n        /* \"#utility.yul\":1016:1022   */\n      dup1\n        /* \"#utility.yul\":1065:1067   */\n      0x40\n        /* \"#utility.yul\":1053:1062   */\n      dup4\n        /* \"#utility.yul\":1044:1051   */\n      dup6\n        /* \"#utility.yul\":1040:1063   */\n      sub\n        /* \"#utility.yul\":1036:1068   */\n      slt\n        /* \"#utility.yul\":1033:1152   */\n      iszero\n      tag_79\n      jumpi\n        /* \"#utility.yul\":1071:1150   */\n      tag_80\n      tag_81\n      jump\t// in\n    tag_80:\n        /* \"#utility.yul\":1033:1152   */\n    tag_79:\n        /* \"#utility.yul\":1219:1220   */\n      0x00\n        /* \"#utility.yul\":1208:1217   */\n      dup4\n        /* \"#utility.yul\":1204:1221   */\n      add\n        /* \"#utility.yul\":1191:1222   */\n      calldataload\n        /* \"#utility.yul\":1249:1267   */\n      0xffffffffffffffff\n        /* \"#utility.yul\":1241:1247   */\n      dup2\n        /* \"#utility.yul\":1238:1268   */\n      gt\n        /* \"#utility.yul\":1235:1352   */\n      iszero\n      tag_82\n      jumpi\n        /* \"#utility.yul\":1271:1350   */\n      tag_83\n      tag_84\n      jump\t// in\n    tag_83:\n        /* \"#utility.yul\":1235:1352   */\n    tag_82:\n        /* \"#utility.yul\":1376:1439   */\n      tag_85\n        /* \"#utility.yul\":1431:1438   */\n      dup6\n        /* \"#utility.yul\":1422:1428   */\n      dup3\n        /* \"#utility.yul\":1411:1420   */\n      dup7\n        /* \"#utility.yul\":1407:1429   */\n      add\n        /* \"#utility.yul\":1376:1439   */\n      tag_68\n      jump\t// in\n    tag_85:\n        /* \"#utility.yul\":1366:1439   */\n      swap3\n      pop\n        /* \"#utility.yul\":1162:1449   */\n      pop\n        /* \"#utility.yul\":1488:1490   */\n      0x20\n        /* \"#utility.yul\":1514:1567   */\n      tag_86\n        /* \"#utility.yul\":1559:1566   */\n      dup6\n        /* \"#utility.yul\":1550:1556   */\n      dup3\n        /* \"#utility.yul\":1539:1548   */\n      dup7\n        /* \"#utility.yul\":1535:1557   */\n      add\n        /* \"#utility.yul\":1514:1567   */\n      tag_74\n      jump\t// in\n    tag_86:\n        /* \"#utility.yul\":1504:1567   */\n      swap2\n      pop\n        /* \"#utility.yul\":1459:1577   */\n      pop\n        /* \"#utility.yul\":930:1584   */\n      swap3\n      pop\n      swap3\n      swap1\n      pop\n      jump\t// out\n        /* \"#utility.yul\":1590:1919   */\n    tag_7:\n        /* \"#utility.yul\":1649:1655   */\n      0x00\n        /* \"#utility.yul\":1698:1700   */\n      0x20\n        /* \"#utility.yul\":1686:1695   */\n      dup3\n        /* \"#utility.yul\":1677:1684   */\n      dup5\n        /* \"#utility.yul\":1673:1696   */\n      sub\n        /* \"#utility.yul\":1669:1701   */\n      slt\n        /* \"#utility.yul\":1666:1785   */\n      iszero\n      tag_88\n      jumpi\n        /* \"#utility.yul\":1704:1783   */\n      tag_89\n      tag_81\n      jump\t// in\n    tag_89:\n        /* \"#utility.yul\":1666:1785   */\n    tag_88:\n        /* \"#utility.yul\":1824:1825   */\n      0x00\n        /* \"#utility.yul\":1849:1902   */\n      tag_90\n        /* \"#utility.yul\":1894:1901   */\n      dup5\n        /* \"#utility.yul\":1885:1891   */\n      dup3\n        /* \"#utility.yul\":1874:1883   */\n      dup6\n        /* \"#utility.yul\":1870:1892   */\n      add\n        /* \"#utility.yul\":1849:1902   */\n      tag_74\n      jump\t// in\n    tag_90:\n        /* \"#utility.yul\":1839:1902   */\n      swap2\n      pop\n        /* \"#utility.yul\":1795:1912   */\n      pop\n        /* \"#utility.yul\":1590:1919   */\n      swap3\n      swap2\n      pop\n      pop\n      jump\t// out\n        /* \"#utility.yul\":1925:2088   */\n    tag_91:\n        /* \"#utility.yul\":2028:2081   */\n      tag_93\n        /* \"#utility.yul\":2075:2080   */\n      dup2\n        /* \"#utility.yul\":2028:2081   */\n      tag_94\n      jump\t// in\n    tag_93:\n        /* \"#utility.yul\":2023:2026   */\n      dup3\n        /* \"#utility.yul\":2016:2082   */\n      mstore\n        /* \"#utility.yul\":1925:2088   */\n      pop\n      pop\n      jump\t// out\n        /* \"#utility.yul\":2094:2241   */\n    tag_95:\n        /* \"#utility.yul\":2189:2234   */\n      tag_97\n        /* \"#utility.yul\":2228:2233   */\n      dup2\n        /* \"#utility.yul\":2189:2234   */\n      tag_98\n      jump\t// in\n    tag_97:\n        /* \"#utility.yul\":2184:2187   */\n      dup3\n        /* \"#utility.yul\":2177:2235   */\n      mstore\n        /* \"#utility.yul\":2094:2241   */\n      pop\n      pop\n      jump\t// out\n        /* \"#utility.yul\":2247:2611   */\n    tag_99:\n        /* \"#utility.yul\":2335:2338   */\n      0x00\n        /* \"#utility.yul\":2363:2402   */\n      tag_101\n        /* \"#utility.yul\":2396:2401   */\n      dup3\n        /* \"#utility.yul\":2363:2402   */\n      tag_102\n      jump\t// in\n    tag_101:\n        /* \"#utility.yul\":2418:2489   */\n      tag_103\n        /* \"#utility.yul\":2482:2488   */\n      dup2\n        /* \"#utility.yul\":2477:2480   */\n      dup6\n        /* \"#utility.yul\":2418:2489   */\n      tag_104\n      jump\t// in\n    tag_103:\n        /* \"#utility.yul\":2411:2489   */\n      swap4\n      pop\n        /* \"#utility.yul\":2498:2550   */\n      tag_105\n        /* \"#utility.yul\":2543:2549   */\n      dup2\n        /* \"#utility.yul\":2538:2541   */\n      dup6\n        /* \"#utility.yul\":2531:2535   */\n      0x20\n        /* \"#utility.yul\":2524:2529   */\n      dup7\n        /* \"#utility.yul\":2520:2536   */\n      add\n        /* \"#utility.yul\":2498:2550   */\n      tag_106\n      jump\t// in\n    tag_105:\n        /* \"#utility.yul\":2575:2604   */\n      tag_107\n        /* \"#utility.yul\":2597:2603   */\n      dup2\n        /* \"#utility.yul\":2575:2604   */\n      tag_108\n      jump\t// in\n    tag_107:\n        /* \"#utility.yul\":2570:2573   */\n      dup5\n        /* \"#utility.yul\":2566:2605   */\n      add\n        /* \"#utility.yul\":2559:2605   */\n      swap2\n      pop\n        /* \"#utility.yul\":2339:2611   */\n      pop\n        /* \"#utility.yul\":2247:2611   */\n      swap3\n      swap2\n      pop\n      pop\n      jump\t// out\n        /* \"#utility.yul\":2617:2735   */\n    tag_109:\n        /* \"#utility.yul\":2704:2728   */\n      tag_111\n        /* \"#utility.yul\":2722:2727   */\n      dup2\n        /* \"#utility.yul\":2704:2728   */\n      tag_112\n      jump\t// in\n    tag_111:\n        /* \"#utility.yul\":2699:2702   */\n      dup3\n        /* \"#utility.yul\":2692:2729   */\n      mstore\n        /* \"#utility.yul\":2617:2735   */\n      pop\n      pop\n      jump\t// out\n        /* \"#utility.yul\":2741:3306   */\n    tag_19:\n        /* \"#utility.yul\":2926:2930   */\n      0x00\n        /* \"#utility.yul\":2964:2966   */\n      0x60\n        /* \"#utility.yul\":2953:2962   */\n      dup3\n        /* \"#utility.yul\":2949:2967   */\n      add\n        /* \"#utility.yul\":2941:2967   */\n      swap1\n      pop\n        /* \"#utility.yul\":2977:3064   */\n      tag_114\n        /* \"#utility.yul\":3061:3062   */\n      0x00\n        /* \"#utility.yul\":3050:3059   */\n      dup4\n        /* \"#utility.yul\":3046:3063   */\n      add\n        /* \"#utility.yul\":3037:3043   */\n      dup7\n        /* \"#utility.yul\":2977:3064   */\n      tag_91\n      jump\t// in\n    tag_114:\n        /* \"#utility.yul\":3111:3120   */\n      dup2\n        /* \"#utility.yul\":3105:3109   */\n      dup2\n        /* \"#utility.yul\":3101:3121   */\n      sub\n        /* \"#utility.yul\":3096:3098   */\n      0x20\n        /* \"#utility.yul\":3085:3094   */\n      dup4\n        /* \"#utility.yul\":3081:3099   */\n      add\n        /* \"#utility.yul\":3074:3122   */\n      mstore\n        /* \"#utility.yul\":3139:3217   */\n      tag_115\n        /* \"#utility.yul\":3212:3216   */\n      dup2\n        /* \"#utility.yul\":3203:3209   */\n      dup6\n        /* \"#utility.yul\":3139:3217   */\n      tag_99\n      jump\t// in\n    tag_115:\n        /* \"#utility.yul\":3131:3217   */\n      swap1\n      pop\n        /* \"#utility.yul\":3227:3299   */\n      tag_116\n        /* \"#utility.yul\":3295:3297   */\n      0x40\n        /* \"#utility.yul\":3284:3293   */\n      dup4\n        /* \"#utility.yul\":3280:3298   */\n      add\n        /* \"#utility.yul\":3271:3277   */\n      dup5\n        /* \"#utility.yul\":3227:3299   */\n      tag_109\n      jump\t// in\n    tag_116:\n        /* \"#utility.yul\":2741:3306   */\n      swap5\n      swap4\n      pop\n      pop\n      pop\n      pop\n      jump\t// out\n        /* \"#utility.yul\":3312:3660   */\n    tag_35:\n        /* \"#utility.yul\":3441:3445   */\n      0x00\n        /* \"#utility.yul\":3479:3481   */\n      0x40\n        /* \"#utility.yul\":3468:3477   */\n      dup3\n        /* \"#utility.yul\":3464:3482   */\n      add\n        /* \"#utility.yul\":3456:3482   */\n      swap1\n      pop\n        /* \"#utility.yul\":3492:3563   */\n      tag_118\n        /* \"#utility.yul\":3560:3561   */\n      0x00\n        /* \"#utility.yul\":3549:3558   */\n      dup4\n        /* \"#utility.yul\":3545:3562   */\n      add\n        /* \"#utility.yul\":3536:3542   */\n      dup6\n        /* \"#utility.yul\":3492:3563   */\n      tag_109\n      jump\t// in\n    tag_118:\n        /* \"#utility.yul\":3573:3653   */\n      tag_119\n        /* \"#utility.yul\":3649:3651   */\n      0x20\n        /* \"#utility.yul\":3638:3647   */\n      dup4\n        /* \"#utility.yul\":3634:3652   */\n      add\n        /* \"#utility.yul\":3625:3631   */\n      dup5\n        /* \"#utility.yul\":3573:3653   */\n      tag_95\n      jump\t// in\n    tag_119:\n        /* \"#utility.yul\":3312:3660   */\n      swap4\n      swap3\n      pop\n      pop\n      pop\n      jump\t// out\n        /* \"#utility.yul\":3666:3795   */\n    tag_62:\n        /* \"#utility.yul\":3700:3706   */\n      0x00\n        /* \"#utility.yul\":3727:3747   */\n      tag_121\n      tag_122\n      jump\t// in\n    tag_121:\n        /* \"#utility.yul\":3717:3747   */\n      swap1\n      pop\n        /* \"#utility.yul\":3756:3789   */\n      tag_123\n        /* \"#utility.yul\":3784:3788   */\n      dup3\n        /* \"#utility.yul\":3776:3782   */\n      dup3\n        /* \"#utility.yul\":3756:3789   */\n      tag_124\n      jump\t// in\n    tag_123:\n        /* \"#utility.yul\":3666:3795   */\n      swap2\n      swap1\n      pop\n      jump\t// out\n        /* \"#utility.yul\":3801:3876   */\n    tag_122:\n        /* \"#utility.yul\":3834:3840   */\n      0x00\n        /* \"#utility.yul\":3867:3869   */\n      0x40\n        /* \"#utility.yul\":3861:3870   */\n      mload\n        /* \"#utility.yul\":3851:3870   */\n      swap1\n      pop\n        /* \"#utility.yul\":3801:3876   */\n      swap1\n      jump\t// out\n        /* \"#utility.yul\":3882:4190   */\n    tag_61:\n        /* \"#utility.yul\":3944:3948   */\n      0x00\n        /* \"#utility.yul\":4034:4052   */\n      0xffffffffffffffff\n        /* \"#utility.yul\":4026:4032   */\n      dup3\n        /* \"#utility.yul\":4023:4053   */\n      gt\n        /* \"#utility.yul\":4020:4076   */\n      iszero\n      tag_127\n      jumpi\n        /* \"#utility.yul\":4056:4074   */\n      tag_128\n      tag_129\n      jump\t// in\n    tag_128:\n        /* \"#utility.yul\":4020:4076   */\n    tag_127:\n        /* \"#utility.yul\":4094:4123   */\n      tag_130\n        /* \"#utility.yul\":4116:4122   */\n      dup3\n        /* \"#utility.yul\":4094:4123   */\n      tag_108\n      jump\t// in\n    tag_130:\n        /* \"#utility.yul\":4086:4123   */\n      swap1\n      pop\n        /* \"#utility.yul\":4178:4182   */\n      0x20\n        /* \"#utility.yul\":4172:4176   */\n      dup2\n        /* \"#utility.yul\":4168:4183   */\n      add\n        /* \"#utility.yul\":4160:4183   */\n      swap1\n      pop\n        /* \"#utility.yul\":3882:4190   */\n      swap2\n      swap1\n      pop\n      jump\t// out\n        /* \"#utility.yul\":4196:4295   */\n    tag_102:\n        /* \"#utility.yul\":4248:4254   */\n      0x00\n        /* \"#utility.yul\":4282:4287   */\n      dup2\n        /* \"#utility.yul\":4276:4288   */\n      mload\n        /* \"#utility.yul\":4266:4288   */\n      swap1\n      pop\n        /* \"#utility.yul\":4196:4295   */\n      swap2\n      swap1\n      pop\n      jump\t// out\n        /* \"#utility.yul\":4301:4470   */\n    tag_104:\n        /* \"#utility.yul\":4385:4396   */\n      0x00\n        /* \"#utility.yul\":4419:4425   */\n      dup3\n        /* \"#utility.yul\":4414:4417   */\n      dup3\n        /* \"#utility.yul\":4407:4426   */\n      mstore\n        /* \"#utility.yul\":4459:4463   */\n      0x20\n        /* \"#utility.yul\":4454:4457   */\n      dup3\n        /* \"#utility.yul\":4450:4464   */\n      add\n        /* \"#utility.yul\":4435:4464   */\n      swap1\n      pop\n        /* \"#utility.yul\":4301:4470   */\n      swap3\n      swap2\n      pop\n      pop\n      jump\t// out\n        /* \"#utility.yul\":4476:4623   */\n    tag_133:\n        /* \"#utility.yul\":4531:4538   */\n      0x00\n        /* \"#utility.yul\":4560:4565   */\n      dup2\n        /* \"#utility.yul\":4549:4565   */\n      swap1\n      pop\n        /* \"#utility.yul\":4566:4617   */\n      tag_135\n        /* \"#utility.yul\":4611:4616   */\n      dup3\n        /* \"#utility.yul\":4566:4617   */\n      tag_136\n      jump\t// in\n    tag_135:\n        /* \"#utility.yul\":4476:4623   */\n      swap2\n      swap1\n      pop\n      jump\t// out\n        /* \"#utility.yul\":4629:4706   */\n    tag_112:\n        /* \"#utility.yul\":4666:4673   */\n      0x00\n        /* \"#utility.yul\":4695:4700   */\n      dup2\n        /* \"#utility.yul\":4684:4700   */\n      swap1\n      pop\n        /* \"#utility.yul\":4629:4706   */\n      swap2\n      swap1\n      pop\n      jump\t// out\n        /* \"#utility.yul\":4712:4859   */\n    tag_94:\n        /* \"#utility.yul\":4778:4787   */\n      0x00\n        /* \"#utility.yul\":4811:4853   */\n      tag_139\n        /* \"#utility.yul\":4847:4852   */\n      dup3\n        /* \"#utility.yul\":4811:4853   */\n      tag_133\n      jump\t// in\n    tag_139:\n        /* \"#utility.yul\":4798:4853   */\n      swap1\n      pop\n        /* \"#utility.yul\":4712:4859   */\n      swap2\n      swap1\n      pop\n      jump\t// out\n        /* \"#utility.yul\":4865:4986   */\n    tag_98:\n        /* \"#utility.yul\":4923:4932   */\n      0x00\n        /* \"#utility.yul\":4956:4980   */\n      tag_141\n        /* \"#utility.yul\":4974:4979   */\n      dup3\n        /* \"#utility.yul\":4956:4980   */\n      tag_112\n      jump\t// in\n    tag_141:\n        /* \"#utility.yul\":4943:4980   */\n      swap1\n      pop\n        /* \"#utility.yul\":4865:4986   */\n      swap2\n      swap1\n      pop\n      jump\t// out\n        /* \"#utility.yul\":4992:5146   */\n    tag_67:\n        /* \"#utility.yul\":5076:5082   */\n      dup3\n        /* \"#utility.yul\":5071:5074   */\n      dup2\n        /* \"#utility.yul\":5066:5069   */\n      dup4\n        /* \"#utility.yul\":5053:5083   */\n      calldatacopy\n        /* \"#utility.yul\":5138:5139   */\n      0x00\n        /* \"#utility.yul\":5129:5135   */\n      dup4\n        /* \"#utility.yul\":5124:5127   */\n      dup4\n        /* \"#utility.yul\":5120:5136   */\n      add\n        /* \"#utility.yul\":5113:5140   */\n      mstore\n        /* \"#utility.yul\":4992:5146   */\n      pop\n      pop\n      pop\n      jump\t// out\n        /* \"#utility.yul\":5152:5459   */\n    tag_106:\n        /* \"#utility.yul\":5220:5221   */\n      0x00\n        /* \"#utility.yul\":5230:5343   */\n    tag_144:\n        /* \"#utility.yul\":5244:5250   */\n      dup4\n        /* \"#utility.yul\":5241:5242   */\n      dup2\n        /* \"#utility.yul\":5238:5251   */\n      lt\n        /* \"#utility.yul\":5230:5343   */\n      iszero\n      tag_146\n      jumpi\n        /* \"#utility.yul\":5329:5330   */\n      dup1\n        /* \"#utility.yul\":5324:5327   */\n      dup3\n        /* \"#utility.yul\":5320:5331   */\n      add\n        /* \"#utility.yul\":5314:5332   */\n      mload\n        /* \"#utility.yul\":5310:5311   */\n      dup2\n        /* \"#utility.yul\":5305:5308   */\n      dup5\n        /* \"#utility.yul\":5301:5312   */\n      add\n        /* \"#utility.yul\":5294:5333   */\n      mstore\n        /* \"#utility.yul\":5266:5268   */\n      0x20\n        /* \"#utility.yul\":5263:5264   */\n      dup2\n        /* \"#utility.yul\":5259:5269   */\n      add\n        /* \"#utility.yul\":5254:5269   */\n      swap1\n      pop\n        /* \"#utility.yul\":5230:5343   */\n      jump(tag_144)\n    tag_146:\n        /* \"#utility.yul\":5361:5367   */\n      dup4\n        /* \"#utility.yul\":5358:5359   */\n      dup2\n        /* \"#utility.yul\":5355:5368   */\n      gt\n        /* \"#utility.yul\":5352:5453   */\n      iszero\n      tag_147\n      jumpi\n        /* \"#utility.yul\":5441:5442   */\n      0x00\n        /* \"#utility.yul\":5432:5438   */\n      dup5\n        /* \"#utility.yul\":5427:5430   */\n      dup5\n        /* \"#utility.yul\":5423:5439   */\n      add\n        /* \"#utility.yul\":5416:5443   */\n      mstore\n        /* \"#utility.yul\":5352:5453   */\n    tag_147:\n        /* \"#utility.yul\":5201:5459   */\n      pop\n        /* \"#utility.yul\":5152:5459   */\n      pop\n      pop\n      pop\n      jump\t// out\n        /* \"#utility.yul\":5465:5785   */\n    tag_39:\n        /* \"#utility.yul\":5509:5515   */\n      0x00\n        /* \"#utility.yul\":5546:5547   */\n      0x02\n        /* \"#utility.yul\":5540:5544   */\n      dup3\n        /* \"#utility.yul\":5536:5548   */\n      div\n        /* \"#utility.yul\":5526:5548   */\n      swap1\n      pop\n        /* \"#utility.yul\":5593:5594   */\n      0x01\n        /* \"#utility.yul\":5587:5591   */\n      dup3\n        /* \"#utility.yul\":5583:5595   */\n      and\n        /* \"#utility.yul\":5614:5632   */\n      dup1\n        /* \"#utility.yul\":5604:5685   */\n      tag_149\n      jumpi\n        /* \"#utility.yul\":5670:5674   */\n      0x7f\n        /* \"#utility.yul\":5662:5668   */\n      dup3\n        /* \"#utility.yul\":5658:5675   */\n      and\n        /* \"#utility.yul\":5648:5675   */\n      swap2\n      pop\n        /* \"#utility.yul\":5604:5685   */\n    tag_149:\n        /* \"#utility.yul\":5732:5734   */\n      0x20\n        /* \"#utility.yul\":5724:5730   */\n      dup3\n        /* \"#utility.yul\":5721:5735   */\n      lt\n        /* \"#utility.yul\":5701:5719   */\n      dup2\n        /* \"#utility.yul\":5698:5736   */\n      eq\n        /* \"#utility.yul\":5695:5779   */\n      iszero\n      tag_150\n      jumpi\n        /* \"#utility.yul\":5751:5769   */\n      tag_151\n      tag_152\n      jump\t// in\n    tag_151:\n        /* \"#utility.yul\":5695:5779   */\n    tag_150:\n        /* \"#utility.yul\":5516:5785   */\n      pop\n        /* \"#utility.yul\":5465:5785   */\n      swap2\n      swap1\n      pop\n      jump\t// out\n        /* \"#utility.yul\":5791:6072   */\n    tag_124:\n        /* \"#utility.yul\":5874:5901   */\n      tag_154\n        /* \"#utility.yul\":5896:5900   */\n      dup3\n        /* \"#utility.yul\":5874:5901   */\n      tag_108\n      jump\t// in\n    tag_154:\n        /* \"#utility.yul\":5866:5872   */\n      dup2\n        /* \"#utility.yul\":5862:5902   */\n      add\n        /* \"#utility.yul\":6004:6010   */\n      dup2\n        /* \"#utility.yul\":5992:6002   */\n      dup2\n        /* \"#utility.yul\":5989:6011   */\n      lt\n        /* \"#utility.yul\":5968:5986   */\n      0xffffffffffffffff\n        /* \"#utility.yul\":5956:5966   */\n      dup3\n        /* \"#utility.yul\":5953:5987   */\n      gt\n        /* \"#utility.yul\":5950:6012   */\n      or\n        /* \"#utility.yul\":5947:6035   */\n      iszero\n      tag_155\n      jumpi\n        /* \"#utility.yul\":6015:6033   */\n      tag_156\n      tag_129\n      jump\t// in\n    tag_156:\n        /* \"#utility.yul\":5947:6035   */\n    tag_155:\n        /* \"#utility.yul\":6055:6065   */\n      dup1\n        /* \"#utility.yul\":6051:6053   */\n      0x40\n        /* \"#utility.yul\":6044:6066   */\n      mstore\n        /* \"#utility.yul\":5834:6072   */\n      pop\n        /* \"#utility.yul\":5791:6072   */\n      pop\n      pop\n      jump\t// out\n        /* \"#utility.yul\":6078:6311   */\n    tag_37:\n        /* \"#utility.yul\":6117:6120   */\n      0x00\n        /* \"#utility.yul\":6140:6164   */\n      tag_158\n        /* \"#utility.yul\":6158:6163   */\n      dup3\n        /* \"#utility.yul\":6140:6164   */\n      tag_112\n      jump\t// in\n    tag_158:\n        /* \"#utility.yul\":6131:6164   */\n      swap2\n      pop\n        /* \"#utility.yul\":6186:6252   */\n      0xffffffffffffffffffffffffffffffffffffffffffffffffffffffffffffffff\n        /* \"#utility.yul\":6179:6184   */\n      dup3\n        /* \"#utility.yul\":6176:6253   */\n      eq\n        /* \"#utility.yul\":6173:6276   */\n      iszero\n      tag_159\n      jumpi\n        /* \"#utility.yul\":6256:6274   */\n      tag_160\n      tag_161\n      jump\t// in\n    tag_160:\n        /* \"#utility.yul\":6173:6276   */\n    tag_159:\n        /* \"#utility.yul\":6303:6304   */\n      0x01\n        /* \"#utility.yul\":6296:6301   */\n      dup3\n        /* \"#utility.yul\":6292:6305   */\n      add\n        /* \"#utility.yul\":6285:6305   */\n      swap1\n      pop\n        /* \"#utility.yul\":6078:6311   */\n      swap2\n      swap1\n      pop\n      jump\t// out\n        /* \"#utility.yul\":6317:6497   */\n    tag_161:\n        /* \"#utility.yul\":6365:6442   */\n      0x4e487b7100000000000000000000000000000000000000000000000000000000\n        /* \"#utility.yul\":6362:6363   */\n      0x00\n        /* \"#utility.yul\":6355:6443   */\n      mstore\n        /* \"#utility.yul\":6462:6466   */\n      0x11\n        /* \"#utility.yul\":6459:6460   */\n      0x04\n        /* \"#utility.yul\":6452:6467   */\n      mstore\n        /* \"#utility.yul\":6486:6490   */\n      0x24\n        /* \"#utility.yul\":6483:6484   */\n      0x00\n        /* \"#utility.yul\":6476:6491   */\n      revert\n        /* \"#utility.yul\":6503:6683   */\n    tag_27:\n        /* \"#utility.yul\":6551:6628   */\n      0x4e487b7100000000000000000000000000000000000000000000000000000000\n        /* \"#utility.yul\":6548:6549   */\n      0x00\n        /* \"#utility.yul\":6541:6629   */\n      mstore\n        /* \"#utility.yul\":6648:6652   */\n      0x21\n        /* \"#utility.yul\":6645:6646   */\n      0x04\n        /* \"#utility.yul\":6638:6653   */\n      mstore\n        /* \"#utility.yul\":6672:6676   */\n      0x24\n        /* \"#utility.yul\":6669:6670   */\n      0x00\n        /* \"#utility.yul\":6662:6677   */\n      revert\n        /* \"#utility.yul\":6689:6869   */\n    tag_152:\n        /* \"#utility.yul\":6737:6814   */\n      0x4e487b7100000000000000000000000000000000000000000000000000000000\n        /* \"#utility.yul\":6734:6735   */\n      0x00\n        /* \"#utility.yul\":6727:6815   */\n      mstore\n        /* \"#utility.yul\":6834:6838   */\n      0x22\n        /* \"#utility.yul\":6831:6832   */\n      0x04\n        /* \"#utility.yul\":6824:6839   */\n      mstore\n        /* \"#utility.yul\":6858:6862   */\n      0x24\n        /* \"#utility.yul\":6855:6856   */\n      0x00\n        /* \"#utility.yul\":6848:6863   */\n      revert\n        /* \"#utility.yul\":6875:7055   */\n    tag_129:\n        /* \"#utility.yul\":6923:7000   */\n      0x4e487b7100000000000000000000000000000000000000000000000000000000\n        /* \"#utility.yul\":6920:6921   */\n      0x00\n        /* \"#utility.yul\":6913:7001   */\n      mstore\n        /* \"#utility.yul\":7020:7024   */\n      0x41\n        /* \"#utility.yul\":7017:7018   */\n      0x04\n        /* \"#utility.yul\":7010:7025   */\n      mstore\n        /* \"#utility.yul\":7044:7048   */\n      0x24\n        /* \"#utility.yul\":7041:7042   */\n      0x00\n        /* \"#utility.yul\":7034:7049   */\n      revert\n        /* \"#utility.yul\":7061:7178   */\n    tag_72:\n        /* \"#utility.yul\":7170:7171   */\n      0x00\n        /* \"#utility.yul\":7167:7168   */\n      dup1\n        /* \"#utility.yul\":7160:7172   */\n      revert\n        /* \"#utility.yul\":7184:7301   */\n    tag_65:\n        /* \"#utility.yul\":7293:7294   */\n      0x00\n        /* \"#utility.yul\":7290:7291   */\n      dup1\n        /* \"#utility.yul\":7283:7295   */\n      revert\n        /* \"#utility.yul\":7307:7424   */\n    tag_84:\n        /* \"#utility.yul\":7416:7417   */\n      0x00\n        /* \"#utility.yul\":7413:7414   */\n      dup1\n        /* \"#utility.yul\":7406:7418   */\n      revert\n        /* \"#utility.yul\":7430:7547   */\n    tag_81:\n        /* \"#utility.yul\":7539:7540   */\n      0x00\n        /* \"#utility.yul\":7536:7537   */\n      dup1\n        /* \"#utility.yul\":7529:7541   */\n      revert\n        /* \"#utility.yul\":7553:7655   */\n    tag_108:\n        /* \"#utility.yul\":7594:7600   */\n      0x00\n        /* \"#utility.yul\":7645:7647   */\n      0x1f\n        /* \"#utility.yul\":7641:7648   */\n      not\n        /* \"#utility.yul\":7636:7638   */\n      0x1f\n        /* \"#utility.yul\":7629:7634   */\n      dup4\n        /* \"#utility.yul\":7625:7639   */\n      add\n        /* \"#utility.yul\":7621:7649   */\n      and\n        /* \"#utility.yul\":7611:7649   */\n      swap1\n      pop\n        /* \"#utility.yul\":7553:7655   */\n      swap2\n      swap1\n      pop\n      jump\t// out\n        /* \"#utility.yul\":7661:7784   */\n    tag_136:\n        /* \"#utility.yul\":7752:7753   */\n      0x03\n        /* \"#utility.yul\":7745:7750   */\n      dup2\n        /* \"#utility.yul\":7742:7754   */\n      lt\n        /* \"#utility.yul\":7732:7778   */\n      tag_172\n      jumpi\n        /* \"#utility.yul\":7758:7776   */\n      tag_173\n      tag_27\n      jump\t// in\n    tag_173:\n        /* \"#utility.yul\":7732:7778   */\n    tag_172:\n        /* \"#utility.yul\":7661:7784   */\n      pop\n      jump\t// out\n        /* \"#utility.yul\":7790:7912   */\n    tag_77:\n        /* \"#utility.yul\":7863:7887   */\n      tag_175\n        /* \"#utility.yul\":7881:7886   */\n      dup2\n        /* \"#utility.yul\":7863:7887   */\n      tag_112\n      jump\t// in\n    tag_175:\n        /* \"#utility.yul\":7856:7861   */\n      dup2\n        /* \"#utility.yul\":7853:7888   */\n      eq\n        /* \"#utility.yul\":7843:7906   */\n      tag_176\n      jumpi\n        /* \"#utility.yul\":7902:7903   */\n      0x00\n        /* \"#utility.yul\":7899:7900   */\n      dup1\n        /* \"#utility.yul\":7892:7904   */\n      revert\n        /* \"#utility.yul\":7843:7906   */\n    tag_176:\n        /* \"#utility.yul\":7790:7912   */\n      pop\n      jump\t// out\n\n    auxdata: 0xa2646970667358221220505181fafad5d17e43be71ff1aa02a41e37c59d1ccd5def12cd7673ad472b8f164736f6c63430008070033\n}\n",
				"bytecode": {
					"linkReferences": {},
					"object": "608060405234801561001057600080fd5b50610849806100206000396000f3fe6080604052600436106100345760003560e01c8063800fb83f146100395780638c55174214610055578063bfb231d21461007e575b600080fd5b610053600480360381019061004e919061046c565b6100bd565b005b34801561006157600080fd5b5061007c60048036038101906100779190610410565b6100e2565b005b34801561008a57600080fd5b506100a560048036038101906100a0919061046c565b6101f6565b6040516100b4939291906104ff565b60405180910390f35b600080828152602001908152602001600020600201543410156100df57600080fd5b50565b6100ea6102b5565b8281602001819052508181604001818152505060008160000190600281111561011657610115610736565b5b9081600281111561012a57610129610736565b5b8152505080600080600154815260200190815260200160002060008201518160000160006101000a81548160ff0219169083600281111561016e5761016d610736565b5b0217905550602082015181600101908051906020019061018f9291906102e8565b50604082015181600201559050507f8c198761ba3d324d155cbaf96f0ac38a531c085089e49106d95352535a1110c260015460006040516101d192919061053d565b60405180910390a1600160008154809291906101ec906106be565b9190505550505050565b60006020528060005260406000206000915090508060000160009054906101000a900460ff169080600101805461022c9061065b565b80601f01602080910402602001604051908101604052809291908181526020018280546102589061065b565b80156102a55780601f1061027a576101008083540402835291602001916102a5565b820191906000526020600020905b81548152906001019060200180831161028857829003601f168201915b5050505050908060020154905083565b6040518060600160405280600060028111156102d4576102d3610736565b5b815260200160608152602001600081525090565b8280546102f49061065b565b90600052602060002090601f016020900481019282610316576000855561035d565b82601f1061032f57805160ff191683800117855561035d565b8280016001018555821561035d579182015b8281111561035c578251825591602001919060010190610341565b5b50905061036a919061036e565b5090565b5b8082111561038757600081600090555060010161036f565b5090565b600061039e6103998461058b565b610566565b9050828152602081018484840111156103ba576103b96107c8565b5b6103c5848285610619565b509392505050565b600082601f8301126103e2576103e16107c3565b5b81356103f284826020860161038b565b91505092915050565b60008135905061040a816107fc565b92915050565b60008060408385031215610427576104266107d2565b5b600083013567ffffffffffffffff811115610445576104446107cd565b5b610451858286016103cd565b9250506020610462858286016103fb565b9150509250929050565b600060208284031215610482576104816107d2565b5b6000610490848285016103fb565b91505092915050565b6104a2816105f5565b82525050565b6104b181610607565b82525050565b60006104c2826105bc565b6104cc81856105c7565b93506104dc818560208601610628565b6104e5816107d7565b840191505092915050565b6104f9816105eb565b82525050565b60006060820190506105146000830186610499565b818103602083015261052681856104b7565b905061053560408301846104f0565b949350505050565b600060408201905061055260008301856104f0565b61055f60208301846104a8565b9392505050565b6000610570610581565b905061057c828261068d565b919050565b6000604051905090565b600067ffffffffffffffff8211156105a6576105a5610794565b5b6105af826107d7565b9050602081019050919050565b600081519050919050565b600082825260208201905092915050565b60008190506105e6826107e8565b919050565b6000819050919050565b6000610600826105d8565b9050919050565b6000610612826105eb565b9050919050565b82818337600083830152505050565b60005b8381101561064657808201518184015260208101905061062b565b83811115610655576000848401525b50505050565b6000600282049050600182168061067357607f821691505b6020821081141561068757610686610765565b5b50919050565b610696826107d7565b810181811067ffffffffffffffff821117156106b5576106b4610794565b5b80604052505050565b60006106c9826105eb565b91507fffffffffffffffffffffffffffffffffffffffffffffffffffffffffffffffff8214156106fc576106fb610707565b5b600182019050919050565b7f4e487b7100000000000000000000000000000000000000000000000000000000600052601160045260246000fd5b7f4e487b7100000000000000000000000000000000000000000000000000000000600052602160045260246000fd5b7f4e487b7100000000000000000000000000000000000000000000000000000000600052602260045260246000fd5b7f4e487b7100000000000000000000000000000000000000000000000000000000600052604160045260246000fd5b600080fd5b600080fd5b600080fd5b600080fd5b6000601f19601f8301169050919050565b600381106107f9576107f8610736565b5b50565b610805816105eb565b811461081057600080fd5b5056fea2646970667358221220505181fafad5d17e43be71ff1aa02a41e37c59d1ccd5def12cd7673ad472b8f164736f6c63430008070033",
					"opcodes": "PUSH1 0x80 PUSH1 0x40 MSTORE CALLVALUE DUP1 ISZERO PUSH2 0x10 JUMPI PUSH1 0x0 DUP1 REVERT JUMPDEST POP PUSH2 0x849 DUP1 PUSH2 0x20 PUSH1 0x0 CODECOPY PUSH1 0x0 RETURN INVALID PUSH1 0x80 PUSH1 0x40 MSTORE PUSH1 0x4 CALLDATASIZE LT PUSH2 0x34 JUMPI PUSH1 0x0 CALLDATALOAD PUSH1 0xE0 SHR DUP1 PUSH4 0x800FB83F EQ PUSH2 0x39 JUMPI DUP1 PUSH4 0x8C551742 EQ PUSH2 0x55 JUMPI DUP1 PUSH4 0xBFB231D2 EQ PUSH2 0x7E JUMPI JUMPDEST PUSH1 0x0 DUP1 REVERT JUMPDEST PUSH2 0x53 PUSH1 0x4 DUP1 CALLDATASIZE SUB DUP2 ADD SWAP1 PUSH2 0x4E SWAP2 SWAP1 PUSH2 0x46C JUMP JUMPDEST PUSH2 0xBD JUMP JUMPDEST STOP JUMPDEST CALLVALUE DUP1 ISZERO PUSH2 0x61 JUMPI PUSH1 0x0 DUP1 REVERT JUMPDEST POP PUSH2 0x7C PUSH1 0x4 DUP1 CALLDATASIZE SUB DUP2 ADD SWAP1 PUSH2 0x77 SWAP2 SWAP1 PUSH2 0x410 JUMP JUMPDEST PUSH2 0xE2 JUMP JUMPDEST STOP JUMPDEST CALLVALUE DUP1 ISZERO PUSH2 0x8A JUMPI PUSH1 0x0 DUP1 REVERT JUMPDEST POP PUSH2 0xA5 PUSH1 0x4 DUP1 CALLDATASIZE SUB DUP2 ADD SWAP1 PUSH2 0xA0 SWAP2 SWAP1 PUSH2 0x46C JUMP JUMPDEST PUSH2 0x1F6 JUMP JUMPDEST PUSH1 0x40 MLOAD PUSH2 0xB4 SWAP4 SWAP3 SWAP2 SWAP1 PUSH2 0x4FF JUMP JUMPDEST PUSH1 0x40 MLOAD DUP1 SWAP2 SUB SWAP1 RETURN JUMPDEST PUSH1 0x0 DUP1 DUP3 DUP2 MSTORE PUSH1 0x20 ADD SWAP1 DUP2 MSTORE PUSH1 0x20 ADD PUSH1 0x0 KECCAK256 PUSH1 0x2 ADD SLOAD CALLVALUE LT ISZERO PUSH2 0xDF JUMPI PUSH1 0x0 DUP1 REVERT JUMPDEST POP JUMP JUMPDEST PUSH2 0xEA PUSH2 0x2B5 JUMP JUMPDEST DUP3 DUP2 PUSH1 0x20 ADD DUP2 SWAP1 MSTORE POP DUP2 DUP2 PUSH1 0x40 ADD DUP2 DUP2 MSTORE POP POP PUSH1 0x0 DUP2 PUSH1 0x0 ADD SWAP1 PUSH1 0x2 DUP2 GT ISZERO PUSH2 0x116 JUMPI PUSH2 0x115 PUSH2 0x736 JUMP JUMPDEST JUMPDEST SWAP1 DUP2 PUSH1 0x2 DUP2 GT ISZERO PUSH2 0x12A JUMPI PUSH2 0x129 PUSH2 0x736 JUMP JUMPDEST JUMPDEST DUP2 MSTORE POP POP DUP1 PUSH1 0x0 DUP1 PUSH1 0x1 SLOAD DUP2 MSTORE PUSH1 0x20 ADD SWAP1 DUP2 MSTORE PUSH1 0x20 ADD PUSH1 0x0 KECCAK256 PUSH1 0x0 DUP3 ADD MLOAD DUP2 PUSH1 0x0 ADD PUSH1 0x0 PUSH2 0x100 EXP DUP2 SLOAD DUP2 PUSH1 0xFF MUL NOT AND SWAP1 DUP4 PUSH1 0x2 DUP2 GT ISZERO PUSH2 0x16E JUMPI PUSH2 0x16D PUSH2 0x736 JUMP JUMPDEST JUMPDEST MUL OR SWAP1 SSTORE POP PUSH1 0x20 DUP3 ADD MLOAD DUP2 PUSH1 0x1 ADD SWAP1 DUP1 MLOAD SWAP1 PUSH1 0x20 ADD SWAP1 PUSH2 0x18F SWAP3 SWAP2 SWAP1 PUSH2 0x2E8 JUMP JUMPDEST POP PUSH1 0x40 DUP3 ADD MLOAD DUP2 PUSH1 0x2 ADD SSTORE SWAP1 POP POP PUSH32 0x8C198761BA3D324D155CBAF96F0AC38A531C085089E49106D95352535A1110C2 PUSH1 0x1 SLOAD PUSH1 0x0 PUSH1 0x40 MLOAD PUSH2 0x1D1 SWAP3 SWAP2 SWAP1 PUSH2 0x53D JUMP JUMPDEST PUSH1 0x40 MLOAD DUP1 SWAP2 SUB SWAP1 LOG1 PUSH1 0x1 PUSH1 0x0 DUP2 SLOAD DUP1 SWAP3 SWAP2 SWAP1 PUSH2 0x1EC SWAP1 PUSH2 0x6BE JUMP JUMPDEST SWAP2 SWAP1 POP SSTORE POP POP POP POP JUMP JUMPDEST PUSH1 0x0 PUSH1 0x20 MSTORE DUP1 PUSH1 0x0 MSTORE PUSH1 0x40 PUSH1 0x0 KECCAK256 PUSH1 0x0 SWAP2 POP SWAP1 POP DUP1 PUSH1 0x0 ADD PUSH1 0x0 SWAP1 SLOAD SWAP1 PUSH2 0x100 EXP SWAP1 DIV PUSH1 0xFF AND SWAP1 DUP1 PUSH1 0x1 ADD DUP1 SLOAD PUSH2 0x22C SWAP1 PUSH2 0x65B JUMP JUMPDEST DUP1 PUSH1 0x1F ADD PUSH1 0x20 DUP1 SWAP2 DIV MUL PUSH1 0x20 ADD PUSH1 0x40 MLOAD SWAP1 DUP2 ADD PUSH1 0x40 MSTORE DUP1 SWAP3 SWAP2 SWAP1 DUP2 DUP2 MSTORE PUSH1 0x20 ADD DUP3 DUP1 SLOAD PUSH2 0x258 SWAP1 PUSH2 0x65B JUMP JUMPDEST DUP1 ISZERO PUSH2 0x2A5 JUMPI DUP1 PUSH1 0x1F LT PUSH2 0x27A JUMPI PUSH2 0x100 DUP1 DUP4 SLOAD DIV MUL DUP4 MSTORE SWAP2 PUSH1 0x20 ADD SWAP2 PUSH2 0x2A5 JUMP JUMPDEST DUP3 ADD SWAP2 SWAP1 PUSH1 0x0 MSTORE PUSH1 0x20 PUSH1 0x0 KECCAK256 SWAP1 JUMPDEST DUP2 SLOAD DUP2 MSTORE SWAP1 PUSH1 0x1 ADD SWAP1 PUSH1 0x20 ADD DUP1 DUP4 GT PUSH2 0x288 JUMPI DUP3 SWAP1 SUB PUSH1 0x1F AND DUP3 ADD SWAP2 JUMPDEST POP POP POP POP POP SWAP1 DUP1 PUSH1 0x2 ADD SLOAD SWAP1 POP DUP4 JUMP JUMPDEST PUSH1 0x40 MLOAD DUP1 PUSH1 0x60 ADD PUSH1 0x40 MSTORE DUP1 PUSH1 0x0 PUSH1 0x2 DUP2 GT ISZERO PUSH2 0x2D4 JUMPI PUSH2 0x2D3 PUSH2 0x736 JUMP JUMPDEST JUMPDEST DUP2 MSTORE PUSH1 0x20 ADD PUSH1 0x60 DUP2 MSTORE PUSH1 0x20 ADD PUSH1 0x0 DUP2 MSTORE POP SWAP1 JUMP JUMPDEST DUP3 DUP1 SLOAD PUSH2 0x2F4 SWAP1 PUSH2 0x65B JUMP JUMPDEST SWAP1 PUSH1 0x0 MSTORE PUSH1 0x20 PUSH1 0x0 KECCAK256 SWAP1 PUSH1 0x1F ADD PUSH1 0x20 SWAP1 DIV DUP2 ADD SWAP3 DUP3 PUSH2 0x316 JUMPI PUSH1 0x0 DUP6 SSTORE PUSH2 0x35D JUMP JUMPDEST DUP3 PUSH1 0x1F LT PUSH2 0x32F JUMPI DUP1 MLOAD PUSH1 0xFF NOT AND DUP4 DUP1 ADD OR DUP6 SSTORE PUSH2 0x35D JUMP JUMPDEST DUP3 DUP1 ADD PUSH1 0x1 ADD DUP6 SSTORE DUP3 ISZERO PUSH2 0x35D JUMPI SWAP2 DUP3 ADD JUMPDEST DUP3 DUP2 GT ISZERO PUSH2 0x35C JUMPI DUP3 MLOAD DUP3 SSTORE SWAP2 PUSH1 0x20 ADD SWAP2 SWAP1 PUSH1 0x1 ADD SWAP1 PUSH2 0x341 JUMP JUMPDEST JUMPDEST POP SWAP1 POP PUSH2 0x36A SWAP2 SWAP1 PUSH2 0x36E JUMP JUMPDEST POP SWAP1 JUMP JUMPDEST JUMPDEST DUP1 DUP3 GT ISZERO PUSH2 0x387 JUMPI PUSH1 0x0 DUP2 PUSH1 0x0 SWAP1 SSTORE POP PUSH1 0x1 ADD PUSH2 0x36F JUMP JUMPDEST POP SWAP1 JUMP JUMPDEST PUSH1 0x0 PUSH2 0x39E PUSH2 0x399 DUP5 PUSH2 0x58B JUMP JUMPDEST PUSH2 0x566 JUMP JUMPDEST SWAP1 POP DUP3 DUP2 MSTORE PUSH1 0x20 DUP2 ADD DUP5 DUP5 DUP5 ADD GT ISZERO PUSH2 0x3BA JUMPI PUSH2 0x3B9 PUSH2 0x7C8 JUMP JUMPDEST JUMPDEST PUSH2 0x3C5 DUP5 DUP3 DUP6 PUSH2 0x619 JUMP JUMPDEST POP SWAP4 SWAP3 POP POP POP JUMP JUMPDEST PUSH1 0x0 DUP3 PUSH1 0x1F DUP4 ADD SLT PUSH2 0x3E2 JUMPI PUSH2 0x3E1 PUSH2 0x7C3 JUMP JUMPDEST JUMPDEST DUP2 CALLDATALOAD PUSH2 0x3F2 DUP5 DUP3 PUSH1 0x20 DUP7 ADD PUSH2 0x38B JUMP JUMPDEST SWAP2 POP POP SWAP3 SWAP2 POP POP JUMP JUMPDEST PUSH1 0x0 DUP2 CALLDATALOAD SWAP1 POP PUSH2 0x40A DUP2 PUSH2 0x7FC JUMP JUMPDEST SWAP3 SWAP2 POP POP JUMP JUMPDEST PUSH1 0x0 DUP1 PUSH1 0x40 DUP4 DUP6 SUB SLT ISZERO PUSH2 0x427 JUMPI PUSH2 0x426 PUSH2 0x7D2 JUMP JUMPDEST JUMPDEST PUSH1 0x0 DUP4 ADD CALLDATALOAD PUSH8 0xFFFFFFFFFFFFFFFF DUP2 GT ISZERO PUSH2 0x445 JUMPI PUSH2 0x444 PUSH2 0x7CD JUMP JUMPDEST JUMPDEST PUSH2 0x451 DUP6 DUP3 DUP7 ADD PUSH2 0x3CD JUMP JUMPDEST SWAP3 POP POP PUSH1 0x20 PUSH2 0x462 DUP6 DUP3 DUP7 ADD PUSH2 0x3FB JUMP JUMPDEST SWAP2 POP POP SWAP3 POP SWAP3 SWAP1 POP JUMP JUMPDEST PUSH1 0x0 PUSH1 0x20 DUP3 DUP5 SUB SLT ISZERO PUSH2 0x482 JUMPI PUSH2 0x481 PUSH2 0x7D2 JUMP JUMPDEST JUMPDEST PUSH1 0x0 PUSH2 0x490 DUP5 DUP3 DUP6 ADD PUSH2 0x3FB JUMP JUMPDEST SWAP2 POP POP SWAP3 SWAP2 POP POP JUMP JUMPDEST PUSH2 0x4A2 DUP2 PUSH2 0x5F5 JUMP JUMPDEST DUP3 MSTORE POP POP JUMP JUMPDEST PUSH2 0x4B1 DUP2 PUSH2 0x607 JUMP JUMPDEST DUP3 MSTORE POP POP JUMP JUMPDEST PUSH1 0x0 PUSH2 0x4C2 DUP3 PUSH2 0x5BC JUMP JUMPDEST PUSH2 0x4CC DUP2 DUP6 PUSH2 0x5C7 JUMP JUMPDEST SWAP4 POP PUSH2 0x4DC DUP2 DUP6 PUSH1 0x20 DUP7 ADD PUSH2 0x628 JUMP JUMPDEST PUSH2 0x4E5 DUP2 PUSH2 0x7D7 JUMP JUMPDEST DUP5 ADD SWAP2 POP POP SWAP3 SWAP2 POP POP JUMP JUMPDEST PUSH2 0x4F9 DUP2 PUSH2 0x5EB JUMP JUMPDEST DUP3 MSTORE POP POP JUMP JUMPDEST PUSH1 0x0 PUSH1 0x60 DUP3 ADD SWAP1 POP PUSH2 0x514 PUSH1 0x0 DUP4 ADD DUP7 PUSH2 0x499 JUMP JUMPDEST DUP2 DUP2 SUB PUSH1 0x20 DUP4 ADD MSTORE PUSH2 0x526 DUP2 DUP6 PUSH2 0x4B7 JUMP JUMPDEST SWAP1 POP PUSH2 0x535 PUSH1 0x40 DUP4 ADD DUP5 PUSH2 0x4F0 JUMP JUMPDEST SWAP5 SWAP4 POP POP POP POP JUMP JUMPDEST PUSH1 0x0 PUSH1 0x40 DUP3 ADD SWAP1 POP PUSH2 0x552 PUSH1 0x0 DUP4 ADD DUP6 PUSH2 0x4F0 JUMP JUMPDEST PUSH2 0x55F PUSH1 0x20 DUP4 ADD DUP5 PUSH2 0x4A8 JUMP JUMPDEST SWAP4 SWAP3 POP POP POP JUMP JUMPDEST PUSH1 0x0 PUSH2 0x570 PUSH2 0x581 JUMP JUMPDEST SWAP1 POP PUSH2 0x57C DUP3 DUP3 PUSH2 0x68D JUMP JUMPDEST SWAP2 SWAP1 POP JUMP JUMPDEST PUSH1 0x0 PUSH1 0x40 MLOAD SWAP1 POP SWAP1 JUMP JUMPDEST PUSH1 0x0 PUSH8 0xFFFFFFFFFFFFFFFF DUP3 GT ISZERO PUSH2 0x5A6 JUMPI PUSH2 0x5A5 PUSH2 0x794 JUMP JUMPDEST JUMPDEST PUSH2 0x5AF DUP3 PUSH2 0x7D7 JUMP JUMPDEST SWAP1 POP PUSH1 0x20 DUP2 ADD SWAP1 POP SWAP2 SWAP1 POP JUMP JUMPDEST PUSH1 0x0 DUP2 MLOAD SWAP1 POP SWAP2 SWAP1 POP JUMP JUMPDEST PUSH1 0x0 DUP3 DUP3 MSTORE PUSH1 0x20 DUP3 ADD SWAP1 POP SWAP3 SWAP2 POP POP JUMP JUMPDEST PUSH1 0x0 DUP2 SWAP1 POP PUSH2 0x5E6 DUP3 PUSH2 0x7E8 JUMP JUMPDEST SWAP2 SWAP1 POP JUMP JUMPDEST PUSH1 0x0 DUP2 SWAP1 POP SWAP2 SWAP1 POP JUMP JUMPDEST PUSH1 0x0 PUSH2 0x600 DUP3 PUSH2 0x5D8 JUMP JUMPDEST SWAP1 POP SWAP2 SWAP1 POP JUMP JUMPDEST PUSH1 0x0 PUSH2 0x612 DUP3 PUSH2 0x5EB JUMP JUMPDEST SWAP1 POP SWAP2 SWAP1 POP JUMP JUMPDEST DUP3 DUP2 DUP4 CALLDATACOPY PUSH1 0x0 DUP4 DUP4 ADD MSTORE POP POP POP JUMP JUMPDEST PUSH1 0x0 JUMPDEST DUP4 DUP2 LT ISZERO PUSH2 0x646 JUMPI DUP1 DUP3 ADD MLOAD DUP2 DUP5 ADD MSTORE PUSH1 0x20 DUP2 ADD SWAP1 POP PUSH2 0x62B JUMP JUMPDEST DUP4 DUP2 GT ISZERO PUSH2 0x655 JUMPI PUSH1 0x0 DUP5 DUP5 ADD MSTORE JUMPDEST POP POP POP POP JUMP JUMPDEST PUSH1 0x0 PUSH1 0x2 DUP3 DIV SWAP1 POP PUSH1 0x1 DUP3 AND DUP1 PUSH2 0x673 JUMPI PUSH1 0x7F DUP3 AND SWAP2 POP JUMPDEST PUSH1 0x20 DUP3 LT DUP2 EQ ISZERO PUSH2 0x687 JUMPI PUSH2 0x686 PUSH2 0x765 JUMP JUMPDEST JUMPDEST POP SWAP2 SWAP1 POP JUMP JUMPDEST PUSH2 0x696 DUP3 PUSH2 0x7D7 JUMP JUMPDEST DUP2 ADD DUP2 DUP2 LT PUSH8 0xFFFFFFFFFFFFFFFF DUP3 GT OR ISZERO PUSH2 0x6B5 JUMPI PUSH2 0x6B4 PUSH2 0x794 JUMP JUMPDEST JUMPDEST DUP1 PUSH1 0x40 MSTORE POP POP POP JUMP JUMPDEST PUSH1 0x0 PUSH2 0x6C9 DUP3 PUSH2 0x5EB JUMP JUMPDEST SWAP2 POP PUSH32 0xFFFFFFFFFFFFFFFFFFFFFFFFFFFFFFFFFFFFFFFFFFFFFFFFFFFFFFFFFFFFFFFF DUP3 EQ ISZERO PUSH2 0x6FC JUMPI PUSH2 0x6FB PUSH2 0x707 JUMP JUMPDEST JUMPDEST PUSH1 0x1 DUP3 ADD SWAP1 POP SWAP2 SWAP1 POP JUMP JUMPDEST PUSH32 0x4E487B7100000000000000000000000000000000000000000000000000000000 PUSH1 0x0 MSTORE PUSH1 0x11 PUSH1 0x4 MSTORE PUSH1 0x24 PUSH1 0x0 REVERT JUMPDEST PUSH32 0x4E487B7100000000000000000000000000000000000000000000000000000000 PUSH1 0x0 MSTORE PUSH1 0x21 PUSH1 0x4 MSTORE PUSH1 0x24 PUSH1 0x0 REVERT JUMPDEST PUSH32 0x4E487B7100000000000000000000000000000000000000000000000000000000 PUSH1 0x0 MSTORE PUSH1 0x22 PUSH1 0x4 MSTORE PUSH1 0x24 PUSH1 0x0 REVERT JUMPDEST PUSH32 0x4E487B7100000000000000000000000000000000000000000000000000000000 PUSH1 0x0 MSTORE PUSH1 0x41 PUSH1 0x4 MSTORE PUSH1 0x24 PUSH1 0x0 REVERT JUMPDEST PUSH1 0x0 DUP1 REVERT JUMPDEST PUSH1 0x0 DUP1 REVERT JUMPDEST PUSH1 0x0 DUP1 REVERT JUMPDEST PUSH1 0x0 DUP1 REVERT JUMPDEST PUSH1 0x0 PUSH1 0x1F NOT PUSH1 0x1F DUP4 ADD AND SWAP1 POP SWAP2 SWAP1 POP JUMP JUMPDEST PUSH1 0x3 DUP2 LT PUSH2 0x7F9 JUMPI PUSH2 0x7F8 PUSH2 0x736 JUMP JUMPDEST JUMPDEST POP JUMP JUMPDEST PUSH2 0x805 DUP2 PUSH2 0x5EB JUMP JUMPDEST DUP2 EQ PUSH2 0x810 JUMPI PUSH1 0x0 DUP1 REVERT JUMPDEST POP JUMP INVALID LOG2 PUSH5 0x6970667358 0x22 SLT KECCAK256 POP MLOAD DUP2 STATICCALL STATICCALL 0xD5 0xD1 PUSH31 0x43BE71FF1AA02A41E37C59D1CCD5DEF12CD7673AD472B8F164736F6C634300 ADDMOD SMOD STOP CALLER "
				},
				"gasEstimates": {
					"creation": {
						"codeDepositCost": "424200",
						"executionCost": "461",
						"totalCost": "424661"
					},
					"external": {
						"createItem(string,uint256)": "infinite",
						"items(uint256)": "infinite",
						"triggerPayment(uint256)": "2569"
					}
				},
				"methodIdentifiers": {
					"createItem(string,uint256)": "8c551742",
					"items(uint256)": "bfb231d2",
					"triggerPayment(uint256)": "800fb83f"
				}
			},
			"storageLayout": {
				"storage": [
					{
						"astId": 18,
						"contract": "contracts/EventTrigger.sol:ItemManager",
						"label": "items",
						"offset": 0,
						"slot": "0",
						"type": "t_mapping(t_uint256,t_struct(S_Item)13_storage)"
					},
					{
						"astId": 20,
						"contract": "contracts/EventTrigger.sol:ItemManager",
						"label": "index",
						"offset": 0,
						"slot": "1",
						"type": "t_uint256"
					}
				],
				"types": {
					"t_enum(SupplyChainSteps)5": {
						"encoding": "inplace",
						"label": "enum ItemManager.SupplyChainSteps",
						"numberOfBytes": "1"
					},
					"t_mapping(t_uint256,t_struct(S_Item)13_storage)": {
						"encoding": "mapping",
						"key": "t_uint256",
						"label": "mapping(uint256 => struct ItemManager.S_Item)",
						"numberOfBytes": "32",
						"value": "t_struct(S_Item)13_storage"
					},
					"t_string_storage": {
						"encoding": "bytes",
						"label": "string",
						"numberOfBytes": "32"
					},
					"t_struct(S_Item)13_storage": {
						"encoding": "inplace",
						"label": "struct ItemManager.S_Item",
						"members": [
							{
								"astId": 8,
								"contract": "contracts/EventTrigger.sol:ItemManager",
								"label": "_step",
								"offset": 0,
								"slot": "0",
								"type": "t_enum(SupplyChainSteps)5"
							},
							{
								"astId": 10,
								"contract": "contracts/EventTrigger.sol:ItemManager",
								"label": "identifier",
								"offset": 0,
								"slot": "1",
								"type": "t_string_storage"
							},
							{
								"astId": 12,
								"contract": "contracts/EventTrigger.sol:ItemManager",
								"label": "priceInWei",
								"offset": 0,
								"slot": "2",
								"type": "t_uint256"
							}
						],
						"numberOfBytes": "96"
					},
					"t_uint256": {
						"encoding": "inplace",
						"label": "uint256",
						"numberOfBytes": "32"
					}
				}
			},
			"userdoc": {
				"kind": "user",
				"methods": {},
				"version": 1
			}
		}
	}
}