{
	"contracts/DepositWithdraw.sol": {
		"DepositWithdraw": {
			"abi": [
				{
					"inputs": [],
					"name": "deposit",
					"outputs": [],
					"stateMutability": "payable",
					"type": "function"
				},
				{
					"inputs": [
						{
							"internalType": "address",
							"name": "",
							"type": "address"
						}
					],
					"name": "depositAmount",
					"outputs": [
						{
							"internalType": "uint256",
							"name": "",
							"type": "uint256"
						}
					],
					"stateMutability": "view",
					"type": "function"
				},
				{
					"inputs": [],
					"name": "getBalance",
					"outputs": [
						{
							"internalType": "uint256",
							"name": "",
							"type": "uint256"
						}
					],
					"stateMutability": "view",
					"type": "function"
				},
				{
					"inputs": [
						{
							"internalType": "uint256",
							"name": "_amount",
							"type": "uint256"
						}
					],
					"name": "withdrawMoney",
					"outputs": [],
					"stateMutability": "nonpayable",
					"type": "function"
				}
			],
			"devdoc": {
				"kind": "dev",
				"methods": {},
				"version": 1
			},
			"evm": {
				"assembly": "    /* \"contracts/DepositWithdraw.sol\":59:557  contract DepositWithdraw{\r... */\n  mstore(0x40, 0x80)\n  callvalue\n  dup1\n  iszero\n  tag_1\n  jumpi\n  0x00\n  dup1\n  revert\ntag_1:\n  pop\n  dataSize(sub_0)\n  dup1\n  dataOffset(sub_0)\n  0x00\n  codecopy\n  0x00\n  return\nstop\n\nsub_0: assembly {\n        /* \"contracts/DepositWithdraw.sol\":59:557  contract DepositWithdraw{\r... */\n      mstore(0x40, 0x80)\n      jumpi(tag_1, lt(calldatasize, 0x04))\n      shr(0xe0, calldataload(0x00))\n      dup1\n      0x12065fe0\n      eq\n      tag_2\n      jumpi\n      dup1\n      0x50f62da7\n      eq\n      tag_3\n      jumpi\n      dup1\n      0x54876921\n      eq\n      tag_4\n      jumpi\n      dup1\n      0xd0e30db0\n      eq\n      tag_5\n      jumpi\n    tag_1:\n      0x00\n      dup1\n      revert\n        /* \"contracts/DepositWithdraw.sol\":459:554  function getBalance() public view returns (uint){\r... */\n    tag_2:\n      callvalue\n      dup1\n      iszero\n      tag_6\n      jumpi\n      0x00\n      dup1\n      revert\n    tag_6:\n      pop\n      tag_7\n      tag_8\n      jump\t// in\n    tag_7:\n      mload(0x40)\n      tag_9\n      swap2\n      swap1\n      tag_10\n      jump\t// in\n    tag_9:\n      mload(0x40)\n      dup1\n      swap2\n      sub\n      swap1\n      return\n        /* \"contracts/DepositWithdraw.sol\":92:138  mapping (address => uint) public depositAmount */\n    tag_3:\n      callvalue\n      dup1\n      iszero\n      tag_11\n      jumpi\n      0x00\n      dup1\n      revert\n    tag_11:\n      pop\n      tag_12\n      0x04\n      dup1\n      calldatasize\n      sub\n      dup2\n      add\n      swap1\n      tag_13\n      swap2\n      swap1\n      tag_14\n      jump\t// in\n    tag_13:\n      tag_15\n      jump\t// in\n    tag_12:\n      mload(0x40)\n      tag_16\n      swap2\n      swap1\n      tag_10\n      jump\t// in\n    tag_16:\n      mload(0x40)\n      dup1\n      swap2\n      sub\n      swap1\n      return\n        /* \"contracts/DepositWithdraw.sol\":245:451  function withdrawMoney(uint _amount) public{\r... */\n    tag_4:\n      callvalue\n      dup1\n      iszero\n      tag_17\n      jumpi\n      0x00\n      dup1\n      revert\n    tag_17:\n      pop\n      tag_18\n      0x04\n      dup1\n      calldatasize\n      sub\n      dup2\n      add\n      swap1\n      tag_19\n      swap2\n      swap1\n      tag_20\n      jump\t// in\n    tag_19:\n      tag_21\n      jump\t// in\n    tag_18:\n      stop\n        /* \"contracts/DepositWithdraw.sol\":147:237  function deposit() payable public{\r... */\n    tag_5:\n      tag_22\n      tag_23\n      jump\t// in\n    tag_22:\n      stop\n        /* \"contracts/DepositWithdraw.sol\":459:554  function getBalance() public view returns (uint){\r... */\n    tag_8:\n        /* \"contracts/DepositWithdraw.sol\":502:506  uint */\n      0x00\n        /* \"contracts/DepositWithdraw.sol\":525:546  address(this).balance */\n      selfbalance\n        /* \"contracts/DepositWithdraw.sol\":518:546  return address(this).balance */\n      swap1\n      pop\n        /* \"contracts/DepositWithdraw.sol\":459:554  function getBalance() public view returns (uint){\r... */\n      swap1\n      jump\t// out\n        /* \"contracts/DepositWithdraw.sol\":92:138  mapping (address => uint) public depositAmount */\n    tag_15:\n      mstore(0x20, 0x00)\n      dup1\n      0x00\n      mstore\n      keccak256(0x00, 0x40)\n      0x00\n      swap2\n      pop\n      swap1\n      pop\n      sload\n      dup2\n      jump\t// out\n        /* \"contracts/DepositWithdraw.sol\":245:451  function withdrawMoney(uint _amount) public{\r... */\n    tag_21:\n        /* \"contracts/DepositWithdraw.sol\":336:343  _amount */\n      dup1\n        /* \"contracts/DepositWithdraw.sol\":307:320  depositAmount */\n      0x00\n        /* \"contracts/DepositWithdraw.sol\":307:332  depositAmount[msg.sender] */\n      dup1\n        /* \"contracts/DepositWithdraw.sol\":321:331  msg.sender */\n      caller\n        /* \"contracts/DepositWithdraw.sol\":307:332  depositAmount[msg.sender] */\n      0xffffffffffffffffffffffffffffffffffffffff\n      and\n      0xffffffffffffffffffffffffffffffffffffffff\n      and\n      dup2\n      mstore\n      0x20\n      add\n      swap1\n      dup2\n      mstore\n      0x20\n      add\n      0x00\n      keccak256\n      sload\n        /* \"contracts/DepositWithdraw.sol\":307:343  depositAmount[msg.sender] >= _amount */\n      lt\n      iszero\n        /* \"contracts/DepositWithdraw.sol\":299:344  require(depositAmount[msg.sender] >= _amount) */\n      tag_26\n      jumpi\n      0x00\n      dup1\n      revert\n    tag_26:\n        /* \"contracts/DepositWithdraw.sol\":357:367  msg.sender */\n      caller\n        /* \"contracts/DepositWithdraw.sol\":357:372  msg.sender.call */\n      0xffffffffffffffffffffffffffffffffffffffff\n      and\n        /* \"contracts/DepositWithdraw.sol\":380:387  _amount */\n      dup2\n        /* \"contracts/DepositWithdraw.sol\":357:392  msg.sender.call{value: _amount}(\"\") */\n      mload(0x40)\n      tag_27\n      swap1\n      tag_28\n      jump\t// in\n    tag_27:\n      0x00\n      mload(0x40)\n      dup1\n      dup4\n      sub\n      dup2\n      dup6\n      dup8\n      gas\n      call\n      swap3\n      pop\n      pop\n      pop\n      returndatasize\n      dup1\n      0x00\n      dup2\n      eq\n      tag_31\n      jumpi\n      mload(0x40)\n      swap2\n      pop\n      and(add(returndatasize, 0x3f), not(0x1f))\n      dup3\n      add\n      0x40\n      mstore\n      returndatasize\n      dup3\n      mstore\n      returndatasize\n      0x00\n      0x20\n      dup5\n      add\n      returndatacopy\n      jump(tag_30)\n    tag_31:\n      0x60\n      swap2\n      pop\n    tag_30:\n      pop\n      pop\n      pop\n        /* \"contracts/DepositWithdraw.sol\":434:441  _amount */\n      dup1\n        /* \"contracts/DepositWithdraw.sol\":405:418  depositAmount */\n      0x00\n        /* \"contracts/DepositWithdraw.sol\":405:430  depositAmount[msg.sender] */\n      dup1\n        /* \"contracts/DepositWithdraw.sol\":419:429  msg.sender */\n      caller\n        /* \"contracts/DepositWithdraw.sol\":405:430  depositAmount[msg.sender] */\n      0xffffffffffffffffffffffffffffffffffffffff\n      and\n      0xffffffffffffffffffffffffffffffffffffffff\n      and\n      dup2\n      mstore\n      0x20\n      add\n      swap1\n      dup2\n      mstore\n      0x20\n      add\n      0x00\n      keccak256\n      0x00\n        /* \"contracts/DepositWithdraw.sol\":405:441  depositAmount[msg.sender] -= _amount */\n      dup3\n      dup3\n      sload\n      tag_32\n      swap2\n      swap1\n      tag_33\n      jump\t// in\n    tag_32:\n      swap3\n      pop\n      pop\n      dup2\n      swap1\n      sstore\n      pop\n        /* \"contracts/DepositWithdraw.sol\":245:451  function withdrawMoney(uint _amount) public{\r... */\n      pop\n      jump\t// out\n        /* \"contracts/DepositWithdraw.sol\":147:237  function deposit() payable public{\r... */\n    tag_23:\n        /* \"contracts/DepositWithdraw.sol\":220:229  msg.value */\n      callvalue\n        /* \"contracts/DepositWithdraw.sol\":191:204  depositAmount */\n      0x00\n        /* \"contracts/DepositWithdraw.sol\":191:216  depositAmount[msg.sender] */\n      dup1\n        /* \"contracts/DepositWithdraw.sol\":205:215  msg.sender */\n      caller\n        /* \"contracts/DepositWithdraw.sol\":191:216  depositAmount[msg.sender] */\n      0xffffffffffffffffffffffffffffffffffffffff\n      and\n      0xffffffffffffffffffffffffffffffffffffffff\n      and\n      dup2\n      mstore\n      0x20\n      add\n      swap1\n      dup2\n      mstore\n      0x20\n      add\n      0x00\n      keccak256\n      0x00\n        /* \"contracts/DepositWithdraw.sol\":191:229  depositAmount[msg.sender] += msg.value */\n      dup3\n      dup3\n      sload\n      tag_35\n      swap2\n      swap1\n      tag_36\n      jump\t// in\n    tag_35:\n      swap3\n      pop\n      pop\n      dup2\n      swap1\n      sstore\n      pop\n        /* \"contracts/DepositWithdraw.sol\":147:237  function deposit() payable public{\r... */\n      jump\t// out\n        /* \"#utility.yul\":7:146   */\n    tag_38:\n        /* \"#utility.yul\":53:58   */\n      0x00\n        /* \"#utility.yul\":91:97   */\n      dup2\n        /* \"#utility.yul\":78:98   */\n      calldataload\n        /* \"#utility.yul\":69:98   */\n      swap1\n      pop\n        /* \"#utility.yul\":107:140   */\n      tag_40\n        /* \"#utility.yul\":134:139   */\n      dup2\n        /* \"#utility.yul\":107:140   */\n      tag_41\n      jump\t// in\n    tag_40:\n        /* \"#utility.yul\":7:146   */\n      swap3\n      swap2\n      pop\n      pop\n      jump\t// out\n        /* \"#utility.yul\":152:291   */\n    tag_42:\n        /* \"#utility.yul\":198:203   */\n      0x00\n        /* \"#utility.yul\":236:242   */\n      dup2\n        /* \"#utility.yul\":223:243   */\n      calldataload\n        /* \"#utility.yul\":214:243   */\n      swap1\n      pop\n        /* \"#utility.yul\":252:285   */\n      tag_44\n        /* \"#utility.yul\":279:284   */\n      dup2\n        /* \"#utility.yul\":252:285   */\n      tag_45\n      jump\t// in\n    tag_44:\n        /* \"#utility.yul\":152:291   */\n      swap3\n      swap2\n      pop\n      pop\n      jump\t// out\n        /* \"#utility.yul\":297:626   */\n    tag_14:\n        /* \"#utility.yul\":356:362   */\n      0x00\n        /* \"#utility.yul\":405:407   */\n      0x20\n        /* \"#utility.yul\":393:402   */\n      dup3\n        /* \"#utility.yul\":384:391   */\n      dup5\n        /* \"#utility.yul\":380:403   */\n      sub\n        /* \"#utility.yul\":376:408   */\n      slt\n        /* \"#utility.yul\":373:492   */\n      iszero\n      tag_47\n      jumpi\n        /* \"#utility.yul\":411:490   */\n      tag_48\n      tag_49\n      jump\t// in\n    tag_48:\n        /* \"#utility.yul\":373:492   */\n    tag_47:\n        /* \"#utility.yul\":531:532   */\n      0x00\n        /* \"#utility.yul\":556:609   */\n      tag_50\n        /* \"#utility.yul\":601:608   */\n      dup5\n        /* \"#utility.yul\":592:598   */\n      dup3\n        /* \"#utility.yul\":581:590   */\n      dup6\n        /* \"#utility.yul\":577:599   */\n      add\n        /* \"#utility.yul\":556:609   */\n      tag_38\n      jump\t// in\n    tag_50:\n        /* \"#utility.yul\":546:609   */\n      swap2\n      pop\n        /* \"#utility.yul\":502:619   */\n      pop\n        /* \"#utility.yul\":297:626   */\n      swap3\n      swap2\n      pop\n      pop\n      jump\t// out\n        /* \"#utility.yul\":632:961   */\n    tag_20:\n        /* \"#utility.yul\":691:697   */\n      0x00\n        /* \"#utility.yul\":740:742   */\n      0x20\n        /* \"#utility.yul\":728:737   */\n      dup3\n        /* \"#utility.yul\":719:726   */\n      dup5\n        /* \"#utility.yul\":715:738   */\n      sub\n        /* \"#utility.yul\":711:743   */\n      slt\n        /* \"#utility.yul\":708:827   */\n      iszero\n      tag_52\n      jumpi\n        /* \"#utility.yul\":746:825   */\n      tag_53\n      tag_49\n      jump\t// in\n    tag_53:\n        /* \"#utility.yul\":708:827   */\n    tag_52:\n        /* \"#utility.yul\":866:867   */\n      0x00\n        /* \"#utility.yul\":891:944   */\n      tag_54\n        /* \"#utility.yul\":936:943   */\n      dup5\n        /* \"#utility.yul\":927:933   */\n      dup3\n        /* \"#utility.yul\":916:925   */\n      dup6\n        /* \"#utility.yul\":912:934   */\n      add\n        /* \"#utility.yul\":891:944   */\n      tag_42\n      jump\t// in\n    tag_54:\n        /* \"#utility.yul\":881:944   */\n      swap2\n      pop\n        /* \"#utility.yul\":837:954   */\n      pop\n        /* \"#utility.yul\":632:961   */\n      swap3\n      swap2\n      pop\n      pop\n      jump\t// out\n        /* \"#utility.yul\":967:1365   */\n    tag_55:\n        /* \"#utility.yul\":1126:1129   */\n      0x00\n        /* \"#utility.yul\":1147:1230   */\n      tag_57\n        /* \"#utility.yul\":1228:1229   */\n      0x00\n        /* \"#utility.yul\":1223:1226   */\n      dup4\n        /* \"#utility.yul\":1147:1230   */\n      tag_58\n      jump\t// in\n    tag_57:\n        /* \"#utility.yul\":1140:1230   */\n      swap2\n      pop\n        /* \"#utility.yul\":1239:1332   */\n      tag_59\n        /* \"#utility.yul\":1328:1331   */\n      dup3\n        /* \"#utility.yul\":1239:1332   */\n      tag_60\n      jump\t// in\n    tag_59:\n        /* \"#utility.yul\":1357:1358   */\n      0x00\n        /* \"#utility.yul\":1352:1355   */\n      dup3\n        /* \"#utility.yul\":1348:1359   */\n      add\n        /* \"#utility.yul\":1341:1359   */\n      swap1\n      pop\n        /* \"#utility.yul\":967:1365   */\n      swap2\n      swap1\n      pop\n      jump\t// out\n        /* \"#utility.yul\":1371:1489   */\n    tag_61:\n        /* \"#utility.yul\":1458:1482   */\n      tag_63\n        /* \"#utility.yul\":1476:1481   */\n      dup2\n        /* \"#utility.yul\":1458:1482   */\n      tag_64\n      jump\t// in\n    tag_63:\n        /* \"#utility.yul\":1453:1456   */\n      dup3\n        /* \"#utility.yul\":1446:1483   */\n      mstore\n        /* \"#utility.yul\":1371:1489   */\n      pop\n      pop\n      jump\t// out\n        /* \"#utility.yul\":1495:1874   */\n    tag_28:\n        /* \"#utility.yul\":1679:1682   */\n      0x00\n        /* \"#utility.yul\":1701:1848   */\n      tag_66\n        /* \"#utility.yul\":1844:1847   */\n      dup3\n        /* \"#utility.yul\":1701:1848   */\n      tag_55\n      jump\t// in\n    tag_66:\n        /* \"#utility.yul\":1694:1848   */\n      swap2\n      pop\n        /* \"#utility.yul\":1865:1868   */\n      dup2\n        /* \"#utility.yul\":1858:1868   */\n      swap1\n      pop\n        /* \"#utility.yul\":1495:1874   */\n      swap2\n      swap1\n      pop\n      jump\t// out\n        /* \"#utility.yul\":1880:2102   */\n    tag_10:\n        /* \"#utility.yul\":1973:1977   */\n      0x00\n        /* \"#utility.yul\":2011:2013   */\n      0x20\n        /* \"#utility.yul\":2000:2009   */\n      dup3\n        /* \"#utility.yul\":1996:2014   */\n      add\n        /* \"#utility.yul\":1988:2014   */\n      swap1\n      pop\n        /* \"#utility.yul\":2024:2095   */\n      tag_68\n        /* \"#utility.yul\":2092:2093   */\n      0x00\n        /* \"#utility.yul\":2081:2090   */\n      dup4\n        /* \"#utility.yul\":2077:2094   */\n      add\n        /* \"#utility.yul\":2068:2074   */\n      dup5\n        /* \"#utility.yul\":2024:2095   */\n      tag_61\n      jump\t// in\n    tag_68:\n        /* \"#utility.yul\":1880:2102   */\n      swap3\n      swap2\n      pop\n      pop\n      jump\t// out\n        /* \"#utility.yul\":2189:2336   */\n    tag_58:\n        /* \"#utility.yul\":2290:2301   */\n      0x00\n        /* \"#utility.yul\":2327:2330   */\n      dup2\n        /* \"#utility.yul\":2312:2330   */\n      swap1\n      pop\n        /* \"#utility.yul\":2189:2336   */\n      swap3\n      swap2\n      pop\n      pop\n      jump\t// out\n        /* \"#utility.yul\":2342:2647   */\n    tag_36:\n        /* \"#utility.yul\":2382:2385   */\n      0x00\n        /* \"#utility.yul\":2401:2421   */\n      tag_73\n        /* \"#utility.yul\":2419:2420   */\n      dup3\n        /* \"#utility.yul\":2401:2421   */\n      tag_64\n      jump\t// in\n    tag_73:\n        /* \"#utility.yul\":2396:2421   */\n      swap2\n      pop\n        /* \"#utility.yul\":2435:2455   */\n      tag_74\n        /* \"#utility.yul\":2453:2454   */\n      dup4\n        /* \"#utility.yul\":2435:2455   */\n      tag_64\n      jump\t// in\n    tag_74:\n        /* \"#utility.yul\":2430:2455   */\n      swap3\n      pop\n        /* \"#utility.yul\":2589:2590   */\n      dup3\n        /* \"#utility.yul\":2521:2587   */\n      0xffffffffffffffffffffffffffffffffffffffffffffffffffffffffffffffff\n        /* \"#utility.yul\":2517:2591   */\n      sub\n        /* \"#utility.yul\":2514:2515   */\n      dup3\n        /* \"#utility.yul\":2511:2592   */\n      gt\n        /* \"#utility.yul\":2508:2615   */\n      iszero\n      tag_75\n      jumpi\n        /* \"#utility.yul\":2595:2613   */\n      tag_76\n      tag_77\n      jump\t// in\n    tag_76:\n        /* \"#utility.yul\":2508:2615   */\n    tag_75:\n        /* \"#utility.yul\":2639:2640   */\n      dup3\n        /* \"#utility.yul\":2636:2637   */\n      dup3\n        /* \"#utility.yul\":2632:2641   */\n      add\n        /* \"#utility.yul\":2625:2641   */\n      swap1\n      pop\n        /* \"#utility.yul\":2342:2647   */\n      swap3\n      swap2\n      pop\n      pop\n      jump\t// out\n        /* \"#utility.yul\":2653:2844   */\n    tag_33:\n        /* \"#utility.yul\":2693:2697   */\n      0x00\n        /* \"#utility.yul\":2713:2733   */\n      tag_79\n        /* \"#utility.yul\":2731:2732   */\n      dup3\n        /* \"#utility.yul\":2713:2733   */\n      tag_64\n      jump\t// in\n    tag_79:\n        /* \"#utility.yul\":2708:2733   */\n      swap2\n      pop\n        /* \"#utility.yul\":2747:2767   */\n      tag_80\n        /* \"#utility.yul\":2765:2766   */\n      dup4\n        /* \"#utility.yul\":2747:2767   */\n      tag_64\n      jump\t// in\n    tag_80:\n        /* \"#utility.yul\":2742:2767   */\n      swap3\n      pop\n        /* \"#utility.yul\":2786:2787   */\n      dup3\n        /* \"#utility.yul\":2783:2784   */\n      dup3\n        /* \"#utility.yul\":2780:2788   */\n      lt\n        /* \"#utility.yul\":2777:2811   */\n      iszero\n      tag_81\n      jumpi\n        /* \"#utility.yul\":2791:2809   */\n      tag_82\n      tag_77\n      jump\t// in\n    tag_82:\n        /* \"#utility.yul\":2777:2811   */\n    tag_81:\n        /* \"#utility.yul\":2836:2837   */\n      dup3\n        /* \"#utility.yul\":2833:2834   */\n      dup3\n        /* \"#utility.yul\":2829:2838   */\n      sub\n        /* \"#utility.yul\":2821:2838   */\n      swap1\n      pop\n        /* \"#utility.yul\":2653:2844   */\n      swap3\n      swap2\n      pop\n      pop\n      jump\t// out\n        /* \"#utility.yul\":2850:2946   */\n    tag_83:\n        /* \"#utility.yul\":2887:2894   */\n      0x00\n        /* \"#utility.yul\":2916:2940   */\n      tag_85\n        /* \"#utility.yul\":2934:2939   */\n      dup3\n        /* \"#utility.yul\":2916:2940   */\n      tag_86\n      jump\t// in\n    tag_85:\n        /* \"#utility.yul\":2905:2940   */\n      swap1\n      pop\n        /* \"#utility.yul\":2850:2946   */\n      swap2\n      swap1\n      pop\n      jump\t// out\n        /* \"#utility.yul\":2952:3078   */\n    tag_86:\n        /* \"#utility.yul\":2989:2996   */\n      0x00\n        /* \"#utility.yul\":3029:3071   */\n      0xffffffffffffffffffffffffffffffffffffffff\n        /* \"#utility.yul\":3022:3027   */\n      dup3\n        /* \"#utility.yul\":3018:3072   */\n      and\n        /* \"#utility.yul\":3007:3072   */\n      swap1\n      pop\n        /* \"#utility.yul\":2952:3078   */\n      swap2\n      swap1\n      pop\n      jump\t// out\n        /* \"#utility.yul\":3084:3161   */\n    tag_64:\n        /* \"#utility.yul\":3121:3128   */\n      0x00\n        /* \"#utility.yul\":3150:3155   */\n      dup2\n        /* \"#utility.yul\":3139:3155   */\n      swap1\n      pop\n        /* \"#utility.yul\":3084:3161   */\n      swap2\n      swap1\n      pop\n      jump\t// out\n        /* \"#utility.yul\":3167:3347   */\n    tag_77:\n        /* \"#utility.yul\":3215:3292   */\n      0x4e487b7100000000000000000000000000000000000000000000000000000000\n        /* \"#utility.yul\":3212:3213   */\n      0x00\n        /* \"#utility.yul\":3205:3293   */\n      mstore\n        /* \"#utility.yul\":3312:3316   */\n      0x11\n        /* \"#utility.yul\":3309:3310   */\n      0x04\n        /* \"#utility.yul\":3302:3317   */\n      mstore\n        /* \"#utility.yul\":3336:3340   */\n      0x24\n        /* \"#utility.yul\":3333:3334   */\n      0x00\n        /* \"#utility.yul\":3326:3341   */\n      revert\n        /* \"#utility.yul\":3476:3593   */\n    tag_49:\n        /* \"#utility.yul\":3585:3586   */\n      0x00\n        /* \"#utility.yul\":3582:3583   */\n      dup1\n        /* \"#utility.yul\":3575:3587   */\n      revert\n        /* \"#utility.yul\":3599:3713   */\n    tag_60:\n      pop\n      jump\t// out\n        /* \"#utility.yul\":3719:3841   */\n    tag_41:\n        /* \"#utility.yul\":3792:3816   */\n      tag_95\n        /* \"#utility.yul\":3810:3815   */\n      dup2\n        /* \"#utility.yul\":3792:3816   */\n      tag_83\n      jump\t// in\n    tag_95:\n        /* \"#utility.yul\":3785:3790   */\n      dup2\n        /* \"#utility.yul\":3782:3817   */\n      eq\n        /* \"#utility.yul\":3772:3835   */\n      tag_96\n      jumpi\n        /* \"#utility.yul\":3831:3832   */\n      0x00\n        /* \"#utility.yul\":3828:3829   */\n      dup1\n        /* \"#utility.yul\":3821:3833   */\n      revert\n        /* \"#utility.yul\":3772:3835   */\n    tag_96:\n        /* \"#utility.yul\":3719:3841   */\n      pop\n      jump\t// out\n        /* \"#utility.yul\":3847:3969   */\n    tag_45:\n        /* \"#utility.yul\":3920:3944   */\n      tag_98\n        /* \"#utility.yul\":3938:3943   */\n      dup2\n        /* \"#utility.yul\":3920:3944   */\n      tag_64\n      jump\t// in\n    tag_98:\n        /* \"#utility.yul\":3913:3918   */\n      dup2\n        /* \"#utility.yul\":3910:3945   */\n      eq\n        /* \"#utility.yul\":3900:3963   */\n      tag_99\n      jumpi\n        /* \"#utility.yul\":3959:3960   */\n      0x00\n        /* \"#utility.yul\":3956:3957   */\n      dup1\n        /* \"#utility.yul\":3949:3961   */\n      revert\n        /* \"#utility.yul\":3900:3963   */\n    tag_99:\n        /* \"#utility.yul\":3847:3969   */\n      pop\n      jump\t// out\n\n    auxdata: 0xa26469706673582212203436ede41c50e55157346ff86add7e89605b6df85d6eeee9d6a5b39a20f5074b64736f6c63430008070033\n}\n",
				"bytecode": {
					"linkReferences": {},
					"object": "608060405234801561001057600080fd5b506104b4806100206000396000f3fe60806040526004361061003f5760003560e01c806312065fe01461004457806350f62da71461006f57806354876921146100ac578063d0e30db0146100d5575b600080fd5b34801561005057600080fd5b506100596100df565b604051610066919061032d565b60405180910390f35b34801561007b57600080fd5b506100966004803603810190610091919061028c565b6100e7565b6040516100a3919061032d565b60405180910390f35b3480156100b857600080fd5b506100d360048036038101906100ce91906102b9565b6100ff565b005b6100dd61020b565b005b600047905090565b60006020528060005260406000206000915090505481565b806000803373ffffffffffffffffffffffffffffffffffffffff1673ffffffffffffffffffffffffffffffffffffffff16815260200190815260200160002054101561014a57600080fd5b3373ffffffffffffffffffffffffffffffffffffffff168160405161016e90610318565b60006040518083038185875af1925050503d80600081146101ab576040519150601f19603f3d011682016040523d82523d6000602084013e6101b0565b606091505b505050806000803373ffffffffffffffffffffffffffffffffffffffff1673ffffffffffffffffffffffffffffffffffffffff168152602001908152602001600020600082825461020191906103a9565b9250508190555050565b346000803373ffffffffffffffffffffffffffffffffffffffff1673ffffffffffffffffffffffffffffffffffffffff16815260200190815260200160002060008282546102599190610353565b92505081905550565b60008135905061027181610450565b92915050565b60008135905061028681610467565b92915050565b6000602082840312156102a2576102a1610448565b5b60006102b084828501610262565b91505092915050565b6000602082840312156102cf576102ce610448565b5b60006102dd84828501610277565b91505092915050565b60006102f3600083610348565b91506102fe8261044d565b600082019050919050565b6103128161040f565b82525050565b6000610323826102e6565b9150819050919050565b60006020820190506103426000830184610309565b92915050565b600081905092915050565b600061035e8261040f565b91506103698361040f565b9250827fffffffffffffffffffffffffffffffffffffffffffffffffffffffffffffffff0382111561039e5761039d610419565b5b828201905092915050565b60006103b48261040f565b91506103bf8361040f565b9250828210156103d2576103d1610419565b5b828203905092915050565b60006103e8826103ef565b9050919050565b600073ffffffffffffffffffffffffffffffffffffffff82169050919050565b6000819050919050565b7f4e487b7100000000000000000000000000000000000000000000000000000000600052601160045260246000fd5b600080fd5b50565b610459816103dd565b811461046457600080fd5b50565b6104708161040f565b811461047b57600080fd5b5056fea26469706673582212203436ede41c50e55157346ff86add7e89605b6df85d6eeee9d6a5b39a20f5074b64736f6c63430008070033",
					"opcodes": "PUSH1 0x80 PUSH1 0x40 MSTORE CALLVALUE DUP1 ISZERO PUSH2 0x10 JUMPI PUSH1 0x0 DUP1 REVERT JUMPDEST POP PUSH2 0x4B4 DUP1 PUSH2 0x20 PUSH1 0x0 CODECOPY PUSH1 0x0 RETURN INVALID PUSH1 0x80 PUSH1 0x40 MSTORE PUSH1 0x4 CALLDATASIZE LT PUSH2 0x3F JUMPI PUSH1 0x0 CALLDATALOAD PUSH1 0xE0 SHR DUP1 PUSH4 0x12065FE0 EQ PUSH2 0x44 JUMPI DUP1 PUSH4 0x50F62DA7 EQ PUSH2 0x6F JUMPI DUP1 PUSH4 0x54876921 EQ PUSH2 0xAC JUMPI DUP1 PUSH4 0xD0E30DB0 EQ PUSH2 0xD5 JUMPI JUMPDEST PUSH1 0x0 DUP1 REVERT JUMPDEST CALLVALUE DUP1 ISZERO PUSH2 0x50 JUMPI PUSH1 0x0 DUP1 REVERT JUMPDEST POP PUSH2 0x59 PUSH2 0xDF JUMP JUMPDEST PUSH1 0x40 MLOAD PUSH2 0x66 SWAP2 SWAP1 PUSH2 0x32D JUMP JUMPDEST PUSH1 0x40 MLOAD DUP1 SWAP2 SUB SWAP1 RETURN JUMPDEST CALLVALUE DUP1 ISZERO PUSH2 0x7B JUMPI PUSH1 0x0 DUP1 REVERT JUMPDEST POP PUSH2 0x96 PUSH1 0x4 DUP1 CALLDATASIZE SUB DUP2 ADD SWAP1 PUSH2 0x91 SWAP2 SWAP1 PUSH2 0x28C JUMP JUMPDEST PUSH2 0xE7 JUMP JUMPDEST PUSH1 0x40 MLOAD PUSH2 0xA3 SWAP2 SWAP1 PUSH2 0x32D JUMP JUMPDEST PUSH1 0x40 MLOAD DUP1 SWAP2 SUB SWAP1 RETURN JUMPDEST CALLVALUE DUP1 ISZERO PUSH2 0xB8 JUMPI PUSH1 0x0 DUP1 REVERT JUMPDEST POP PUSH2 0xD3 PUSH1 0x4 DUP1 CALLDATASIZE SUB DUP2 ADD SWAP1 PUSH2 0xCE SWAP2 SWAP1 PUSH2 0x2B9 JUMP JUMPDEST PUSH2 0xFF JUMP JUMPDEST STOP JUMPDEST PUSH2 0xDD PUSH2 0x20B JUMP JUMPDEST STOP JUMPDEST PUSH1 0x0 SELFBALANCE SWAP1 POP SWAP1 JUMP JUMPDEST PUSH1 0x0 PUSH1 0x20 MSTORE DUP1 PUSH1 0x0 MSTORE PUSH1 0x40 PUSH1 0x0 KECCAK256 PUSH1 0x0 SWAP2 POP SWAP1 POP SLOAD DUP2 JUMP JUMPDEST DUP1 PUSH1 0x0 DUP1 CALLER PUSH20 0xFFFFFFFFFFFFFFFFFFFFFFFFFFFFFFFFFFFFFFFF AND PUSH20 0xFFFFFFFFFFFFFFFFFFFFFFFFFFFFFFFFFFFFFFFF AND DUP2 MSTORE PUSH1 0x20 ADD SWAP1 DUP2 MSTORE PUSH1 0x20 ADD PUSH1 0x0 KECCAK256 SLOAD LT ISZERO PUSH2 0x14A JUMPI PUSH1 0x0 DUP1 REVERT JUMPDEST CALLER PUSH20 0xFFFFFFFFFFFFFFFFFFFFFFFFFFFFFFFFFFFFFFFF AND DUP2 PUSH1 0x40 MLOAD PUSH2 0x16E SWAP1 PUSH2 0x318 JUMP JUMPDEST PUSH1 0x0 PUSH1 0x40 MLOAD DUP1 DUP4 SUB DUP2 DUP6 DUP8 GAS CALL SWAP3 POP POP POP RETURNDATASIZE DUP1 PUSH1 0x0 DUP2 EQ PUSH2 0x1AB JUMPI PUSH1 0x40 MLOAD SWAP2 POP PUSH1 0x1F NOT PUSH1 0x3F RETURNDATASIZE ADD AND DUP3 ADD PUSH1 0x40 MSTORE RETURNDATASIZE DUP3 MSTORE RETURNDATASIZE PUSH1 0x0 PUSH1 0x20 DUP5 ADD RETURNDATACOPY PUSH2 0x1B0 JUMP JUMPDEST PUSH1 0x60 SWAP2 POP JUMPDEST POP POP POP DUP1 PUSH1 0x0 DUP1 CALLER PUSH20 0xFFFFFFFFFFFFFFFFFFFFFFFFFFFFFFFFFFFFFFFF AND PUSH20 0xFFFFFFFFFFFFFFFFFFFFFFFFFFFFFFFFFFFFFFFF AND DUP2 MSTORE PUSH1 0x20 ADD SWAP1 DUP2 MSTORE PUSH1 0x20 ADD PUSH1 0x0 KECCAK256 PUSH1 0x0 DUP3 DUP3 SLOAD PUSH2 0x201 SWAP2 SWAP1 PUSH2 0x3A9 JUMP JUMPDEST SWAP3 POP POP DUP2 SWAP1 SSTORE POP POP JUMP JUMPDEST CALLVALUE PUSH1 0x0 DUP1 CALLER PUSH20 0xFFFFFFFFFFFFFFFFFFFFFFFFFFFFFFFFFFFFFFFF AND PUSH20 0xFFFFFFFFFFFFFFFFFFFFFFFFFFFFFFFFFFFFFFFF AND DUP2 MSTORE PUSH1 0x20 ADD SWAP1 DUP2 MSTORE PUSH1 0x20 ADD PUSH1 0x0 KECCAK256 PUSH1 0x0 DUP3 DUP3 SLOAD PUSH2 0x259 SWAP2 SWAP1 PUSH2 0x353 JUMP JUMPDEST SWAP3 POP POP DUP2 SWAP1 SSTORE POP JUMP JUMPDEST PUSH1 0x0 DUP2 CALLDATALOAD SWAP1 POP PUSH2 0x271 DUP2 PUSH2 0x450 JUMP JUMPDEST SWAP3 SWAP2 POP POP JUMP JUMPDEST PUSH1 0x0 DUP2 CALLDATALOAD SWAP1 POP PUSH2 0x286 DUP2 PUSH2 0x467 JUMP JUMPDEST SWAP3 SWAP2 POP POP JUMP JUMPDEST PUSH1 0x0 PUSH1 0x20 DUP3 DUP5 SUB SLT ISZERO PUSH2 0x2A2 JUMPI PUSH2 0x2A1 PUSH2 0x448 JUMP JUMPDEST JUMPDEST PUSH1 0x0 PUSH2 0x2B0 DUP5 DUP3 DUP6 ADD PUSH2 0x262 JUMP JUMPDEST SWAP2 POP POP SWAP3 SWAP2 POP POP JUMP JUMPDEST PUSH1 0x0 PUSH1 0x20 DUP3 DUP5 SUB SLT ISZERO PUSH2 0x2CF JUMPI PUSH2 0x2CE PUSH2 0x448 JUMP JUMPDEST JUMPDEST PUSH1 0x0 PUSH2 0x2DD DUP5 DUP3 DUP6 ADD PUSH2 0x277 JUMP JUMPDEST SWAP2 POP POP SWAP3 SWAP2 POP POP JUMP JUMPDEST PUSH1 0x0 PUSH2 0x2F3 PUSH1 0x0 DUP4 PUSH2 0x348 JUMP JUMPDEST SWAP2 POP PUSH2 0x2FE DUP3 PUSH2 0x44D JUMP JUMPDEST PUSH1 0x0 DUP3 ADD SWAP1 POP SWAP2 SWAP1 POP JUMP JUMPDEST PUSH2 0x312 DUP2 PUSH2 0x40F JUMP JUMPDEST DUP3 MSTORE POP POP JUMP JUMPDEST PUSH1 0x0 PUSH2 0x323 DUP3 PUSH2 0x2E6 JUMP JUMPDEST SWAP2 POP DUP2 SWAP1 POP SWAP2 SWAP1 POP JUMP JUMPDEST PUSH1 0x0 PUSH1 0x20 DUP3 ADD SWAP1 POP PUSH2 0x342 PUSH1 0x0 DUP4 ADD DUP5 PUSH2 0x309 JUMP JUMPDEST SWAP3 SWAP2 POP POP JUMP JUMPDEST PUSH1 0x0 DUP2 SWAP1 POP SWAP3 SWAP2 POP POP JUMP JUMPDEST PUSH1 0x0 PUSH2 0x35E DUP3 PUSH2 0x40F JUMP JUMPDEST SWAP2 POP PUSH2 0x369 DUP4 PUSH2 0x40F JUMP JUMPDEST SWAP3 POP DUP3 PUSH32 0xFFFFFFFFFFFFFFFFFFFFFFFFFFFFFFFFFFFFFFFFFFFFFFFFFFFFFFFFFFFFFFFF SUB DUP3 GT ISZERO PUSH2 0x39E JUMPI PUSH2 0x39D PUSH2 0x419 JUMP JUMPDEST JUMPDEST DUP3 DUP3 ADD SWAP1 POP SWAP3 SWAP2 POP POP JUMP JUMPDEST PUSH1 0x0 PUSH2 0x3B4 DUP3 PUSH2 0x40F JUMP JUMPDEST SWAP2 POP PUSH2 0x3BF DUP4 PUSH2 0x40F JUMP JUMPDEST SWAP3 POP DUP3 DUP3 LT ISZERO PUSH2 0x3D2 JUMPI PUSH2 0x3D1 PUSH2 0x419 JUMP JUMPDEST JUMPDEST DUP3 DUP3 SUB SWAP1 POP SWAP3 SWAP2 POP POP JUMP JUMPDEST PUSH1 0x0 PUSH2 0x3E8 DUP3 PUSH2 0x3EF JUMP JUMPDEST SWAP1 POP SWAP2 SWAP1 POP JUMP JUMPDEST PUSH1 0x0 PUSH20 0xFFFFFFFFFFFFFFFFFFFFFFFFFFFFFFFFFFFFFFFF DUP3 AND SWAP1 POP SWAP2 SWAP1 POP JUMP JUMPDEST PUSH1 0x0 DUP2 SWAP1 POP SWAP2 SWAP1 POP JUMP JUMPDEST PUSH32 0x4E487B7100000000000000000000000000000000000000000000000000000000 PUSH1 0x0 MSTORE PUSH1 0x11 PUSH1 0x4 MSTORE PUSH1 0x24 PUSH1 0x0 REVERT JUMPDEST PUSH1 0x0 DUP1 REVERT JUMPDEST POP JUMP JUMPDEST PUSH2 0x459 DUP2 PUSH2 0x3DD JUMP JUMPDEST DUP2 EQ PUSH2 0x464 JUMPI PUSH1 0x0 DUP1 REVERT JUMPDEST POP JUMP JUMPDEST PUSH2 0x470 DUP2 PUSH2 0x40F JUMP JUMPDEST DUP2 EQ PUSH2 0x47B JUMPI PUSH1 0x0 DUP1 REVERT JUMPDEST POP JUMP INVALID LOG2 PUSH5 0x6970667358 0x22 SLT KECCAK256 CALLVALUE CALLDATASIZE 0xED 0xE4 SHR POP 0xE5 MLOAD JUMPI CALLVALUE PUSH16 0xF86ADD7E89605B6DF85D6EEEE9D6A5B3 SWAP11 KECCAK256 CREATE2 SMOD 0x4B PUSH5 0x736F6C6343 STOP ADDMOD SMOD STOP CALLER "
				},
				"gasEstimates": {
					"creation": {
						"codeDepositCost": "240800",
						"executionCost": "281",
						"totalCost": "241081"
					},
					"external": {
						"deposit()": "infinite",
						"depositAmount(address)": "2814",
						"getBalance()": "317",
						"withdrawMoney(uint256)": "infinite"
					}
				},
				"methodIdentifiers": {
					"deposit()": "d0e30db0",
					"depositAmount(address)": "50f62da7",
					"getBalance()": "12065fe0",
					"withdrawMoney(uint256)": "54876921"
				}
			},
			"storageLayout": {
				"storage": [
					{
						"astId": 77,
						"contract": "contracts/DepositWithdraw.sol:DepositWithdraw",
						"label": "depositAmount",
						"offset": 0,
						"slot": "0",
						"type": "t_mapping(t_address,t_uint256)"
					}
				],
				"types": {
					"t_address": {
						"encoding": "inplace",
						"label": "address",
						"numberOfBytes": "20"
					},
					"t_mapping(t_address,t_uint256)": {
						"encoding": "mapping",
						"key": "t_address",
						"label": "mapping(address => uint256)",
						"numberOfBytes": "32",
						"value": "t_uint256"
					},
					"t_uint256": {
						"encoding": "inplace",
						"label": "uint256",
						"numberOfBytes": "32"
					}
				}
			},
			"userdoc": {
				"kind": "user",
				"methods": {},
				"version": 1
			}
		}
	}
}