{
	"contracts/DepositWithdraw.sol": {
		"DepositWithdraw": {
			"abi": [
				{
					"inputs": [],
					"name": "deposit",
					"outputs": [],
					"stateMutability": "payable",
					"type": "function"
				},
				{
					"inputs": [
						{
							"internalType": "address",
							"name": "",
							"type": "address"
						}
					],
					"name": "depositAmount",
					"outputs": [
						{
							"internalType": "uint256",
							"name": "",
							"type": "uint256"
						}
					],
					"stateMutability": "view",
					"type": "function"
				},
				{
					"inputs": [
						{
							"internalType": "uint256",
							"name": "_amount",
							"type": "uint256"
						}
					],
					"name": "withdrawMoney",
					"outputs": [],
					"stateMutability": "nonpayable",
					"type": "function"
				}
			],
			"devdoc": {
				"kind": "dev",
				"methods": {},
				"version": 1
			},
			"evm": {
				"assembly": "    /* \"contracts/DepositWithdraw.sol\":59:456  contract DepositWithdraw{\r... */\n  mstore(0x40, 0x80)\n  callvalue\n  dup1\n  iszero\n  tag_1\n  jumpi\n  0x00\n  dup1\n  revert\ntag_1:\n  pop\n  dataSize(sub_0)\n  dup1\n  dataOffset(sub_0)\n  0x00\n  codecopy\n  0x00\n  return\nstop\n\nsub_0: assembly {\n        /* \"contracts/DepositWithdraw.sol\":59:456  contract DepositWithdraw{\r... */\n      mstore(0x40, 0x80)\n      jumpi(tag_1, lt(calldatasize, 0x04))\n      shr(0xe0, calldataload(0x00))\n      dup1\n      0x50f62da7\n      eq\n      tag_2\n      jumpi\n      dup1\n      0x54876921\n      eq\n      tag_3\n      jumpi\n      dup1\n      0xd0e30db0\n      eq\n      tag_4\n      jumpi\n    tag_1:\n      0x00\n      dup1\n      revert\n        /* \"contracts/DepositWithdraw.sol\":92:138  mapping (address => uint) public depositAmount */\n    tag_2:\n      callvalue\n      dup1\n      iszero\n      tag_5\n      jumpi\n      0x00\n      dup1\n      revert\n    tag_5:\n      pop\n      tag_6\n      0x04\n      dup1\n      calldatasize\n      sub\n      dup2\n      add\n      swap1\n      tag_7\n      swap2\n      swap1\n      tag_8\n      jump\t// in\n    tag_7:\n      tag_9\n      jump\t// in\n    tag_6:\n      mload(0x40)\n      tag_10\n      swap2\n      swap1\n      tag_11\n      jump\t// in\n    tag_10:\n      mload(0x40)\n      dup1\n      swap2\n      sub\n      swap1\n      return\n        /* \"contracts/DepositWithdraw.sol\":245:453  function withdrawMoney(uint _amount) public{\r... */\n    tag_3:\n      callvalue\n      dup1\n      iszero\n      tag_12\n      jumpi\n      0x00\n      dup1\n      revert\n    tag_12:\n      pop\n      tag_13\n      0x04\n      dup1\n      calldatasize\n      sub\n      dup2\n      add\n      swap1\n      tag_14\n      swap2\n      swap1\n      tag_15\n      jump\t// in\n    tag_14:\n      tag_16\n      jump\t// in\n    tag_13:\n      stop\n        /* \"contracts/DepositWithdraw.sol\":147:237  function deposit() payable public{\r... */\n    tag_4:\n      tag_17\n      tag_18\n      jump\t// in\n    tag_17:\n      stop\n        /* \"contracts/DepositWithdraw.sol\":92:138  mapping (address => uint) public depositAmount */\n    tag_9:\n      mstore(0x20, 0x00)\n      dup1\n      0x00\n      mstore\n      keccak256(0x00, 0x40)\n      0x00\n      swap2\n      pop\n      swap1\n      pop\n      sload\n      dup2\n      jump\t// out\n        /* \"contracts/DepositWithdraw.sol\":245:453  function withdrawMoney(uint _amount) public{\r... */\n    tag_16:\n        /* \"contracts/DepositWithdraw.sol\":336:343  _amount */\n      dup1\n        /* \"contracts/DepositWithdraw.sol\":307:320  depositAmount */\n      0x00\n        /* \"contracts/DepositWithdraw.sol\":307:332  depositAmount[msg.sender] */\n      dup1\n        /* \"contracts/DepositWithdraw.sol\":321:331  msg.sender */\n      caller\n        /* \"contracts/DepositWithdraw.sol\":307:332  depositAmount[msg.sender] */\n      0xffffffffffffffffffffffffffffffffffffffff\n      and\n      0xffffffffffffffffffffffffffffffffffffffff\n      and\n      dup2\n      mstore\n      0x20\n      add\n      swap1\n      dup2\n      mstore\n      0x20\n      add\n      0x00\n      keccak256\n      sload\n        /* \"contracts/DepositWithdraw.sol\":307:343  depositAmount[msg.sender] >= _amount */\n      lt\n      iszero\n        /* \"contracts/DepositWithdraw.sol\":299:344  require(depositAmount[msg.sender] >= _amount) */\n      tag_20\n      jumpi\n      0x00\n      dup1\n      revert\n    tag_20:\n        /* \"contracts/DepositWithdraw.sol\":365:375  msg.sender */\n      caller\n        /* \"contracts/DepositWithdraw.sol\":357:385  payable(msg.sender).transfer */\n      0xffffffffffffffffffffffffffffffffffffffff\n      and\n        /* \"contracts/DepositWithdraw.sol\":357:394  payable(msg.sender).transfer(_amount) */\n      0x08fc\n        /* \"contracts/DepositWithdraw.sol\":386:393  _amount */\n      dup3\n        /* \"contracts/DepositWithdraw.sol\":357:394  payable(msg.sender).transfer(_amount) */\n      swap1\n      dup2\n      iszero\n      mul\n      swap1\n      mload(0x40)\n      0x00\n      mload(0x40)\n      dup1\n      dup4\n      sub\n      dup2\n      dup6\n      dup9\n      dup9\n      call\n      swap4\n      pop\n      pop\n      pop\n      pop\n      iszero\n      dup1\n      iszero\n      tag_22\n      jumpi\n      returndatasize\n      0x00\n      dup1\n      returndatacopy\n      revert(0x00, returndatasize)\n    tag_22:\n      pop\n        /* \"contracts/DepositWithdraw.sol\":436:443  _amount */\n      dup1\n        /* \"contracts/DepositWithdraw.sol\":407:420  depositAmount */\n      0x00\n        /* \"contracts/DepositWithdraw.sol\":407:432  depositAmount[msg.sender] */\n      dup1\n        /* \"contracts/DepositWithdraw.sol\":421:431  msg.sender */\n      caller\n        /* \"contracts/DepositWithdraw.sol\":407:432  depositAmount[msg.sender] */\n      0xffffffffffffffffffffffffffffffffffffffff\n      and\n      0xffffffffffffffffffffffffffffffffffffffff\n      and\n      dup2\n      mstore\n      0x20\n      add\n      swap1\n      dup2\n      mstore\n      0x20\n      add\n      0x00\n      keccak256\n      0x00\n        /* \"contracts/DepositWithdraw.sol\":407:443  depositAmount[msg.sender] -= _amount */\n      dup3\n      dup3\n      sload\n      tag_23\n      swap2\n      swap1\n      tag_24\n      jump\t// in\n    tag_23:\n      swap3\n      pop\n      pop\n      dup2\n      swap1\n      sstore\n      pop\n        /* \"contracts/DepositWithdraw.sol\":245:453  function withdrawMoney(uint _amount) public{\r... */\n      pop\n      jump\t// out\n        /* \"contracts/DepositWithdraw.sol\":147:237  function deposit() payable public{\r... */\n    tag_18:\n        /* \"contracts/DepositWithdraw.sol\":220:229  msg.value */\n      callvalue\n        /* \"contracts/DepositWithdraw.sol\":191:204  depositAmount */\n      0x00\n        /* \"contracts/DepositWithdraw.sol\":191:216  depositAmount[msg.sender] */\n      dup1\n        /* \"contracts/DepositWithdraw.sol\":205:215  msg.sender */\n      caller\n        /* \"contracts/DepositWithdraw.sol\":191:216  depositAmount[msg.sender] */\n      0xffffffffffffffffffffffffffffffffffffffff\n      and\n      0xffffffffffffffffffffffffffffffffffffffff\n      and\n      dup2\n      mstore\n      0x20\n      add\n      swap1\n      dup2\n      mstore\n      0x20\n      add\n      0x00\n      keccak256\n      0x00\n        /* \"contracts/DepositWithdraw.sol\":191:229  depositAmount[msg.sender] += msg.value */\n      dup3\n      dup3\n      sload\n      tag_26\n      swap2\n      swap1\n      tag_27\n      jump\t// in\n    tag_26:\n      swap3\n      pop\n      pop\n      dup2\n      swap1\n      sstore\n      pop\n        /* \"contracts/DepositWithdraw.sol\":147:237  function deposit() payable public{\r... */\n      jump\t// out\n        /* \"#utility.yul\":7:146   */\n    tag_29:\n        /* \"#utility.yul\":53:58   */\n      0x00\n        /* \"#utility.yul\":91:97   */\n      dup2\n        /* \"#utility.yul\":78:98   */\n      calldataload\n        /* \"#utility.yul\":69:98   */\n      swap1\n      pop\n        /* \"#utility.yul\":107:140   */\n      tag_31\n        /* \"#utility.yul\":134:139   */\n      dup2\n        /* \"#utility.yul\":107:140   */\n      tag_32\n      jump\t// in\n    tag_31:\n        /* \"#utility.yul\":7:146   */\n      swap3\n      swap2\n      pop\n      pop\n      jump\t// out\n        /* \"#utility.yul\":152:291   */\n    tag_33:\n        /* \"#utility.yul\":198:203   */\n      0x00\n        /* \"#utility.yul\":236:242   */\n      dup2\n        /* \"#utility.yul\":223:243   */\n      calldataload\n        /* \"#utility.yul\":214:243   */\n      swap1\n      pop\n        /* \"#utility.yul\":252:285   */\n      tag_35\n        /* \"#utility.yul\":279:284   */\n      dup2\n        /* \"#utility.yul\":252:285   */\n      tag_36\n      jump\t// in\n    tag_35:\n        /* \"#utility.yul\":152:291   */\n      swap3\n      swap2\n      pop\n      pop\n      jump\t// out\n        /* \"#utility.yul\":297:626   */\n    tag_8:\n        /* \"#utility.yul\":356:362   */\n      0x00\n        /* \"#utility.yul\":405:407   */\n      0x20\n        /* \"#utility.yul\":393:402   */\n      dup3\n        /* \"#utility.yul\":384:391   */\n      dup5\n        /* \"#utility.yul\":380:403   */\n      sub\n        /* \"#utility.yul\":376:408   */\n      slt\n        /* \"#utility.yul\":373:492   */\n      iszero\n      tag_38\n      jumpi\n        /* \"#utility.yul\":411:490   */\n      tag_39\n      tag_40\n      jump\t// in\n    tag_39:\n        /* \"#utility.yul\":373:492   */\n    tag_38:\n        /* \"#utility.yul\":531:532   */\n      0x00\n        /* \"#utility.yul\":556:609   */\n      tag_41\n        /* \"#utility.yul\":601:608   */\n      dup5\n        /* \"#utility.yul\":592:598   */\n      dup3\n        /* \"#utility.yul\":581:590   */\n      dup6\n        /* \"#utility.yul\":577:599   */\n      add\n        /* \"#utility.yul\":556:609   */\n      tag_29\n      jump\t// in\n    tag_41:\n        /* \"#utility.yul\":546:609   */\n      swap2\n      pop\n        /* \"#utility.yul\":502:619   */\n      pop\n        /* \"#utility.yul\":297:626   */\n      swap3\n      swap2\n      pop\n      pop\n      jump\t// out\n        /* \"#utility.yul\":632:961   */\n    tag_15:\n        /* \"#utility.yul\":691:697   */\n      0x00\n        /* \"#utility.yul\":740:742   */\n      0x20\n        /* \"#utility.yul\":728:737   */\n      dup3\n        /* \"#utility.yul\":719:726   */\n      dup5\n        /* \"#utility.yul\":715:738   */\n      sub\n        /* \"#utility.yul\":711:743   */\n      slt\n        /* \"#utility.yul\":708:827   */\n      iszero\n      tag_43\n      jumpi\n        /* \"#utility.yul\":746:825   */\n      tag_44\n      tag_40\n      jump\t// in\n    tag_44:\n        /* \"#utility.yul\":708:827   */\n    tag_43:\n        /* \"#utility.yul\":866:867   */\n      0x00\n        /* \"#utility.yul\":891:944   */\n      tag_45\n        /* \"#utility.yul\":936:943   */\n      dup5\n        /* \"#utility.yul\":927:933   */\n      dup3\n        /* \"#utility.yul\":916:925   */\n      dup6\n        /* \"#utility.yul\":912:934   */\n      add\n        /* \"#utility.yul\":891:944   */\n      tag_33\n      jump\t// in\n    tag_45:\n        /* \"#utility.yul\":881:944   */\n      swap2\n      pop\n        /* \"#utility.yul\":837:954   */\n      pop\n        /* \"#utility.yul\":632:961   */\n      swap3\n      swap2\n      pop\n      pop\n      jump\t// out\n        /* \"#utility.yul\":967:1085   */\n    tag_46:\n        /* \"#utility.yul\":1054:1078   */\n      tag_48\n        /* \"#utility.yul\":1072:1077   */\n      dup2\n        /* \"#utility.yul\":1054:1078   */\n      tag_49\n      jump\t// in\n    tag_48:\n        /* \"#utility.yul\":1049:1052   */\n      dup3\n        /* \"#utility.yul\":1042:1079   */\n      mstore\n        /* \"#utility.yul\":967:1085   */\n      pop\n      pop\n      jump\t// out\n        /* \"#utility.yul\":1091:1313   */\n    tag_11:\n        /* \"#utility.yul\":1184:1188   */\n      0x00\n        /* \"#utility.yul\":1222:1224   */\n      0x20\n        /* \"#utility.yul\":1211:1220   */\n      dup3\n        /* \"#utility.yul\":1207:1225   */\n      add\n        /* \"#utility.yul\":1199:1225   */\n      swap1\n      pop\n        /* \"#utility.yul\":1235:1306   */\n      tag_51\n        /* \"#utility.yul\":1303:1304   */\n      0x00\n        /* \"#utility.yul\":1292:1301   */\n      dup4\n        /* \"#utility.yul\":1288:1305   */\n      add\n        /* \"#utility.yul\":1279:1285   */\n      dup5\n        /* \"#utility.yul\":1235:1306   */\n      tag_46\n      jump\t// in\n    tag_51:\n        /* \"#utility.yul\":1091:1313   */\n      swap3\n      swap2\n      pop\n      pop\n      jump\t// out\n        /* \"#utility.yul\":1400:1705   */\n    tag_27:\n        /* \"#utility.yul\":1440:1443   */\n      0x00\n        /* \"#utility.yul\":1459:1479   */\n      tag_55\n        /* \"#utility.yul\":1477:1478   */\n      dup3\n        /* \"#utility.yul\":1459:1479   */\n      tag_49\n      jump\t// in\n    tag_55:\n        /* \"#utility.yul\":1454:1479   */\n      swap2\n      pop\n        /* \"#utility.yul\":1493:1513   */\n      tag_56\n        /* \"#utility.yul\":1511:1512   */\n      dup4\n        /* \"#utility.yul\":1493:1513   */\n      tag_49\n      jump\t// in\n    tag_56:\n        /* \"#utility.yul\":1488:1513   */\n      swap3\n      pop\n        /* \"#utility.yul\":1647:1648   */\n      dup3\n        /* \"#utility.yul\":1579:1645   */\n      0xffffffffffffffffffffffffffffffffffffffffffffffffffffffffffffffff\n        /* \"#utility.yul\":1575:1649   */\n      sub\n        /* \"#utility.yul\":1572:1573   */\n      dup3\n        /* \"#utility.yul\":1569:1650   */\n      gt\n        /* \"#utility.yul\":1566:1673   */\n      iszero\n      tag_57\n      jumpi\n        /* \"#utility.yul\":1653:1671   */\n      tag_58\n      tag_59\n      jump\t// in\n    tag_58:\n        /* \"#utility.yul\":1566:1673   */\n    tag_57:\n        /* \"#utility.yul\":1697:1698   */\n      dup3\n        /* \"#utility.yul\":1694:1695   */\n      dup3\n        /* \"#utility.yul\":1690:1699   */\n      add\n        /* \"#utility.yul\":1683:1699   */\n      swap1\n      pop\n        /* \"#utility.yul\":1400:1705   */\n      swap3\n      swap2\n      pop\n      pop\n      jump\t// out\n        /* \"#utility.yul\":1711:1902   */\n    tag_24:\n        /* \"#utility.yul\":1751:1755   */\n      0x00\n        /* \"#utility.yul\":1771:1791   */\n      tag_61\n        /* \"#utility.yul\":1789:1790   */\n      dup3\n        /* \"#utility.yul\":1771:1791   */\n      tag_49\n      jump\t// in\n    tag_61:\n        /* \"#utility.yul\":1766:1791   */\n      swap2\n      pop\n        /* \"#utility.yul\":1805:1825   */\n      tag_62\n        /* \"#utility.yul\":1823:1824   */\n      dup4\n        /* \"#utility.yul\":1805:1825   */\n      tag_49\n      jump\t// in\n    tag_62:\n        /* \"#utility.yul\":1800:1825   */\n      swap3\n      pop\n        /* \"#utility.yul\":1844:1845   */\n      dup3\n        /* \"#utility.yul\":1841:1842   */\n      dup3\n        /* \"#utility.yul\":1838:1846   */\n      lt\n        /* \"#utility.yul\":1835:1869   */\n      iszero\n      tag_63\n      jumpi\n        /* \"#utility.yul\":1849:1867   */\n      tag_64\n      tag_59\n      jump\t// in\n    tag_64:\n        /* \"#utility.yul\":1835:1869   */\n    tag_63:\n        /* \"#utility.yul\":1894:1895   */\n      dup3\n        /* \"#utility.yul\":1891:1892   */\n      dup3\n        /* \"#utility.yul\":1887:1896   */\n      sub\n        /* \"#utility.yul\":1879:1896   */\n      swap1\n      pop\n        /* \"#utility.yul\":1711:1902   */\n      swap3\n      swap2\n      pop\n      pop\n      jump\t// out\n        /* \"#utility.yul\":1908:2004   */\n    tag_65:\n        /* \"#utility.yul\":1945:1952   */\n      0x00\n        /* \"#utility.yul\":1974:1998   */\n      tag_67\n        /* \"#utility.yul\":1992:1997   */\n      dup3\n        /* \"#utility.yul\":1974:1998   */\n      tag_68\n      jump\t// in\n    tag_67:\n        /* \"#utility.yul\":1963:1998   */\n      swap1\n      pop\n        /* \"#utility.yul\":1908:2004   */\n      swap2\n      swap1\n      pop\n      jump\t// out\n        /* \"#utility.yul\":2010:2136   */\n    tag_68:\n        /* \"#utility.yul\":2047:2054   */\n      0x00\n        /* \"#utility.yul\":2087:2129   */\n      0xffffffffffffffffffffffffffffffffffffffff\n        /* \"#utility.yul\":2080:2085   */\n      dup3\n        /* \"#utility.yul\":2076:2130   */\n      and\n        /* \"#utility.yul\":2065:2130   */\n      swap1\n      pop\n        /* \"#utility.yul\":2010:2136   */\n      swap2\n      swap1\n      pop\n      jump\t// out\n        /* \"#utility.yul\":2142:2219   */\n    tag_49:\n        /* \"#utility.yul\":2179:2186   */\n      0x00\n        /* \"#utility.yul\":2208:2213   */\n      dup2\n        /* \"#utility.yul\":2197:2213   */\n      swap1\n      pop\n        /* \"#utility.yul\":2142:2219   */\n      swap2\n      swap1\n      pop\n      jump\t// out\n        /* \"#utility.yul\":2225:2405   */\n    tag_59:\n        /* \"#utility.yul\":2273:2350   */\n      0x4e487b7100000000000000000000000000000000000000000000000000000000\n        /* \"#utility.yul\":2270:2271   */\n      0x00\n        /* \"#utility.yul\":2263:2351   */\n      mstore\n        /* \"#utility.yul\":2370:2374   */\n      0x11\n        /* \"#utility.yul\":2367:2368   */\n      0x04\n        /* \"#utility.yul\":2360:2375   */\n      mstore\n        /* \"#utility.yul\":2394:2398   */\n      0x24\n        /* \"#utility.yul\":2391:2392   */\n      0x00\n        /* \"#utility.yul\":2384:2399   */\n      revert\n        /* \"#utility.yul\":2534:2651   */\n    tag_40:\n        /* \"#utility.yul\":2643:2644   */\n      0x00\n        /* \"#utility.yul\":2640:2641   */\n      dup1\n        /* \"#utility.yul\":2633:2645   */\n      revert\n        /* \"#utility.yul\":2657:2779   */\n    tag_32:\n        /* \"#utility.yul\":2730:2754   */\n      tag_76\n        /* \"#utility.yul\":2748:2753   */\n      dup2\n        /* \"#utility.yul\":2730:2754   */\n      tag_65\n      jump\t// in\n    tag_76:\n        /* \"#utility.yul\":2723:2728   */\n      dup2\n        /* \"#utility.yul\":2720:2755   */\n      eq\n        /* \"#utility.yul\":2710:2773   */\n      tag_77\n      jumpi\n        /* \"#utility.yul\":2769:2770   */\n      0x00\n        /* \"#utility.yul\":2766:2767   */\n      dup1\n        /* \"#utility.yul\":2759:2771   */\n      revert\n        /* \"#utility.yul\":2710:2773   */\n    tag_77:\n        /* \"#utility.yul\":2657:2779   */\n      pop\n      jump\t// out\n        /* \"#utility.yul\":2785:2907   */\n    tag_36:\n        /* \"#utility.yul\":2858:2882   */\n      tag_79\n        /* \"#utility.yul\":2876:2881   */\n      dup2\n        /* \"#utility.yul\":2858:2882   */\n      tag_49\n      jump\t// in\n    tag_79:\n        /* \"#utility.yul\":2851:2856   */\n      dup2\n        /* \"#utility.yul\":2848:2883   */\n      eq\n        /* \"#utility.yul\":2838:2901   */\n      tag_80\n      jumpi\n        /* \"#utility.yul\":2897:2898   */\n      0x00\n        /* \"#utility.yul\":2894:2895   */\n      dup1\n        /* \"#utility.yul\":2887:2899   */\n      revert\n        /* \"#utility.yul\":2838:2901   */\n    tag_80:\n        /* \"#utility.yul\":2785:2907   */\n      pop\n      jump\t// out\n\n    auxdata: 0xa26469706673582212205e4efb6caacfe205aaf0ac17f736f21c66e49bdc94ebbffcd48133dd33851b1764736f6c63430008070033\n}\n",
				"bytecode": {
					"linkReferences": {},
					"object": "608060405234801561001057600080fd5b5061040e806100206000396000f3fe6080604052600436106100345760003560e01c806350f62da7146100395780635487692114610076578063d0e30db01461009f575b600080fd5b34801561004557600080fd5b50610060600480360381019061005b919061022c565b6100a9565b60405161006d9190610295565b60405180910390f35b34801561008257600080fd5b5061009d60048036038101906100989190610259565b6100c1565b005b6100a76101ab565b005b60006020528060005260406000206000915090505481565b806000803373ffffffffffffffffffffffffffffffffffffffff1673ffffffffffffffffffffffffffffffffffffffff16815260200190815260200160002054101561010c57600080fd5b3373ffffffffffffffffffffffffffffffffffffffff166108fc829081150290604051600060405180830381858888f19350505050158015610152573d6000803e3d6000fd5b50806000803373ffffffffffffffffffffffffffffffffffffffff1673ffffffffffffffffffffffffffffffffffffffff16815260200190815260200160002060008282546101a19190610306565b9250508190555050565b346000803373ffffffffffffffffffffffffffffffffffffffff1673ffffffffffffffffffffffffffffffffffffffff16815260200190815260200160002060008282546101f991906102b0565b92505081905550565b600081359050610211816103aa565b92915050565b600081359050610226816103c1565b92915050565b600060208284031215610242576102416103a5565b5b600061025084828501610202565b91505092915050565b60006020828403121561026f5761026e6103a5565b5b600061027d84828501610217565b91505092915050565b61028f8161036c565b82525050565b60006020820190506102aa6000830184610286565b92915050565b60006102bb8261036c565b91506102c68361036c565b9250827fffffffffffffffffffffffffffffffffffffffffffffffffffffffffffffffff038211156102fb576102fa610376565b5b828201905092915050565b60006103118261036c565b915061031c8361036c565b92508282101561032f5761032e610376565b5b828203905092915050565b60006103458261034c565b9050919050565b600073ffffffffffffffffffffffffffffffffffffffff82169050919050565b6000819050919050565b7f4e487b7100000000000000000000000000000000000000000000000000000000600052601160045260246000fd5b600080fd5b6103b38161033a565b81146103be57600080fd5b50565b6103ca8161036c565b81146103d557600080fd5b5056fea26469706673582212205e4efb6caacfe205aaf0ac17f736f21c66e49bdc94ebbffcd48133dd33851b1764736f6c63430008070033",
					"opcodes": "PUSH1 0x80 PUSH1 0x40 MSTORE CALLVALUE DUP1 ISZERO PUSH2 0x10 JUMPI PUSH1 0x0 DUP1 REVERT JUMPDEST POP PUSH2 0x40E DUP1 PUSH2 0x20 PUSH1 0x0 CODECOPY PUSH1 0x0 RETURN INVALID PUSH1 0x80 PUSH1 0x40 MSTORE PUSH1 0x4 CALLDATASIZE LT PUSH2 0x34 JUMPI PUSH1 0x0 CALLDATALOAD PUSH1 0xE0 SHR DUP1 PUSH4 0x50F62DA7 EQ PUSH2 0x39 JUMPI DUP1 PUSH4 0x54876921 EQ PUSH2 0x76 JUMPI DUP1 PUSH4 0xD0E30DB0 EQ PUSH2 0x9F JUMPI JUMPDEST PUSH1 0x0 DUP1 REVERT JUMPDEST CALLVALUE DUP1 ISZERO PUSH2 0x45 JUMPI PUSH1 0x0 DUP1 REVERT JUMPDEST POP PUSH2 0x60 PUSH1 0x4 DUP1 CALLDATASIZE SUB DUP2 ADD SWAP1 PUSH2 0x5B SWAP2 SWAP1 PUSH2 0x22C JUMP JUMPDEST PUSH2 0xA9 JUMP JUMPDEST PUSH1 0x40 MLOAD PUSH2 0x6D SWAP2 SWAP1 PUSH2 0x295 JUMP JUMPDEST PUSH1 0x40 MLOAD DUP1 SWAP2 SUB SWAP1 RETURN JUMPDEST CALLVALUE DUP1 ISZERO PUSH2 0x82 JUMPI PUSH1 0x0 DUP1 REVERT JUMPDEST POP PUSH2 0x9D PUSH1 0x4 DUP1 CALLDATASIZE SUB DUP2 ADD SWAP1 PUSH2 0x98 SWAP2 SWAP1 PUSH2 0x259 JUMP JUMPDEST PUSH2 0xC1 JUMP JUMPDEST STOP JUMPDEST PUSH2 0xA7 PUSH2 0x1AB JUMP JUMPDEST STOP JUMPDEST PUSH1 0x0 PUSH1 0x20 MSTORE DUP1 PUSH1 0x0 MSTORE PUSH1 0x40 PUSH1 0x0 KECCAK256 PUSH1 0x0 SWAP2 POP SWAP1 POP SLOAD DUP2 JUMP JUMPDEST DUP1 PUSH1 0x0 DUP1 CALLER PUSH20 0xFFFFFFFFFFFFFFFFFFFFFFFFFFFFFFFFFFFFFFFF AND PUSH20 0xFFFFFFFFFFFFFFFFFFFFFFFFFFFFFFFFFFFFFFFF AND DUP2 MSTORE PUSH1 0x20 ADD SWAP1 DUP2 MSTORE PUSH1 0x20 ADD PUSH1 0x0 KECCAK256 SLOAD LT ISZERO PUSH2 0x10C JUMPI PUSH1 0x0 DUP1 REVERT JUMPDEST CALLER PUSH20 0xFFFFFFFFFFFFFFFFFFFFFFFFFFFFFFFFFFFFFFFF AND PUSH2 0x8FC DUP3 SWAP1 DUP2 ISZERO MUL SWAP1 PUSH1 0x40 MLOAD PUSH1 0x0 PUSH1 0x40 MLOAD DUP1 DUP4 SUB DUP2 DUP6 DUP9 DUP9 CALL SWAP4 POP POP POP POP ISZERO DUP1 ISZERO PUSH2 0x152 JUMPI RETURNDATASIZE PUSH1 0x0 DUP1 RETURNDATACOPY RETURNDATASIZE PUSH1 0x0 REVERT JUMPDEST POP DUP1 PUSH1 0x0 DUP1 CALLER PUSH20 0xFFFFFFFFFFFFFFFFFFFFFFFFFFFFFFFFFFFFFFFF AND PUSH20 0xFFFFFFFFFFFFFFFFFFFFFFFFFFFFFFFFFFFFFFFF AND DUP2 MSTORE PUSH1 0x20 ADD SWAP1 DUP2 MSTORE PUSH1 0x20 ADD PUSH1 0x0 KECCAK256 PUSH1 0x0 DUP3 DUP3 SLOAD PUSH2 0x1A1 SWAP2 SWAP1 PUSH2 0x306 JUMP JUMPDEST SWAP3 POP POP DUP2 SWAP1 SSTORE POP POP JUMP JUMPDEST CALLVALUE PUSH1 0x0 DUP1 CALLER PUSH20 0xFFFFFFFFFFFFFFFFFFFFFFFFFFFFFFFFFFFFFFFF AND PUSH20 0xFFFFFFFFFFFFFFFFFFFFFFFFFFFFFFFFFFFFFFFF AND DUP2 MSTORE PUSH1 0x20 ADD SWAP1 DUP2 MSTORE PUSH1 0x20 ADD PUSH1 0x0 KECCAK256 PUSH1 0x0 DUP3 DUP3 SLOAD PUSH2 0x1F9 SWAP2 SWAP1 PUSH2 0x2B0 JUMP JUMPDEST SWAP3 POP POP DUP2 SWAP1 SSTORE POP JUMP JUMPDEST PUSH1 0x0 DUP2 CALLDATALOAD SWAP1 POP PUSH2 0x211 DUP2 PUSH2 0x3AA JUMP JUMPDEST SWAP3 SWAP2 POP POP JUMP JUMPDEST PUSH1 0x0 DUP2 CALLDATALOAD SWAP1 POP PUSH2 0x226 DUP2 PUSH2 0x3C1 JUMP JUMPDEST SWAP3 SWAP2 POP POP JUMP JUMPDEST PUSH1 0x0 PUSH1 0x20 DUP3 DUP5 SUB SLT ISZERO PUSH2 0x242 JUMPI PUSH2 0x241 PUSH2 0x3A5 JUMP JUMPDEST JUMPDEST PUSH1 0x0 PUSH2 0x250 DUP5 DUP3 DUP6 ADD PUSH2 0x202 JUMP JUMPDEST SWAP2 POP POP SWAP3 SWAP2 POP POP JUMP JUMPDEST PUSH1 0x0 PUSH1 0x20 DUP3 DUP5 SUB SLT ISZERO PUSH2 0x26F JUMPI PUSH2 0x26E PUSH2 0x3A5 JUMP JUMPDEST JUMPDEST PUSH1 0x0 PUSH2 0x27D DUP5 DUP3 DUP6 ADD PUSH2 0x217 JUMP JUMPDEST SWAP2 POP POP SWAP3 SWAP2 POP POP JUMP JUMPDEST PUSH2 0x28F DUP2 PUSH2 0x36C JUMP JUMPDEST DUP3 MSTORE POP POP JUMP JUMPDEST PUSH1 0x0 PUSH1 0x20 DUP3 ADD SWAP1 POP PUSH2 0x2AA PUSH1 0x0 DUP4 ADD DUP5 PUSH2 0x286 JUMP JUMPDEST SWAP3 SWAP2 POP POP JUMP JUMPDEST PUSH1 0x0 PUSH2 0x2BB DUP3 PUSH2 0x36C JUMP JUMPDEST SWAP2 POP PUSH2 0x2C6 DUP4 PUSH2 0x36C JUMP JUMPDEST SWAP3 POP DUP3 PUSH32 0xFFFFFFFFFFFFFFFFFFFFFFFFFFFFFFFFFFFFFFFFFFFFFFFFFFFFFFFFFFFFFFFF SUB DUP3 GT ISZERO PUSH2 0x2FB JUMPI PUSH2 0x2FA PUSH2 0x376 JUMP JUMPDEST JUMPDEST DUP3 DUP3 ADD SWAP1 POP SWAP3 SWAP2 POP POP JUMP JUMPDEST PUSH1 0x0 PUSH2 0x311 DUP3 PUSH2 0x36C JUMP JUMPDEST SWAP2 POP PUSH2 0x31C DUP4 PUSH2 0x36C JUMP JUMPDEST SWAP3 POP DUP3 DUP3 LT ISZERO PUSH2 0x32F JUMPI PUSH2 0x32E PUSH2 0x376 JUMP JUMPDEST JUMPDEST DUP3 DUP3 SUB SWAP1 POP SWAP3 SWAP2 POP POP JUMP JUMPDEST PUSH1 0x0 PUSH2 0x345 DUP3 PUSH2 0x34C JUMP JUMPDEST SWAP1 POP SWAP2 SWAP1 POP JUMP JUMPDEST PUSH1 0x0 PUSH20 0xFFFFFFFFFFFFFFFFFFFFFFFFFFFFFFFFFFFFFFFF DUP3 AND SWAP1 POP SWAP2 SWAP1 POP JUMP JUMPDEST PUSH1 0x0 DUP2 SWAP1 POP SWAP2 SWAP1 POP JUMP JUMPDEST PUSH32 0x4E487B7100000000000000000000000000000000000000000000000000000000 PUSH1 0x0 MSTORE PUSH1 0x11 PUSH1 0x4 MSTORE PUSH1 0x24 PUSH1 0x0 REVERT JUMPDEST PUSH1 0x0 DUP1 REVERT JUMPDEST PUSH2 0x3B3 DUP2 PUSH2 0x33A JUMP JUMPDEST DUP2 EQ PUSH2 0x3BE JUMPI PUSH1 0x0 DUP1 REVERT JUMPDEST POP JUMP JUMPDEST PUSH2 0x3CA DUP2 PUSH2 0x36C JUMP JUMPDEST DUP2 EQ PUSH2 0x3D5 JUMPI PUSH1 0x0 DUP1 REVERT JUMPDEST POP JUMP INVALID LOG2 PUSH5 0x6970667358 0x22 SLT KECCAK256 0x5E 0x4E 0xFB PUSH13 0xAACFE205AAF0AC17F736F21C66 0xE4 SWAP12 0xDC SWAP5 0xEB 0xBF 0xFC 0xD4 DUP2 CALLER 0xDD CALLER DUP6 SHL OR PUSH5 0x736F6C6343 STOP ADDMOD SMOD STOP CALLER "
				},
				"gasEstimates": {
					"creation": {
						"codeDepositCost": "207600",
						"executionCost": "251",
						"totalCost": "207851"
					},
					"external": {
						"deposit()": "infinite",
						"depositAmount(address)": "2792",
						"withdrawMoney(uint256)": "infinite"
					}
				},
				"methodIdentifiers": {
					"deposit()": "d0e30db0",
					"depositAmount(address)": "50f62da7",
					"withdrawMoney(uint256)": "54876921"
				}
			},
			"storageLayout": {
				"storage": [
					{
						"astId": 77,
						"contract": "contracts/DepositWithdraw.sol:DepositWithdraw",
						"label": "depositAmount",
						"offset": 0,
						"slot": "0",
						"type": "t_mapping(t_address,t_uint256)"
					}
				],
				"types": {
					"t_address": {
						"encoding": "inplace",
						"label": "address",
						"numberOfBytes": "20"
					},
					"t_mapping(t_address,t_uint256)": {
						"encoding": "mapping",
						"key": "t_address",
						"label": "mapping(address => uint256)",
						"numberOfBytes": "32",
						"value": "t_uint256"
					},
					"t_uint256": {
						"encoding": "inplace",
						"label": "uint256",
						"numberOfBytes": "32"
					}
				}
			},
			"userdoc": {
				"kind": "user",
				"methods": {},
				"version": 1
			}
		}
	}
}