{
	"contracts/DepositWithdraw.sol": {
		"DepositWithdraw": {
			"abi": [
				{
					"inputs": [],
					"name": "deposit",
					"outputs": [],
					"stateMutability": "payable",
					"type": "function"
				},
				{
					"inputs": [
						{
							"internalType": "uint256",
							"name": "_amount",
							"type": "uint256"
						}
					],
					"name": "withdrawMoney",
					"outputs": [],
					"stateMutability": "nonpayable",
					"type": "function"
				}
			],
			"devdoc": {
				"kind": "dev",
				"methods": {},
				"version": 1
			},
			"evm": {
				"assembly": "    /* \"contracts/DepositWithdraw.sol\":59:450  contract DepositWithdraw{\r... */\n  mstore(0x40, 0x80)\n  callvalue\n  dup1\n  iszero\n  tag_1\n  jumpi\n  0x00\n  dup1\n  revert\ntag_1:\n  pop\n  dataSize(sub_0)\n  dup1\n  dataOffset(sub_0)\n  0x00\n  codecopy\n  0x00\n  return\nstop\n\nsub_0: assembly {\n        /* \"contracts/DepositWithdraw.sol\":59:450  contract DepositWithdraw{\r... */\n      mstore(0x40, 0x80)\n      jumpi(tag_1, lt(calldatasize, 0x04))\n      shr(0xe0, calldataload(0x00))\n      dup1\n      0x54876921\n      eq\n      tag_2\n      jumpi\n      dup1\n      0xd0e30db0\n      eq\n      tag_3\n      jumpi\n    tag_1:\n      0x00\n      dup1\n      revert\n        /* \"contracts/DepositWithdraw.sol\":239:447  function withdrawMoney(uint _amount) public{\r... */\n    tag_2:\n      callvalue\n      dup1\n      iszero\n      tag_4\n      jumpi\n      0x00\n      dup1\n      revert\n    tag_4:\n      pop\n      tag_5\n      0x04\n      dup1\n      calldatasize\n      sub\n      dup2\n      add\n      swap1\n      tag_6\n      swap2\n      swap1\n      tag_7\n      jump\t// in\n    tag_6:\n      tag_8\n      jump\t// in\n    tag_5:\n      stop\n        /* \"contracts/DepositWithdraw.sol\":141:231  function deposit() payable public{\r... */\n    tag_3:\n      tag_9\n      tag_10\n      jump\t// in\n    tag_9:\n      stop\n        /* \"contracts/DepositWithdraw.sol\":239:447  function withdrawMoney(uint _amount) public{\r... */\n    tag_8:\n        /* \"contracts/DepositWithdraw.sol\":330:337  _amount */\n      dup1\n        /* \"contracts/DepositWithdraw.sol\":301:314  depositAmount */\n      0x00\n        /* \"contracts/DepositWithdraw.sol\":301:326  depositAmount[msg.sender] */\n      dup1\n        /* \"contracts/DepositWithdraw.sol\":315:325  msg.sender */\n      caller\n        /* \"contracts/DepositWithdraw.sol\":301:326  depositAmount[msg.sender] */\n      0xffffffffffffffffffffffffffffffffffffffff\n      and\n      0xffffffffffffffffffffffffffffffffffffffff\n      and\n      dup2\n      mstore\n      0x20\n      add\n      swap1\n      dup2\n      mstore\n      0x20\n      add\n      0x00\n      keccak256\n      sload\n        /* \"contracts/DepositWithdraw.sol\":301:337  depositAmount[msg.sender] >= _amount */\n      lt\n      iszero\n        /* \"contracts/DepositWithdraw.sol\":293:338  require(depositAmount[msg.sender] >= _amount) */\n      tag_12\n      jumpi\n      0x00\n      dup1\n      revert\n    tag_12:\n        /* \"contracts/DepositWithdraw.sol\":359:369  msg.sender */\n      caller\n        /* \"contracts/DepositWithdraw.sol\":351:379  payable(msg.sender).transfer */\n      0xffffffffffffffffffffffffffffffffffffffff\n      and\n        /* \"contracts/DepositWithdraw.sol\":351:388  payable(msg.sender).transfer(_amount) */\n      0x08fc\n        /* \"contracts/DepositWithdraw.sol\":380:387  _amount */\n      dup3\n        /* \"contracts/DepositWithdraw.sol\":351:388  payable(msg.sender).transfer(_amount) */\n      swap1\n      dup2\n      iszero\n      mul\n      swap1\n      mload(0x40)\n      0x00\n      mload(0x40)\n      dup1\n      dup4\n      sub\n      dup2\n      dup6\n      dup9\n      dup9\n      call\n      swap4\n      pop\n      pop\n      pop\n      pop\n      iszero\n      dup1\n      iszero\n      tag_14\n      jumpi\n      returndatasize\n      0x00\n      dup1\n      returndatacopy\n      revert(0x00, returndatasize)\n    tag_14:\n      pop\n        /* \"contracts/DepositWithdraw.sol\":430:437  _amount */\n      dup1\n        /* \"contracts/DepositWithdraw.sol\":401:414  depositAmount */\n      0x00\n        /* \"contracts/DepositWithdraw.sol\":401:426  depositAmount[msg.sender] */\n      dup1\n        /* \"contracts/DepositWithdraw.sol\":415:425  msg.sender */\n      caller\n        /* \"contracts/DepositWithdraw.sol\":401:426  depositAmount[msg.sender] */\n      0xffffffffffffffffffffffffffffffffffffffff\n      and\n      0xffffffffffffffffffffffffffffffffffffffff\n      and\n      dup2\n      mstore\n      0x20\n      add\n      swap1\n      dup2\n      mstore\n      0x20\n      add\n      0x00\n      keccak256\n      0x00\n        /* \"contracts/DepositWithdraw.sol\":401:437  depositAmount[msg.sender] -= _amount */\n      dup3\n      dup3\n      sload\n      tag_15\n      swap2\n      swap1\n      tag_16\n      jump\t// in\n    tag_15:\n      swap3\n      pop\n      pop\n      dup2\n      swap1\n      sstore\n      pop\n        /* \"contracts/DepositWithdraw.sol\":239:447  function withdrawMoney(uint _amount) public{\r... */\n      pop\n      jump\t// out\n        /* \"contracts/DepositWithdraw.sol\":141:231  function deposit() payable public{\r... */\n    tag_10:\n        /* \"contracts/DepositWithdraw.sol\":214:223  msg.value */\n      callvalue\n        /* \"contracts/DepositWithdraw.sol\":185:198  depositAmount */\n      0x00\n        /* \"contracts/DepositWithdraw.sol\":185:210  depositAmount[msg.sender] */\n      dup1\n        /* \"contracts/DepositWithdraw.sol\":199:209  msg.sender */\n      caller\n        /* \"contracts/DepositWithdraw.sol\":185:210  depositAmount[msg.sender] */\n      0xffffffffffffffffffffffffffffffffffffffff\n      and\n      0xffffffffffffffffffffffffffffffffffffffff\n      and\n      dup2\n      mstore\n      0x20\n      add\n      swap1\n      dup2\n      mstore\n      0x20\n      add\n      0x00\n      keccak256\n      0x00\n        /* \"contracts/DepositWithdraw.sol\":185:223  depositAmount[msg.sender] += msg.value */\n      dup3\n      dup3\n      sload\n      tag_18\n      swap2\n      swap1\n      tag_19\n      jump\t// in\n    tag_18:\n      swap3\n      pop\n      pop\n      dup2\n      swap1\n      sstore\n      pop\n        /* \"contracts/DepositWithdraw.sol\":141:231  function deposit() payable public{\r... */\n      jump\t// out\n        /* \"#utility.yul\":7:146   */\n    tag_21:\n        /* \"#utility.yul\":53:58   */\n      0x00\n        /* \"#utility.yul\":91:97   */\n      dup2\n        /* \"#utility.yul\":78:98   */\n      calldataload\n        /* \"#utility.yul\":69:98   */\n      swap1\n      pop\n        /* \"#utility.yul\":107:140   */\n      tag_23\n        /* \"#utility.yul\":134:139   */\n      dup2\n        /* \"#utility.yul\":107:140   */\n      tag_24\n      jump\t// in\n    tag_23:\n        /* \"#utility.yul\":7:146   */\n      swap3\n      swap2\n      pop\n      pop\n      jump\t// out\n        /* \"#utility.yul\":152:481   */\n    tag_7:\n        /* \"#utility.yul\":211:217   */\n      0x00\n        /* \"#utility.yul\":260:262   */\n      0x20\n        /* \"#utility.yul\":248:257   */\n      dup3\n        /* \"#utility.yul\":239:246   */\n      dup5\n        /* \"#utility.yul\":235:258   */\n      sub\n        /* \"#utility.yul\":231:263   */\n      slt\n        /* \"#utility.yul\":228:347   */\n      iszero\n      tag_26\n      jumpi\n        /* \"#utility.yul\":266:345   */\n      tag_27\n      tag_28\n      jump\t// in\n    tag_27:\n        /* \"#utility.yul\":228:347   */\n    tag_26:\n        /* \"#utility.yul\":386:387   */\n      0x00\n        /* \"#utility.yul\":411:464   */\n      tag_29\n        /* \"#utility.yul\":456:463   */\n      dup5\n        /* \"#utility.yul\":447:453   */\n      dup3\n        /* \"#utility.yul\":436:445   */\n      dup6\n        /* \"#utility.yul\":432:454   */\n      add\n        /* \"#utility.yul\":411:464   */\n      tag_21\n      jump\t// in\n    tag_29:\n        /* \"#utility.yul\":401:464   */\n      swap2\n      pop\n        /* \"#utility.yul\":357:474   */\n      pop\n        /* \"#utility.yul\":152:481   */\n      swap3\n      swap2\n      pop\n      pop\n      jump\t// out\n        /* \"#utility.yul\":568:873   */\n    tag_19:\n        /* \"#utility.yul\":608:611   */\n      0x00\n        /* \"#utility.yul\":627:647   */\n      tag_33\n        /* \"#utility.yul\":645:646   */\n      dup3\n        /* \"#utility.yul\":627:647   */\n      tag_34\n      jump\t// in\n    tag_33:\n        /* \"#utility.yul\":622:647   */\n      swap2\n      pop\n        /* \"#utility.yul\":661:681   */\n      tag_35\n        /* \"#utility.yul\":679:680   */\n      dup4\n        /* \"#utility.yul\":661:681   */\n      tag_34\n      jump\t// in\n    tag_35:\n        /* \"#utility.yul\":656:681   */\n      swap3\n      pop\n        /* \"#utility.yul\":815:816   */\n      dup3\n        /* \"#utility.yul\":747:813   */\n      0xffffffffffffffffffffffffffffffffffffffffffffffffffffffffffffffff\n        /* \"#utility.yul\":743:817   */\n      sub\n        /* \"#utility.yul\":740:741   */\n      dup3\n        /* \"#utility.yul\":737:818   */\n      gt\n        /* \"#utility.yul\":734:841   */\n      iszero\n      tag_36\n      jumpi\n        /* \"#utility.yul\":821:839   */\n      tag_37\n      tag_38\n      jump\t// in\n    tag_37:\n        /* \"#utility.yul\":734:841   */\n    tag_36:\n        /* \"#utility.yul\":865:866   */\n      dup3\n        /* \"#utility.yul\":862:863   */\n      dup3\n        /* \"#utility.yul\":858:867   */\n      add\n        /* \"#utility.yul\":851:867   */\n      swap1\n      pop\n        /* \"#utility.yul\":568:873   */\n      swap3\n      swap2\n      pop\n      pop\n      jump\t// out\n        /* \"#utility.yul\":879:1070   */\n    tag_16:\n        /* \"#utility.yul\":919:923   */\n      0x00\n        /* \"#utility.yul\":939:959   */\n      tag_40\n        /* \"#utility.yul\":957:958   */\n      dup3\n        /* \"#utility.yul\":939:959   */\n      tag_34\n      jump\t// in\n    tag_40:\n        /* \"#utility.yul\":934:959   */\n      swap2\n      pop\n        /* \"#utility.yul\":973:993   */\n      tag_41\n        /* \"#utility.yul\":991:992   */\n      dup4\n        /* \"#utility.yul\":973:993   */\n      tag_34\n      jump\t// in\n    tag_41:\n        /* \"#utility.yul\":968:993   */\n      swap3\n      pop\n        /* \"#utility.yul\":1012:1013   */\n      dup3\n        /* \"#utility.yul\":1009:1010   */\n      dup3\n        /* \"#utility.yul\":1006:1014   */\n      lt\n        /* \"#utility.yul\":1003:1037   */\n      iszero\n      tag_42\n      jumpi\n        /* \"#utility.yul\":1017:1035   */\n      tag_43\n      tag_38\n      jump\t// in\n    tag_43:\n        /* \"#utility.yul\":1003:1037   */\n    tag_42:\n        /* \"#utility.yul\":1062:1063   */\n      dup3\n        /* \"#utility.yul\":1059:1060   */\n      dup3\n        /* \"#utility.yul\":1055:1064   */\n      sub\n        /* \"#utility.yul\":1047:1064   */\n      swap1\n      pop\n        /* \"#utility.yul\":879:1070   */\n      swap3\n      swap2\n      pop\n      pop\n      jump\t// out\n        /* \"#utility.yul\":1076:1153   */\n    tag_34:\n        /* \"#utility.yul\":1113:1120   */\n      0x00\n        /* \"#utility.yul\":1142:1147   */\n      dup2\n        /* \"#utility.yul\":1131:1147   */\n      swap1\n      pop\n        /* \"#utility.yul\":1076:1153   */\n      swap2\n      swap1\n      pop\n      jump\t// out\n        /* \"#utility.yul\":1159:1339   */\n    tag_38:\n        /* \"#utility.yul\":1207:1284   */\n      0x4e487b7100000000000000000000000000000000000000000000000000000000\n        /* \"#utility.yul\":1204:1205   */\n      0x00\n        /* \"#utility.yul\":1197:1285   */\n      mstore\n        /* \"#utility.yul\":1304:1308   */\n      0x11\n        /* \"#utility.yul\":1301:1302   */\n      0x04\n        /* \"#utility.yul\":1294:1309   */\n      mstore\n        /* \"#utility.yul\":1328:1332   */\n      0x24\n        /* \"#utility.yul\":1325:1326   */\n      0x00\n        /* \"#utility.yul\":1318:1333   */\n      revert\n        /* \"#utility.yul\":1468:1585   */\n    tag_28:\n        /* \"#utility.yul\":1577:1578   */\n      0x00\n        /* \"#utility.yul\":1574:1575   */\n      dup1\n        /* \"#utility.yul\":1567:1579   */\n      revert\n        /* \"#utility.yul\":1591:1713   */\n    tag_24:\n        /* \"#utility.yul\":1664:1688   */\n      tag_50\n        /* \"#utility.yul\":1682:1687   */\n      dup2\n        /* \"#utility.yul\":1664:1688   */\n      tag_34\n      jump\t// in\n    tag_50:\n        /* \"#utility.yul\":1657:1662   */\n      dup2\n        /* \"#utility.yul\":1654:1689   */\n      eq\n        /* \"#utility.yul\":1644:1707   */\n      tag_51\n      jumpi\n        /* \"#utility.yul\":1703:1704   */\n      0x00\n        /* \"#utility.yul\":1700:1701   */\n      dup1\n        /* \"#utility.yul\":1693:1705   */\n      revert\n        /* \"#utility.yul\":1644:1707   */\n    tag_51:\n        /* \"#utility.yul\":1591:1713   */\n      pop\n      jump\t// out\n\n    auxdata: 0xa26469706673582212204ca46ffd4b63fed6ba47d3c7e2e6fc9c3fcccfa627527e31f2e903e9682542fe64736f6c63430008070033\n}\n",
				"bytecode": {
					"linkReferences": {},
					"object": "608060405234801561001057600080fd5b506102f9806100206000396000f3fe6080604052600436106100295760003560e01c8063548769211461002e578063d0e30db014610057575b600080fd5b34801561003a57600080fd5b50610055600480360381019061005091906101b7565b610061565b005b61005f61014b565b005b806000803373ffffffffffffffffffffffffffffffffffffffff1673ffffffffffffffffffffffffffffffffffffffff1681526020019081526020016000205410156100ac57600080fd5b3373ffffffffffffffffffffffffffffffffffffffff166108fc829081150290604051600060405180830381858888f193505050501580156100f2573d6000803e3d6000fd5b50806000803373ffffffffffffffffffffffffffffffffffffffff1673ffffffffffffffffffffffffffffffffffffffff1681526020019081526020016000206000828254610141919061023a565b9250508190555050565b346000803373ffffffffffffffffffffffffffffffffffffffff1673ffffffffffffffffffffffffffffffffffffffff168152602001908152602001600020600082825461019991906101e4565b92505081905550565b6000813590506101b1816102ac565b92915050565b6000602082840312156101cd576101cc6102a7565b5b60006101db848285016101a2565b91505092915050565b60006101ef8261026e565b91506101fa8361026e565b9250827fffffffffffffffffffffffffffffffffffffffffffffffffffffffffffffffff0382111561022f5761022e610278565b5b828201905092915050565b60006102458261026e565b91506102508361026e565b92508282101561026357610262610278565b5b828203905092915050565b6000819050919050565b7f4e487b7100000000000000000000000000000000000000000000000000000000600052601160045260246000fd5b600080fd5b6102b58161026e565b81146102c057600080fd5b5056fea26469706673582212204ca46ffd4b63fed6ba47d3c7e2e6fc9c3fcccfa627527e31f2e903e9682542fe64736f6c63430008070033",
					"opcodes": "PUSH1 0x80 PUSH1 0x40 MSTORE CALLVALUE DUP1 ISZERO PUSH2 0x10 JUMPI PUSH1 0x0 DUP1 REVERT JUMPDEST POP PUSH2 0x2F9 DUP1 PUSH2 0x20 PUSH1 0x0 CODECOPY PUSH1 0x0 RETURN INVALID PUSH1 0x80 PUSH1 0x40 MSTORE PUSH1 0x4 CALLDATASIZE LT PUSH2 0x29 JUMPI PUSH1 0x0 CALLDATALOAD PUSH1 0xE0 SHR DUP1 PUSH4 0x54876921 EQ PUSH2 0x2E JUMPI DUP1 PUSH4 0xD0E30DB0 EQ PUSH2 0x57 JUMPI JUMPDEST PUSH1 0x0 DUP1 REVERT JUMPDEST CALLVALUE DUP1 ISZERO PUSH2 0x3A JUMPI PUSH1 0x0 DUP1 REVERT JUMPDEST POP PUSH2 0x55 PUSH1 0x4 DUP1 CALLDATASIZE SUB DUP2 ADD SWAP1 PUSH2 0x50 SWAP2 SWAP1 PUSH2 0x1B7 JUMP JUMPDEST PUSH2 0x61 JUMP JUMPDEST STOP JUMPDEST PUSH2 0x5F PUSH2 0x14B JUMP JUMPDEST STOP JUMPDEST DUP1 PUSH1 0x0 DUP1 CALLER PUSH20 0xFFFFFFFFFFFFFFFFFFFFFFFFFFFFFFFFFFFFFFFF AND PUSH20 0xFFFFFFFFFFFFFFFFFFFFFFFFFFFFFFFFFFFFFFFF AND DUP2 MSTORE PUSH1 0x20 ADD SWAP1 DUP2 MSTORE PUSH1 0x20 ADD PUSH1 0x0 KECCAK256 SLOAD LT ISZERO PUSH2 0xAC JUMPI PUSH1 0x0 DUP1 REVERT JUMPDEST CALLER PUSH20 0xFFFFFFFFFFFFFFFFFFFFFFFFFFFFFFFFFFFFFFFF AND PUSH2 0x8FC DUP3 SWAP1 DUP2 ISZERO MUL SWAP1 PUSH1 0x40 MLOAD PUSH1 0x0 PUSH1 0x40 MLOAD DUP1 DUP4 SUB DUP2 DUP6 DUP9 DUP9 CALL SWAP4 POP POP POP POP ISZERO DUP1 ISZERO PUSH2 0xF2 JUMPI RETURNDATASIZE PUSH1 0x0 DUP1 RETURNDATACOPY RETURNDATASIZE PUSH1 0x0 REVERT JUMPDEST POP DUP1 PUSH1 0x0 DUP1 CALLER PUSH20 0xFFFFFFFFFFFFFFFFFFFFFFFFFFFFFFFFFFFFFFFF AND PUSH20 0xFFFFFFFFFFFFFFFFFFFFFFFFFFFFFFFFFFFFFFFF AND DUP2 MSTORE PUSH1 0x20 ADD SWAP1 DUP2 MSTORE PUSH1 0x20 ADD PUSH1 0x0 KECCAK256 PUSH1 0x0 DUP3 DUP3 SLOAD PUSH2 0x141 SWAP2 SWAP1 PUSH2 0x23A JUMP JUMPDEST SWAP3 POP POP DUP2 SWAP1 SSTORE POP POP JUMP JUMPDEST CALLVALUE PUSH1 0x0 DUP1 CALLER PUSH20 0xFFFFFFFFFFFFFFFFFFFFFFFFFFFFFFFFFFFFFFFF AND PUSH20 0xFFFFFFFFFFFFFFFFFFFFFFFFFFFFFFFFFFFFFFFF AND DUP2 MSTORE PUSH1 0x20 ADD SWAP1 DUP2 MSTORE PUSH1 0x20 ADD PUSH1 0x0 KECCAK256 PUSH1 0x0 DUP3 DUP3 SLOAD PUSH2 0x199 SWAP2 SWAP1 PUSH2 0x1E4 JUMP JUMPDEST SWAP3 POP POP DUP2 SWAP1 SSTORE POP JUMP JUMPDEST PUSH1 0x0 DUP2 CALLDATALOAD SWAP1 POP PUSH2 0x1B1 DUP2 PUSH2 0x2AC JUMP JUMPDEST SWAP3 SWAP2 POP POP JUMP JUMPDEST PUSH1 0x0 PUSH1 0x20 DUP3 DUP5 SUB SLT ISZERO PUSH2 0x1CD JUMPI PUSH2 0x1CC PUSH2 0x2A7 JUMP JUMPDEST JUMPDEST PUSH1 0x0 PUSH2 0x1DB DUP5 DUP3 DUP6 ADD PUSH2 0x1A2 JUMP JUMPDEST SWAP2 POP POP SWAP3 SWAP2 POP POP JUMP JUMPDEST PUSH1 0x0 PUSH2 0x1EF DUP3 PUSH2 0x26E JUMP JUMPDEST SWAP2 POP PUSH2 0x1FA DUP4 PUSH2 0x26E JUMP JUMPDEST SWAP3 POP DUP3 PUSH32 0xFFFFFFFFFFFFFFFFFFFFFFFFFFFFFFFFFFFFFFFFFFFFFFFFFFFFFFFFFFFFFFFF SUB DUP3 GT ISZERO PUSH2 0x22F JUMPI PUSH2 0x22E PUSH2 0x278 JUMP JUMPDEST JUMPDEST DUP3 DUP3 ADD SWAP1 POP SWAP3 SWAP2 POP POP JUMP JUMPDEST PUSH1 0x0 PUSH2 0x245 DUP3 PUSH2 0x26E JUMP JUMPDEST SWAP2 POP PUSH2 0x250 DUP4 PUSH2 0x26E JUMP JUMPDEST SWAP3 POP DUP3 DUP3 LT ISZERO PUSH2 0x263 JUMPI PUSH2 0x262 PUSH2 0x278 JUMP JUMPDEST JUMPDEST DUP3 DUP3 SUB SWAP1 POP SWAP3 SWAP2 POP POP JUMP JUMPDEST PUSH1 0x0 DUP2 SWAP1 POP SWAP2 SWAP1 POP JUMP JUMPDEST PUSH32 0x4E487B7100000000000000000000000000000000000000000000000000000000 PUSH1 0x0 MSTORE PUSH1 0x11 PUSH1 0x4 MSTORE PUSH1 0x24 PUSH1 0x0 REVERT JUMPDEST PUSH1 0x0 DUP1 REVERT JUMPDEST PUSH2 0x2B5 DUP2 PUSH2 0x26E JUMP JUMPDEST DUP2 EQ PUSH2 0x2C0 JUMPI PUSH1 0x0 DUP1 REVERT JUMPDEST POP JUMP INVALID LOG2 PUSH5 0x6970667358 0x22 SLT KECCAK256 0x4C LOG4 PUSH16 0xFD4B63FED6BA47D3C7E2E6FC9C3FCCCF 0xA6 0x27 MSTORE PUSH31 0x31F2E903E9682542FE64736F6C634300080700330000000000000000000000 "
				},
				"gasEstimates": {
					"creation": {
						"codeDepositCost": "152200",
						"executionCost": "196",
						"totalCost": "152396"
					},
					"external": {
						"deposit()": "infinite",
						"withdrawMoney(uint256)": "infinite"
					}
				},
				"methodIdentifiers": {
					"deposit()": "d0e30db0",
					"withdrawMoney(uint256)": "54876921"
				}
			},
			"storageLayout": {
				"storage": [
					{
						"astId": 5,
						"contract": "contracts/DepositWithdraw.sol:DepositWithdraw",
						"label": "depositAmount",
						"offset": 0,
						"slot": "0",
						"type": "t_mapping(t_address,t_uint256)"
					}
				],
				"types": {
					"t_address": {
						"encoding": "inplace",
						"label": "address",
						"numberOfBytes": "20"
					},
					"t_mapping(t_address,t_uint256)": {
						"encoding": "mapping",
						"key": "t_address",
						"label": "mapping(address => uint256)",
						"numberOfBytes": "32",
						"value": "t_uint256"
					},
					"t_uint256": {
						"encoding": "inplace",
						"label": "uint256",
						"numberOfBytes": "32"
					}
				}
			},
			"userdoc": {
				"kind": "user",
				"methods": {},
				"version": 1
			}
		}
	}
}