{
	"contracts/EventTrigger.sol": {
		"ItemManager": {
			"abi": [
				{
					"anonymous": false,
					"inputs": [
						{
							"indexed": false,
							"internalType": "uint256",
							"name": "_itemIndex",
							"type": "uint256"
						},
						{
							"indexed": false,
							"internalType": "uint256",
							"name": "_step",
							"type": "uint256"
						}
					],
					"name": "SupplyChainStep",
					"type": "event"
				},
				{
					"inputs": [
						{
							"internalType": "string",
							"name": "_identifier",
							"type": "string"
						},
						{
							"internalType": "uint256",
							"name": "_priceInWei",
							"type": "uint256"
						}
					],
					"name": "createItem",
					"outputs": [],
					"stateMutability": "nonpayable",
					"type": "function"
				},
				{
					"inputs": [
						{
							"internalType": "uint256",
							"name": "",
							"type": "uint256"
						}
					],
					"name": "items",
					"outputs": [
						{
							"internalType": "enum ItemManager.SupplyChainSteps",
							"name": "_step",
							"type": "uint8"
						},
						{
							"internalType": "string",
							"name": "identifier",
							"type": "string"
						},
						{
							"internalType": "uint256",
							"name": "priceInWei",
							"type": "uint256"
						}
					],
					"stateMutability": "view",
					"type": "function"
				}
			],
			"devdoc": {
				"kind": "dev",
				"methods": {},
				"version": 1
			},
			"evm": {
				"assembly": "    /* \"contracts/EventTrigger.sol\":61:618  contract ItemManager{\r... */\n  mstore(0x40, 0x80)\n  callvalue\n  dup1\n  iszero\n  tag_1\n  jumpi\n  0x00\n  dup1\n  revert\ntag_1:\n  pop\n  dataSize(sub_0)\n  dup1\n  dataOffset(sub_0)\n  0x00\n  codecopy\n  0x00\n  return\nstop\n\nsub_0: assembly {\n        /* \"contracts/EventTrigger.sol\":61:618  contract ItemManager{\r... */\n      mstore(0x40, 0x80)\n      callvalue\n      dup1\n      iszero\n      tag_1\n      jumpi\n      0x00\n      dup1\n      revert\n    tag_1:\n      pop\n      jumpi(tag_2, lt(calldatasize, 0x04))\n      shr(0xe0, calldataload(0x00))\n      dup1\n      0x8c551742\n      eq\n      tag_3\n      jumpi\n      dup1\n      0xbfb231d2\n      eq\n      tag_4\n      jumpi\n    tag_2:\n      0x00\n      dup1\n      revert\n        /* \"contracts/EventTrigger.sol\":395:613  function createItem(string memory _identifier, uint _priceInWei) public {\r... */\n    tag_3:\n      tag_5\n      0x04\n      dup1\n      calldatasize\n      sub\n      dup2\n      add\n      swap1\n      tag_6\n      swap2\n      swap1\n      tag_7\n      jump\t// in\n    tag_6:\n      tag_8\n      jump\t// in\n    tag_5:\n      stop\n        /* \"contracts/EventTrigger.sol\":273:310  mapping (uint => S_Item) public items */\n    tag_4:\n      tag_9\n      0x04\n      dup1\n      calldatasize\n      sub\n      dup2\n      add\n      swap1\n      tag_10\n      swap2\n      swap1\n      tag_11\n      jump\t// in\n    tag_10:\n      tag_12\n      jump\t// in\n    tag_9:\n      mload(0x40)\n      tag_13\n      swap4\n      swap3\n      swap2\n      swap1\n      tag_14\n      jump\t// in\n    tag_13:\n      mload(0x40)\n      dup1\n      swap2\n      sub\n      swap1\n      return\n        /* \"contracts/EventTrigger.sol\":395:613  function createItem(string memory _identifier, uint _priceInWei) public {\r... */\n    tag_8:\n        /* \"contracts/EventTrigger.sol\":478:499  S_Item memory newItem */\n      tag_16\n      tag_17\n      jump\t// in\n    tag_16:\n        /* \"contracts/EventTrigger.sol\":531:542  _identifier */\n      dup3\n        /* \"contracts/EventTrigger.sol\":510:517  newItem */\n      dup2\n        /* \"contracts/EventTrigger.sol\":510:528  newItem.identifier */\n      0x20\n      add\n        /* \"contracts/EventTrigger.sol\":510:542  newItem.identifier = _identifier */\n      dup2\n      swap1\n      mstore\n      pop\n        /* \"contracts/EventTrigger.sol\":574:585  _priceInWei */\n      dup2\n        /* \"contracts/EventTrigger.sol\":553:560  newItem */\n      dup2\n        /* \"contracts/EventTrigger.sol\":553:571  newItem.priceInWei */\n      0x40\n      add\n        /* \"contracts/EventTrigger.sol\":553:585  newItem.priceInWei = _priceInWei */\n      dup2\n      dup2\n      mstore\n      pop\n      pop\n        /* \"contracts/EventTrigger.sol\":467:613  {\r... */\n      pop\n        /* \"contracts/EventTrigger.sol\":395:613  function createItem(string memory _identifier, uint _priceInWei) public {\r... */\n      pop\n      pop\n      jump\t// out\n        /* \"contracts/EventTrigger.sol\":273:310  mapping (uint => S_Item) public items */\n    tag_12:\n      mstore(0x20, 0x00)\n      dup1\n      0x00\n      mstore\n      keccak256(0x00, 0x40)\n      0x00\n      swap2\n      pop\n      swap1\n      pop\n      dup1\n      0x00\n      add\n      0x00\n      swap1\n      sload\n      swap1\n      0x0100\n      exp\n      swap1\n      div\n      0xff\n      and\n      swap1\n      dup1\n      0x01\n      add\n      dup1\n      sload\n      tag_18\n      swap1\n      tag_19\n      jump\t// in\n    tag_18:\n      dup1\n      0x1f\n      add\n      0x20\n      dup1\n      swap2\n      div\n      mul\n      0x20\n      add\n      mload(0x40)\n      swap1\n      dup2\n      add\n      0x40\n      mstore\n      dup1\n      swap3\n      swap2\n      swap1\n      dup2\n      dup2\n      mstore\n      0x20\n      add\n      dup3\n      dup1\n      sload\n      tag_20\n      swap1\n      tag_19\n      jump\t// in\n    tag_20:\n      dup1\n      iszero\n      tag_21\n      jumpi\n      dup1\n      0x1f\n      lt\n      tag_22\n      jumpi\n      0x0100\n      dup1\n      dup4\n      sload\n      div\n      mul\n      dup4\n      mstore\n      swap2\n      0x20\n      add\n      swap2\n      jump(tag_21)\n    tag_22:\n      dup3\n      add\n      swap2\n      swap1\n      0x00\n      mstore\n      keccak256(0x00, 0x20)\n      swap1\n    tag_23:\n      dup2\n      sload\n      dup2\n      mstore\n      swap1\n      0x01\n      add\n      swap1\n      0x20\n      add\n      dup1\n      dup4\n      gt\n      tag_23\n      jumpi\n      dup3\n      swap1\n      sub\n      0x1f\n      and\n      dup3\n      add\n      swap2\n    tag_21:\n      pop\n      pop\n      pop\n      pop\n      pop\n      swap1\n      dup1\n      0x02\n      add\n      sload\n      swap1\n      pop\n      dup4\n      jump\t// out\n    tag_17:\n      mload(0x40)\n      dup1\n      0x60\n      add\n      0x40\n      mstore\n      dup1\n      0x00\n      0x02\n      dup2\n      gt\n      iszero\n      tag_24\n      jumpi\n      tag_25\n      tag_26\n      jump\t// in\n    tag_25:\n    tag_24:\n      dup2\n      mstore\n      0x20\n      add\n      0x60\n      dup2\n      mstore\n      0x20\n      add\n      0x00\n      dup2\n      mstore\n      pop\n      swap1\n      jump\t// out\n        /* \"#utility.yul\":7:419   */\n    tag_28:\n        /* \"#utility.yul\":85:90   */\n      0x00\n        /* \"#utility.yul\":110:176   */\n      tag_30\n        /* \"#utility.yul\":126:175   */\n      tag_31\n        /* \"#utility.yul\":168:174   */\n      dup5\n        /* \"#utility.yul\":126:175   */\n      tag_32\n      jump\t// in\n    tag_31:\n        /* \"#utility.yul\":110:176   */\n      tag_33\n      jump\t// in\n    tag_30:\n        /* \"#utility.yul\":101:176   */\n      swap1\n      pop\n        /* \"#utility.yul\":199:205   */\n      dup3\n        /* \"#utility.yul\":192:197   */\n      dup2\n        /* \"#utility.yul\":185:206   */\n      mstore\n        /* \"#utility.yul\":237:241   */\n      0x20\n        /* \"#utility.yul\":230:235   */\n      dup2\n        /* \"#utility.yul\":226:242   */\n      add\n        /* \"#utility.yul\":275:278   */\n      dup5\n        /* \"#utility.yul\":266:272   */\n      dup5\n        /* \"#utility.yul\":261:264   */\n      dup5\n        /* \"#utility.yul\":257:273   */\n      add\n        /* \"#utility.yul\":254:279   */\n      gt\n        /* \"#utility.yul\":251:363   */\n      iszero\n      tag_34\n      jumpi\n        /* \"#utility.yul\":282:361   */\n      tag_35\n      tag_36\n      jump\t// in\n    tag_35:\n        /* \"#utility.yul\":251:363   */\n    tag_34:\n        /* \"#utility.yul\":372:413   */\n      tag_37\n        /* \"#utility.yul\":406:412   */\n      dup5\n        /* \"#utility.yul\":401:404   */\n      dup3\n        /* \"#utility.yul\":396:399   */\n      dup6\n        /* \"#utility.yul\":372:413   */\n      tag_38\n      jump\t// in\n    tag_37:\n        /* \"#utility.yul\":91:419   */\n      pop\n        /* \"#utility.yul\":7:419   */\n      swap4\n      swap3\n      pop\n      pop\n      pop\n      jump\t// out\n        /* \"#utility.yul\":439:779   */\n    tag_39:\n        /* \"#utility.yul\":495:500   */\n      0x00\n        /* \"#utility.yul\":544:547   */\n      dup3\n        /* \"#utility.yul\":537:541   */\n      0x1f\n        /* \"#utility.yul\":529:535   */\n      dup4\n        /* \"#utility.yul\":525:542   */\n      add\n        /* \"#utility.yul\":521:548   */\n      slt\n        /* \"#utility.yul\":511:633   */\n      tag_41\n      jumpi\n        /* \"#utility.yul\":552:631   */\n      tag_42\n      tag_43\n      jump\t// in\n    tag_42:\n        /* \"#utility.yul\":511:633   */\n    tag_41:\n        /* \"#utility.yul\":669:675   */\n      dup2\n        /* \"#utility.yul\":656:676   */\n      calldataload\n        /* \"#utility.yul\":694:773   */\n      tag_44\n        /* \"#utility.yul\":769:772   */\n      dup5\n        /* \"#utility.yul\":761:767   */\n      dup3\n        /* \"#utility.yul\":754:758   */\n      0x20\n        /* \"#utility.yul\":746:752   */\n      dup7\n        /* \"#utility.yul\":742:759   */\n      add\n        /* \"#utility.yul\":694:773   */\n      tag_28\n      jump\t// in\n    tag_44:\n        /* \"#utility.yul\":685:773   */\n      swap2\n      pop\n        /* \"#utility.yul\":501:779   */\n      pop\n        /* \"#utility.yul\":439:779   */\n      swap3\n      swap2\n      pop\n      pop\n      jump\t// out\n        /* \"#utility.yul\":785:924   */\n    tag_45:\n        /* \"#utility.yul\":831:836   */\n      0x00\n        /* \"#utility.yul\":869:875   */\n      dup2\n        /* \"#utility.yul\":856:876   */\n      calldataload\n        /* \"#utility.yul\":847:876   */\n      swap1\n      pop\n        /* \"#utility.yul\":885:918   */\n      tag_47\n        /* \"#utility.yul\":912:917   */\n      dup2\n        /* \"#utility.yul\":885:918   */\n      tag_48\n      jump\t// in\n    tag_47:\n        /* \"#utility.yul\":785:924   */\n      swap3\n      swap2\n      pop\n      pop\n      jump\t// out\n        /* \"#utility.yul\":930:1584   */\n    tag_7:\n        /* \"#utility.yul\":1008:1014   */\n      0x00\n        /* \"#utility.yul\":1016:1022   */\n      dup1\n        /* \"#utility.yul\":1065:1067   */\n      0x40\n        /* \"#utility.yul\":1053:1062   */\n      dup4\n        /* \"#utility.yul\":1044:1051   */\n      dup6\n        /* \"#utility.yul\":1040:1063   */\n      sub\n        /* \"#utility.yul\":1036:1068   */\n      slt\n        /* \"#utility.yul\":1033:1152   */\n      iszero\n      tag_50\n      jumpi\n        /* \"#utility.yul\":1071:1150   */\n      tag_51\n      tag_52\n      jump\t// in\n    tag_51:\n        /* \"#utility.yul\":1033:1152   */\n    tag_50:\n        /* \"#utility.yul\":1219:1220   */\n      0x00\n        /* \"#utility.yul\":1208:1217   */\n      dup4\n        /* \"#utility.yul\":1204:1221   */\n      add\n        /* \"#utility.yul\":1191:1222   */\n      calldataload\n        /* \"#utility.yul\":1249:1267   */\n      0xffffffffffffffff\n        /* \"#utility.yul\":1241:1247   */\n      dup2\n        /* \"#utility.yul\":1238:1268   */\n      gt\n        /* \"#utility.yul\":1235:1352   */\n      iszero\n      tag_53\n      jumpi\n        /* \"#utility.yul\":1271:1350   */\n      tag_54\n      tag_55\n      jump\t// in\n    tag_54:\n        /* \"#utility.yul\":1235:1352   */\n    tag_53:\n        /* \"#utility.yul\":1376:1439   */\n      tag_56\n        /* \"#utility.yul\":1431:1438   */\n      dup6\n        /* \"#utility.yul\":1422:1428   */\n      dup3\n        /* \"#utility.yul\":1411:1420   */\n      dup7\n        /* \"#utility.yul\":1407:1429   */\n      add\n        /* \"#utility.yul\":1376:1439   */\n      tag_39\n      jump\t// in\n    tag_56:\n        /* \"#utility.yul\":1366:1439   */\n      swap3\n      pop\n        /* \"#utility.yul\":1162:1449   */\n      pop\n        /* \"#utility.yul\":1488:1490   */\n      0x20\n        /* \"#utility.yul\":1514:1567   */\n      tag_57\n        /* \"#utility.yul\":1559:1566   */\n      dup6\n        /* \"#utility.yul\":1550:1556   */\n      dup3\n        /* \"#utility.yul\":1539:1548   */\n      dup7\n        /* \"#utility.yul\":1535:1557   */\n      add\n        /* \"#utility.yul\":1514:1567   */\n      tag_45\n      jump\t// in\n    tag_57:\n        /* \"#utility.yul\":1504:1567   */\n      swap2\n      pop\n        /* \"#utility.yul\":1459:1577   */\n      pop\n        /* \"#utility.yul\":930:1584   */\n      swap3\n      pop\n      swap3\n      swap1\n      pop\n      jump\t// out\n        /* \"#utility.yul\":1590:1919   */\n    tag_11:\n        /* \"#utility.yul\":1649:1655   */\n      0x00\n        /* \"#utility.yul\":1698:1700   */\n      0x20\n        /* \"#utility.yul\":1686:1695   */\n      dup3\n        /* \"#utility.yul\":1677:1684   */\n      dup5\n        /* \"#utility.yul\":1673:1696   */\n      sub\n        /* \"#utility.yul\":1669:1701   */\n      slt\n        /* \"#utility.yul\":1666:1785   */\n      iszero\n      tag_59\n      jumpi\n        /* \"#utility.yul\":1704:1783   */\n      tag_60\n      tag_52\n      jump\t// in\n    tag_60:\n        /* \"#utility.yul\":1666:1785   */\n    tag_59:\n        /* \"#utility.yul\":1824:1825   */\n      0x00\n        /* \"#utility.yul\":1849:1902   */\n      tag_61\n        /* \"#utility.yul\":1894:1901   */\n      dup5\n        /* \"#utility.yul\":1885:1891   */\n      dup3\n        /* \"#utility.yul\":1874:1883   */\n      dup6\n        /* \"#utility.yul\":1870:1892   */\n      add\n        /* \"#utility.yul\":1849:1902   */\n      tag_45\n      jump\t// in\n    tag_61:\n        /* \"#utility.yul\":1839:1902   */\n      swap2\n      pop\n        /* \"#utility.yul\":1795:1912   */\n      pop\n        /* \"#utility.yul\":1590:1919   */\n      swap3\n      swap2\n      pop\n      pop\n      jump\t// out\n        /* \"#utility.yul\":1925:2088   */\n    tag_62:\n        /* \"#utility.yul\":2028:2081   */\n      tag_64\n        /* \"#utility.yul\":2075:2080   */\n      dup2\n        /* \"#utility.yul\":2028:2081   */\n      tag_65\n      jump\t// in\n    tag_64:\n        /* \"#utility.yul\":2023:2026   */\n      dup3\n        /* \"#utility.yul\":2016:2082   */\n      mstore\n        /* \"#utility.yul\":1925:2088   */\n      pop\n      pop\n      jump\t// out\n        /* \"#utility.yul\":2094:2458   */\n    tag_66:\n        /* \"#utility.yul\":2182:2185   */\n      0x00\n        /* \"#utility.yul\":2210:2249   */\n      tag_68\n        /* \"#utility.yul\":2243:2248   */\n      dup3\n        /* \"#utility.yul\":2210:2249   */\n      tag_69\n      jump\t// in\n    tag_68:\n        /* \"#utility.yul\":2265:2336   */\n      tag_70\n        /* \"#utility.yul\":2329:2335   */\n      dup2\n        /* \"#utility.yul\":2324:2327   */\n      dup6\n        /* \"#utility.yul\":2265:2336   */\n      tag_71\n      jump\t// in\n    tag_70:\n        /* \"#utility.yul\":2258:2336   */\n      swap4\n      pop\n        /* \"#utility.yul\":2345:2397   */\n      tag_72\n        /* \"#utility.yul\":2390:2396   */\n      dup2\n        /* \"#utility.yul\":2385:2388   */\n      dup6\n        /* \"#utility.yul\":2378:2382   */\n      0x20\n        /* \"#utility.yul\":2371:2376   */\n      dup7\n        /* \"#utility.yul\":2367:2383   */\n      add\n        /* \"#utility.yul\":2345:2397   */\n      tag_73\n      jump\t// in\n    tag_72:\n        /* \"#utility.yul\":2422:2451   */\n      tag_74\n        /* \"#utility.yul\":2444:2450   */\n      dup2\n        /* \"#utility.yul\":2422:2451   */\n      tag_75\n      jump\t// in\n    tag_74:\n        /* \"#utility.yul\":2417:2420   */\n      dup5\n        /* \"#utility.yul\":2413:2452   */\n      add\n        /* \"#utility.yul\":2406:2452   */\n      swap2\n      pop\n        /* \"#utility.yul\":2186:2458   */\n      pop\n        /* \"#utility.yul\":2094:2458   */\n      swap3\n      swap2\n      pop\n      pop\n      jump\t// out\n        /* \"#utility.yul\":2464:2582   */\n    tag_76:\n        /* \"#utility.yul\":2551:2575   */\n      tag_78\n        /* \"#utility.yul\":2569:2574   */\n      dup2\n        /* \"#utility.yul\":2551:2575   */\n      tag_79\n      jump\t// in\n    tag_78:\n        /* \"#utility.yul\":2546:2549   */\n      dup3\n        /* \"#utility.yul\":2539:2576   */\n      mstore\n        /* \"#utility.yul\":2464:2582   */\n      pop\n      pop\n      jump\t// out\n        /* \"#utility.yul\":2588:3153   */\n    tag_14:\n        /* \"#utility.yul\":2773:2777   */\n      0x00\n        /* \"#utility.yul\":2811:2813   */\n      0x60\n        /* \"#utility.yul\":2800:2809   */\n      dup3\n        /* \"#utility.yul\":2796:2814   */\n      add\n        /* \"#utility.yul\":2788:2814   */\n      swap1\n      pop\n        /* \"#utility.yul\":2824:2911   */\n      tag_81\n        /* \"#utility.yul\":2908:2909   */\n      0x00\n        /* \"#utility.yul\":2897:2906   */\n      dup4\n        /* \"#utility.yul\":2893:2910   */\n      add\n        /* \"#utility.yul\":2884:2890   */\n      dup7\n        /* \"#utility.yul\":2824:2911   */\n      tag_62\n      jump\t// in\n    tag_81:\n        /* \"#utility.yul\":2958:2967   */\n      dup2\n        /* \"#utility.yul\":2952:2956   */\n      dup2\n        /* \"#utility.yul\":2948:2968   */\n      sub\n        /* \"#utility.yul\":2943:2945   */\n      0x20\n        /* \"#utility.yul\":2932:2941   */\n      dup4\n        /* \"#utility.yul\":2928:2946   */\n      add\n        /* \"#utility.yul\":2921:2969   */\n      mstore\n        /* \"#utility.yul\":2986:3064   */\n      tag_82\n        /* \"#utility.yul\":3059:3063   */\n      dup2\n        /* \"#utility.yul\":3050:3056   */\n      dup6\n        /* \"#utility.yul\":2986:3064   */\n      tag_66\n      jump\t// in\n    tag_82:\n        /* \"#utility.yul\":2978:3064   */\n      swap1\n      pop\n        /* \"#utility.yul\":3074:3146   */\n      tag_83\n        /* \"#utility.yul\":3142:3144   */\n      0x40\n        /* \"#utility.yul\":3131:3140   */\n      dup4\n        /* \"#utility.yul\":3127:3145   */\n      add\n        /* \"#utility.yul\":3118:3124   */\n      dup5\n        /* \"#utility.yul\":3074:3146   */\n      tag_76\n      jump\t// in\n    tag_83:\n        /* \"#utility.yul\":2588:3153   */\n      swap5\n      swap4\n      pop\n      pop\n      pop\n      pop\n      jump\t// out\n        /* \"#utility.yul\":3159:3288   */\n    tag_33:\n        /* \"#utility.yul\":3193:3199   */\n      0x00\n        /* \"#utility.yul\":3220:3240   */\n      tag_85\n      tag_86\n      jump\t// in\n    tag_85:\n        /* \"#utility.yul\":3210:3240   */\n      swap1\n      pop\n        /* \"#utility.yul\":3249:3282   */\n      tag_87\n        /* \"#utility.yul\":3277:3281   */\n      dup3\n        /* \"#utility.yul\":3269:3275   */\n      dup3\n        /* \"#utility.yul\":3249:3282   */\n      tag_88\n      jump\t// in\n    tag_87:\n        /* \"#utility.yul\":3159:3288   */\n      swap2\n      swap1\n      pop\n      jump\t// out\n        /* \"#utility.yul\":3294:3369   */\n    tag_86:\n        /* \"#utility.yul\":3327:3333   */\n      0x00\n        /* \"#utility.yul\":3360:3362   */\n      0x40\n        /* \"#utility.yul\":3354:3363   */\n      mload\n        /* \"#utility.yul\":3344:3363   */\n      swap1\n      pop\n        /* \"#utility.yul\":3294:3369   */\n      swap1\n      jump\t// out\n        /* \"#utility.yul\":3375:3683   */\n    tag_32:\n        /* \"#utility.yul\":3437:3441   */\n      0x00\n        /* \"#utility.yul\":3527:3545   */\n      0xffffffffffffffff\n        /* \"#utility.yul\":3519:3525   */\n      dup3\n        /* \"#utility.yul\":3516:3546   */\n      gt\n        /* \"#utility.yul\":3513:3569   */\n      iszero\n      tag_91\n      jumpi\n        /* \"#utility.yul\":3549:3567   */\n      tag_92\n      tag_93\n      jump\t// in\n    tag_92:\n        /* \"#utility.yul\":3513:3569   */\n    tag_91:\n        /* \"#utility.yul\":3587:3616   */\n      tag_94\n        /* \"#utility.yul\":3609:3615   */\n      dup3\n        /* \"#utility.yul\":3587:3616   */\n      tag_75\n      jump\t// in\n    tag_94:\n        /* \"#utility.yul\":3579:3616   */\n      swap1\n      pop\n        /* \"#utility.yul\":3671:3675   */\n      0x20\n        /* \"#utility.yul\":3665:3669   */\n      dup2\n        /* \"#utility.yul\":3661:3676   */\n      add\n        /* \"#utility.yul\":3653:3676   */\n      swap1\n      pop\n        /* \"#utility.yul\":3375:3683   */\n      swap2\n      swap1\n      pop\n      jump\t// out\n        /* \"#utility.yul\":3689:3788   */\n    tag_69:\n        /* \"#utility.yul\":3741:3747   */\n      0x00\n        /* \"#utility.yul\":3775:3780   */\n      dup2\n        /* \"#utility.yul\":3769:3781   */\n      mload\n        /* \"#utility.yul\":3759:3781   */\n      swap1\n      pop\n        /* \"#utility.yul\":3689:3788   */\n      swap2\n      swap1\n      pop\n      jump\t// out\n        /* \"#utility.yul\":3794:3963   */\n    tag_71:\n        /* \"#utility.yul\":3878:3889   */\n      0x00\n        /* \"#utility.yul\":3912:3918   */\n      dup3\n        /* \"#utility.yul\":3907:3910   */\n      dup3\n        /* \"#utility.yul\":3900:3919   */\n      mstore\n        /* \"#utility.yul\":3952:3956   */\n      0x20\n        /* \"#utility.yul\":3947:3950   */\n      dup3\n        /* \"#utility.yul\":3943:3957   */\n      add\n        /* \"#utility.yul\":3928:3957   */\n      swap1\n      pop\n        /* \"#utility.yul\":3794:3963   */\n      swap3\n      swap2\n      pop\n      pop\n      jump\t// out\n        /* \"#utility.yul\":3969:4116   */\n    tag_97:\n        /* \"#utility.yul\":4024:4031   */\n      0x00\n        /* \"#utility.yul\":4053:4058   */\n      dup2\n        /* \"#utility.yul\":4042:4058   */\n      swap1\n      pop\n        /* \"#utility.yul\":4059:4110   */\n      tag_99\n        /* \"#utility.yul\":4104:4109   */\n      dup3\n        /* \"#utility.yul\":4059:4110   */\n      tag_100\n      jump\t// in\n    tag_99:\n        /* \"#utility.yul\":3969:4116   */\n      swap2\n      swap1\n      pop\n      jump\t// out\n        /* \"#utility.yul\":4122:4199   */\n    tag_79:\n        /* \"#utility.yul\":4159:4166   */\n      0x00\n        /* \"#utility.yul\":4188:4193   */\n      dup2\n        /* \"#utility.yul\":4177:4193   */\n      swap1\n      pop\n        /* \"#utility.yul\":4122:4199   */\n      swap2\n      swap1\n      pop\n      jump\t// out\n        /* \"#utility.yul\":4205:4352   */\n    tag_65:\n        /* \"#utility.yul\":4271:4280   */\n      0x00\n        /* \"#utility.yul\":4304:4346   */\n      tag_103\n        /* \"#utility.yul\":4340:4345   */\n      dup3\n        /* \"#utility.yul\":4304:4346   */\n      tag_97\n      jump\t// in\n    tag_103:\n        /* \"#utility.yul\":4291:4346   */\n      swap1\n      pop\n        /* \"#utility.yul\":4205:4352   */\n      swap2\n      swap1\n      pop\n      jump\t// out\n        /* \"#utility.yul\":4358:4512   */\n    tag_38:\n        /* \"#utility.yul\":4442:4448   */\n      dup3\n        /* \"#utility.yul\":4437:4440   */\n      dup2\n        /* \"#utility.yul\":4432:4435   */\n      dup4\n        /* \"#utility.yul\":4419:4449   */\n      calldatacopy\n        /* \"#utility.yul\":4504:4505   */\n      0x00\n        /* \"#utility.yul\":4495:4501   */\n      dup4\n        /* \"#utility.yul\":4490:4493   */\n      dup4\n        /* \"#utility.yul\":4486:4502   */\n      add\n        /* \"#utility.yul\":4479:4506   */\n      mstore\n        /* \"#utility.yul\":4358:4512   */\n      pop\n      pop\n      pop\n      jump\t// out\n        /* \"#utility.yul\":4518:4825   */\n    tag_73:\n        /* \"#utility.yul\":4586:4587   */\n      0x00\n        /* \"#utility.yul\":4596:4709   */\n    tag_106:\n        /* \"#utility.yul\":4610:4616   */\n      dup4\n        /* \"#utility.yul\":4607:4608   */\n      dup2\n        /* \"#utility.yul\":4604:4617   */\n      lt\n        /* \"#utility.yul\":4596:4709   */\n      iszero\n      tag_108\n      jumpi\n        /* \"#utility.yul\":4695:4696   */\n      dup1\n        /* \"#utility.yul\":4690:4693   */\n      dup3\n        /* \"#utility.yul\":4686:4697   */\n      add\n        /* \"#utility.yul\":4680:4698   */\n      mload\n        /* \"#utility.yul\":4676:4677   */\n      dup2\n        /* \"#utility.yul\":4671:4674   */\n      dup5\n        /* \"#utility.yul\":4667:4678   */\n      add\n        /* \"#utility.yul\":4660:4699   */\n      mstore\n        /* \"#utility.yul\":4632:4634   */\n      0x20\n        /* \"#utility.yul\":4629:4630   */\n      dup2\n        /* \"#utility.yul\":4625:4635   */\n      add\n        /* \"#utility.yul\":4620:4635   */\n      swap1\n      pop\n        /* \"#utility.yul\":4596:4709   */\n      jump(tag_106)\n    tag_108:\n        /* \"#utility.yul\":4727:4733   */\n      dup4\n        /* \"#utility.yul\":4724:4725   */\n      dup2\n        /* \"#utility.yul\":4721:4734   */\n      gt\n        /* \"#utility.yul\":4718:4819   */\n      iszero\n      tag_109\n      jumpi\n        /* \"#utility.yul\":4807:4808   */\n      0x00\n        /* \"#utility.yul\":4798:4804   */\n      dup5\n        /* \"#utility.yul\":4793:4796   */\n      dup5\n        /* \"#utility.yul\":4789:4805   */\n      add\n        /* \"#utility.yul\":4782:4809   */\n      mstore\n        /* \"#utility.yul\":4718:4819   */\n    tag_109:\n        /* \"#utility.yul\":4567:4825   */\n      pop\n        /* \"#utility.yul\":4518:4825   */\n      pop\n      pop\n      pop\n      jump\t// out\n        /* \"#utility.yul\":4831:5151   */\n    tag_19:\n        /* \"#utility.yul\":4875:4881   */\n      0x00\n        /* \"#utility.yul\":4912:4913   */\n      0x02\n        /* \"#utility.yul\":4906:4910   */\n      dup3\n        /* \"#utility.yul\":4902:4914   */\n      div\n        /* \"#utility.yul\":4892:4914   */\n      swap1\n      pop\n        /* \"#utility.yul\":4959:4960   */\n      0x01\n        /* \"#utility.yul\":4953:4957   */\n      dup3\n        /* \"#utility.yul\":4949:4961   */\n      and\n        /* \"#utility.yul\":4980:4998   */\n      dup1\n        /* \"#utility.yul\":4970:5051   */\n      tag_111\n      jumpi\n        /* \"#utility.yul\":5036:5040   */\n      0x7f\n        /* \"#utility.yul\":5028:5034   */\n      dup3\n        /* \"#utility.yul\":5024:5041   */\n      and\n        /* \"#utility.yul\":5014:5041   */\n      swap2\n      pop\n        /* \"#utility.yul\":4970:5051   */\n    tag_111:\n        /* \"#utility.yul\":5098:5100   */\n      0x20\n        /* \"#utility.yul\":5090:5096   */\n      dup3\n        /* \"#utility.yul\":5087:5101   */\n      lt\n        /* \"#utility.yul\":5067:5085   */\n      dup2\n        /* \"#utility.yul\":5064:5102   */\n      eq\n        /* \"#utility.yul\":5061:5145   */\n      iszero\n      tag_112\n      jumpi\n        /* \"#utility.yul\":5117:5135   */\n      tag_113\n      tag_114\n      jump\t// in\n    tag_113:\n        /* \"#utility.yul\":5061:5145   */\n    tag_112:\n        /* \"#utility.yul\":4882:5151   */\n      pop\n        /* \"#utility.yul\":4831:5151   */\n      swap2\n      swap1\n      pop\n      jump\t// out\n        /* \"#utility.yul\":5157:5438   */\n    tag_88:\n        /* \"#utility.yul\":5240:5267   */\n      tag_116\n        /* \"#utility.yul\":5262:5266   */\n      dup3\n        /* \"#utility.yul\":5240:5267   */\n      tag_75\n      jump\t// in\n    tag_116:\n        /* \"#utility.yul\":5232:5238   */\n      dup2\n        /* \"#utility.yul\":5228:5268   */\n      add\n        /* \"#utility.yul\":5370:5376   */\n      dup2\n        /* \"#utility.yul\":5358:5368   */\n      dup2\n        /* \"#utility.yul\":5355:5377   */\n      lt\n        /* \"#utility.yul\":5334:5352   */\n      0xffffffffffffffff\n        /* \"#utility.yul\":5322:5332   */\n      dup3\n        /* \"#utility.yul\":5319:5353   */\n      gt\n        /* \"#utility.yul\":5316:5378   */\n      or\n        /* \"#utility.yul\":5313:5401   */\n      iszero\n      tag_117\n      jumpi\n        /* \"#utility.yul\":5381:5399   */\n      tag_118\n      tag_93\n      jump\t// in\n    tag_118:\n        /* \"#utility.yul\":5313:5401   */\n    tag_117:\n        /* \"#utility.yul\":5421:5431   */\n      dup1\n        /* \"#utility.yul\":5417:5419   */\n      0x40\n        /* \"#utility.yul\":5410:5432   */\n      mstore\n        /* \"#utility.yul\":5200:5438   */\n      pop\n        /* \"#utility.yul\":5157:5438   */\n      pop\n      pop\n      jump\t// out\n        /* \"#utility.yul\":5444:5624   */\n    tag_26:\n        /* \"#utility.yul\":5492:5569   */\n      0x4e487b7100000000000000000000000000000000000000000000000000000000\n        /* \"#utility.yul\":5489:5490   */\n      0x00\n        /* \"#utility.yul\":5482:5570   */\n      mstore\n        /* \"#utility.yul\":5589:5593   */\n      0x21\n        /* \"#utility.yul\":5586:5587   */\n      0x04\n        /* \"#utility.yul\":5579:5594   */\n      mstore\n        /* \"#utility.yul\":5613:5617   */\n      0x24\n        /* \"#utility.yul\":5610:5611   */\n      0x00\n        /* \"#utility.yul\":5603:5618   */\n      revert\n        /* \"#utility.yul\":5630:5810   */\n    tag_114:\n        /* \"#utility.yul\":5678:5755   */\n      0x4e487b7100000000000000000000000000000000000000000000000000000000\n        /* \"#utility.yul\":5675:5676   */\n      0x00\n        /* \"#utility.yul\":5668:5756   */\n      mstore\n        /* \"#utility.yul\":5775:5779   */\n      0x22\n        /* \"#utility.yul\":5772:5773   */\n      0x04\n        /* \"#utility.yul\":5765:5780   */\n      mstore\n        /* \"#utility.yul\":5799:5803   */\n      0x24\n        /* \"#utility.yul\":5796:5797   */\n      0x00\n        /* \"#utility.yul\":5789:5804   */\n      revert\n        /* \"#utility.yul\":5816:5996   */\n    tag_93:\n        /* \"#utility.yul\":5864:5941   */\n      0x4e487b7100000000000000000000000000000000000000000000000000000000\n        /* \"#utility.yul\":5861:5862   */\n      0x00\n        /* \"#utility.yul\":5854:5942   */\n      mstore\n        /* \"#utility.yul\":5961:5965   */\n      0x41\n        /* \"#utility.yul\":5958:5959   */\n      0x04\n        /* \"#utility.yul\":5951:5966   */\n      mstore\n        /* \"#utility.yul\":5985:5989   */\n      0x24\n        /* \"#utility.yul\":5982:5983   */\n      0x00\n        /* \"#utility.yul\":5975:5990   */\n      revert\n        /* \"#utility.yul\":6002:6119   */\n    tag_43:\n        /* \"#utility.yul\":6111:6112   */\n      0x00\n        /* \"#utility.yul\":6108:6109   */\n      dup1\n        /* \"#utility.yul\":6101:6113   */\n      revert\n        /* \"#utility.yul\":6125:6242   */\n    tag_36:\n        /* \"#utility.yul\":6234:6235   */\n      0x00\n        /* \"#utility.yul\":6231:6232   */\n      dup1\n        /* \"#utility.yul\":6224:6236   */\n      revert\n        /* \"#utility.yul\":6248:6365   */\n    tag_55:\n        /* \"#utility.yul\":6357:6358   */\n      0x00\n        /* \"#utility.yul\":6354:6355   */\n      dup1\n        /* \"#utility.yul\":6347:6359   */\n      revert\n        /* \"#utility.yul\":6371:6488   */\n    tag_52:\n        /* \"#utility.yul\":6480:6481   */\n      0x00\n        /* \"#utility.yul\":6477:6478   */\n      dup1\n        /* \"#utility.yul\":6470:6482   */\n      revert\n        /* \"#utility.yul\":6494:6596   */\n    tag_75:\n        /* \"#utility.yul\":6535:6541   */\n      0x00\n        /* \"#utility.yul\":6586:6588   */\n      0x1f\n        /* \"#utility.yul\":6582:6589   */\n      not\n        /* \"#utility.yul\":6577:6579   */\n      0x1f\n        /* \"#utility.yul\":6570:6575   */\n      dup4\n        /* \"#utility.yul\":6566:6580   */\n      add\n        /* \"#utility.yul\":6562:6590   */\n      and\n        /* \"#utility.yul\":6552:6590   */\n      swap1\n      pop\n        /* \"#utility.yul\":6494:6596   */\n      swap2\n      swap1\n      pop\n      jump\t// out\n        /* \"#utility.yul\":6602:6725   */\n    tag_100:\n        /* \"#utility.yul\":6693:6694   */\n      0x03\n        /* \"#utility.yul\":6686:6691   */\n      dup2\n        /* \"#utility.yul\":6683:6695   */\n      lt\n        /* \"#utility.yul\":6673:6719   */\n      tag_128\n      jumpi\n        /* \"#utility.yul\":6699:6717   */\n      tag_129\n      tag_26\n      jump\t// in\n    tag_129:\n        /* \"#utility.yul\":6673:6719   */\n    tag_128:\n        /* \"#utility.yul\":6602:6725   */\n      pop\n      jump\t// out\n        /* \"#utility.yul\":6731:6853   */\n    tag_48:\n        /* \"#utility.yul\":6804:6828   */\n      tag_131\n        /* \"#utility.yul\":6822:6827   */\n      dup2\n        /* \"#utility.yul\":6804:6828   */\n      tag_79\n      jump\t// in\n    tag_131:\n        /* \"#utility.yul\":6797:6802   */\n      dup2\n        /* \"#utility.yul\":6794:6829   */\n      eq\n        /* \"#utility.yul\":6784:6847   */\n      tag_132\n      jumpi\n        /* \"#utility.yul\":6843:6844   */\n      0x00\n        /* \"#utility.yul\":6840:6841   */\n      dup1\n        /* \"#utility.yul\":6833:6845   */\n      revert\n        /* \"#utility.yul\":6784:6847   */\n    tag_132:\n        /* \"#utility.yul\":6731:6853   */\n      pop\n      jump\t// out\n\n    auxdata: 0xa2646970667358221220e15494b0e6e76f08adc466f2477d10faca062e3dfc47169ef8bb1b98be4aa18d64736f6c63430008070033\n}\n",
				"bytecode": {
					"linkReferences": {},
					"object": "608060405234801561001057600080fd5b50610597806100206000396000f3fe608060405234801561001057600080fd5b50600436106100365760003560e01c80638c5517421461003b578063bfb231d214610057575b600080fd5b61005560048036038101906100509190610220565b610089565b005b610071600480360381019061006c919061027c565b6100a9565b60405161008093929190610300565b60405180910390f35b610091610168565b82816020018190525081816040018181525050505050565b60006020528060005260406000206000915090508060000160009054906101000a900460ff16908060010180546100df90610421565b80601f016020809104026020016040519081016040528092919081815260200182805461010b90610421565b80156101585780601f1061012d57610100808354040283529160200191610158565b820191906000526020600020905b81548152906001019060200180831161013b57829003601f168201915b5050505050908060020154905083565b60405180606001604052806000600281111561018757610186610484565b5b815260200160608152602001600081525090565b60006101ae6101a984610363565b61033e565b9050828152602081018484840111156101ca576101c9610516565b5b6101d58482856103df565b509392505050565b600082601f8301126101f2576101f1610511565b5b813561020284826020860161019b565b91505092915050565b60008135905061021a8161054a565b92915050565b6000806040838503121561023757610236610520565b5b600083013567ffffffffffffffff8111156102555761025461051b565b5b610261858286016101dd565b92505060206102728582860161020b565b9150509250929050565b60006020828403121561029257610291610520565b5b60006102a08482850161020b565b91505092915050565b6102b2816103cd565b82525050565b60006102c382610394565b6102cd818561039f565b93506102dd8185602086016103ee565b6102e681610525565b840191505092915050565b6102fa816103c3565b82525050565b600060608201905061031560008301866102a9565b818103602083015261032781856102b8565b905061033660408301846102f1565b949350505050565b6000610348610359565b90506103548282610453565b919050565b6000604051905090565b600067ffffffffffffffff82111561037e5761037d6104e2565b5b61038782610525565b9050602081019050919050565b600081519050919050565b600082825260208201905092915050565b60008190506103be82610536565b919050565b6000819050919050565b60006103d8826103b0565b9050919050565b82818337600083830152505050565b60005b8381101561040c5780820151818401526020810190506103f1565b8381111561041b576000848401525b50505050565b6000600282049050600182168061043957607f821691505b6020821081141561044d5761044c6104b3565b5b50919050565b61045c82610525565b810181811067ffffffffffffffff8211171561047b5761047a6104e2565b5b80604052505050565b7f4e487b7100000000000000000000000000000000000000000000000000000000600052602160045260246000fd5b7f4e487b7100000000000000000000000000000000000000000000000000000000600052602260045260246000fd5b7f4e487b7100000000000000000000000000000000000000000000000000000000600052604160045260246000fd5b600080fd5b600080fd5b600080fd5b600080fd5b6000601f19601f8301169050919050565b6003811061054757610546610484565b5b50565b610553816103c3565b811461055e57600080fd5b5056fea2646970667358221220e15494b0e6e76f08adc466f2477d10faca062e3dfc47169ef8bb1b98be4aa18d64736f6c63430008070033",
					"opcodes": "PUSH1 0x80 PUSH1 0x40 MSTORE CALLVALUE DUP1 ISZERO PUSH2 0x10 JUMPI PUSH1 0x0 DUP1 REVERT JUMPDEST POP PUSH2 0x597 DUP1 PUSH2 0x20 PUSH1 0x0 CODECOPY PUSH1 0x0 RETURN INVALID PUSH1 0x80 PUSH1 0x40 MSTORE CALLVALUE DUP1 ISZERO PUSH2 0x10 JUMPI PUSH1 0x0 DUP1 REVERT JUMPDEST POP PUSH1 0x4 CALLDATASIZE LT PUSH2 0x36 JUMPI PUSH1 0x0 CALLDATALOAD PUSH1 0xE0 SHR DUP1 PUSH4 0x8C551742 EQ PUSH2 0x3B JUMPI DUP1 PUSH4 0xBFB231D2 EQ PUSH2 0x57 JUMPI JUMPDEST PUSH1 0x0 DUP1 REVERT JUMPDEST PUSH2 0x55 PUSH1 0x4 DUP1 CALLDATASIZE SUB DUP2 ADD SWAP1 PUSH2 0x50 SWAP2 SWAP1 PUSH2 0x220 JUMP JUMPDEST PUSH2 0x89 JUMP JUMPDEST STOP JUMPDEST PUSH2 0x71 PUSH1 0x4 DUP1 CALLDATASIZE SUB DUP2 ADD SWAP1 PUSH2 0x6C SWAP2 SWAP1 PUSH2 0x27C JUMP JUMPDEST PUSH2 0xA9 JUMP JUMPDEST PUSH1 0x40 MLOAD PUSH2 0x80 SWAP4 SWAP3 SWAP2 SWAP1 PUSH2 0x300 JUMP JUMPDEST PUSH1 0x40 MLOAD DUP1 SWAP2 SUB SWAP1 RETURN JUMPDEST PUSH2 0x91 PUSH2 0x168 JUMP JUMPDEST DUP3 DUP2 PUSH1 0x20 ADD DUP2 SWAP1 MSTORE POP DUP2 DUP2 PUSH1 0x40 ADD DUP2 DUP2 MSTORE POP POP POP POP POP JUMP JUMPDEST PUSH1 0x0 PUSH1 0x20 MSTORE DUP1 PUSH1 0x0 MSTORE PUSH1 0x40 PUSH1 0x0 KECCAK256 PUSH1 0x0 SWAP2 POP SWAP1 POP DUP1 PUSH1 0x0 ADD PUSH1 0x0 SWAP1 SLOAD SWAP1 PUSH2 0x100 EXP SWAP1 DIV PUSH1 0xFF AND SWAP1 DUP1 PUSH1 0x1 ADD DUP1 SLOAD PUSH2 0xDF SWAP1 PUSH2 0x421 JUMP JUMPDEST DUP1 PUSH1 0x1F ADD PUSH1 0x20 DUP1 SWAP2 DIV MUL PUSH1 0x20 ADD PUSH1 0x40 MLOAD SWAP1 DUP2 ADD PUSH1 0x40 MSTORE DUP1 SWAP3 SWAP2 SWAP1 DUP2 DUP2 MSTORE PUSH1 0x20 ADD DUP3 DUP1 SLOAD PUSH2 0x10B SWAP1 PUSH2 0x421 JUMP JUMPDEST DUP1 ISZERO PUSH2 0x158 JUMPI DUP1 PUSH1 0x1F LT PUSH2 0x12D JUMPI PUSH2 0x100 DUP1 DUP4 SLOAD DIV MUL DUP4 MSTORE SWAP2 PUSH1 0x20 ADD SWAP2 PUSH2 0x158 JUMP JUMPDEST DUP3 ADD SWAP2 SWAP1 PUSH1 0x0 MSTORE PUSH1 0x20 PUSH1 0x0 KECCAK256 SWAP1 JUMPDEST DUP2 SLOAD DUP2 MSTORE SWAP1 PUSH1 0x1 ADD SWAP1 PUSH1 0x20 ADD DUP1 DUP4 GT PUSH2 0x13B JUMPI DUP3 SWAP1 SUB PUSH1 0x1F AND DUP3 ADD SWAP2 JUMPDEST POP POP POP POP POP SWAP1 DUP1 PUSH1 0x2 ADD SLOAD SWAP1 POP DUP4 JUMP JUMPDEST PUSH1 0x40 MLOAD DUP1 PUSH1 0x60 ADD PUSH1 0x40 MSTORE DUP1 PUSH1 0x0 PUSH1 0x2 DUP2 GT ISZERO PUSH2 0x187 JUMPI PUSH2 0x186 PUSH2 0x484 JUMP JUMPDEST JUMPDEST DUP2 MSTORE PUSH1 0x20 ADD PUSH1 0x60 DUP2 MSTORE PUSH1 0x20 ADD PUSH1 0x0 DUP2 MSTORE POP SWAP1 JUMP JUMPDEST PUSH1 0x0 PUSH2 0x1AE PUSH2 0x1A9 DUP5 PUSH2 0x363 JUMP JUMPDEST PUSH2 0x33E JUMP JUMPDEST SWAP1 POP DUP3 DUP2 MSTORE PUSH1 0x20 DUP2 ADD DUP5 DUP5 DUP5 ADD GT ISZERO PUSH2 0x1CA JUMPI PUSH2 0x1C9 PUSH2 0x516 JUMP JUMPDEST JUMPDEST PUSH2 0x1D5 DUP5 DUP3 DUP6 PUSH2 0x3DF JUMP JUMPDEST POP SWAP4 SWAP3 POP POP POP JUMP JUMPDEST PUSH1 0x0 DUP3 PUSH1 0x1F DUP4 ADD SLT PUSH2 0x1F2 JUMPI PUSH2 0x1F1 PUSH2 0x511 JUMP JUMPDEST JUMPDEST DUP2 CALLDATALOAD PUSH2 0x202 DUP5 DUP3 PUSH1 0x20 DUP7 ADD PUSH2 0x19B JUMP JUMPDEST SWAP2 POP POP SWAP3 SWAP2 POP POP JUMP JUMPDEST PUSH1 0x0 DUP2 CALLDATALOAD SWAP1 POP PUSH2 0x21A DUP2 PUSH2 0x54A JUMP JUMPDEST SWAP3 SWAP2 POP POP JUMP JUMPDEST PUSH1 0x0 DUP1 PUSH1 0x40 DUP4 DUP6 SUB SLT ISZERO PUSH2 0x237 JUMPI PUSH2 0x236 PUSH2 0x520 JUMP JUMPDEST JUMPDEST PUSH1 0x0 DUP4 ADD CALLDATALOAD PUSH8 0xFFFFFFFFFFFFFFFF DUP2 GT ISZERO PUSH2 0x255 JUMPI PUSH2 0x254 PUSH2 0x51B JUMP JUMPDEST JUMPDEST PUSH2 0x261 DUP6 DUP3 DUP7 ADD PUSH2 0x1DD JUMP JUMPDEST SWAP3 POP POP PUSH1 0x20 PUSH2 0x272 DUP6 DUP3 DUP7 ADD PUSH2 0x20B JUMP JUMPDEST SWAP2 POP POP SWAP3 POP SWAP3 SWAP1 POP JUMP JUMPDEST PUSH1 0x0 PUSH1 0x20 DUP3 DUP5 SUB SLT ISZERO PUSH2 0x292 JUMPI PUSH2 0x291 PUSH2 0x520 JUMP JUMPDEST JUMPDEST PUSH1 0x0 PUSH2 0x2A0 DUP5 DUP3 DUP6 ADD PUSH2 0x20B JUMP JUMPDEST SWAP2 POP POP SWAP3 SWAP2 POP POP JUMP JUMPDEST PUSH2 0x2B2 DUP2 PUSH2 0x3CD JUMP JUMPDEST DUP3 MSTORE POP POP JUMP JUMPDEST PUSH1 0x0 PUSH2 0x2C3 DUP3 PUSH2 0x394 JUMP JUMPDEST PUSH2 0x2CD DUP2 DUP6 PUSH2 0x39F JUMP JUMPDEST SWAP4 POP PUSH2 0x2DD DUP2 DUP6 PUSH1 0x20 DUP7 ADD PUSH2 0x3EE JUMP JUMPDEST PUSH2 0x2E6 DUP2 PUSH2 0x525 JUMP JUMPDEST DUP5 ADD SWAP2 POP POP SWAP3 SWAP2 POP POP JUMP JUMPDEST PUSH2 0x2FA DUP2 PUSH2 0x3C3 JUMP JUMPDEST DUP3 MSTORE POP POP JUMP JUMPDEST PUSH1 0x0 PUSH1 0x60 DUP3 ADD SWAP1 POP PUSH2 0x315 PUSH1 0x0 DUP4 ADD DUP7 PUSH2 0x2A9 JUMP JUMPDEST DUP2 DUP2 SUB PUSH1 0x20 DUP4 ADD MSTORE PUSH2 0x327 DUP2 DUP6 PUSH2 0x2B8 JUMP JUMPDEST SWAP1 POP PUSH2 0x336 PUSH1 0x40 DUP4 ADD DUP5 PUSH2 0x2F1 JUMP JUMPDEST SWAP5 SWAP4 POP POP POP POP JUMP JUMPDEST PUSH1 0x0 PUSH2 0x348 PUSH2 0x359 JUMP JUMPDEST SWAP1 POP PUSH2 0x354 DUP3 DUP3 PUSH2 0x453 JUMP JUMPDEST SWAP2 SWAP1 POP JUMP JUMPDEST PUSH1 0x0 PUSH1 0x40 MLOAD SWAP1 POP SWAP1 JUMP JUMPDEST PUSH1 0x0 PUSH8 0xFFFFFFFFFFFFFFFF DUP3 GT ISZERO PUSH2 0x37E JUMPI PUSH2 0x37D PUSH2 0x4E2 JUMP JUMPDEST JUMPDEST PUSH2 0x387 DUP3 PUSH2 0x525 JUMP JUMPDEST SWAP1 POP PUSH1 0x20 DUP2 ADD SWAP1 POP SWAP2 SWAP1 POP JUMP JUMPDEST PUSH1 0x0 DUP2 MLOAD SWAP1 POP SWAP2 SWAP1 POP JUMP JUMPDEST PUSH1 0x0 DUP3 DUP3 MSTORE PUSH1 0x20 DUP3 ADD SWAP1 POP SWAP3 SWAP2 POP POP JUMP JUMPDEST PUSH1 0x0 DUP2 SWAP1 POP PUSH2 0x3BE DUP3 PUSH2 0x536 JUMP JUMPDEST SWAP2 SWAP1 POP JUMP JUMPDEST PUSH1 0x0 DUP2 SWAP1 POP SWAP2 SWAP1 POP JUMP JUMPDEST PUSH1 0x0 PUSH2 0x3D8 DUP3 PUSH2 0x3B0 JUMP JUMPDEST SWAP1 POP SWAP2 SWAP1 POP JUMP JUMPDEST DUP3 DUP2 DUP4 CALLDATACOPY PUSH1 0x0 DUP4 DUP4 ADD MSTORE POP POP POP JUMP JUMPDEST PUSH1 0x0 JUMPDEST DUP4 DUP2 LT ISZERO PUSH2 0x40C JUMPI DUP1 DUP3 ADD MLOAD DUP2 DUP5 ADD MSTORE PUSH1 0x20 DUP2 ADD SWAP1 POP PUSH2 0x3F1 JUMP JUMPDEST DUP4 DUP2 GT ISZERO PUSH2 0x41B JUMPI PUSH1 0x0 DUP5 DUP5 ADD MSTORE JUMPDEST POP POP POP POP JUMP JUMPDEST PUSH1 0x0 PUSH1 0x2 DUP3 DIV SWAP1 POP PUSH1 0x1 DUP3 AND DUP1 PUSH2 0x439 JUMPI PUSH1 0x7F DUP3 AND SWAP2 POP JUMPDEST PUSH1 0x20 DUP3 LT DUP2 EQ ISZERO PUSH2 0x44D JUMPI PUSH2 0x44C PUSH2 0x4B3 JUMP JUMPDEST JUMPDEST POP SWAP2 SWAP1 POP JUMP JUMPDEST PUSH2 0x45C DUP3 PUSH2 0x525 JUMP JUMPDEST DUP2 ADD DUP2 DUP2 LT PUSH8 0xFFFFFFFFFFFFFFFF DUP3 GT OR ISZERO PUSH2 0x47B JUMPI PUSH2 0x47A PUSH2 0x4E2 JUMP JUMPDEST JUMPDEST DUP1 PUSH1 0x40 MSTORE POP POP POP JUMP JUMPDEST PUSH32 0x4E487B7100000000000000000000000000000000000000000000000000000000 PUSH1 0x0 MSTORE PUSH1 0x21 PUSH1 0x4 MSTORE PUSH1 0x24 PUSH1 0x0 REVERT JUMPDEST PUSH32 0x4E487B7100000000000000000000000000000000000000000000000000000000 PUSH1 0x0 MSTORE PUSH1 0x22 PUSH1 0x4 MSTORE PUSH1 0x24 PUSH1 0x0 REVERT JUMPDEST PUSH32 0x4E487B7100000000000000000000000000000000000000000000000000000000 PUSH1 0x0 MSTORE PUSH1 0x41 PUSH1 0x4 MSTORE PUSH1 0x24 PUSH1 0x0 REVERT JUMPDEST PUSH1 0x0 DUP1 REVERT JUMPDEST PUSH1 0x0 DUP1 REVERT JUMPDEST PUSH1 0x0 DUP1 REVERT JUMPDEST PUSH1 0x0 DUP1 REVERT JUMPDEST PUSH1 0x0 PUSH1 0x1F NOT PUSH1 0x1F DUP4 ADD AND SWAP1 POP SWAP2 SWAP1 POP JUMP JUMPDEST PUSH1 0x3 DUP2 LT PUSH2 0x547 JUMPI PUSH2 0x546 PUSH2 0x484 JUMP JUMPDEST JUMPDEST POP JUMP JUMPDEST PUSH2 0x553 DUP2 PUSH2 0x3C3 JUMP JUMPDEST DUP2 EQ PUSH2 0x55E JUMPI PUSH1 0x0 DUP1 REVERT JUMPDEST POP JUMP INVALID LOG2 PUSH5 0x6970667358 0x22 SLT KECCAK256 0xE1 SLOAD SWAP5 0xB0 0xE6 0xE7 PUSH16 0x8ADC466F2477D10FACA062E3DFC4716 SWAP15 0xF8 0xBB SHL SWAP9 0xBE 0x4A LOG1 DUP14 PUSH5 0x736F6C6343 STOP ADDMOD SMOD STOP CALLER "
				},
				"gasEstimates": {
					"creation": {
						"codeDepositCost": "286200",
						"executionCost": "324",
						"totalCost": "286524"
					},
					"external": {
						"createItem(string,uint256)": "infinite",
						"items(uint256)": "infinite"
					}
				},
				"methodIdentifiers": {
					"createItem(string,uint256)": "8c551742",
					"items(uint256)": "bfb231d2"
				}
			},
			"storageLayout": {
				"storage": [
					{
						"astId": 18,
						"contract": "contracts/EventTrigger.sol:ItemManager",
						"label": "items",
						"offset": 0,
						"slot": "0",
						"type": "t_mapping(t_uint256,t_struct(S_Item)13_storage)"
					},
					{
						"astId": 20,
						"contract": "contracts/EventTrigger.sol:ItemManager",
						"label": "index",
						"offset": 0,
						"slot": "1",
						"type": "t_uint256"
					}
				],
				"types": {
					"t_enum(SupplyChainSteps)5": {
						"encoding": "inplace",
						"label": "enum ItemManager.SupplyChainSteps",
						"numberOfBytes": "1"
					},
					"t_mapping(t_uint256,t_struct(S_Item)13_storage)": {
						"encoding": "mapping",
						"key": "t_uint256",
						"label": "mapping(uint256 => struct ItemManager.S_Item)",
						"numberOfBytes": "32",
						"value": "t_struct(S_Item)13_storage"
					},
					"t_string_storage": {
						"encoding": "bytes",
						"label": "string",
						"numberOfBytes": "32"
					},
					"t_struct(S_Item)13_storage": {
						"encoding": "inplace",
						"label": "struct ItemManager.S_Item",
						"members": [
							{
								"astId": 8,
								"contract": "contracts/EventTrigger.sol:ItemManager",
								"label": "_step",
								"offset": 0,
								"slot": "0",
								"type": "t_enum(SupplyChainSteps)5"
							},
							{
								"astId": 10,
								"contract": "contracts/EventTrigger.sol:ItemManager",
								"label": "identifier",
								"offset": 0,
								"slot": "1",
								"type": "t_string_storage"
							},
							{
								"astId": 12,
								"contract": "contracts/EventTrigger.sol:ItemManager",
								"label": "priceInWei",
								"offset": 0,
								"slot": "2",
								"type": "t_uint256"
							}
						],
						"numberOfBytes": "96"
					},
					"t_uint256": {
						"encoding": "inplace",
						"label": "uint256",
						"numberOfBytes": "32"
					}
				}
			},
			"userdoc": {
				"kind": "user",
				"methods": {},
				"version": 1
			}
		}
	}
}