{
	"contracts/DepositWithdraw.sol": {
		"DepositWithdraw": {
			"abi": [
				{
					"inputs": [],
					"name": "deposit",
					"outputs": [],
					"stateMutability": "payable",
					"type": "function"
				},
				{
					"inputs": [],
					"name": "withdrawMoney",
					"outputs": [],
					"stateMutability": "nonpayable",
					"type": "function"
				}
			],
			"devdoc": {
				"kind": "dev",
				"methods": {},
				"version": 1
			},
			"evm": {
				"assembly": "    /* \"contracts/DepositWithdraw.sol\":59:274  contract DepositWithdraw{\r... */\n  mstore(0x40, 0x80)\n  callvalue\n  dup1\n  iszero\n  tag_1\n  jumpi\n  0x00\n  dup1\n  revert\ntag_1:\n  pop\n  dataSize(sub_0)\n  dup1\n  dataOffset(sub_0)\n  0x00\n  codecopy\n  0x00\n  return\nstop\n\nsub_0: assembly {\n        /* \"contracts/DepositWithdraw.sol\":59:274  contract DepositWithdraw{\r... */\n      mstore(0x40, 0x80)\n      jumpi(tag_1, lt(calldatasize, 0x04))\n      shr(0xe0, calldataload(0x00))\n      dup1\n      0xac446002\n      eq\n      tag_2\n      jumpi\n      dup1\n      0xd0e30db0\n      eq\n      tag_3\n      jumpi\n    tag_1:\n      0x00\n      dup1\n      revert\n        /* \"contracts/DepositWithdraw.sol\":238:271  function withdrawMoney() public{} */\n    tag_2:\n      callvalue\n      dup1\n      iszero\n      tag_4\n      jumpi\n      0x00\n      dup1\n      revert\n    tag_4:\n      pop\n      tag_5\n      tag_6\n      jump\t// in\n    tag_5:\n      stop\n        /* \"contracts/DepositWithdraw.sol\":140:230  function deposit() payable public{\r... */\n    tag_3:\n      tag_7\n      tag_8\n      jump\t// in\n    tag_7:\n      stop\n        /* \"contracts/DepositWithdraw.sol\":238:271  function withdrawMoney() public{} */\n    tag_6:\n      jump\t// out\n        /* \"contracts/DepositWithdraw.sol\":140:230  function deposit() payable public{\r... */\n    tag_8:\n        /* \"contracts/DepositWithdraw.sol\":213:222  msg.value */\n      callvalue\n        /* \"contracts/DepositWithdraw.sol\":184:197  depositAmount */\n      0x00\n        /* \"contracts/DepositWithdraw.sol\":184:209  depositAmount[msg.sender] */\n      dup1\n        /* \"contracts/DepositWithdraw.sol\":198:208  msg.sender */\n      caller\n        /* \"contracts/DepositWithdraw.sol\":184:209  depositAmount[msg.sender] */\n      0xffffffffffffffffffffffffffffffffffffffff\n      and\n      0xffffffffffffffffffffffffffffffffffffffff\n      and\n      dup2\n      mstore\n      0x20\n      add\n      swap1\n      dup2\n      mstore\n      0x20\n      add\n      0x00\n      keccak256\n      0x00\n        /* \"contracts/DepositWithdraw.sol\":184:222  depositAmount[msg.sender] += msg.value */\n      dup3\n      dup3\n      sload\n      tag_11\n      swap2\n      swap1\n      tag_12\n      jump\t// in\n    tag_11:\n      swap3\n      pop\n      pop\n      dup2\n      swap1\n      sstore\n      pop\n        /* \"contracts/DepositWithdraw.sol\":140:230  function deposit() payable public{\r... */\n      jump\t// out\n        /* \"#utility.yul\":7:312   */\n    tag_12:\n        /* \"#utility.yul\":47:50   */\n      0x00\n        /* \"#utility.yul\":66:86   */\n      tag_15\n        /* \"#utility.yul\":84:85   */\n      dup3\n        /* \"#utility.yul\":66:86   */\n      tag_16\n      jump\t// in\n    tag_15:\n        /* \"#utility.yul\":61:86   */\n      swap2\n      pop\n        /* \"#utility.yul\":100:120   */\n      tag_17\n        /* \"#utility.yul\":118:119   */\n      dup4\n        /* \"#utility.yul\":100:120   */\n      tag_16\n      jump\t// in\n    tag_17:\n        /* \"#utility.yul\":95:120   */\n      swap3\n      pop\n        /* \"#utility.yul\":254:255   */\n      dup3\n        /* \"#utility.yul\":186:252   */\n      0xffffffffffffffffffffffffffffffffffffffffffffffffffffffffffffffff\n        /* \"#utility.yul\":182:256   */\n      sub\n        /* \"#utility.yul\":179:180   */\n      dup3\n        /* \"#utility.yul\":176:257   */\n      gt\n        /* \"#utility.yul\":173:280   */\n      iszero\n      tag_18\n      jumpi\n        /* \"#utility.yul\":260:278   */\n      tag_19\n      tag_20\n      jump\t// in\n    tag_19:\n        /* \"#utility.yul\":173:280   */\n    tag_18:\n        /* \"#utility.yul\":304:305   */\n      dup3\n        /* \"#utility.yul\":301:302   */\n      dup3\n        /* \"#utility.yul\":297:306   */\n      add\n        /* \"#utility.yul\":290:306   */\n      swap1\n      pop\n        /* \"#utility.yul\":7:312   */\n      swap3\n      swap2\n      pop\n      pop\n      jump\t// out\n        /* \"#utility.yul\":318:395   */\n    tag_16:\n        /* \"#utility.yul\":355:362   */\n      0x00\n        /* \"#utility.yul\":384:389   */\n      dup2\n        /* \"#utility.yul\":373:389   */\n      swap1\n      pop\n        /* \"#utility.yul\":318:395   */\n      swap2\n      swap1\n      pop\n      jump\t// out\n        /* \"#utility.yul\":401:581   */\n    tag_20:\n        /* \"#utility.yul\":449:526   */\n      0x4e487b7100000000000000000000000000000000000000000000000000000000\n        /* \"#utility.yul\":446:447   */\n      0x00\n        /* \"#utility.yul\":439:527   */\n      mstore\n        /* \"#utility.yul\":546:550   */\n      0x11\n        /* \"#utility.yul\":543:544   */\n      0x04\n        /* \"#utility.yul\":536:551   */\n      mstore\n        /* \"#utility.yul\":570:574   */\n      0x24\n        /* \"#utility.yul\":567:568   */\n      0x00\n        /* \"#utility.yul\":560:575   */\n      revert\n\n    auxdata: 0xa2646970667358221220dbc5beee74f6789b9e2798441b69766107b48fe3dc512c56eb4dfe959a7a946564736f6c63430008070033\n}\n",
				"bytecode": {
					"linkReferences": {},
					"object": "608060405234801561001057600080fd5b5061016d806100206000396000f3fe6080604052600436106100295760003560e01c8063ac4460021461002e578063d0e30db014610045575b600080fd5b34801561003a57600080fd5b5061004361004f565b005b61004d610051565b005b565b346000803373ffffffffffffffffffffffffffffffffffffffff1673ffffffffffffffffffffffffffffffffffffffff168152602001908152602001600020600082825461009f91906100a8565b92505081905550565b60006100b3826100fe565b91506100be836100fe565b9250827fffffffffffffffffffffffffffffffffffffffffffffffffffffffffffffffff038211156100f3576100f2610108565b5b828201905092915050565b6000819050919050565b7f4e487b7100000000000000000000000000000000000000000000000000000000600052601160045260246000fdfea2646970667358221220dbc5beee74f6789b9e2798441b69766107b48fe3dc512c56eb4dfe959a7a946564736f6c63430008070033",
					"opcodes": "PUSH1 0x80 PUSH1 0x40 MSTORE CALLVALUE DUP1 ISZERO PUSH2 0x10 JUMPI PUSH1 0x0 DUP1 REVERT JUMPDEST POP PUSH2 0x16D DUP1 PUSH2 0x20 PUSH1 0x0 CODECOPY PUSH1 0x0 RETURN INVALID PUSH1 0x80 PUSH1 0x40 MSTORE PUSH1 0x4 CALLDATASIZE LT PUSH2 0x29 JUMPI PUSH1 0x0 CALLDATALOAD PUSH1 0xE0 SHR DUP1 PUSH4 0xAC446002 EQ PUSH2 0x2E JUMPI DUP1 PUSH4 0xD0E30DB0 EQ PUSH2 0x45 JUMPI JUMPDEST PUSH1 0x0 DUP1 REVERT JUMPDEST CALLVALUE DUP1 ISZERO PUSH2 0x3A JUMPI PUSH1 0x0 DUP1 REVERT JUMPDEST POP PUSH2 0x43 PUSH2 0x4F JUMP JUMPDEST STOP JUMPDEST PUSH2 0x4D PUSH2 0x51 JUMP JUMPDEST STOP JUMPDEST JUMP JUMPDEST CALLVALUE PUSH1 0x0 DUP1 CALLER PUSH20 0xFFFFFFFFFFFFFFFFFFFFFFFFFFFFFFFFFFFFFFFF AND PUSH20 0xFFFFFFFFFFFFFFFFFFFFFFFFFFFFFFFFFFFFFFFF AND DUP2 MSTORE PUSH1 0x20 ADD SWAP1 DUP2 MSTORE PUSH1 0x20 ADD PUSH1 0x0 KECCAK256 PUSH1 0x0 DUP3 DUP3 SLOAD PUSH2 0x9F SWAP2 SWAP1 PUSH2 0xA8 JUMP JUMPDEST SWAP3 POP POP DUP2 SWAP1 SSTORE POP JUMP JUMPDEST PUSH1 0x0 PUSH2 0xB3 DUP3 PUSH2 0xFE JUMP JUMPDEST SWAP2 POP PUSH2 0xBE DUP4 PUSH2 0xFE JUMP JUMPDEST SWAP3 POP DUP3 PUSH32 0xFFFFFFFFFFFFFFFFFFFFFFFFFFFFFFFFFFFFFFFFFFFFFFFFFFFFFFFFFFFFFFFF SUB DUP3 GT ISZERO PUSH2 0xF3 JUMPI PUSH2 0xF2 PUSH2 0x108 JUMP JUMPDEST JUMPDEST DUP3 DUP3 ADD SWAP1 POP SWAP3 SWAP2 POP POP JUMP JUMPDEST PUSH1 0x0 DUP2 SWAP1 POP SWAP2 SWAP1 POP JUMP JUMPDEST PUSH32 0x4E487B7100000000000000000000000000000000000000000000000000000000 PUSH1 0x0 MSTORE PUSH1 0x11 PUSH1 0x4 MSTORE PUSH1 0x24 PUSH1 0x0 REVERT INVALID LOG2 PUSH5 0x6970667358 0x22 SLT KECCAK256 0xDB 0xC5 0xBE 0xEE PUSH21 0xF6789B9E2798441B69766107B48FE3DC512C56EB4D INVALID SWAP6 SWAP11 PUSH27 0x946564736F6C634300080700330000000000000000000000000000 "
				},
				"gasEstimates": {
					"creation": {
						"codeDepositCost": "73000",
						"executionCost": "123",
						"totalCost": "73123"
					},
					"external": {
						"deposit()": "infinite",
						"withdrawMoney()": "122"
					}
				},
				"methodIdentifiers": {
					"deposit()": "d0e30db0",
					"withdrawMoney()": "ac446002"
				}
			},
			"storageLayout": {
				"storage": [
					{
						"astId": 5,
						"contract": "contracts/DepositWithdraw.sol:DepositWithdraw",
						"label": "depositAmount",
						"offset": 0,
						"slot": "0",
						"type": "t_mapping(t_address,t_uint256)"
					}
				],
				"types": {
					"t_address": {
						"encoding": "inplace",
						"label": "address",
						"numberOfBytes": "20"
					},
					"t_mapping(t_address,t_uint256)": {
						"encoding": "mapping",
						"key": "t_address",
						"label": "mapping(address => uint256)",
						"numberOfBytes": "32",
						"value": "t_uint256"
					},
					"t_uint256": {
						"encoding": "inplace",
						"label": "uint256",
						"numberOfBytes": "32"
					}
				}
			},
			"userdoc": {
				"kind": "user",
				"methods": {},
				"version": 1
			}
		}
	}
}